{
  "contractName": "BridgeArbitrumL1Inbox",
  "abi": [
    {
      "inputs": [],
      "name": "bridge",
      "outputs": [
        {
          "internalType": "address",
          "name": "",
          "type": "address"
        }
      ],
      "stateMutability": "view",
      "type": "function"
    }
  ],
  "bytecode": "0x60a06040523373ffffffffffffffffffffffffffffffffffffffff1660809073ffffffffffffffffffffffffffffffffffffffff1681525034801561004357600080fd5b5060805160f761005c60003960006049015260f76000f3fe6080604052348015600f57600080fd5b506004361060285760003560e01c8063e78cea9214602d575b600080fd5b60336047565b604051603e919060a8565b60405180910390f35b7f000000000000000000000000000000000000000000000000000000000000000081565b600073ffffffffffffffffffffffffffffffffffffffff82169050919050565b6000609482606b565b9050919050565b60a281608b565b82525050565b600060208201905060bb6000830184609b565b9291505056fea264697066735822122008a32694bd78ea290ae31532ce05926c674c020efce1cbbfe0b60e581a60a3da64736f6c63430008130033",
  "immutableReferences": {
    "13344": [
      {
        "length": 32,
        "start": 73
      }
    ]
  },
  "source": "// SPDX-License-Identifier: MIT\n\npragma solidity ^0.8.0;\n\nimport \"../../utils/Address.sol\";\nimport \"../../vendor/polygon/IFxMessageProcessor.sol\";\n\nabstract contract BaseRelayMock {\n    // needed to parse custom errors\n    error NotCrossChainCall();\n    error InvalidCrossChainSender(address sender, address expected);\n\n    address internal _currentSender;\n\n    function relayAs(address target, bytes calldata data, address sender) external virtual {\n        address previousSender = _currentSender;\n\n        _currentSender = sender;\n\n        (bool success, bytes memory returndata) = target.call(data);\n        Address.verifyCallResultFromTarget(target, success, returndata, \"low-level call reverted\");\n\n        _currentSender = previousSender;\n    }\n}\n\n/**\n * AMB\n */\ncontract BridgeAMBMock is BaseRelayMock {\n    function messageSender() public view returns (address) {\n        return _currentSender;\n    }\n}\n\n/**\n * Arbitrum\n */\ncontract BridgeArbitrumL1Mock is BaseRelayMock {\n    /// @custom:oz-upgrades-unsafe-allow state-variable-immutable state-variable-assignment\n    address public immutable inbox = address(new BridgeArbitrumL1Inbox());\n    /// @custom:oz-upgrades-unsafe-allow state-variable-immutable state-variable-assignment\n    address public immutable outbox = address(new BridgeArbitrumL1Outbox());\n\n    function activeOutbox() public view returns (address) {\n        return outbox;\n    }\n\n    function currentSender() public view returns (address) {\n        return _currentSender;\n    }\n}\n\ncontract BridgeArbitrumL1Inbox {\n    /// @custom:oz-upgrades-unsafe-allow state-variable-immutable state-variable-assignment\n    address public immutable bridge = msg.sender;\n}\n\ncontract BridgeArbitrumL1Outbox {\n    /// @custom:oz-upgrades-unsafe-allow state-variable-immutable state-variable-assignment\n    address public immutable bridge = msg.sender;\n\n    function l2ToL1Sender() public view returns (address) {\n        return BridgeArbitrumL1Mock(bridge).currentSender();\n    }\n}\n\ncontract BridgeArbitrumL2Mock is BaseRelayMock {\n    function wasMyCallersAddressAliased() public view returns (bool) {\n        return _currentSender != address(0);\n    }\n\n    function myCallersAddressWithoutAliasing() public view returns (address) {\n        return _currentSender;\n    }\n}\n\n/**\n * Optimism\n */\ncontract BridgeOptimismMock is BaseRelayMock {\n    function xDomainMessageSender() public view returns (address) {\n        return _currentSender;\n    }\n}\n\n/**\n * Polygon\n */\ncontract BridgePolygonChildMock is BaseRelayMock {\n    function relayAs(address target, bytes calldata data, address sender) external override {\n        IFxMessageProcessor(target).processMessageFromRoot(0, sender, data);\n    }\n}\n",
  "sourcePath": "/Users/urieltan/gitclones/ft5004/nft-project/contracts/openzeppelin-contracts-master/contracts/mocks/crosschain/bridges.sol",
  "compiler": {
    "name": "solc",
    "version": "0.8.19+commit.7dd6d404.Emscripten.clang"
  },
  "schemaVersion": "3.4.13",
  "updatedAt": "2023-04-18T20:14:33.690Z",
  "devdoc": {
    "kind": "dev",
    "methods": {},
    "stateVariables": {
      "bridge": {
        "custom:oz-upgrades-unsafe-allow": "state-variable-immutable state-variable-assignment"
      }
    },
    "version": 1
  },
  "userdoc": {
    "kind": "user",
    "methods": {},
    "version": 1
  }
}