{
  "contractName": "BridgeOptimismMock",
  "abi": [
    {
      "inputs": [
        {
          "internalType": "address",
          "name": "sender",
          "type": "address"
        },
        {
          "internalType": "address",
          "name": "expected",
          "type": "address"
        }
      ],
      "name": "InvalidCrossChainSender",
      "type": "error"
    },
    {
      "inputs": [],
      "name": "NotCrossChainCall",
      "type": "error"
    },
    {
      "inputs": [
        {
          "internalType": "address",
          "name": "target",
          "type": "address"
        },
        {
          "internalType": "bytes",
          "name": "data",
          "type": "bytes"
        },
        {
          "internalType": "address",
          "name": "sender",
          "type": "address"
        }
      ],
      "name": "relayAs",
      "outputs": [],
      "stateMutability": "nonpayable",
      "type": "function"
    },
    {
      "inputs": [],
      "name": "xDomainMessageSender",
      "outputs": [
        {
          "internalType": "address",
          "name": "",
          "type": "address"
        }
      ],
      "stateMutability": "view",
      "type": "function"
    }
  ],
  "bytecode": "0x608060405234801561001057600080fd5b506105ff806100206000396000f3fe608060405234801561001057600080fd5b50600436106100365760003560e01c80636e296e451461003b578063fb417a5b14610059575b600080fd5b610043610075565b6040516100509190610329565b60405180910390f35b610073600480360381019061006e91906103df565b61009e565b005b60008060009054906101000a900473ffffffffffffffffffffffffffffffffffffffff16905090565b60008060009054906101000a900473ffffffffffffffffffffffffffffffffffffffff169050816000806101000a81548173ffffffffffffffffffffffffffffffffffffffff021916908373ffffffffffffffffffffffffffffffffffffffff1602179055506000808673ffffffffffffffffffffffffffffffffffffffff16868660405161012e929190610492565b6000604051808303816000865af19150503d806000811461016b576040519150601f19603f3d011682016040523d82523d6000602084013e610170565b606091505b50915091506101b68783836040518060400160405280601781526020017f6c6f772d6c6576656c2063616c6c207265766572746564000000000000000000815250610200565b50826000806101000a81548173ffffffffffffffffffffffffffffffffffffffff021916908373ffffffffffffffffffffffffffffffffffffffff16021790555050505050505050565b6060831561026257600083510361025a5761021a85610275565b610259576040517f08c379a000000000000000000000000000000000000000000000000000000000815260040161025090610508565b60405180910390fd5b5b82905061026d565b61026c8383610298565b5b949350505050565b6000808273ffffffffffffffffffffffffffffffffffffffff163b119050919050565b6000825111156102ab5781518083602001fd5b806040517f08c379a00000000000000000000000000000000000000000000000000000000081526004016102df91906105a7565b60405180910390fd5b600073ffffffffffffffffffffffffffffffffffffffff82169050919050565b6000610313826102e8565b9050919050565b61032381610308565b82525050565b600060208201905061033e600083018461031a565b92915050565b600080fd5b600080fd5b61035781610308565b811461036257600080fd5b50565b6000813590506103748161034e565b92915050565b600080fd5b600080fd5b600080fd5b60008083601f84011261039f5761039e61037a565b5b8235905067ffffffffffffffff8111156103bc576103bb61037f565b5b6020830191508360018202830111156103d8576103d7610384565b5b9250929050565b600080600080606085870312156103f9576103f8610344565b5b600061040787828801610365565b945050602085013567ffffffffffffffff81111561042857610427610349565b5b61043487828801610389565b9350935050604061044787828801610365565b91505092959194509250565b600081905092915050565b82818337600083830152505050565b60006104798385610453565b935061048683858461045e565b82840190509392505050565b600061049f82848661046d565b91508190509392505050565b600082825260208201905092915050565b7f416464726573733a2063616c6c20746f206e6f6e2d636f6e7472616374000000600082015250565b60006104f2601d836104ab565b91506104fd826104bc565b602082019050919050565b60006020820190508181036000830152610521816104e5565b9050919050565b600081519050919050565b60005b83811015610551578082015181840152602081019050610536565b60008484015250505050565b6000601f19601f8301169050919050565b600061057982610528565b61058381856104ab565b9350610593818560208601610533565b61059c8161055d565b840191505092915050565b600060208201905081810360008301526105c1818461056e565b90509291505056fea2646970667358221220aec6b2432bd6dafbdd1770472a0a15de7688c389da9eac60da2b06245f32735264736f6c63430008130033",
  "immutableReferences": {},
  "source": "// SPDX-License-Identifier: MIT\n\npragma solidity ^0.8.0;\n\nimport \"../../utils/Address.sol\";\nimport \"../../vendor/polygon/IFxMessageProcessor.sol\";\n\nabstract contract BaseRelayMock {\n    // needed to parse custom errors\n    error NotCrossChainCall();\n    error InvalidCrossChainSender(address sender, address expected);\n\n    address internal _currentSender;\n\n    function relayAs(address target, bytes calldata data, address sender) external virtual {\n        address previousSender = _currentSender;\n\n        _currentSender = sender;\n\n        (bool success, bytes memory returndata) = target.call(data);\n        Address.verifyCallResultFromTarget(target, success, returndata, \"low-level call reverted\");\n\n        _currentSender = previousSender;\n    }\n}\n\n/**\n * AMB\n */\ncontract BridgeAMBMock is BaseRelayMock {\n    function messageSender() public view returns (address) {\n        return _currentSender;\n    }\n}\n\n/**\n * Arbitrum\n */\ncontract BridgeArbitrumL1Mock is BaseRelayMock {\n    /// @custom:oz-upgrades-unsafe-allow state-variable-immutable state-variable-assignment\n    address public immutable inbox = address(new BridgeArbitrumL1Inbox());\n    /// @custom:oz-upgrades-unsafe-allow state-variable-immutable state-variable-assignment\n    address public immutable outbox = address(new BridgeArbitrumL1Outbox());\n\n    function activeOutbox() public view returns (address) {\n        return outbox;\n    }\n\n    function currentSender() public view returns (address) {\n        return _currentSender;\n    }\n}\n\ncontract BridgeArbitrumL1Inbox {\n    /// @custom:oz-upgrades-unsafe-allow state-variable-immutable state-variable-assignment\n    address public immutable bridge = msg.sender;\n}\n\ncontract BridgeArbitrumL1Outbox {\n    /// @custom:oz-upgrades-unsafe-allow state-variable-immutable state-variable-assignment\n    address public immutable bridge = msg.sender;\n\n    function l2ToL1Sender() public view returns (address) {\n        return BridgeArbitrumL1Mock(bridge).currentSender();\n    }\n}\n\ncontract BridgeArbitrumL2Mock is BaseRelayMock {\n    function wasMyCallersAddressAliased() public view returns (bool) {\n        return _currentSender != address(0);\n    }\n\n    function myCallersAddressWithoutAliasing() public view returns (address) {\n        return _currentSender;\n    }\n}\n\n/**\n * Optimism\n */\ncontract BridgeOptimismMock is BaseRelayMock {\n    function xDomainMessageSender() public view returns (address) {\n        return _currentSender;\n    }\n}\n\n/**\n * Polygon\n */\ncontract BridgePolygonChildMock is BaseRelayMock {\n    function relayAs(address target, bytes calldata data, address sender) external override {\n        IFxMessageProcessor(target).processMessageFromRoot(0, sender, data);\n    }\n}\n",
  "sourcePath": "/Users/urieltan/gitclones/ft5004/nft-project/contracts/openzeppelin-contracts-master/contracts/mocks/crosschain/bridges.sol",
  "compiler": {
    "name": "solc",
    "version": "0.8.19+commit.7dd6d404.Emscripten.clang"
  },
  "schemaVersion": "3.4.13",
  "updatedAt": "2023-04-18T20:14:33.694Z",
  "devdoc": {
    "kind": "dev",
    "methods": {},
    "version": 1
  },
  "userdoc": {
    "kind": "user",
    "methods": {},
    "notice": "Optimism",
    "version": 1
  }
}