{
  "contractName": "CallReceiverMock",
  "abi": [
    {
      "anonymous": false,
      "inputs": [],
      "name": "MockFunctionCalled",
      "type": "event"
    },
    {
      "anonymous": false,
      "inputs": [
        {
          "indexed": false,
          "internalType": "uint256",
          "name": "a",
          "type": "uint256"
        },
        {
          "indexed": false,
          "internalType": "uint256",
          "name": "b",
          "type": "uint256"
        }
      ],
      "name": "MockFunctionCalledWithArgs",
      "type": "event"
    },
    {
      "inputs": [],
      "name": "mockFunction",
      "outputs": [
        {
          "internalType": "string",
          "name": "",
          "type": "string"
        }
      ],
      "stateMutability": "payable",
      "type": "function"
    },
    {
      "inputs": [
        {
          "internalType": "uint256",
          "name": "a",
          "type": "uint256"
        },
        {
          "internalType": "uint256",
          "name": "b",
          "type": "uint256"
        }
      ],
      "name": "mockFunctionWithArgs",
      "outputs": [
        {
          "internalType": "string",
          "name": "",
          "type": "string"
        }
      ],
      "stateMutability": "payable",
      "type": "function"
    },
    {
      "inputs": [],
      "name": "mockFunctionNonPayable",
      "outputs": [
        {
          "internalType": "string",
          "name": "",
          "type": "string"
        }
      ],
      "stateMutability": "nonpayable",
      "type": "function"
    },
    {
      "inputs": [],
      "name": "mockStaticFunction",
      "outputs": [
        {
          "internalType": "string",
          "name": "",
          "type": "string"
        }
      ],
      "stateMutability": "pure",
      "type": "function"
    },
    {
      "inputs": [],
      "name": "mockFunctionRevertsNoReason",
      "outputs": [],
      "stateMutability": "payable",
      "type": "function"
    },
    {
      "inputs": [],
      "name": "mockFunctionRevertsReason",
      "outputs": [],
      "stateMutability": "payable",
      "type": "function"
    },
    {
      "inputs": [],
      "name": "mockFunctionThrows",
      "outputs": [],
      "stateMutability": "payable",
      "type": "function"
    },
    {
      "inputs": [],
      "name": "mockFunctionOutOfGas",
      "outputs": [],
      "stateMutability": "payable",
      "type": "function"
    },
    {
      "inputs": [
        {
          "internalType": "bytes32",
          "name": "slot",
          "type": "bytes32"
        },
        {
          "internalType": "bytes32",
          "name": "value",
          "type": "bytes32"
        }
      ],
      "name": "mockFunctionWritesStorage",
      "outputs": [
        {
          "internalType": "string",
          "name": "",
          "type": "string"
        }
      ],
      "stateMutability": "nonpayable",
      "type": "function"
    }
  ],
  "bytecode": "0x608060405234801561001057600080fd5b50610710806100206000396000f3fe6080604052600436106100865760003560e01c80633e6fec04116100595780633e6fec04146100d4578063425397a2146100f2578063a793ab471461012f578063c8fc769614610139578063fdb273251461016457610086565b80630c0349681461008b5780630f63e42c146100955780632c81d638146100c05780633bcfaa14146100ca575b600080fd5b610093610194565b005b3480156100a157600080fd5b506100aa6101cf565b6040516100b7919061047d565b60405180910390f35b6100c8610238565b005b6100d261023d565b005b6100dc61024e565b6040516100e9919061047d565b60405180910390f35b3480156100fe57600080fd5b50610119600480360381019061011491906104da565b6102b7565b604051610126919061047d565b60405180910390f35b6101376102fa565b005b34801561014557600080fd5b5061014e610337565b60405161015b919061047d565b60405180910390f35b61017e60048036038101906101799190610550565b610374565b60405161018b919061047d565b60405180910390f35b6040517f08c379a00000000000000000000000000000000000000000000000000000000081526004016101c6906105dc565b60405180910390fd5b60607f52c66ed6ec9ca819cba26fe2b2650059270d8981b295af300187a964f54a8c2360405160405180910390a16040518060400160405280600681526020017f3078313233340000000000000000000000000000000000000000000000000000815250905090565b600080fd5b600061024c5761024b6105fc565b5b565b60607f52c66ed6ec9ca819cba26fe2b2650059270d8981b295af300187a964f54a8c2360405160405180910390a16040518060400160405280600681526020017f3078313233340000000000000000000000000000000000000000000000000000815250905090565b60608183556040518060400160405280600681526020017f3078313233340000000000000000000000000000000000000000000000000000815250905092915050565b60005b6000819080600181540180825580915050600190039060005260206000200160009091909190915055806103309061065a565b90506102fd565b60606040518060400160405280600681526020017f3078313233340000000000000000000000000000000000000000000000000000815250905090565b60607f2b42b3c9af4187c86225f201736204c7597312c830cb5c2537dff6ef24b946ae83836040516103a79291906106b1565b60405180910390a16040518060400160405280600681526020017f3078313233340000000000000000000000000000000000000000000000000000815250905092915050565b600081519050919050565b600082825260208201905092915050565b60005b8381101561042757808201518184015260208101905061040c565b60008484015250505050565b6000601f19601f8301169050919050565b600061044f826103ed565b61045981856103f8565b9350610469818560208601610409565b61047281610433565b840191505092915050565b600060208201905081810360008301526104978184610444565b905092915050565b600080fd5b6000819050919050565b6104b7816104a4565b81146104c257600080fd5b50565b6000813590506104d4816104ae565b92915050565b600080604083850312156104f1576104f061049f565b5b60006104ff858286016104c5565b9250506020610510858286016104c5565b9150509250929050565b6000819050919050565b61052d8161051a565b811461053857600080fd5b50565b60008135905061054a81610524565b92915050565b600080604083850312156105675761056661049f565b5b60006105758582860161053b565b92505060206105868582860161053b565b9150509250929050565b7f43616c6c52656365697665724d6f636b3a20726576657274696e670000000000600082015250565b60006105c6601b836103f8565b91506105d182610590565b602082019050919050565b600060208201905081810360008301526105f5816105b9565b9050919050565b7f4e487b7100000000000000000000000000000000000000000000000000000000600052600160045260246000fd5b7f4e487b7100000000000000000000000000000000000000000000000000000000600052601160045260246000fd5b60006106658261051a565b91507fffffffffffffffffffffffffffffffffffffffffffffffffffffffffffffffff82036106975761069661062b565b5b600182019050919050565b6106ab8161051a565b82525050565b60006040820190506106c660008301856106a2565b6106d360208301846106a2565b939250505056fea2646970667358221220dbce1ff27a37a92accf1d4843ae008f139f5051ddd0ba5d1c6ecfe41a156ac5e64736f6c63430008130033",
  "immutableReferences": {},
  "source": "// SPDX-License-Identifier: MIT\n\npragma solidity ^0.8.0;\n\ncontract CallReceiverMock {\n    event MockFunctionCalled();\n    event MockFunctionCalledWithArgs(uint256 a, uint256 b);\n\n    uint256[] private _array;\n\n    function mockFunction() public payable returns (string memory) {\n        emit MockFunctionCalled();\n\n        return \"0x1234\";\n    }\n\n    function mockFunctionWithArgs(uint256 a, uint256 b) public payable returns (string memory) {\n        emit MockFunctionCalledWithArgs(a, b);\n\n        return \"0x1234\";\n    }\n\n    function mockFunctionNonPayable() public returns (string memory) {\n        emit MockFunctionCalled();\n\n        return \"0x1234\";\n    }\n\n    function mockStaticFunction() public pure returns (string memory) {\n        return \"0x1234\";\n    }\n\n    function mockFunctionRevertsNoReason() public payable {\n        revert();\n    }\n\n    function mockFunctionRevertsReason() public payable {\n        revert(\"CallReceiverMock: reverting\");\n    }\n\n    function mockFunctionThrows() public payable {\n        assert(false);\n    }\n\n    function mockFunctionOutOfGas() public payable {\n        for (uint256 i = 0; ; ++i) {\n            _array.push(i);\n        }\n    }\n\n    function mockFunctionWritesStorage(bytes32 slot, bytes32 value) public returns (string memory) {\n        assembly {\n            sstore(slot, value)\n        }\n        return \"0x1234\";\n    }\n}\n",
  "sourcePath": "/Users/urieltan/gitclones/ft5004/nft-project/contracts/openzeppelin-contracts-master/contracts/mocks/CallReceiverMock.sol",
  "compiler": {
    "name": "solc",
    "version": "0.8.19+commit.7dd6d404.Emscripten.clang"
  },
  "schemaVersion": "3.4.13",
  "updatedAt": "2023-04-18T20:14:33.622Z",
  "devdoc": {
    "kind": "dev",
    "methods": {},
    "version": 1
  },
  "userdoc": {
    "kind": "user",
    "methods": {},
    "version": 1
  }
}