{
  "contractName": "ChildConstructorInitializableMock",
  "abi": [
    {
      "inputs": [],
      "stateMutability": "nonpayable",
      "type": "constructor"
    },
    {
      "anonymous": false,
      "inputs": [
        {
          "indexed": false,
          "internalType": "uint8",
          "name": "version",
          "type": "uint8"
        }
      ],
      "name": "Initialized",
      "type": "event"
    },
    {
      "inputs": [],
      "name": "childInitializerRan",
      "outputs": [
        {
          "internalType": "bool",
          "name": "",
          "type": "bool"
        }
      ],
      "stateMutability": "view",
      "type": "function"
    },
    {
      "inputs": [],
      "name": "initialize",
      "outputs": [],
      "stateMutability": "nonpayable",
      "type": "function"
    },
    {
      "inputs": [],
      "name": "initializeOnlyInitializing",
      "outputs": [],
      "stateMutability": "nonpayable",
      "type": "function"
    },
    {
      "inputs": [],
      "name": "initializerRan",
      "outputs": [
        {
          "internalType": "bool",
          "name": "",
          "type": "bool"
        }
      ],
      "stateMutability": "view",
      "type": "function"
    },
    {
      "inputs": [],
      "name": "onlyInitializingRan",
      "outputs": [
        {
          "internalType": "bool",
          "name": "",
          "type": "bool"
        }
      ],
      "stateMutability": "view",
      "type": "function"
    },
    {
      "inputs": [],
      "name": "childInitialize",
      "outputs": [],
      "stateMutability": "nonpayable",
      "type": "function"
    }
  ],
  "bytecode": "0x60806040523480156200001157600080fd5b5060008060019054906101000a900460ff16159050808015620000445750600160008054906101000a900460ff1660ff16105b806200007b57506200005c30620002d460201b60201c565b1580156200007a5750600160008054906101000a900460ff1660ff16145b5b620000bd576040517f08c379a0000000000000000000000000000000000000000000000000000000008152600401620000b490620006b3565b60405180910390fd5b60016000806101000a81548160ff021916908360ff1602179055508015620000fb576001600060016101000a81548160ff0219169083151502179055505b6200010b620002f760201b60201c565b6200011b6200045a60201b60201c565b8015620001775760008060016101000a81548160ff0219169083151502179055507f7f26b83ff96e1f2b6a682f133852f6798a09c465da95921460cefb384740249860016040516200016e91906200072f565b60405180910390a15b5060008060019054906101000a900460ff16159050808015620001aa5750600160008054906101000a900460ff1660ff16105b80620001e15750620001c230620002d460201b60201c565b158015620001e05750600160008054906101000a900460ff1660ff16145b5b62000223576040517f08c379a00000000000000000000000000000000000000000000000000000000081526004016200021a90620006b3565b60405180910390fd5b60016000806101000a81548160ff021916908360ff160217905550801562000261576001600060016101000a81548160ff0219169083151502179055505b62000271620004c960201b60201c565b8015620002cd5760008060016101000a81548160ff0219169083151502179055507f7f26b83ff96e1f2b6a682f133852f6798a09c465da95921460cefb38474024986001604051620002c491906200072f565b60405180910390a15b50620007e4565b6000808273ffffffffffffffffffffffffffffffffffffffff163b119050919050565b60008060019054906101000a900460ff16159050808015620003295750600160008054906101000a900460ff1660ff16105b806200036057506200034130620002d460201b60201c565b1580156200035f5750600160008054906101000a900460ff1660ff16145b5b620003a2576040517f08c379a00000000000000000000000000000000000000000000000000000000081526004016200039990620006b3565b60405180910390fd5b60016000806101000a81548160ff021916908360ff1602179055508015620003e0576001600060016101000a81548160ff0219169083151502179055505b6001600060026101000a81548160ff0219169083151502179055508015620004575760008060016101000a81548160ff0219169083151502179055507f7f26b83ff96e1f2b6a682f133852f6798a09c465da95921460cefb384740249860016040516200044e91906200072f565b60405180910390a15b50565b600060019054906101000a900460ff16620004ac576040517f08c379a0000000000000000000000000000000000000000000000000000000008152600401620004a390620007c2565b60405180910390fd5b6001600060036101000a81548160ff021916908315150217905550565b60008060019054906101000a900460ff16159050808015620004fb5750600160008054906101000a900460ff1660ff16105b806200053257506200051330620002d460201b60201c565b158015620005315750600160008054906101000a900460ff1660ff16145b5b62000574576040517f08c379a00000000000000000000000000000000000000000000000000000000081526004016200056b90620006b3565b60405180910390fd5b60016000806101000a81548160ff021916908360ff1602179055508015620005b2576001600060016101000a81548160ff0219169083151502179055505b6001600060046101000a81548160ff0219169083151502179055508015620006295760008060016101000a81548160ff0219169083151502179055507f7f26b83ff96e1f2b6a682f133852f6798a09c465da95921460cefb384740249860016040516200062091906200072f565b60405180910390a15b50565b600082825260208201905092915050565b7f496e697469616c697a61626c653a20636f6e747261637420697320616c72656160008201527f647920696e697469616c697a6564000000000000000000000000000000000000602082015250565b60006200069b602e836200062c565b9150620006a8826200063d565b604082019050919050565b60006020820190508181036000830152620006ce816200068c565b9050919050565b6000819050919050565b600060ff82169050919050565b6000819050919050565b600062000717620007116200070b84620006d5565b620006ec565b620006df565b9050919050565b6200072981620006f6565b82525050565b60006020820190506200074660008301846200071e565b92915050565b7f496e697469616c697a61626c653a20636f6e7472616374206973206e6f74206960008201527f6e697469616c697a696e67000000000000000000000000000000000000000000602082015250565b6000620007aa602b836200062c565b9150620007b7826200074c565b604082019050919050565b60006020820190508181036000830152620007dd816200079b565b9050919050565b61065780620007f46000396000f3fe608060405234801561001057600080fd5b50600436106100625760003560e01c806310065ed2146100675780637cffe97a146100715780638129fc1c1461008f578063b23d810b14610099578063c3b8ef2a146100b7578063de74c703146100d5575b600080fd5b61006f6100df565b005b61007961014b565b6040516100869190610464565b60405180910390f35b61009761015e565b005b6100a16102af565b6040516100ae9190610464565b60405180910390f35b6100bf6102c2565b6040516100cc9190610464565b60405180910390f35b6100dd6102d5565b005b600060019054906101000a900460ff1661012e576040517f08c379a000000000000000000000000000000000000000000000000000000000815260040161012590610502565b60405180910390fd5b6001600060036101000a81548160ff021916908315150217905550565b600060039054906101000a900460ff1681565b60008060019054906101000a900460ff1615905080801561018f5750600160008054906101000a900460ff1660ff16105b806101bc575061019e30610426565b1580156101bb5750600160008054906101000a900460ff1660ff16145b5b6101fb576040517f08c379a00000000000000000000000000000000000000000000000000000000081526004016101f290610594565b60405180910390fd5b60016000806101000a81548160ff021916908360ff1602179055508015610238576001600060016101000a81548160ff0219169083151502179055505b6001600060026101000a81548160ff02191690831515021790555080156102ac5760008060016101000a81548160ff0219169083151502179055507f7f26b83ff96e1f2b6a682f133852f6798a09c465da95921460cefb384740249860016040516102a39190610606565b60405180910390a15b50565b600060049054906101000a900460ff1681565b600060029054906101000a900460ff1681565b60008060019054906101000a900460ff161590508080156103065750600160008054906101000a900460ff1660ff16105b80610333575061031530610426565b1580156103325750600160008054906101000a900460ff1660ff16145b5b610372576040517f08c379a000000000000000000000000000000000000000000000000000000000815260040161036990610594565b60405180910390fd5b60016000806101000a81548160ff021916908360ff16021790555080156103af576001600060016101000a81548160ff0219169083151502179055505b6001600060046101000a81548160ff02191690831515021790555080156104235760008060016101000a81548160ff0219169083151502179055507f7f26b83ff96e1f2b6a682f133852f6798a09c465da95921460cefb3847402498600160405161041a9190610606565b60405180910390a15b50565b6000808273ffffffffffffffffffffffffffffffffffffffff163b119050919050565b60008115159050919050565b61045e81610449565b82525050565b60006020820190506104796000830184610455565b92915050565b600082825260208201905092915050565b7f496e697469616c697a61626c653a20636f6e7472616374206973206e6f74206960008201527f6e697469616c697a696e67000000000000000000000000000000000000000000602082015250565b60006104ec602b8361047f565b91506104f782610490565b604082019050919050565b6000602082019050818103600083015261051b816104df565b9050919050565b7f496e697469616c697a61626c653a20636f6e747261637420697320616c72656160008201527f647920696e697469616c697a6564000000000000000000000000000000000000602082015250565b600061057e602e8361047f565b915061058982610522565b604082019050919050565b600060208201905081810360008301526105ad81610571565b9050919050565b6000819050919050565b600060ff82169050919050565b6000819050919050565b60006105f06105eb6105e6846105b4565b6105cb565b6105be565b9050919050565b610600816105d5565b82525050565b600060208201905061061b60008301846105f7565b9291505056fea26469706673582212204308164631676f982fc1a996e147d5bd39c37a0bffb06edfa825e018417a9a8564736f6c63430008130033",
  "immutableReferences": {},
  "source": "// SPDX-License-Identifier: MIT\n\npragma solidity ^0.8.0;\n\nimport \"../proxy/utils/Initializable.sol\";\n\n/**\n * @title InitializableMock\n * @dev This contract is a mock to test initializable functionality\n */\ncontract InitializableMock is Initializable {\n    bool public initializerRan;\n    bool public onlyInitializingRan;\n    uint256 public x;\n\n    function isInitializing() public view returns (bool) {\n        return _isInitializing();\n    }\n\n    function initialize() public initializer {\n        initializerRan = true;\n    }\n\n    function initializeOnlyInitializing() public onlyInitializing {\n        onlyInitializingRan = true;\n    }\n\n    function initializerNested() public initializer {\n        initialize();\n    }\n\n    function onlyInitializingNested() public initializer {\n        initializeOnlyInitializing();\n    }\n\n    function initializeWithX(uint256 _x) public payable initializer {\n        x = _x;\n    }\n\n    function nonInitializable(uint256 _x) public payable {\n        x = _x;\n    }\n\n    function fail() public pure {\n        require(false, \"InitializableMock forced failure\");\n    }\n}\n\ncontract ConstructorInitializableMock is Initializable {\n    bool public initializerRan;\n    bool public onlyInitializingRan;\n\n    constructor() initializer {\n        initialize();\n        initializeOnlyInitializing();\n    }\n\n    function initialize() public initializer {\n        initializerRan = true;\n    }\n\n    function initializeOnlyInitializing() public onlyInitializing {\n        onlyInitializingRan = true;\n    }\n}\n\ncontract ChildConstructorInitializableMock is ConstructorInitializableMock {\n    bool public childInitializerRan;\n\n    constructor() initializer {\n        childInitialize();\n    }\n\n    function childInitialize() public initializer {\n        childInitializerRan = true;\n    }\n}\n\ncontract ReinitializerMock is Initializable {\n    uint256 public counter;\n\n    function getInitializedVersion() public view returns (uint8) {\n        return _getInitializedVersion();\n    }\n\n    function initialize() public initializer {\n        doStuff();\n    }\n\n    function reinitialize(uint8 i) public reinitializer(i) {\n        doStuff();\n    }\n\n    function nestedReinitialize(uint8 i, uint8 j) public reinitializer(i) {\n        reinitialize(j);\n    }\n\n    function chainReinitialize(uint8 i, uint8 j) public {\n        reinitialize(i);\n        reinitialize(j);\n    }\n\n    function disableInitializers() public {\n        _disableInitializers();\n    }\n\n    function doStuff() public onlyInitializing {\n        counter++;\n    }\n}\n\ncontract DisableNew is Initializable {\n    constructor() {\n        _disableInitializers();\n    }\n}\n\ncontract DisableOld is Initializable {\n    constructor() initializer {}\n}\n\ncontract DisableBad1 is DisableNew, DisableOld {}\n\ncontract DisableBad2 is Initializable {\n    constructor() initializer {\n        _disableInitializers();\n    }\n}\n\ncontract DisableOk is DisableOld, DisableNew {}\n",
  "sourcePath": "/Users/urieltan/gitclones/ft5004/nft-project/contracts/openzeppelin-contracts-master/contracts/mocks/InitializableMock.sol",
  "compiler": {
    "name": "solc",
    "version": "0.8.19+commit.7dd6d404.Emscripten.clang"
  },
  "schemaVersion": "3.4.13",
  "updatedAt": "2023-04-18T20:14:33.646Z",
  "devdoc": {
    "events": {
      "Initialized(uint8)": {
        "details": "Triggered when the contract has been initialized or reinitialized."
      }
    },
    "kind": "dev",
    "methods": {},
    "version": 1
  },
  "userdoc": {
    "kind": "user",
    "methods": {},
    "version": 1
  }
}