{
  "contractName": "ClashingImplementation",
  "abi": [
    {
      "inputs": [],
      "name": "admin",
      "outputs": [
        {
          "internalType": "address",
          "name": "",
          "type": "address"
        }
      ],
      "stateMutability": "payable",
      "type": "function"
    },
    {
      "inputs": [],
      "name": "delegatedFunction",
      "outputs": [
        {
          "internalType": "bool",
          "name": "",
          "type": "bool"
        }
      ],
      "stateMutability": "pure",
      "type": "function"
    }
  ],
  "bytecode": "0x608060405234801561001057600080fd5b50610154806100206000396000f3fe6080604052600436106100295760003560e01c8063abf8e0e71461002e578063f851a44014610059575b600080fd5b34801561003a57600080fd5b50610043610077565b60405161005091906100a7565b60405180910390f35b610061610080565b60405161006e9190610103565b60405180910390f35b60006001905090565b60006311111142905090565b60008115159050919050565b6100a18161008c565b82525050565b60006020820190506100bc6000830184610098565b92915050565b600073ffffffffffffffffffffffffffffffffffffffff82169050919050565b60006100ed826100c2565b9050919050565b6100fd816100e2565b82525050565b600060208201905061011860008301846100f4565b9291505056fea2646970667358221220ac808b2928edfc46808fd925e69a280ff68dd32e4c17a90658836e9caea0afc464736f6c63430008130033",
  "immutableReferences": {},
  "source": "// SPDX-License-Identifier: MIT\n\npragma solidity ^0.8.0;\n\n/**\n * @dev Implementation contract with a payable admin() function made to clash with TransparentUpgradeableProxy's to\n * test correct functioning of the Transparent Proxy feature.\n */\ncontract ClashingImplementation {\n    function admin() external payable returns (address) {\n        return 0x0000000000000000000000000000000011111142;\n    }\n\n    function delegatedFunction() external pure returns (bool) {\n        return true;\n    }\n}\n",
  "sourcePath": "/Users/urieltan/gitclones/ft5004/nft-project/contracts/openzeppelin-contracts-master/contracts/mocks/proxy/ClashingImplementation.sol",
  "compiler": {
    "name": "solc",
    "version": "0.8.19+commit.7dd6d404.Emscripten.clang"
  },
  "schemaVersion": "3.4.13",
  "updatedAt": "2023-04-18T20:14:33.710Z",
  "devdoc": {
    "details": "Implementation contract with a payable admin() function made to clash with TransparentUpgradeableProxy's to test correct functioning of the Transparent Proxy feature.",
    "kind": "dev",
    "methods": {},
    "version": 1
  },
  "userdoc": {
    "kind": "user",
    "methods": {},
    "version": 1
  }
}