{
  "contractName": "CrossChainEnabledArbitrumL1Mock",
  "abi": [
    {
      "inputs": [
        {
          "internalType": "address",
          "name": "bridge",
          "type": "address"
        }
      ],
      "stateMutability": "nonpayable",
      "type": "constructor"
    },
    {
      "inputs": [
        {
          "internalType": "address",
          "name": "actual",
          "type": "address"
        },
        {
          "internalType": "address",
          "name": "expected",
          "type": "address"
        }
      ],
      "name": "InvalidCrossChainSender",
      "type": "error"
    },
    {
      "inputs": [],
      "name": "NotCrossChainCall",
      "type": "error"
    },
    {
      "inputs": [],
      "name": "crossChainOwnerRestricted",
      "outputs": [],
      "stateMutability": "nonpayable",
      "type": "function"
    },
    {
      "inputs": [],
      "name": "crossChainRestricted",
      "outputs": [],
      "stateMutability": "nonpayable",
      "type": "function"
    },
    {
      "inputs": [],
      "name": "owner",
      "outputs": [
        {
          "internalType": "address",
          "name": "",
          "type": "address"
        }
      ],
      "stateMutability": "view",
      "type": "function"
    }
  ],
  "bytecode": "0x60c06040523373ffffffffffffffffffffffffffffffffffffffff1660809073ffffffffffffffffffffffffffffffffffffffff1681525034801561004357600080fd5b5060405161070d38038061070d83398181016040528101906100659190610104565b808073ffffffffffffffffffffffffffffffffffffffff1660a08173ffffffffffffffffffffffffffffffffffffffff16815250505050610131565b600080fd5b600073ffffffffffffffffffffffffffffffffffffffff82169050919050565b60006100d1826100a6565b9050919050565b6100e1816100c6565b81146100ec57600080fd5b50565b6000815190506100fe816100d8565b92915050565b60006020828403121561011a576101196100a1565b5b6000610128848285016100ef565b91505092915050565b60805160a0516105ab6101626000396000818161018601526101f401526000818160ba015260de01526105ab6000f3fe608060405234801561001057600080fd5b50600436106100415760003560e01c80634b074af5146100465780638da5cb5b14610050578063f97f51891461006e575b600080fd5b61004e610078565b005b6100586100b8565b6040516100659190610430565b60405180910390f35b6100766100dc565b005b61008061017f565b6100b6576040517f4a74df9200000000000000000000000000000000000000000000000000000000815260040160405180910390fd5b565b7f000000000000000000000000000000000000000000000000000000000000000081565b7f000000000000000000000000000000000000000000000000000000000000000060006101076101af565b90508073ffffffffffffffffffffffffffffffffffffffff168273ffffffffffffffffffffffffffffffffffffffff161461017b5780826040517fef25d32b00000000000000000000000000000000000000000000000000000000815260040161017292919061044b565b60405180910390fd5b5050565b60006101aa7f000000000000000000000000000000000000000000000000000000000000000061021d565b905090565b60006101b961017f565b6101ef576040517f4a74df9200000000000000000000000000000000000000000000000000000000815260040160405180910390fd5b6102187f0000000000000000000000000000000000000000000000000000000000000000610255565b905090565b60008173ffffffffffffffffffffffffffffffffffffffff163373ffffffffffffffffffffffffffffffffffffffff16149050919050565b60006102608261021d565b610296576040517f4a74df9200000000000000000000000000000000000000000000000000000000815260040160405180910390fd5b60008273ffffffffffffffffffffffffffffffffffffffff1663ab5d89436040518163ffffffff1660e01b8152600401602060405180830381865afa1580156102e3573d6000803e3d6000fd5b505050506040513d601f19601f8201168201806040525081019061030791906104a5565b73ffffffffffffffffffffffffffffffffffffffff166380648b026040518163ffffffff1660e01b8152600401602060405180830381865afa158015610351573d6000803e3d6000fd5b505050506040513d601f19601f8201168201806040525081019061037591906104a5565b9050600073ffffffffffffffffffffffffffffffffffffffff168173ffffffffffffffffffffffffffffffffffffffff16036103e6576040517f08c379a00000000000000000000000000000000000000000000000000000000081526004016103dd90610555565b60405180910390fd5b80915050919050565b600073ffffffffffffffffffffffffffffffffffffffff82169050919050565b600061041a826103ef565b9050919050565b61042a8161040f565b82525050565b60006020820190506104456000830184610421565b92915050565b60006040820190506104606000830185610421565b61046d6020830184610421565b9392505050565b600080fd5b6104828161040f565b811461048d57600080fd5b50565b60008151905061049f81610479565b92915050565b6000602082840312156104bb576104ba610474565b5b60006104c984828501610490565b91505092915050565b600082825260208201905092915050565b7f4c6962417262697472756d4c313a2073797374656d206d65737361676573207760008201527f6974686f75742073656e64657200000000000000000000000000000000000000602082015250565b600061053f602d836104d2565b915061054a826104e3565b604082019050919050565b6000602082019050818103600083015261056e81610532565b905091905056fea2646970667358221220d542ebe70c65e441da86ea9e85cf9f136a5aeb51707c249a7ff5daf67f28648664736f6c63430008130033",
  "immutableReferences": {
    "1862": [
      {
        "length": 32,
        "start": 390
      },
      {
        "length": 32,
        "start": 500
      }
    ],
    "13438": [
      {
        "length": 32,
        "start": 186
      },
      {
        "length": 32,
        "start": 222
      }
    ]
  },
  "source": "// SPDX-License-Identifier: MIT\n\npragma solidity ^0.8.4;\n\nimport \"../../access/Ownable.sol\";\nimport \"../../crosschain/amb/CrossChainEnabledAMB.sol\";\nimport \"../../crosschain/arbitrum/CrossChainEnabledArbitrumL1.sol\";\nimport \"../../crosschain/arbitrum/CrossChainEnabledArbitrumL2.sol\";\nimport \"../../crosschain/optimism/CrossChainEnabledOptimism.sol\";\nimport \"../../crosschain/polygon/CrossChainEnabledPolygonChild.sol\";\n\nabstract contract Receiver is CrossChainEnabled {\n    // we don't use Ownable because it messes up testing for the upgradeable contracts\n    /// @custom:oz-upgrades-unsafe-allow state-variable-immutable state-variable-assignment\n    address public immutable owner = msg.sender;\n\n    function crossChainRestricted() external onlyCrossChain {}\n\n    function crossChainOwnerRestricted() external onlyCrossChainSender(owner) {}\n}\n\n/**\n * AMB\n */\ncontract CrossChainEnabledAMBMock is Receiver, CrossChainEnabledAMB {\n    /// @custom:oz-upgrades-unsafe-allow constructor\n    constructor(address bridge) CrossChainEnabledAMB(bridge) {}\n}\n\n/**\n * Arbitrum\n */\ncontract CrossChainEnabledArbitrumL1Mock is Receiver, CrossChainEnabledArbitrumL1 {\n    /// @custom:oz-upgrades-unsafe-allow constructor\n    constructor(address bridge) CrossChainEnabledArbitrumL1(bridge) {}\n}\n\ncontract CrossChainEnabledArbitrumL2Mock is Receiver, CrossChainEnabledArbitrumL2 {}\n\n/**\n * Optimism\n */\ncontract CrossChainEnabledOptimismMock is Receiver, CrossChainEnabledOptimism {\n    /// @custom:oz-upgrades-unsafe-allow constructor\n    constructor(address bridge) CrossChainEnabledOptimism(bridge) {}\n}\n\n/**\n * Polygon\n */\ncontract CrossChainEnabledPolygonChildMock is Receiver, CrossChainEnabledPolygonChild {\n    /// @custom:oz-upgrades-unsafe-allow constructor\n    constructor(address bridge) CrossChainEnabledPolygonChild(bridge) {}\n}\n",
  "sourcePath": "/Users/urieltan/gitclones/ft5004/nft-project/contracts/openzeppelin-contracts-master/contracts/mocks/crosschain/receivers.sol",
  "compiler": {
    "name": "solc",
    "version": "0.8.19+commit.7dd6d404.Emscripten.clang"
  },
  "schemaVersion": "3.4.13",
  "updatedAt": "2023-04-18T20:14:33.697Z",
  "devdoc": {
    "kind": "dev",
    "methods": {
      "constructor": {
        "custom:oz-upgrades-unsafe-allow": "constructor"
      }
    },
    "version": 1
  },
  "userdoc": {
    "kind": "user",
    "methods": {},
    "notice": "Arbitrum",
    "version": 1
  }
}