{
  "contractName": "ERC2771ContextMock",
  "abi": [
    {
      "inputs": [
        {
          "internalType": "address",
          "name": "trustedForwarder",
          "type": "address"
        }
      ],
      "stateMutability": "nonpayable",
      "type": "constructor"
    },
    {
      "anonymous": false,
      "inputs": [
        {
          "indexed": false,
          "internalType": "bytes",
          "name": "data",
          "type": "bytes"
        },
        {
          "indexed": false,
          "internalType": "uint256",
          "name": "integerValue",
          "type": "uint256"
        },
        {
          "indexed": false,
          "internalType": "string",
          "name": "stringValue",
          "type": "string"
        }
      ],
      "name": "Data",
      "type": "event"
    },
    {
      "anonymous": false,
      "inputs": [
        {
          "indexed": false,
          "internalType": "address",
          "name": "sender",
          "type": "address"
        }
      ],
      "name": "Sender",
      "type": "event"
    },
    {
      "inputs": [
        {
          "internalType": "address",
          "name": "forwarder",
          "type": "address"
        }
      ],
      "name": "isTrustedForwarder",
      "outputs": [
        {
          "internalType": "bool",
          "name": "",
          "type": "bool"
        }
      ],
      "stateMutability": "view",
      "type": "function"
    },
    {
      "inputs": [
        {
          "internalType": "uint256",
          "name": "integerValue",
          "type": "uint256"
        },
        {
          "internalType": "string",
          "name": "stringValue",
          "type": "string"
        }
      ],
      "name": "msgData",
      "outputs": [],
      "stateMutability": "nonpayable",
      "type": "function"
    },
    {
      "inputs": [],
      "name": "msgSender",
      "outputs": [],
      "stateMutability": "nonpayable",
      "type": "function"
    }
  ],
  "bytecode": "0x60a060405234801561001057600080fd5b50604051610916380380610916833981810160405281019061003291906101aa565b808073ffffffffffffffffffffffffffffffffffffffff1660808173ffffffffffffffffffffffffffffffffffffffff1681525050507fd6558c3ed910d959271054471fd1c326679d9fece99c5091b00ed89627cf2bfc6100976100b260201b60201c565b6040516100a491906101e6565b60405180910390a150610201565b60006100c26100c760201b60201c565b905090565b60006100d83361010560201b60201c565b156100ec57601436033560601c9050610101565b6100fa61013f60201b60201c565b9050610102565b5b90565b600060805173ffffffffffffffffffffffffffffffffffffffff168273ffffffffffffffffffffffffffffffffffffffff16149050919050565b600033905090565b600080fd5b600073ffffffffffffffffffffffffffffffffffffffff82169050919050565b60006101778261014c565b9050919050565b6101878161016c565b811461019257600080fd5b50565b6000815190506101a48161017e565b92915050565b6000602082840312156101c0576101bf610147565b5b60006101ce84828501610195565b91505092915050565b6101e08161016c565b82525050565b60006020820190506101fb60008301846101d7565b92915050565b6080516106fb61021b600039600060e701526106fb6000f3fe608060405234801561001057600080fd5b50600436106100415760003560e01c8063376bf26214610046578063572b6c0514610062578063d737d0c714610092575b600080fd5b610060600480360381019061005b91906103c3565b61009c565b005b61007c6004803603810190610077919061047d565b6100e3565b60405161008991906104c5565b60405180910390f35b61009a61013b565b005b7faf235354a0a47c91ee171961326335cb2d1a8e55b8a89859b0e61eb049e50ea06100c561017b565b84846040516100d794939291906105ac565b60405180910390a15050565b60007f000000000000000000000000000000000000000000000000000000000000000073ffffffffffffffffffffffffffffffffffffffff168273ffffffffffffffffffffffffffffffffffffffff16149050919050565b7fd6558c3ed910d959271054471fd1c326679d9fece99c5091b00ed89627cf2bfc61016461018e565b6040516101719190610602565b60405180910390a1565b36600061018661019d565b915091509091565b60006101986101ec565b905090565b3660006101a9336100e3565b156101db57600036600090601460003690506101c5919061064c565b926101d29392919061068a565b915091506101e8565b6101e361021e565b915091505b9091565b60006101f7336100e3565b1561020b57601436033560601c905061021a565b61021361022b565b905061021b565b5b90565b3660008036915091509091565b600033905090565b6000604051905090565b600080fd5b600080fd5b6000819050919050565b61025a81610247565b811461026557600080fd5b50565b60008135905061027781610251565b92915050565b600080fd5b600080fd5b6000601f19601f8301169050919050565b7f4e487b7100000000000000000000000000000000000000000000000000000000600052604160045260246000fd5b6102d082610287565b810181811067ffffffffffffffff821117156102ef576102ee610298565b5b80604052505050565b6000610302610233565b905061030e82826102c7565b919050565b600067ffffffffffffffff82111561032e5761032d610298565b5b61033782610287565b9050602081019050919050565b82818337600083830152505050565b600061036661036184610313565b6102f8565b90508281526020810184848401111561038257610381610282565b5b61038d848285610344565b509392505050565b600082601f8301126103aa576103a961027d565b5b81356103ba848260208601610353565b91505092915050565b600080604083850312156103da576103d961023d565b5b60006103e885828601610268565b925050602083013567ffffffffffffffff81111561040957610408610242565b5b61041585828601610395565b9150509250929050565b600073ffffffffffffffffffffffffffffffffffffffff82169050919050565b600061044a8261041f565b9050919050565b61045a8161043f565b811461046557600080fd5b50565b60008135905061047781610451565b92915050565b6000602082840312156104935761049261023d565b5b60006104a184828501610468565b91505092915050565b60008115159050919050565b6104bf816104aa565b82525050565b60006020820190506104da60008301846104b6565b92915050565b600082825260208201905092915050565b60006104fd83856104e0565b935061050a838584610344565b61051383610287565b840190509392505050565b61052781610247565b82525050565b600081519050919050565b600082825260208201905092915050565b60005b8381101561056757808201518184015260208101905061054c565b60008484015250505050565b600061057e8261052d565b6105888185610538565b9350610598818560208601610549565b6105a181610287565b840191505092915050565b600060608201905081810360008301526105c78186886104f1565b90506105d6602083018561051e565b81810360408301526105e88184610573565b905095945050505050565b6105fc8161043f565b82525050565b600060208201905061061760008301846105f3565b92915050565b7f4e487b7100000000000000000000000000000000000000000000000000000000600052601160045260246000fd5b600061065782610247565b915061066283610247565b925082820390508181111561067a5761067961061d565b5b92915050565b600080fd5b600080fd5b6000808585111561069e5761069d610680565b5b838611156106af576106ae610685565b5b600185028301915084860390509450949250505056fea2646970667358221220091db66f3cc3abcd8533d15cff11cdc0c97d40f8881044992c4e6fdb12eb731464736f6c63430008130033",
  "immutableReferences": {
    "9822": [
      {
        "length": 32,
        "start": 231
      }
    ]
  },
  "source": "// SPDX-License-Identifier: MIT\n\npragma solidity ^0.8.9;\n\nimport \"./ContextMock.sol\";\nimport \"../metatx/ERC2771Context.sol\";\n\n// By inheriting from ERC2771Context, Context's internal functions are overridden automatically\ncontract ERC2771ContextMock is ContextMock, ERC2771Context {\n    /// @custom:oz-upgrades-unsafe-allow constructor\n    constructor(address trustedForwarder) ERC2771Context(trustedForwarder) {\n        emit Sender(_msgSender()); // _msgSender() should be accessible during construction\n    }\n\n    function _msgSender() internal view override(Context, ERC2771Context) returns (address) {\n        return ERC2771Context._msgSender();\n    }\n\n    function _msgData() internal view override(Context, ERC2771Context) returns (bytes calldata) {\n        return ERC2771Context._msgData();\n    }\n}\n",
  "sourcePath": "/Users/urieltan/gitclones/ft5004/nft-project/contracts/openzeppelin-contracts-master/contracts/mocks/ERC2771ContextMock.sol",
  "compiler": {
    "name": "solc",
    "version": "0.8.19+commit.7dd6d404.Emscripten.clang"
  },
  "schemaVersion": "3.4.13",
  "updatedAt": "2023-04-18T20:14:33.637Z",
  "devdoc": {
    "kind": "dev",
    "methods": {
      "constructor": {
        "custom:oz-upgrades-unsafe-allow": "constructor"
      }
    },
    "version": 1
  },
  "userdoc": {
    "kind": "user",
    "methods": {},
    "version": 1
  }
}