{
  "contractName": "ERC4626Mock",
  "abi": [
    {
      "inputs": [
        {
          "internalType": "address",
          "name": "underlying",
          "type": "address"
        }
      ],
      "stateMutability": "nonpayable",
      "type": "constructor"
    },
    {
      "anonymous": false,
      "inputs": [
        {
          "indexed": true,
          "internalType": "address",
          "name": "owner",
          "type": "address"
        },
        {
          "indexed": true,
          "internalType": "address",
          "name": "spender",
          "type": "address"
        },
        {
          "indexed": false,
          "internalType": "uint256",
          "name": "value",
          "type": "uint256"
        }
      ],
      "name": "Approval",
      "type": "event"
    },
    {
      "anonymous": false,
      "inputs": [
        {
          "indexed": true,
          "internalType": "address",
          "name": "sender",
          "type": "address"
        },
        {
          "indexed": true,
          "internalType": "address",
          "name": "owner",
          "type": "address"
        },
        {
          "indexed": false,
          "internalType": "uint256",
          "name": "assets",
          "type": "uint256"
        },
        {
          "indexed": false,
          "internalType": "uint256",
          "name": "shares",
          "type": "uint256"
        }
      ],
      "name": "Deposit",
      "type": "event"
    },
    {
      "anonymous": false,
      "inputs": [
        {
          "indexed": true,
          "internalType": "address",
          "name": "from",
          "type": "address"
        },
        {
          "indexed": true,
          "internalType": "address",
          "name": "to",
          "type": "address"
        },
        {
          "indexed": false,
          "internalType": "uint256",
          "name": "value",
          "type": "uint256"
        }
      ],
      "name": "Transfer",
      "type": "event"
    },
    {
      "anonymous": false,
      "inputs": [
        {
          "indexed": true,
          "internalType": "address",
          "name": "sender",
          "type": "address"
        },
        {
          "indexed": true,
          "internalType": "address",
          "name": "receiver",
          "type": "address"
        },
        {
          "indexed": true,
          "internalType": "address",
          "name": "owner",
          "type": "address"
        },
        {
          "indexed": false,
          "internalType": "uint256",
          "name": "assets",
          "type": "uint256"
        },
        {
          "indexed": false,
          "internalType": "uint256",
          "name": "shares",
          "type": "uint256"
        }
      ],
      "name": "Withdraw",
      "type": "event"
    },
    {
      "inputs": [
        {
          "internalType": "address",
          "name": "owner",
          "type": "address"
        },
        {
          "internalType": "address",
          "name": "spender",
          "type": "address"
        }
      ],
      "name": "allowance",
      "outputs": [
        {
          "internalType": "uint256",
          "name": "",
          "type": "uint256"
        }
      ],
      "stateMutability": "view",
      "type": "function"
    },
    {
      "inputs": [
        {
          "internalType": "address",
          "name": "spender",
          "type": "address"
        },
        {
          "internalType": "uint256",
          "name": "amount",
          "type": "uint256"
        }
      ],
      "name": "approve",
      "outputs": [
        {
          "internalType": "bool",
          "name": "",
          "type": "bool"
        }
      ],
      "stateMutability": "nonpayable",
      "type": "function"
    },
    {
      "inputs": [],
      "name": "asset",
      "outputs": [
        {
          "internalType": "address",
          "name": "",
          "type": "address"
        }
      ],
      "stateMutability": "view",
      "type": "function"
    },
    {
      "inputs": [
        {
          "internalType": "address",
          "name": "account",
          "type": "address"
        }
      ],
      "name": "balanceOf",
      "outputs": [
        {
          "internalType": "uint256",
          "name": "",
          "type": "uint256"
        }
      ],
      "stateMutability": "view",
      "type": "function"
    },
    {
      "inputs": [
        {
          "internalType": "uint256",
          "name": "shares",
          "type": "uint256"
        }
      ],
      "name": "convertToAssets",
      "outputs": [
        {
          "internalType": "uint256",
          "name": "",
          "type": "uint256"
        }
      ],
      "stateMutability": "view",
      "type": "function"
    },
    {
      "inputs": [
        {
          "internalType": "uint256",
          "name": "assets",
          "type": "uint256"
        }
      ],
      "name": "convertToShares",
      "outputs": [
        {
          "internalType": "uint256",
          "name": "",
          "type": "uint256"
        }
      ],
      "stateMutability": "view",
      "type": "function"
    },
    {
      "inputs": [],
      "name": "decimals",
      "outputs": [
        {
          "internalType": "uint8",
          "name": "",
          "type": "uint8"
        }
      ],
      "stateMutability": "view",
      "type": "function"
    },
    {
      "inputs": [
        {
          "internalType": "address",
          "name": "spender",
          "type": "address"
        },
        {
          "internalType": "uint256",
          "name": "subtractedValue",
          "type": "uint256"
        }
      ],
      "name": "decreaseAllowance",
      "outputs": [
        {
          "internalType": "bool",
          "name": "",
          "type": "bool"
        }
      ],
      "stateMutability": "nonpayable",
      "type": "function"
    },
    {
      "inputs": [
        {
          "internalType": "uint256",
          "name": "assets",
          "type": "uint256"
        },
        {
          "internalType": "address",
          "name": "receiver",
          "type": "address"
        }
      ],
      "name": "deposit",
      "outputs": [
        {
          "internalType": "uint256",
          "name": "",
          "type": "uint256"
        }
      ],
      "stateMutability": "nonpayable",
      "type": "function"
    },
    {
      "inputs": [
        {
          "internalType": "address",
          "name": "spender",
          "type": "address"
        },
        {
          "internalType": "uint256",
          "name": "addedValue",
          "type": "uint256"
        }
      ],
      "name": "increaseAllowance",
      "outputs": [
        {
          "internalType": "bool",
          "name": "",
          "type": "bool"
        }
      ],
      "stateMutability": "nonpayable",
      "type": "function"
    },
    {
      "inputs": [
        {
          "internalType": "address",
          "name": "",
          "type": "address"
        }
      ],
      "name": "maxDeposit",
      "outputs": [
        {
          "internalType": "uint256",
          "name": "",
          "type": "uint256"
        }
      ],
      "stateMutability": "view",
      "type": "function"
    },
    {
      "inputs": [
        {
          "internalType": "address",
          "name": "",
          "type": "address"
        }
      ],
      "name": "maxMint",
      "outputs": [
        {
          "internalType": "uint256",
          "name": "",
          "type": "uint256"
        }
      ],
      "stateMutability": "view",
      "type": "function"
    },
    {
      "inputs": [
        {
          "internalType": "address",
          "name": "owner",
          "type": "address"
        }
      ],
      "name": "maxRedeem",
      "outputs": [
        {
          "internalType": "uint256",
          "name": "",
          "type": "uint256"
        }
      ],
      "stateMutability": "view",
      "type": "function"
    },
    {
      "inputs": [
        {
          "internalType": "address",
          "name": "owner",
          "type": "address"
        }
      ],
      "name": "maxWithdraw",
      "outputs": [
        {
          "internalType": "uint256",
          "name": "",
          "type": "uint256"
        }
      ],
      "stateMutability": "view",
      "type": "function"
    },
    {
      "inputs": [],
      "name": "name",
      "outputs": [
        {
          "internalType": "string",
          "name": "",
          "type": "string"
        }
      ],
      "stateMutability": "view",
      "type": "function"
    },
    {
      "inputs": [
        {
          "internalType": "uint256",
          "name": "assets",
          "type": "uint256"
        }
      ],
      "name": "previewDeposit",
      "outputs": [
        {
          "internalType": "uint256",
          "name": "",
          "type": "uint256"
        }
      ],
      "stateMutability": "view",
      "type": "function"
    },
    {
      "inputs": [
        {
          "internalType": "uint256",
          "name": "shares",
          "type": "uint256"
        }
      ],
      "name": "previewMint",
      "outputs": [
        {
          "internalType": "uint256",
          "name": "",
          "type": "uint256"
        }
      ],
      "stateMutability": "view",
      "type": "function"
    },
    {
      "inputs": [
        {
          "internalType": "uint256",
          "name": "shares",
          "type": "uint256"
        }
      ],
      "name": "previewRedeem",
      "outputs": [
        {
          "internalType": "uint256",
          "name": "",
          "type": "uint256"
        }
      ],
      "stateMutability": "view",
      "type": "function"
    },
    {
      "inputs": [
        {
          "internalType": "uint256",
          "name": "assets",
          "type": "uint256"
        }
      ],
      "name": "previewWithdraw",
      "outputs": [
        {
          "internalType": "uint256",
          "name": "",
          "type": "uint256"
        }
      ],
      "stateMutability": "view",
      "type": "function"
    },
    {
      "inputs": [
        {
          "internalType": "uint256",
          "name": "shares",
          "type": "uint256"
        },
        {
          "internalType": "address",
          "name": "receiver",
          "type": "address"
        },
        {
          "internalType": "address",
          "name": "owner",
          "type": "address"
        }
      ],
      "name": "redeem",
      "outputs": [
        {
          "internalType": "uint256",
          "name": "",
          "type": "uint256"
        }
      ],
      "stateMutability": "nonpayable",
      "type": "function"
    },
    {
      "inputs": [],
      "name": "symbol",
      "outputs": [
        {
          "internalType": "string",
          "name": "",
          "type": "string"
        }
      ],
      "stateMutability": "view",
      "type": "function"
    },
    {
      "inputs": [],
      "name": "totalAssets",
      "outputs": [
        {
          "internalType": "uint256",
          "name": "",
          "type": "uint256"
        }
      ],
      "stateMutability": "view",
      "type": "function"
    },
    {
      "inputs": [],
      "name": "totalSupply",
      "outputs": [
        {
          "internalType": "uint256",
          "name": "",
          "type": "uint256"
        }
      ],
      "stateMutability": "view",
      "type": "function"
    },
    {
      "inputs": [
        {
          "internalType": "address",
          "name": "to",
          "type": "address"
        },
        {
          "internalType": "uint256",
          "name": "amount",
          "type": "uint256"
        }
      ],
      "name": "transfer",
      "outputs": [
        {
          "internalType": "bool",
          "name": "",
          "type": "bool"
        }
      ],
      "stateMutability": "nonpayable",
      "type": "function"
    },
    {
      "inputs": [
        {
          "internalType": "address",
          "name": "from",
          "type": "address"
        },
        {
          "internalType": "address",
          "name": "to",
          "type": "address"
        },
        {
          "internalType": "uint256",
          "name": "amount",
          "type": "uint256"
        }
      ],
      "name": "transferFrom",
      "outputs": [
        {
          "internalType": "bool",
          "name": "",
          "type": "bool"
        }
      ],
      "stateMutability": "nonpayable",
      "type": "function"
    },
    {
      "inputs": [
        {
          "internalType": "uint256",
          "name": "assets",
          "type": "uint256"
        },
        {
          "internalType": "address",
          "name": "receiver",
          "type": "address"
        },
        {
          "internalType": "address",
          "name": "owner",
          "type": "address"
        }
      ],
      "name": "withdraw",
      "outputs": [
        {
          "internalType": "uint256",
          "name": "",
          "type": "uint256"
        }
      ],
      "stateMutability": "nonpayable",
      "type": "function"
    },
    {
      "inputs": [
        {
          "internalType": "address",
          "name": "account",
          "type": "address"
        },
        {
          "internalType": "uint256",
          "name": "amount",
          "type": "uint256"
        }
      ],
      "name": "mint",
      "outputs": [],
      "stateMutability": "nonpayable",
      "type": "function"
    },
    {
      "inputs": [
        {
          "internalType": "uint256",
          "name": "shares",
          "type": "uint256"
        },
        {
          "internalType": "address",
          "name": "receiver",
          "type": "address"
        }
      ],
      "name": "mint",
      "outputs": [
        {
          "internalType": "uint256",
          "name": "",
          "type": "uint256"
        }
      ],
      "stateMutability": "nonpayable",
      "type": "function"
    },
    {
      "inputs": [
        {
          "internalType": "address",
          "name": "account",
          "type": "address"
        },
        {
          "internalType": "uint256",
          "name": "amount",
          "type": "uint256"
        }
      ],
      "name": "burn",
      "outputs": [],
      "stateMutability": "nonpayable",
      "type": "function"
    }
  ],
  "bytecode": "0x60c06040523480156200001157600080fd5b5060405162003657380380620036578339818101604052810190620000379190620002e1565b806040518060400160405280600b81526020017f455243343632364d6f636b0000000000000000000000000000000000000000008152506040518060400160405280600681526020017f45343632364d00000000000000000000000000000000000000000000000000008152508160039081620000b591906200058d565b508060049081620000c791906200058d565b505050600080620000de836200013d60201b60201c565b9150915081620000f0576012620000f2565b805b60ff1660a08160ff16815250508273ffffffffffffffffffffffffffffffffffffffff1660808173ffffffffffffffffffffffffffffffffffffffff16815250505050505062000769565b6000806000808473ffffffffffffffffffffffffffffffffffffffff1663313ce56760e01b604051602401604051602081830303815290604052907bffffffffffffffffffffffffffffffffffffffffffffffffffffffff19166020820180517bffffffffffffffffffffffffffffffffffffffffffffffffffffffff8381831617835250505050604051620001d49190620006ed565b600060405180830381855afa9150503d806000811462000211576040519150601f19603f3d011682016040523d82523d6000602084013e62000216565b606091505b50915091508180156200022b57506020815110155b15620002685760008180602001905181019062000249919062000737565b905060ff8016811162000266576001819450945050505062000272565b505b6000809350935050505b915091565b600080fd5b600073ffffffffffffffffffffffffffffffffffffffff82169050919050565b6000620002a9826200027c565b9050919050565b620002bb816200029c565b8114620002c757600080fd5b50565b600081519050620002db81620002b0565b92915050565b600060208284031215620002fa57620002f962000277565b5b60006200030a84828501620002ca565b91505092915050565b600081519050919050565b7f4e487b7100000000000000000000000000000000000000000000000000000000600052604160045260246000fd5b7f4e487b7100000000000000000000000000000000000000000000000000000000600052602260045260246000fd5b600060028204905060018216806200039557607f821691505b602082108103620003ab57620003aa6200034d565b5b50919050565b60008190508160005260206000209050919050565b60006020601f8301049050919050565b600082821b905092915050565b600060088302620004157fffffffffffffffffffffffffffffffffffffffffffffffffffffffffffffffff82620003d6565b620004218683620003d6565b95508019841693508086168417925050509392505050565b6000819050919050565b6000819050919050565b60006200046e62000468620004628462000439565b62000443565b62000439565b9050919050565b6000819050919050565b6200048a836200044d565b620004a2620004998262000475565b848454620003e3565b825550505050565b600090565b620004b9620004aa565b620004c68184846200047f565b505050565b5b81811015620004ee57620004e2600082620004af565b600181019050620004cc565b5050565b601f8211156200053d576200050781620003b1565b6200051284620003c6565b8101602085101562000522578190505b6200053a6200053185620003c6565b830182620004cb565b50505b505050565b600082821c905092915050565b6000620005626000198460080262000542565b1980831691505092915050565b60006200057d83836200054f565b9150826002028217905092915050565b620005988262000313565b67ffffffffffffffff811115620005b457620005b36200031e565b5b620005c082546200037c565b620005cd828285620004f2565b600060209050601f831160018114620006055760008415620005f0578287015190505b620005fc85826200056f565b8655506200066c565b601f1984166200061586620003b1565b60005b828110156200063f5784890151825560018201915060208501945060208101905062000618565b868310156200065f57848901516200065b601f8916826200054f565b8355505b6001600288020188555050505b505050505050565b600081519050919050565b600081905092915050565b60005b83811015620006aa5780820151818401526020810190506200068d565b60008484015250505050565b6000620006c38262000674565b620006cf81856200067f565b9350620006e18185602086016200068a565b80840191505092915050565b6000620006fb8284620006b6565b915081905092915050565b620007118162000439565b81146200071d57600080fd5b50565b600081519050620007318162000706565b92915050565b60006020828403121562000750576200074f62000277565b5b6000620007608482850162000720565b91505092915050565b60805160a051612eb3620007a460003960006108730152600081816106b4015281816108a5015281816114ae01526117670152612eb36000f3fe608060405234801561001057600080fd5b50600436106101cf5760003560e01c806370a0823111610104578063b460af94116100a2578063ce96cb7711610071578063ce96cb77146105f0578063d905777e14610620578063dd62ed3e14610650578063ef8b30f714610680576101cf565b8063b460af9414610530578063ba08765214610560578063c63d75b614610590578063c6e6f592146105c0576101cf565b80639dc29fac116100de5780639dc29fac14610484578063a457c2d7146104a0578063a9059cbb146104d0578063b3d7f6b914610500576101cf565b806370a082311461040657806394bf804d1461043657806395d89b4114610466576101cf565b8063313ce56711610171578063402d267d1161014b578063402d267d1461035a57806340c10f191461038a5780634cdad506146103a65780636e553f65146103d6576101cf565b8063313ce567146102ee57806338d52e0f1461030c578063395093511461032a576101cf565b8063095ea7b3116101ad578063095ea7b3146102405780630a28a4771461027057806318160ddd146102a057806323b872dd146102be576101cf565b806301e1d114146101d457806306fdde03146101f257806307a2d13a14610210575b600080fd5b6101dc6106b0565b6040516101e99190611d60565b60405180910390f35b6101fa610751565b6040516102079190611e0b565b60405180910390f35b61022a60048036038101906102259190611e5e565b6107e3565b6040516102379190611d60565b60405180910390f35b61025a60048036038101906102559190611ee9565b6107f7565b6040516102679190611f44565b60405180910390f35b61028a60048036038101906102859190611e5e565b61081a565b6040516102979190611d60565b60405180910390f35b6102a861082e565b6040516102b59190611d60565b60405180910390f35b6102d860048036038101906102d39190611f5f565b610838565b6040516102e59190611f44565b60405180910390f35b6102f6610867565b6040516103039190611fce565b60405180910390f35b6103146108a1565b6040516103219190611ff8565b60405180910390f35b610344600480360381019061033f9190611ee9565b6108c9565b6040516103519190611f44565b60405180910390f35b610374600480360381019061036f9190612013565b610900565b6040516103819190611d60565b60405180910390f35b6103a4600480360381019061039f9190611ee9565b61092a565b005b6103c060048036038101906103bb9190611e5e565b610938565b6040516103cd9190611d60565b60405180910390f35b6103f060048036038101906103eb9190612040565b61094c565b6040516103fd9190611d60565b60405180910390f35b610420600480360381019061041b9190612013565b6109c3565b60405161042d9190611d60565b60405180910390f35b610450600480360381019061044b9190612040565b610a0b565b60405161045d9190611d60565b60405180910390f35b61046e610a82565b60405161047b9190611e0b565b60405180910390f35b61049e60048036038101906104999190611ee9565b610b14565b005b6104ba60048036038101906104b59190611ee9565b610b22565b6040516104c79190611f44565b60405180910390f35b6104ea60048036038101906104e59190611ee9565b610b99565b6040516104f79190611f44565b60405180910390f35b61051a60048036038101906105159190611e5e565b610bbc565b6040516105279190611d60565b60405180910390f35b61054a60048036038101906105459190612080565b610bd0565b6040516105579190611d60565b60405180910390f35b61057a60048036038101906105759190612080565b610c49565b6040516105879190611d60565b60405180910390f35b6105aa60048036038101906105a59190612013565b610cc2565b6040516105b79190611d60565b60405180910390f35b6105da60048036038101906105d59190611e5e565b610cec565b6040516105e79190611d60565b60405180910390f35b61060a60048036038101906106059190612013565b610d00565b6040516106179190611d60565b60405180910390f35b61063a60048036038101906106359190612013565b610d1c565b6040516106479190611d60565b60405180910390f35b61066a600480360381019061066591906120d3565b610d2e565b6040516106779190611d60565b60405180910390f35b61069a60048036038101906106959190611e5e565b610db5565b6040516106a79190611d60565b60405180910390f35b60007f000000000000000000000000000000000000000000000000000000000000000073ffffffffffffffffffffffffffffffffffffffff166370a08231306040518263ffffffff1660e01b815260040161070b9190611ff8565b602060405180830381865afa158015610728573d6000803e3d6000fd5b505050506040513d601f19601f8201168201806040525081019061074c9190612128565b905090565b60606003805461076090612184565b80601f016020809104026020016040519081016040528092919081815260200182805461078c90612184565b80156107d95780601f106107ae576101008083540402835291602001916107d9565b820191906000526020600020905b8154815290600101906020018083116107bc57829003601f168201915b5050505050905090565b60006107f0826000610dc9565b9050919050565b600080610802610e22565b905061080f818585610e2a565b600191505092915050565b6000610827826001610ff3565b9050919050565b6000600254905090565b600080610843610e22565b905061085085828561104c565b61085b8585856110d8565b60019150509392505050565b600061087161134e565b7f000000000000000000000000000000000000000000000000000000000000000061089c91906121e4565b905090565b60007f0000000000000000000000000000000000000000000000000000000000000000905090565b6000806108d4610e22565b90506108f58185856108e68589610d2e565b6108f09190612219565b610e2a565b600191505092915050565b60007fffffffffffffffffffffffffffffffffffffffffffffffffffffffffffffffff9050919050565b6109348282611353565b5050565b6000610945826000610dc9565b9050919050565b600061095782610900565b831115610999576040517f08c379a000000000000000000000000000000000000000000000000000000000815260040161099090612299565b60405180910390fd5b60006109a484610db5565b90506109b96109b1610e22565b8486846114a9565b8091505092915050565b60008060008373ffffffffffffffffffffffffffffffffffffffff1673ffffffffffffffffffffffffffffffffffffffff168152602001908152602001600020549050919050565b6000610a1682610cc2565b831115610a58576040517f08c379a0000000000000000000000000000000000000000000000000000000008152600401610a4f90612305565b60405180910390fd5b6000610a6384610bbc565b9050610a78610a70610e22565b8483876114a9565b8091505092915050565b606060048054610a9190612184565b80601f0160208091040260200160405190810160405280929190818152602001828054610abd90612184565b8015610b0a5780601f10610adf57610100808354040283529160200191610b0a565b820191906000526020600020905b815481529060010190602001808311610aed57829003601f168201915b5050505050905090565b610b1e828261154c565b5050565b600080610b2d610e22565b90506000610b3b8286610d2e565b905083811015610b80576040517f08c379a0000000000000000000000000000000000000000000000000000000008152600401610b7790612397565b60405180910390fd5b610b8d8286868403610e2a565b60019250505092915050565b600080610ba4610e22565b9050610bb18185856110d8565b600191505092915050565b6000610bc9826001610dc9565b9050919050565b6000610bdb82610d00565b841115610c1d576040517f08c379a0000000000000000000000000000000000000000000000000000000008152600401610c1490612403565b60405180910390fd5b6000610c288561081a565b9050610c3e610c35610e22565b85858885611719565b809150509392505050565b6000610c5482610d1c565b841115610c96576040517f08c379a0000000000000000000000000000000000000000000000000000000008152600401610c8d9061246f565b60405180910390fd5b6000610ca185610938565b9050610cb7610cae610e22565b85858489611719565b809150509392505050565b60007fffffffffffffffffffffffffffffffffffffffffffffffffffffffffffffffff9050919050565b6000610cf9826000610ff3565b9050919050565b6000610d15610d0e836109c3565b6000610dc9565b9050919050565b6000610d27826109c3565b9050919050565b6000600160008473ffffffffffffffffffffffffffffffffffffffff1673ffffffffffffffffffffffffffffffffffffffff16815260200190815260200160002060008373ffffffffffffffffffffffffffffffffffffffff1673ffffffffffffffffffffffffffffffffffffffff16815260200190815260200160002054905092915050565b6000610dc2826000610ff3565b9050919050565b6000610e1a6001610dd86106b0565b610de29190612219565b610dea61134e565b600a610df691906125c2565b610dfe61082e565b610e089190612219565b8486611812909392919063ffffffff16565b905092915050565b600033905090565b600073ffffffffffffffffffffffffffffffffffffffff168373ffffffffffffffffffffffffffffffffffffffff1603610e99576040517f08c379a0000000000000000000000000000000000000000000000000000000008152600401610e909061267f565b60405180910390fd5b600073ffffffffffffffffffffffffffffffffffffffff168273ffffffffffffffffffffffffffffffffffffffff1603610f08576040517f08c379a0000000000000000000000000000000000000000000000000000000008152600401610eff90612711565b60405180910390fd5b80600160008573ffffffffffffffffffffffffffffffffffffffff1673ffffffffffffffffffffffffffffffffffffffff16815260200190815260200160002060008473ffffffffffffffffffffffffffffffffffffffff1673ffffffffffffffffffffffffffffffffffffffff168152602001908152602001600020819055508173ffffffffffffffffffffffffffffffffffffffff168373ffffffffffffffffffffffffffffffffffffffff167f8c5be1e5ebec7d5bd14f71427d1e84f3dd0314c0f7b2291e5b200ac8c7c3b92583604051610fe69190611d60565b60405180910390a3505050565b600061104461100061134e565b600a61100c91906125c2565b61101461082e565b61101e9190612219565b60016110286106b0565b6110329190612219565b8486611812909392919063ffffffff16565b905092915050565b60006110588484610d2e565b90507fffffffffffffffffffffffffffffffffffffffffffffffffffffffffffffffff81146110d257818110156110c4576040517f08c379a00000000000000000000000000000000000000000000000000000000081526004016110bb9061277d565b60405180910390fd5b6110d18484848403610e2a565b5b50505050565b600073ffffffffffffffffffffffffffffffffffffffff168373ffffffffffffffffffffffffffffffffffffffff1603611147576040517f08c379a000000000000000000000000000000000000000000000000000000000815260040161113e9061280f565b60405180910390fd5b600073ffffffffffffffffffffffffffffffffffffffff168273ffffffffffffffffffffffffffffffffffffffff16036111b6576040517f08c379a00000000000000000000000000000000000000000000000000000000081526004016111ad906128a1565b60405180910390fd5b6111c1838383611888565b60008060008573ffffffffffffffffffffffffffffffffffffffff1673ffffffffffffffffffffffffffffffffffffffff16815260200190815260200160002054905081811015611247576040517f08c379a000000000000000000000000000000000000000000000000000000000815260040161123e90612933565b60405180910390fd5b8181036000808673ffffffffffffffffffffffffffffffffffffffff1673ffffffffffffffffffffffffffffffffffffffff16815260200190815260200160002081905550816000808573ffffffffffffffffffffffffffffffffffffffff1673ffffffffffffffffffffffffffffffffffffffff168152602001908152602001600020600082825401925050819055508273ffffffffffffffffffffffffffffffffffffffff168473ffffffffffffffffffffffffffffffffffffffff167fddf252ad1be2c89b69c2b068fc378daa952ba7f163c4a11628f55a4df523b3ef846040516113359190611d60565b60405180910390a361134884848461188d565b50505050565b600090565b600073ffffffffffffffffffffffffffffffffffffffff168273ffffffffffffffffffffffffffffffffffffffff16036113c2576040517f08c379a00000000000000000000000000000000000000000000000000000000081526004016113b99061299f565b60405180910390fd5b6113ce60008383611888565b80600260008282546113e09190612219565b92505081905550806000808473ffffffffffffffffffffffffffffffffffffffff1673ffffffffffffffffffffffffffffffffffffffff168152602001908152602001600020600082825401925050819055508173ffffffffffffffffffffffffffffffffffffffff16600073ffffffffffffffffffffffffffffffffffffffff167fddf252ad1be2c89b69c2b068fc378daa952ba7f163c4a11628f55a4df523b3ef836040516114919190611d60565b60405180910390a36114a56000838361188d565b5050565b6114d57f0000000000000000000000000000000000000000000000000000000000000000853085611892565b6114df8382611353565b8273ffffffffffffffffffffffffffffffffffffffff168473ffffffffffffffffffffffffffffffffffffffff167fdcbc1c05240f31ff3ad067ef1ee35ce4997762752e3a095284754544f4c709d7848460405161153e9291906129bf565b60405180910390a350505050565b600073ffffffffffffffffffffffffffffffffffffffff168273ffffffffffffffffffffffffffffffffffffffff16036115bb576040517f08c379a00000000000000000000000000000000000000000000000000000000081526004016115b290612a5a565b60405180910390fd5b6115c782600083611888565b60008060008473ffffffffffffffffffffffffffffffffffffffff1673ffffffffffffffffffffffffffffffffffffffff1681526020019081526020016000205490508181101561164d576040517f08c379a000000000000000000000000000000000000000000000000000000000815260040161164490612aec565b60405180910390fd5b8181036000808573ffffffffffffffffffffffffffffffffffffffff1673ffffffffffffffffffffffffffffffffffffffff1681526020019081526020016000208190555081600260008282540392505081905550600073ffffffffffffffffffffffffffffffffffffffff168373ffffffffffffffffffffffffffffffffffffffff167fddf252ad1be2c89b69c2b068fc378daa952ba7f163c4a11628f55a4df523b3ef846040516117009190611d60565b60405180910390a36117148360008461188d565b505050565b8273ffffffffffffffffffffffffffffffffffffffff168573ffffffffffffffffffffffffffffffffffffffff16146117585761175783868361104c565b5b611762838261154c565b61178d7f0000000000000000000000000000000000000000000000000000000000000000858461191b565b8273ffffffffffffffffffffffffffffffffffffffff168473ffffffffffffffffffffffffffffffffffffffff168673ffffffffffffffffffffffffffffffffffffffff167ffbde797d201c681b91056529119e0b02407c7bb96a4a2c75c01fc9667232c8db85856040516118039291906129bf565b60405180910390a45050505050565b6000806118208686866119a1565b90506001600281111561183657611835612b0c565b5b83600281111561184957611848612b0c565b5b14801561186757506000848061186257611861612b3b565b5b868809115b1561187c576001816118799190612219565b90505b80915050949350505050565b505050565b505050565b611915846323b872dd60e01b8585856040516024016118b393929190612b6a565b604051602081830303815290604052907bffffffffffffffffffffffffffffffffffffffffffffffffffffffff19166020820180517bffffffffffffffffffffffffffffffffffffffffffffffffffffffff8381831617835250505050611ab2565b50505050565b61199c8363a9059cbb60e01b848460405160240161193a929190612ba1565b604051602081830303815290604052907bffffffffffffffffffffffffffffffffffffffffffffffffffffffff19166020820180517bffffffffffffffffffffffffffffffffffffffffffffffffffffffff8381831617835250505050611ab2565b505050565b60008060008019858709858702925082811083820303915050600081036119dc578382816119d2576119d1612b3b565b5b0492505050611aab565b808411611a1e576040517f08c379a0000000000000000000000000000000000000000000000000000000008152600401611a1590612c16565b60405180910390fd5b60008486880990508281118203915080830392506000600186190186169050808604955080840493506001818260000304019050808302841793506000600287600302189050808702600203810290508087026002038102905080870260020381029050808702600203810290508087026002038102905080870260020381029050808502955050505050505b9392505050565b6000611b14826040518060400160405280602081526020017f5361666545524332303a206c6f772d6c6576656c2063616c6c206661696c65648152508573ffffffffffffffffffffffffffffffffffffffff16611b7a9092919063ffffffff16565b9050600081511480611b36575080806020019051810190611b359190612c62565b5b611b75576040517f08c379a0000000000000000000000000000000000000000000000000000000008152600401611b6c90612d01565b60405180910390fd5b505050565b6060611b898484600085611b92565b90509392505050565b606082471015611bd7576040517f08c379a0000000000000000000000000000000000000000000000000000000008152600401611bce90612d93565b60405180910390fd5b6000808673ffffffffffffffffffffffffffffffffffffffff168587604051611c009190612dfa565b60006040518083038185875af1925050503d8060008114611c3d576040519150601f19603f3d011682016040523d82523d6000602084013e611c42565b606091505b5091509150611c5387838387611c5f565b92505050949350505050565b60608315611cc1576000835103611cb957611c7985611cd4565b611cb8576040517f08c379a0000000000000000000000000000000000000000000000000000000008152600401611caf90612e5d565b60405180910390fd5b5b829050611ccc565b611ccb8383611cf7565b5b949350505050565b6000808273ffffffffffffffffffffffffffffffffffffffff163b119050919050565b600082511115611d0a5781518083602001fd5b806040517f08c379a0000000000000000000000000000000000000000000000000000000008152600401611d3e9190611e0b565b60405180910390fd5b6000819050919050565b611d5a81611d47565b82525050565b6000602082019050611d756000830184611d51565b92915050565b600081519050919050565b600082825260208201905092915050565b60005b83811015611db5578082015181840152602081019050611d9a565b60008484015250505050565b6000601f19601f8301169050919050565b6000611ddd82611d7b565b611de78185611d86565b9350611df7818560208601611d97565b611e0081611dc1565b840191505092915050565b60006020820190508181036000830152611e258184611dd2565b905092915050565b600080fd5b611e3b81611d47565b8114611e4657600080fd5b50565b600081359050611e5881611e32565b92915050565b600060208284031215611e7457611e73611e2d565b5b6000611e8284828501611e49565b91505092915050565b600073ffffffffffffffffffffffffffffffffffffffff82169050919050565b6000611eb682611e8b565b9050919050565b611ec681611eab565b8114611ed157600080fd5b50565b600081359050611ee381611ebd565b92915050565b60008060408385031215611f0057611eff611e2d565b5b6000611f0e85828601611ed4565b9250506020611f1f85828601611e49565b9150509250929050565b60008115159050919050565b611f3e81611f29565b82525050565b6000602082019050611f596000830184611f35565b92915050565b600080600060608486031215611f7857611f77611e2d565b5b6000611f8686828701611ed4565b9350506020611f9786828701611ed4565b9250506040611fa886828701611e49565b9150509250925092565b600060ff82169050919050565b611fc881611fb2565b82525050565b6000602082019050611fe36000830184611fbf565b92915050565b611ff281611eab565b82525050565b600060208201905061200d6000830184611fe9565b92915050565b60006020828403121561202957612028611e2d565b5b600061203784828501611ed4565b91505092915050565b6000806040838503121561205757612056611e2d565b5b600061206585828601611e49565b925050602061207685828601611ed4565b9150509250929050565b60008060006060848603121561209957612098611e2d565b5b60006120a786828701611e49565b93505060206120b886828701611ed4565b92505060406120c986828701611ed4565b9150509250925092565b600080604083850312156120ea576120e9611e2d565b5b60006120f885828601611ed4565b925050602061210985828601611ed4565b9150509250929050565b60008151905061212281611e32565b92915050565b60006020828403121561213e5761213d611e2d565b5b600061214c84828501612113565b91505092915050565b7f4e487b7100000000000000000000000000000000000000000000000000000000600052602260045260246000fd5b6000600282049050600182168061219c57607f821691505b6020821081036121af576121ae612155565b5b50919050565b7f4e487b7100000000000000000000000000000000000000000000000000000000600052601160045260246000fd5b60006121ef82611fb2565b91506121fa83611fb2565b9250828201905060ff811115612213576122126121b5565b5b92915050565b600061222482611d47565b915061222f83611d47565b9250828201905080821115612247576122466121b5565b5b92915050565b7f455243343632363a206465706f736974206d6f7265207468616e206d61780000600082015250565b6000612283601e83611d86565b915061228e8261224d565b602082019050919050565b600060208201905081810360008301526122b281612276565b9050919050565b7f455243343632363a206d696e74206d6f7265207468616e206d61780000000000600082015250565b60006122ef601b83611d86565b91506122fa826122b9565b602082019050919050565b6000602082019050818103600083015261231e816122e2565b9050919050565b7f45524332303a2064656372656173656420616c6c6f77616e63652062656c6f7760008201527f207a65726f000000000000000000000000000000000000000000000000000000602082015250565b6000612381602583611d86565b915061238c82612325565b604082019050919050565b600060208201905081810360008301526123b081612374565b9050919050565b7f455243343632363a207769746864726177206d6f7265207468616e206d617800600082015250565b60006123ed601f83611d86565b91506123f8826123b7565b602082019050919050565b6000602082019050818103600083015261241c816123e0565b9050919050565b7f455243343632363a2072656465656d206d6f7265207468616e206d6178000000600082015250565b6000612459601d83611d86565b915061246482612423565b602082019050919050565b600060208201905081810360008301526124888161244c565b9050919050565b60008160011c9050919050565b6000808291508390505b60018511156124e6578086048111156124c2576124c16121b5565b5b60018516156124d15780820291505b80810290506124df8561248f565b94506124a6565b94509492505050565b6000826124ff57600190506125bb565b8161250d57600090506125bb565b8160018114612523576002811461252d5761255c565b60019150506125bb565b60ff84111561253f5761253e6121b5565b5b8360020a915084821115612556576125556121b5565b5b506125bb565b5060208310610133831016604e8410600b84101617156125915782820a90508381111561258c5761258b6121b5565b5b6125bb565b61259e848484600161249c565b925090508184048111156125b5576125b46121b5565b5b81810290505b9392505050565b60006125cd82611d47565b91506125d883611fb2565b92506126057fffffffffffffffffffffffffffffffffffffffffffffffffffffffffffffffff84846124ef565b905092915050565b7f45524332303a20617070726f76652066726f6d20746865207a65726f2061646460008201527f7265737300000000000000000000000000000000000000000000000000000000602082015250565b6000612669602483611d86565b91506126748261260d565b604082019050919050565b600060208201905081810360008301526126988161265c565b9050919050565b7f45524332303a20617070726f766520746f20746865207a65726f20616464726560008201527f7373000000000000000000000000000000000000000000000000000000000000602082015250565b60006126fb602283611d86565b91506127068261269f565b604082019050919050565b6000602082019050818103600083015261272a816126ee565b9050919050565b7f45524332303a20696e73756666696369656e7420616c6c6f77616e6365000000600082015250565b6000612767601d83611d86565b915061277282612731565b602082019050919050565b600060208201905081810360008301526127968161275a565b9050919050565b7f45524332303a207472616e736665722066726f6d20746865207a65726f20616460008201527f6472657373000000000000000000000000000000000000000000000000000000602082015250565b60006127f9602583611d86565b91506128048261279d565b604082019050919050565b60006020820190508181036000830152612828816127ec565b9050919050565b7f45524332303a207472616e7366657220746f20746865207a65726f206164647260008201527f6573730000000000000000000000000000000000000000000000000000000000602082015250565b600061288b602383611d86565b91506128968261282f565b604082019050919050565b600060208201905081810360008301526128ba8161287e565b9050919050565b7f45524332303a207472616e7366657220616d6f756e742065786365656473206260008201527f616c616e63650000000000000000000000000000000000000000000000000000602082015250565b600061291d602683611d86565b9150612928826128c1565b604082019050919050565b6000602082019050818103600083015261294c81612910565b9050919050565b7f45524332303a206d696e7420746f20746865207a65726f206164647265737300600082015250565b6000612989601f83611d86565b915061299482612953565b602082019050919050565b600060208201905081810360008301526129b88161297c565b9050919050565b60006040820190506129d46000830185611d51565b6129e16020830184611d51565b9392505050565b7f45524332303a206275726e2066726f6d20746865207a65726f2061646472657360008201527f7300000000000000000000000000000000000000000000000000000000000000602082015250565b6000612a44602183611d86565b9150612a4f826129e8565b604082019050919050565b60006020820190508181036000830152612a7381612a37565b9050919050565b7f45524332303a206275726e20616d6f756e7420657863656564732062616c616e60008201527f6365000000000000000000000000000000000000000000000000000000000000602082015250565b6000612ad6602283611d86565b9150612ae182612a7a565b604082019050919050565b60006020820190508181036000830152612b0581612ac9565b9050919050565b7f4e487b7100000000000000000000000000000000000000000000000000000000600052602160045260246000fd5b7f4e487b7100000000000000000000000000000000000000000000000000000000600052601260045260246000fd5b6000606082019050612b7f6000830186611fe9565b612b8c6020830185611fe9565b612b996040830184611d51565b949350505050565b6000604082019050612bb66000830185611fe9565b612bc36020830184611d51565b9392505050565b7f4d6174683a206d756c446976206f766572666c6f770000000000000000000000600082015250565b6000612c00601583611d86565b9150612c0b82612bca565b602082019050919050565b60006020820190508181036000830152612c2f81612bf3565b9050919050565b612c3f81611f29565b8114612c4a57600080fd5b50565b600081519050612c5c81612c36565b92915050565b600060208284031215612c7857612c77611e2d565b5b6000612c8684828501612c4d565b91505092915050565b7f5361666545524332303a204552433230206f7065726174696f6e20646964206e60008201527f6f74207375636365656400000000000000000000000000000000000000000000602082015250565b6000612ceb602a83611d86565b9150612cf682612c8f565b604082019050919050565b60006020820190508181036000830152612d1a81612cde565b9050919050565b7f416464726573733a20696e73756666696369656e742062616c616e636520666f60008201527f722063616c6c0000000000000000000000000000000000000000000000000000602082015250565b6000612d7d602683611d86565b9150612d8882612d21565b604082019050919050565b60006020820190508181036000830152612dac81612d70565b9050919050565b600081519050919050565b600081905092915050565b6000612dd482612db3565b612dde8185612dbe565b9350612dee818560208601611d97565b80840191505092915050565b6000612e068284612dc9565b915081905092915050565b7f416464726573733a2063616c6c20746f206e6f6e2d636f6e7472616374000000600082015250565b6000612e47601d83611d86565b9150612e5282612e11565b602082019050919050565b60006020820190508181036000830152612e7681612e3a565b905091905056fea264697066735822122055e2ce39df8e898bb7b47eed2cd5a6013fc65055923e3b48240d04f423d4750664736f6c63430008130033",
  "immutableReferences": {
    "24060": [
      {
        "length": 32,
        "start": 1716
      },
      {
        "length": 32,
        "start": 2213
      },
      {
        "length": 32,
        "start": 5294
      },
      {
        "length": 32,
        "start": 5991
      }
    ],
    "24062": [
      {
        "length": 32,
        "start": 2163
      }
    ]
  },
  "source": "// SPDX-License-Identifier: MIT\npragma solidity ^0.8.0;\n\nimport \"../token/ERC20/extensions/ERC4626.sol\";\n\ncontract ERC4626Mock is ERC4626 {\n    constructor(address underlying) ERC20(\"ERC4626Mock\", \"E4626M\") ERC4626(IERC20(underlying)) {}\n\n    function mint(address account, uint256 amount) external {\n        _mint(account, amount);\n    }\n\n    function burn(address account, uint256 amount) external {\n        _burn(account, amount);\n    }\n}\n",
  "sourcePath": "/Users/urieltan/gitclones/ft5004/nft-project/contracts/openzeppelin-contracts-master/contracts/mocks/ERC4626Mock.sol",
  "compiler": {
    "name": "solc",
    "version": "0.8.19+commit.7dd6d404.Emscripten.clang"
  },
  "schemaVersion": "3.4.13",
  "updatedAt": "2023-04-18T20:14:33.641Z",
  "devdoc": {
    "events": {
      "Approval(address,address,uint256)": {
        "details": "Emitted when the allowance of a `spender` for an `owner` is set by a call to {approve}. `value` is the new allowance."
      },
      "Transfer(address,address,uint256)": {
        "details": "Emitted when `value` tokens are moved from one account (`from`) to another (`to`). Note that `value` may be zero."
      }
    },
    "kind": "dev",
    "methods": {
      "allowance(address,address)": {
        "details": "See {IERC20-allowance}."
      },
      "approve(address,uint256)": {
        "details": "See {IERC20-approve}. NOTE: If `amount` is the maximum `uint256`, the allowance is not updated on `transferFrom`. This is semantically equivalent to an infinite approval. Requirements: - `spender` cannot be the zero address."
      },
      "asset()": {
        "details": "See {IERC4626-asset}. "
      },
      "balanceOf(address)": {
        "details": "See {IERC20-balanceOf}."
      },
      "convertToAssets(uint256)": {
        "details": "See {IERC4626-convertToAssets}. "
      },
      "convertToShares(uint256)": {
        "details": "See {IERC4626-convertToShares}. "
      },
      "decimals()": {
        "details": "Decimals are computed by adding the decimal offset on top of the underlying asset's decimals. This \"original\" value is cached during construction of the vault contract. If this read operation fails (e.g., the asset has not been created yet), a default of 18 is used to represent the underlying asset's decimals. See {IERC20Metadata-decimals}."
      },
      "decreaseAllowance(address,uint256)": {
        "details": "Atomically decreases the allowance granted to `spender` by the caller. This is an alternative to {approve} that can be used as a mitigation for problems described in {IERC20-approve}. Emits an {Approval} event indicating the updated allowance. Requirements: - `spender` cannot be the zero address. - `spender` must have allowance for the caller of at least `subtractedValue`."
      },
      "deposit(uint256,address)": {
        "details": "See {IERC4626-deposit}. "
      },
      "increaseAllowance(address,uint256)": {
        "details": "Atomically increases the allowance granted to `spender` by the caller. This is an alternative to {approve} that can be used as a mitigation for problems described in {IERC20-approve}. Emits an {Approval} event indicating the updated allowance. Requirements: - `spender` cannot be the zero address."
      },
      "maxDeposit(address)": {
        "details": "See {IERC4626-maxDeposit}. "
      },
      "maxMint(address)": {
        "details": "See {IERC4626-maxMint}. "
      },
      "maxRedeem(address)": {
        "details": "See {IERC4626-maxRedeem}. "
      },
      "maxWithdraw(address)": {
        "details": "See {IERC4626-maxWithdraw}. "
      },
      "mint(uint256,address)": {
        "details": "See {IERC4626-mint}. As opposed to {deposit}, minting is allowed even if the vault is in a state where the price of a share is zero. In this case, the shares will be minted without requiring any assets to be deposited."
      },
      "name()": {
        "details": "Returns the name of the token."
      },
      "previewDeposit(uint256)": {
        "details": "See {IERC4626-previewDeposit}. "
      },
      "previewMint(uint256)": {
        "details": "See {IERC4626-previewMint}. "
      },
      "previewRedeem(uint256)": {
        "details": "See {IERC4626-previewRedeem}. "
      },
      "previewWithdraw(uint256)": {
        "details": "See {IERC4626-previewWithdraw}. "
      },
      "redeem(uint256,address,address)": {
        "details": "See {IERC4626-redeem}. "
      },
      "symbol()": {
        "details": "Returns the symbol of the token, usually a shorter version of the name."
      },
      "totalAssets()": {
        "details": "See {IERC4626-totalAssets}. "
      },
      "totalSupply()": {
        "details": "See {IERC20-totalSupply}."
      },
      "transfer(address,uint256)": {
        "details": "See {IERC20-transfer}. Requirements: - `to` cannot be the zero address. - the caller must have a balance of at least `amount`."
      },
      "transferFrom(address,address,uint256)": {
        "details": "See {IERC20-transferFrom}. Emits an {Approval} event indicating the updated allowance. This is not required by the EIP. See the note at the beginning of {ERC20}. NOTE: Does not update the allowance if the current allowance is the maximum `uint256`. Requirements: - `from` and `to` cannot be the zero address. - `from` must have a balance of at least `amount`. - the caller must have allowance for ``from``'s tokens of at least `amount`."
      },
      "withdraw(uint256,address,address)": {
        "details": "See {IERC4626-withdraw}. "
      }
    },
    "version": 1
  },
  "userdoc": {
    "kind": "user",
    "methods": {},
    "version": 1
  }
}