{
  "contractName": "HatsNFT",
  "abi": [
    {
      "inputs": [],
      "stateMutability": "nonpayable",
      "type": "constructor"
    },
    {
      "anonymous": false,
      "inputs": [
        {
          "indexed": true,
          "internalType": "address",
          "name": "owner",
          "type": "address"
        },
        {
          "indexed": true,
          "internalType": "address",
          "name": "approved",
          "type": "address"
        },
        {
          "indexed": true,
          "internalType": "uint256",
          "name": "tokenId",
          "type": "uint256"
        }
      ],
      "name": "Approval",
      "type": "event"
    },
    {
      "anonymous": false,
      "inputs": [
        {
          "indexed": true,
          "internalType": "address",
          "name": "owner",
          "type": "address"
        },
        {
          "indexed": true,
          "internalType": "address",
          "name": "operator",
          "type": "address"
        },
        {
          "indexed": false,
          "internalType": "bool",
          "name": "approved",
          "type": "bool"
        }
      ],
      "name": "ApprovalForAll",
      "type": "event"
    },
    {
      "anonymous": false,
      "inputs": [
        {
          "indexed": false,
          "internalType": "uint256",
          "name": "_fromTokenId",
          "type": "uint256"
        },
        {
          "indexed": false,
          "internalType": "uint256",
          "name": "_toTokenId",
          "type": "uint256"
        }
      ],
      "name": "BatchMetadataUpdate",
      "type": "event"
    },
    {
      "anonymous": false,
      "inputs": [
        {
          "indexed": false,
          "internalType": "uint256",
          "name": "hatId",
          "type": "uint256"
        },
        {
          "indexed": false,
          "internalType": "uint256",
          "name": "tokenId",
          "type": "uint256"
        },
        {
          "indexed": false,
          "internalType": "address",
          "name": "owner",
          "type": "address"
        }
      ],
      "name": "HatAttached",
      "type": "event"
    },
    {
      "anonymous": false,
      "inputs": [
        {
          "indexed": false,
          "internalType": "uint256",
          "name": "hatId",
          "type": "uint256"
        },
        {
          "indexed": false,
          "internalType": "address",
          "name": "owner",
          "type": "address"
        },
        {
          "indexed": false,
          "internalType": "string",
          "name": "name",
          "type": "string"
        },
        {
          "indexed": false,
          "internalType": "string",
          "name": "design",
          "type": "string"
        },
        {
          "indexed": false,
          "internalType": "string",
          "name": "color",
          "type": "string"
        },
        {
          "indexed": false,
          "internalType": "uint256",
          "name": "rarity",
          "type": "uint256"
        }
      ],
      "name": "HatMinted",
      "type": "event"
    },
    {
      "anonymous": false,
      "inputs": [
        {
          "indexed": false,
          "internalType": "address",
          "name": "from",
          "type": "address"
        },
        {
          "indexed": false,
          "internalType": "address",
          "name": "to",
          "type": "address"
        },
        {
          "indexed": false,
          "internalType": "uint256",
          "name": "tokenId",
          "type": "uint256"
        },
        {
          "indexed": false,
          "internalType": "uint256",
          "name": "hatId",
          "type": "uint256"
        }
      ],
      "name": "HatTransfer",
      "type": "event"
    },
    {
      "anonymous": false,
      "inputs": [
        {
          "indexed": false,
          "internalType": "uint256",
          "name": "_tokenId",
          "type": "uint256"
        }
      ],
      "name": "MetadataUpdate",
      "type": "event"
    },
    {
      "anonymous": false,
      "inputs": [
        {
          "indexed": true,
          "internalType": "address",
          "name": "from",
          "type": "address"
        },
        {
          "indexed": true,
          "internalType": "address",
          "name": "to",
          "type": "address"
        },
        {
          "indexed": true,
          "internalType": "uint256",
          "name": "tokenId",
          "type": "uint256"
        }
      ],
      "name": "Transfer",
      "type": "event"
    },
    {
      "inputs": [
        {
          "internalType": "address",
          "name": "to",
          "type": "address"
        },
        {
          "internalType": "uint256",
          "name": "tokenId",
          "type": "uint256"
        }
      ],
      "name": "approve",
      "outputs": [],
      "stateMutability": "nonpayable",
      "type": "function"
    },
    {
      "inputs": [
        {
          "internalType": "address",
          "name": "owner",
          "type": "address"
        }
      ],
      "name": "balanceOf",
      "outputs": [
        {
          "internalType": "uint256",
          "name": "",
          "type": "uint256"
        }
      ],
      "stateMutability": "view",
      "type": "function"
    },
    {
      "inputs": [
        {
          "internalType": "uint256",
          "name": "tokenId",
          "type": "uint256"
        }
      ],
      "name": "getApproved",
      "outputs": [
        {
          "internalType": "address",
          "name": "",
          "type": "address"
        }
      ],
      "stateMutability": "view",
      "type": "function"
    },
    {
      "inputs": [
        {
          "internalType": "uint256",
          "name": "",
          "type": "uint256"
        }
      ],
      "name": "hatOwners",
      "outputs": [
        {
          "internalType": "address",
          "name": "",
          "type": "address"
        }
      ],
      "stateMutability": "view",
      "type": "function"
    },
    {
      "inputs": [
        {
          "internalType": "uint256",
          "name": "",
          "type": "uint256"
        }
      ],
      "name": "hats",
      "outputs": [
        {
          "internalType": "uint256",
          "name": "id",
          "type": "uint256"
        },
        {
          "internalType": "string",
          "name": "name",
          "type": "string"
        },
        {
          "internalType": "string",
          "name": "design",
          "type": "string"
        },
        {
          "internalType": "string",
          "name": "color",
          "type": "string"
        },
        {
          "internalType": "uint256",
          "name": "rarity",
          "type": "uint256"
        }
      ],
      "stateMutability": "view",
      "type": "function"
    },
    {
      "inputs": [
        {
          "internalType": "address",
          "name": "owner",
          "type": "address"
        },
        {
          "internalType": "address",
          "name": "operator",
          "type": "address"
        }
      ],
      "name": "isApprovedForAll",
      "outputs": [
        {
          "internalType": "bool",
          "name": "",
          "type": "bool"
        }
      ],
      "stateMutability": "view",
      "type": "function"
    },
    {
      "inputs": [],
      "name": "name",
      "outputs": [
        {
          "internalType": "string",
          "name": "",
          "type": "string"
        }
      ],
      "stateMutability": "view",
      "type": "function"
    },
    {
      "inputs": [],
      "name": "nextHatId",
      "outputs": [
        {
          "internalType": "uint256",
          "name": "",
          "type": "uint256"
        }
      ],
      "stateMutability": "view",
      "type": "function"
    },
    {
      "inputs": [
        {
          "internalType": "uint256",
          "name": "tokenId",
          "type": "uint256"
        }
      ],
      "name": "ownerOf",
      "outputs": [
        {
          "internalType": "address",
          "name": "",
          "type": "address"
        }
      ],
      "stateMutability": "view",
      "type": "function"
    },
    {
      "inputs": [
        {
          "internalType": "uint256",
          "name": "",
          "type": "uint256"
        }
      ],
      "name": "pfpToHat",
      "outputs": [
        {
          "internalType": "uint256",
          "name": "",
          "type": "uint256"
        }
      ],
      "stateMutability": "view",
      "type": "function"
    },
    {
      "inputs": [
        {
          "internalType": "address",
          "name": "from",
          "type": "address"
        },
        {
          "internalType": "address",
          "name": "to",
          "type": "address"
        },
        {
          "internalType": "uint256",
          "name": "tokenId",
          "type": "uint256"
        }
      ],
      "name": "safeTransferFrom",
      "outputs": [],
      "stateMutability": "nonpayable",
      "type": "function"
    },
    {
      "inputs": [
        {
          "internalType": "address",
          "name": "from",
          "type": "address"
        },
        {
          "internalType": "address",
          "name": "to",
          "type": "address"
        },
        {
          "internalType": "uint256",
          "name": "tokenId",
          "type": "uint256"
        },
        {
          "internalType": "bytes",
          "name": "data",
          "type": "bytes"
        }
      ],
      "name": "safeTransferFrom",
      "outputs": [],
      "stateMutability": "nonpayable",
      "type": "function"
    },
    {
      "inputs": [
        {
          "internalType": "address",
          "name": "operator",
          "type": "address"
        },
        {
          "internalType": "bool",
          "name": "approved",
          "type": "bool"
        }
      ],
      "name": "setApprovalForAll",
      "outputs": [],
      "stateMutability": "nonpayable",
      "type": "function"
    },
    {
      "inputs": [
        {
          "internalType": "bytes4",
          "name": "interfaceId",
          "type": "bytes4"
        }
      ],
      "name": "supportsInterface",
      "outputs": [
        {
          "internalType": "bool",
          "name": "",
          "type": "bool"
        }
      ],
      "stateMutability": "view",
      "type": "function"
    },
    {
      "inputs": [],
      "name": "symbol",
      "outputs": [
        {
          "internalType": "string",
          "name": "",
          "type": "string"
        }
      ],
      "stateMutability": "view",
      "type": "function"
    },
    {
      "inputs": [
        {
          "internalType": "address",
          "name": "from",
          "type": "address"
        },
        {
          "internalType": "address",
          "name": "to",
          "type": "address"
        },
        {
          "internalType": "uint256",
          "name": "tokenId",
          "type": "uint256"
        }
      ],
      "name": "transferFrom",
      "outputs": [],
      "stateMutability": "nonpayable",
      "type": "function"
    },
    {
      "inputs": [
        {
          "internalType": "string",
          "name": "name",
          "type": "string"
        },
        {
          "internalType": "string",
          "name": "design",
          "type": "string"
        },
        {
          "internalType": "string",
          "name": "color",
          "type": "string"
        },
        {
          "internalType": "uint256",
          "name": "rarity",
          "type": "uint256"
        }
      ],
      "name": "mintHat",
      "outputs": [
        {
          "internalType": "uint256",
          "name": "",
          "type": "uint256"
        }
      ],
      "stateMutability": "nonpayable",
      "type": "function"
    },
    {
      "inputs": [
        {
          "internalType": "address",
          "name": "from",
          "type": "address"
        },
        {
          "internalType": "uint256",
          "name": "tokenId",
          "type": "uint256"
        },
        {
          "internalType": "uint256",
          "name": "hatId",
          "type": "uint256"
        }
      ],
      "name": "transferToContract",
      "outputs": [],
      "stateMutability": "nonpayable",
      "type": "function"
    },
    {
      "inputs": [
        {
          "internalType": "uint256",
          "name": "tokenId",
          "type": "uint256"
        }
      ],
      "name": "tokenURI",
      "outputs": [
        {
          "internalType": "string",
          "name": "",
          "type": "string"
        }
      ],
      "stateMutability": "view",
      "type": "function"
    }
  ],
  "bytecode": "0x608060405260006007553480156200001657600080fd5b506040518060400160405280600881526020017f48617473204e46540000000000000000000000000000000000000000000000008152506040518060400160405280600381526020017f4841540000000000000000000000000000000000000000000000000000000000815250816000908162000094919062000329565b508060019081620000a6919062000329565b50505062000410565b600081519050919050565b7f4e487b7100000000000000000000000000000000000000000000000000000000600052604160045260246000fd5b7f4e487b7100000000000000000000000000000000000000000000000000000000600052602260045260246000fd5b600060028204905060018216806200013157607f821691505b602082108103620001475762000146620000e9565b5b50919050565b60008190508160005260206000209050919050565b60006020601f8301049050919050565b600082821b905092915050565b600060088302620001b17fffffffffffffffffffffffffffffffffffffffffffffffffffffffffffffffff8262000172565b620001bd868362000172565b95508019841693508086168417925050509392505050565b6000819050919050565b6000819050919050565b60006200020a62000204620001fe84620001d5565b620001df565b620001d5565b9050919050565b6000819050919050565b6200022683620001e9565b6200023e620002358262000211565b8484546200017f565b825550505050565b600090565b6200025562000246565b620002628184846200021b565b505050565b5b818110156200028a576200027e6000826200024b565b60018101905062000268565b5050565b601f821115620002d957620002a3816200014d565b620002ae8462000162565b81016020851015620002be578190505b620002d6620002cd8562000162565b83018262000267565b50505b505050565b600082821c905092915050565b6000620002fe60001984600802620002de565b1980831691505092915050565b6000620003198383620002eb565b9150826002028217905092915050565b6200033482620000af565b67ffffffffffffffff81111562000350576200034f620000ba565b5b6200035c825462000118565b620003698282856200028e565b600060209050601f831160018114620003a157600084156200038c578287015190505b6200039885826200030b565b86555062000408565b601f198416620003b1866200014d565b60005b82811015620003db57848901518255600182019150602085019450602081019050620003b4565b86831015620003fb5784890151620003f7601f891682620002eb565b8355505b6001600288020188555050505b505050505050565b613ab380620004206000396000f3fe608060405234801561001057600080fd5b50600436106101215760003560e01c8063434e60c1116100ad578063a22cb46511610071578063a22cb46514610340578063b88d4fde1461035c578063bca747b514610378578063c87b56dd146103ac578063e985e9c5146103dc57610121565b8063434e60c1146102765780636352211e146102a657806370a08231146102d657806395d89b411461030657806395f847fd1461032457610121565b8063194b38d9116100f4578063194b38d9146101c05780631ccb2346146101f057806323b872dd1461020e57806331888d781461022a57806342842e0e1461025a57610121565b806301ffc9a71461012657806306fdde0314610156578063081812fc14610174578063095ea7b3146101a4575b600080fd5b610140600480360381019061013b9190612066565b61040c565b60405161014d91906120ae565b60405180910390f35b61015e61046d565b60405161016b9190612159565b60405180910390f35b61018e600480360381019061018991906121b1565b6104ff565b60405161019b919061221f565b60405180910390f35b6101be60048036038101906101b99190612266565b610545565b005b6101da60048036038101906101d591906123db565b61065c565b6040516101e791906124a5565b60405180910390f35b6101f86107b0565b60405161020591906124a5565b60405180910390f35b610228600480360381019061022391906124c0565b6107b6565b005b610244600480360381019061023f91906121b1565b610816565b604051610251919061221f565b60405180910390f35b610274600480360381019061026f91906124c0565b610849565b005b610290600480360381019061028b91906121b1565b610869565b60405161029d91906124a5565b60405180910390f35b6102c060048036038101906102bb91906121b1565b610881565b6040516102cd919061221f565b60405180910390f35b6102f060048036038101906102eb9190612513565b610907565b6040516102fd91906124a5565b60405180910390f35b61030e6109be565b60405161031b9190612159565b60405180910390f35b61033e60048036038101906103399190612540565b610a50565b005b61035a600480360381019061035591906125bf565b610d9d565b005b610376600480360381019061037191906126a0565b610db3565b005b610392600480360381019061038d91906121b1565b610e15565b6040516103a3959493929190612723565b60405180910390f35b6103c660048036038101906103c191906121b1565b610fe3565b6040516103d39190612159565b60405180910390f35b6103f660048036038101906103f1919061278b565b611167565b60405161040391906120ae565b60405180910390f35b6000634906490660e01b7bffffffffffffffffffffffffffffffffffffffffffffffffffffffff1916827bffffffffffffffffffffffffffffffffffffffffffffffffffffffff191614806104665750610465826111fb565b5b9050919050565b60606000805461047c906127fa565b80601f01602080910402602001604051908101604052809291908181526020018280546104a8906127fa565b80156104f55780601f106104ca576101008083540402835291602001916104f5565b820191906000526020600020905b8154815290600101906020018083116104d857829003601f168201915b5050505050905090565b600061050a826112dd565b6004600083815260200190815260200160002060009054906101000a900473ffffffffffffffffffffffffffffffffffffffff169050919050565b600061055082610881565b90508073ffffffffffffffffffffffffffffffffffffffff168373ffffffffffffffffffffffffffffffffffffffff16036105c0576040517f08c379a00000000000000000000000000000000000000000000000000000000081526004016105b79061289d565b60405180910390fd5b8073ffffffffffffffffffffffffffffffffffffffff166105df611328565b73ffffffffffffffffffffffffffffffffffffffff16148061060e575061060d81610608611328565b611167565b5b61064d576040517f08c379a00000000000000000000000000000000000000000000000000000000081526004016106449061292f565b60405180910390fd5b6106578383611330565b505050565b600080600760008154809291906106729061297e565b91905055905060006040518060a0016040528083815260200188815260200187815260200186815260200185815250905080600860008481526020019081526020016000206000820151816000015560208201518160010190816106d69190612b72565b5060408201518160020190816106ec9190612b72565b5060608201518160030190816107029190612b72565b5060808201518160040155905050336009600084815260200190815260200160002060006101000a81548173ffffffffffffffffffffffffffffffffffffffff021916908373ffffffffffffffffffffffffffffffffffffffff1602179055507f124c521a9488951d9b84c19515ef4cc51f3f409b29ce2d7f217532380a61349682338989898960405161079b96959493929190612c44565b60405180910390a18192505050949350505050565b60075481565b6107c76107c1611328565b826113e9565b610806576040517f08c379a00000000000000000000000000000000000000000000000000000000081526004016107fd90612d2c565b60405180910390fd5b61081183838361147e565b505050565b60096020528060005260406000206000915054906101000a900473ffffffffffffffffffffffffffffffffffffffff1681565b61086483838360405180602001604052806000815250610db3565b505050565b600a6020528060005260406000206000915090505481565b60008061088d83611777565b9050600073ffffffffffffffffffffffffffffffffffffffff168173ffffffffffffffffffffffffffffffffffffffff16036108fe576040517f08c379a00000000000000000000000000000000000000000000000000000000081526004016108f590612d98565b60405180910390fd5b80915050919050565b60008073ffffffffffffffffffffffffffffffffffffffff168273ffffffffffffffffffffffffffffffffffffffff1603610977576040517f08c379a000000000000000000000000000000000000000000000000000000000815260040161096e90612e2a565b60405180910390fd5b600360008373ffffffffffffffffffffffffffffffffffffffff1673ffffffffffffffffffffffffffffffffffffffff168152602001908152602001600020549050919050565b6060600180546109cd906127fa565b80601f01602080910402602001604051908101604052809291908181526020018280546109f9906127fa565b8015610a465780601f10610a1b57610100808354040283529160200191610a46565b820191906000526020600020905b815481529060010190602001808311610a2957829003601f168201915b5050505050905090565b60003390508373ffffffffffffffffffffffffffffffffffffffff168173ffffffffffffffffffffffffffffffffffffffff16636352211e856040518263ffffffff1660e01b8152600401610aa591906124a5565b602060405180830381865afa158015610ac2573d6000803e3d6000fd5b505050506040513d601f19601f82011682018060405250810190610ae69190612e5f565b73ffffffffffffffffffffffffffffffffffffffff1614610b3c576040517f08c379a0000000000000000000000000000000000000000000000000000000008152600401610b3390612efe565b60405180910390fd5b3073ffffffffffffffffffffffffffffffffffffffff168173ffffffffffffffffffffffffffffffffffffffff1663081812fc856040518263ffffffff1660e01b8152600401610b8c91906124a5565b602060405180830381865afa158015610ba9573d6000803e3d6000fd5b505050506040513d601f19601f82011682018060405250810190610bcd9190612e5f565b73ffffffffffffffffffffffffffffffffffffffff1614610c23576040517f08c379a0000000000000000000000000000000000000000000000000000000008152600401610c1a90612f90565b60405180910390fd5b3073ffffffffffffffffffffffffffffffffffffffff166009600084815260200190815260200160002060009054906101000a900473ffffffffffffffffffffffffffffffffffffffff1673ffffffffffffffffffffffffffffffffffffffff1614610cc4576040517f08c379a0000000000000000000000000000000000000000000000000000000008152600401610cbb90613022565b60405180910390fd5b600082604051602001610cd791906124a5565b60405160208183030381529060405290508173ffffffffffffffffffffffffffffffffffffffff1663b88d4fde863087856040518563ffffffff1660e01b8152600401610d279493929190613097565b600060405180830381600087803b158015610d4157600080fd5b505af1158015610d55573d6000803e3d6000fd5b505050507f2edf8c2e73642399ba120f7751b720b14e71abff0e778ad0f53f10a6634968d585308686604051610d8e94939291906130e3565b60405180910390a15050505050565b610daf610da8611328565b83836117b4565b5050565b610dc4610dbe611328565b836113e9565b610e03576040517f08c379a0000000000000000000000000000000000000000000000000000000008152600401610dfa90612d2c565b60405180910390fd5b610e0f84848484611920565b50505050565b6008602052806000526040600020600091509050806000015490806001018054610e3e906127fa565b80601f0160208091040260200160405190810160405280929190818152602001828054610e6a906127fa565b8015610eb75780601f10610e8c57610100808354040283529160200191610eb7565b820191906000526020600020905b815481529060010190602001808311610e9a57829003601f168201915b505050505090806002018054610ecc906127fa565b80601f0160208091040260200160405190810160405280929190818152602001828054610ef8906127fa565b8015610f455780601f10610f1a57610100808354040283529160200191610f45565b820191906000526020600020905b815481529060010190602001808311610f2857829003601f168201915b505050505090806003018054610f5a906127fa565b80601f0160208091040260200160405190810160405280929190818152602001828054610f86906127fa565b8015610fd35780601f10610fa857610100808354040283529160200191610fd3565b820191906000526020600020905b815481529060010190602001808311610fb657829003601f168201915b5050505050908060040154905085565b6060610fee8261197c565b61102d576040517f08c379a000000000000000000000000000000000000000000000000000000000815260040161102490613174565b60405180910390fd5b600061103883610881565b90506000600a60008581526020019081526020016000205403611091576000611060846119bd565b905060008160405160200161107591906131d0565b6040516020818303038152906040529050809350505050611162565b60008173ffffffffffffffffffffffffffffffffffffffff1663c87b56dd856040518263ffffffff1660e01b81526004016110cc91906124a5565b600060405180830381865afa1580156110e9573d6000803e3d6000fd5b505050506040513d6000823e3d601f19601f820116820180604052508101906111129190613257565b90506000611132600a6000878152602001908152602001600020546119bd565b9050600082826040516020016111499291906132a0565b6040516020818303038152906040529050809450505050505b919050565b6000600560008473ffffffffffffffffffffffffffffffffffffffff1673ffffffffffffffffffffffffffffffffffffffff16815260200190815260200160002060008373ffffffffffffffffffffffffffffffffffffffff1673ffffffffffffffffffffffffffffffffffffffff16815260200190815260200160002060009054906101000a900460ff16905092915050565b60007f80ac58cd000000000000000000000000000000000000000000000000000000007bffffffffffffffffffffffffffffffffffffffffffffffffffffffff1916827bffffffffffffffffffffffffffffffffffffffffffffffffffffffff191614806112c657507f5b5e139f000000000000000000000000000000000000000000000000000000007bffffffffffffffffffffffffffffffffffffffffffffffffffffffff1916827bffffffffffffffffffffffffffffffffffffffffffffffffffffffff1916145b806112d657506112d582611bf9565b5b9050919050565b6112e68161197c565b611325576040517f08c379a000000000000000000000000000000000000000000000000000000000815260040161131c90612d98565b60405180910390fd5b50565b600033905090565b816004600083815260200190815260200160002060006101000a81548173ffffffffffffffffffffffffffffffffffffffff021916908373ffffffffffffffffffffffffffffffffffffffff160217905550808273ffffffffffffffffffffffffffffffffffffffff166113a383610881565b73ffffffffffffffffffffffffffffffffffffffff167f8c5be1e5ebec7d5bd14f71427d1e84f3dd0314c0f7b2291e5b200ac8c7c3b92560405160405180910390a45050565b6000806113f583610881565b90508073ffffffffffffffffffffffffffffffffffffffff168473ffffffffffffffffffffffffffffffffffffffff16148061143757506114368185611167565b5b8061147557508373ffffffffffffffffffffffffffffffffffffffff1661145d846104ff565b73ffffffffffffffffffffffffffffffffffffffff16145b91505092915050565b8273ffffffffffffffffffffffffffffffffffffffff1661149e82610881565b73ffffffffffffffffffffffffffffffffffffffff16146114f4576040517f08c379a00000000000000000000000000000000000000000000000000000000081526004016114eb90613336565b60405180910390fd5b600073ffffffffffffffffffffffffffffffffffffffff168273ffffffffffffffffffffffffffffffffffffffff1603611563576040517f08c379a000000000000000000000000000000000000000000000000000000000815260040161155a906133c8565b60405180910390fd5b6115708383836001611c63565b8273ffffffffffffffffffffffffffffffffffffffff1661159082610881565b73ffffffffffffffffffffffffffffffffffffffff16146115e6576040517f08c379a00000000000000000000000000000000000000000000000000000000081526004016115dd90613336565b60405180910390fd5b6004600082815260200190815260200160002060006101000a81549073ffffffffffffffffffffffffffffffffffffffff02191690556001600360008573ffffffffffffffffffffffffffffffffffffffff1673ffffffffffffffffffffffffffffffffffffffff168152602001908152602001600020600082825403925050819055506001600360008473ffffffffffffffffffffffffffffffffffffffff1673ffffffffffffffffffffffffffffffffffffffff16815260200190815260200160002060008282540192505081905550816002600083815260200190815260200160002060006101000a81548173ffffffffffffffffffffffffffffffffffffffff021916908373ffffffffffffffffffffffffffffffffffffffff160217905550808273ffffffffffffffffffffffffffffffffffffffff168473ffffffffffffffffffffffffffffffffffffffff167fddf252ad1be2c89b69c2b068fc378daa952ba7f163c4a11628f55a4df523b3ef60405160405180910390a46117728383836001611c69565b505050565b60006002600083815260200190815260200160002060009054906101000a900473ffffffffffffffffffffffffffffffffffffffff169050919050565b8173ffffffffffffffffffffffffffffffffffffffff168373ffffffffffffffffffffffffffffffffffffffff1603611822576040517f08c379a000000000000000000000000000000000000000000000000000000000815260040161181990613434565b60405180910390fd5b80600560008573ffffffffffffffffffffffffffffffffffffffff1673ffffffffffffffffffffffffffffffffffffffff16815260200190815260200160002060008473ffffffffffffffffffffffffffffffffffffffff1673ffffffffffffffffffffffffffffffffffffffff16815260200190815260200160002060006101000a81548160ff0219169083151502179055508173ffffffffffffffffffffffffffffffffffffffff168373ffffffffffffffffffffffffffffffffffffffff167f17307eab39ab6107e8899845ad3d59bd9653f200f220920489ca2b5937696c318360405161191391906120ae565b60405180910390a3505050565b61192b84848461147e565b61193784848484611c6f565b611976576040517f08c379a000000000000000000000000000000000000000000000000000000000815260040161196d906134c6565b60405180910390fd5b50505050565b60008073ffffffffffffffffffffffffffffffffffffffff1661199e83611777565b73ffffffffffffffffffffffffffffffffffffffff1614159050919050565b60606000600860008481526020019081526020016000206040518060a0016040529081600082015481526020016001820180546119f9906127fa565b80601f0160208091040260200160405190810160405280929190818152602001828054611a25906127fa565b8015611a725780601f10611a4757610100808354040283529160200191611a72565b820191906000526020600020905b815481529060010190602001808311611a5557829003601f168201915b50505050508152602001600282018054611a8b906127fa565b80601f0160208091040260200160405190810160405280929190818152602001828054611ab7906127fa565b8015611b045780601f10611ad957610100808354040283529160200191611b04565b820191906000526020600020905b815481529060010190602001808311611ae757829003601f168201915b50505050508152602001600382018054611b1d906127fa565b80601f0160208091040260200160405190810160405280929190818152602001828054611b49906127fa565b8015611b965780601f10611b6b57610100808354040283529160200191611b96565b820191906000526020600020905b815481529060010190602001808311611b7957829003601f168201915b5050505050815260200160048201548152505090506000816020015182604001518360600151611bc98560800151611df6565b87604051602001611bde95949392919061384b565b60405160208183030381529060405290508092505050919050565b60007f01ffc9a7000000000000000000000000000000000000000000000000000000007bffffffffffffffffffffffffffffffffffffffffffffffffffffffff1916827bffffffffffffffffffffffffffffffffffffffffffffffffffffffff1916149050919050565b50505050565b50505050565b6000611c908473ffffffffffffffffffffffffffffffffffffffff16611fd7565b15611de9578373ffffffffffffffffffffffffffffffffffffffff1663150b7a02611cb9611328565b8786866040518563ffffffff1660e01b8152600401611cdb9493929190613097565b6020604051808303816000875af1925050508015611d1757506040513d601f19601f82011682018060405250810190611d149190613928565b60015b611d99573d8060008114611d47576040519150601f19603f3d011682016040523d82523d6000602084013e611d4c565b606091505b506000815103611d91576040517f08c379a0000000000000000000000000000000000000000000000000000000008152600401611d88906134c6565b60405180910390fd5b805181602001fd5b63150b7a0260e01b7bffffffffffffffffffffffffffffffffffffffffffffffffffffffff1916817bffffffffffffffffffffffffffffffffffffffffffffffffffffffff191614915050611dee565b600190505b949350505050565b606060006064905060008167ffffffffffffffff811115611e1a57611e196122b0565b5b6040519080825280601f01601f191660200182016040528015611e4c5781602001600182028036833780820191505090505b50905060005b60008514611ede576000600a86611e699190613984565b9050600a86611e7891906139b5565b9550806030611e8791906139e6565b60f81b838380611e969061297e565b945081518110611ea957611ea8613a1a565b5b60200101907effffffffffffffffffffffffffffffffffffffffffffffffffffffffffffff1916908160001a90535050611e52565b60008167ffffffffffffffff811115611efa57611ef96122b0565b5b6040519080825280601f01601f191660200182016040528015611f2c5781602001600182028036833780820191505090505b50905060005b82811015611fc4578360018285611f499190613a49565b611f539190613a49565b81518110611f6457611f63613a1a565b5b602001015160f81c60f81b828281518110611f8257611f81613a1a565b5b60200101907effffffffffffffffffffffffffffffffffffffffffffffffffffffffffffff1916908160001a9053508080611fbc9061297e565b915050611f32565b5060008190508095505050505050919050565b6000808273ffffffffffffffffffffffffffffffffffffffff163b119050919050565b6000604051905090565b600080fd5b600080fd5b60007fffffffff0000000000000000000000000000000000000000000000000000000082169050919050565b6120438161200e565b811461204e57600080fd5b50565b6000813590506120608161203a565b92915050565b60006020828403121561207c5761207b612004565b5b600061208a84828501612051565b91505092915050565b60008115159050919050565b6120a881612093565b82525050565b60006020820190506120c3600083018461209f565b92915050565b600081519050919050565b600082825260208201905092915050565b60005b838110156121035780820151818401526020810190506120e8565b60008484015250505050565b6000601f19601f8301169050919050565b600061212b826120c9565b61213581856120d4565b93506121458185602086016120e5565b61214e8161210f565b840191505092915050565b600060208201905081810360008301526121738184612120565b905092915050565b6000819050919050565b61218e8161217b565b811461219957600080fd5b50565b6000813590506121ab81612185565b92915050565b6000602082840312156121c7576121c6612004565b5b60006121d58482850161219c565b91505092915050565b600073ffffffffffffffffffffffffffffffffffffffff82169050919050565b6000612209826121de565b9050919050565b612219816121fe565b82525050565b60006020820190506122346000830184612210565b92915050565b612243816121fe565b811461224e57600080fd5b50565b6000813590506122608161223a565b92915050565b6000806040838503121561227d5761227c612004565b5b600061228b85828601612251565b925050602061229c8582860161219c565b9150509250929050565b600080fd5b600080fd5b7f4e487b7100000000000000000000000000000000000000000000000000000000600052604160045260246000fd5b6122e88261210f565b810181811067ffffffffffffffff82111715612307576123066122b0565b5b80604052505050565b600061231a611ffa565b905061232682826122df565b919050565b600067ffffffffffffffff821115612346576123456122b0565b5b61234f8261210f565b9050602081019050919050565b82818337600083830152505050565b600061237e6123798461232b565b612310565b90508281526020810184848401111561239a576123996122ab565b5b6123a584828561235c565b509392505050565b600082601f8301126123c2576123c16122a6565b5b81356123d284826020860161236b565b91505092915050565b600080600080608085870312156123f5576123f4612004565b5b600085013567ffffffffffffffff81111561241357612412612009565b5b61241f878288016123ad565b945050602085013567ffffffffffffffff8111156124405761243f612009565b5b61244c878288016123ad565b935050604085013567ffffffffffffffff81111561246d5761246c612009565b5b612479878288016123ad565b925050606061248a8782880161219c565b91505092959194509250565b61249f8161217b565b82525050565b60006020820190506124ba6000830184612496565b92915050565b6000806000606084860312156124d9576124d8612004565b5b60006124e786828701612251565b93505060206124f886828701612251565b92505060406125098682870161219c565b9150509250925092565b60006020828403121561252957612528612004565b5b600061253784828501612251565b91505092915050565b60008060006060848603121561255957612558612004565b5b600061256786828701612251565b93505060206125788682870161219c565b92505060406125898682870161219c565b9150509250925092565b61259c81612093565b81146125a757600080fd5b50565b6000813590506125b981612593565b92915050565b600080604083850312156125d6576125d5612004565b5b60006125e485828601612251565b92505060206125f5858286016125aa565b9150509250929050565b600067ffffffffffffffff82111561261a576126196122b0565b5b6126238261210f565b9050602081019050919050565b600061264361263e846125ff565b612310565b90508281526020810184848401111561265f5761265e6122ab565b5b61266a84828561235c565b509392505050565b600082601f830112612687576126866122a6565b5b8135612697848260208601612630565b91505092915050565b600080600080608085870312156126ba576126b9612004565b5b60006126c887828801612251565b94505060206126d987828801612251565b93505060406126ea8782880161219c565b925050606085013567ffffffffffffffff81111561270b5761270a612009565b5b61271787828801612672565b91505092959194509250565b600060a0820190506127386000830188612496565b818103602083015261274a8187612120565b9050818103604083015261275e8186612120565b905081810360608301526127728185612120565b90506127816080830184612496565b9695505050505050565b600080604083850312156127a2576127a1612004565b5b60006127b085828601612251565b92505060206127c185828601612251565b9150509250929050565b7f4e487b7100000000000000000000000000000000000000000000000000000000600052602260045260246000fd5b6000600282049050600182168061281257607f821691505b602082108103612825576128246127cb565b5b50919050565b7f4552433732313a20617070726f76616c20746f2063757272656e74206f776e6560008201527f7200000000000000000000000000000000000000000000000000000000000000602082015250565b60006128876021836120d4565b91506128928261282b565b604082019050919050565b600060208201905081810360008301526128b68161287a565b9050919050565b7f4552433732313a20617070726f76652063616c6c6572206973206e6f7420746f60008201527f6b656e206f776e6572206f7220617070726f76656420666f7220616c6c000000602082015250565b6000612919603d836120d4565b9150612924826128bd565b604082019050919050565b600060208201905081810360008301526129488161290c565b9050919050565b7f4e487b7100000000000000000000000000000000000000000000000000000000600052601160045260246000fd5b60006129898261217b565b91507fffffffffffffffffffffffffffffffffffffffffffffffffffffffffffffffff82036129bb576129ba61294f565b5b600182019050919050565b60008190508160005260206000209050919050565b60006020601f8301049050919050565b600082821b905092915050565b600060088302612a287fffffffffffffffffffffffffffffffffffffffffffffffffffffffffffffffff826129eb565b612a3286836129eb565b95508019841693508086168417925050509392505050565b6000819050919050565b6000612a6f612a6a612a658461217b565b612a4a565b61217b565b9050919050565b6000819050919050565b612a8983612a54565b612a9d612a9582612a76565b8484546129f8565b825550505050565b600090565b612ab2612aa5565b612abd818484612a80565b505050565b5b81811015612ae157612ad6600082612aaa565b600181019050612ac3565b5050565b601f821115612b2657612af7816129c6565b612b00846129db565b81016020851015612b0f578190505b612b23612b1b856129db565b830182612ac2565b50505b505050565b600082821c905092915050565b6000612b4960001984600802612b2b565b1980831691505092915050565b6000612b628383612b38565b9150826002028217905092915050565b612b7b826120c9565b67ffffffffffffffff811115612b9457612b936122b0565b5b612b9e82546127fa565b612ba9828285612ae5565b600060209050601f831160018114612bdc5760008415612bca578287015190505b612bd48582612b56565b865550612c3c565b601f198416612bea866129c6565b60005b82811015612c1257848901518255600182019150602085019450602081019050612bed565b86831015612c2f5784890151612c2b601f891682612b38565b8355505b6001600288020188555050505b505050505050565b600060c082019050612c596000830189612496565b612c666020830188612210565b8181036040830152612c788187612120565b90508181036060830152612c8c8186612120565b90508181036080830152612ca08185612120565b9050612caf60a0830184612496565b979650505050505050565b7f4552433732313a2063616c6c6572206973206e6f7420746f6b656e206f776e6560008201527f72206f7220617070726f76656400000000000000000000000000000000000000602082015250565b6000612d16602d836120d4565b9150612d2182612cba565b604082019050919050565b60006020820190508181036000830152612d4581612d09565b9050919050565b7f4552433732313a20696e76616c696420746f6b656e2049440000000000000000600082015250565b6000612d826018836120d4565b9150612d8d82612d4c565b602082019050919050565b60006020820190508181036000830152612db181612d75565b9050919050565b7f4552433732313a2061646472657373207a65726f206973206e6f74206120766160008201527f6c6964206f776e65720000000000000000000000000000000000000000000000602082015250565b6000612e146029836120d4565b9150612e1f82612db8565b604082019050919050565b60006020820190508181036000830152612e4381612e07565b9050919050565b600081519050612e598161223a565b92915050565b600060208284031215612e7557612e74612004565b5b6000612e8384828501612e4a565b91505092915050565b7f596f75206d757374206f776e2074686520504650204e465420746f206174746160008201527f6368206120686174000000000000000000000000000000000000000000000000602082015250565b6000612ee86028836120d4565b9150612ef382612e8c565b604082019050919050565b60006020820190508181036000830152612f1781612edb565b9050919050565b7f596f75206d75737420617070726f766520486174734e4654206173206120737060008201527f656e646572000000000000000000000000000000000000000000000000000000602082015250565b6000612f7a6025836120d4565b9150612f8582612f1e565b604082019050919050565b60006020820190508181036000830152612fa981612f6d565b9050919050565b7f54686520686174206d757374206265206f776e656420627920486174734e465460008201527f20746f2061747461636820697400000000000000000000000000000000000000602082015250565b600061300c602d836120d4565b915061301782612fb0565b604082019050919050565b6000602082019050818103600083015261303b81612fff565b9050919050565b600081519050919050565b600082825260208201905092915050565b600061306982613042565b613073818561304d565b93506130838185602086016120e5565b61308c8161210f565b840191505092915050565b60006080820190506130ac6000830187612210565b6130b96020830186612210565b6130c66040830185612496565b81810360608301526130d8818461305e565b905095945050505050565b60006080820190506130f86000830187612210565b6131056020830186612210565b6131126040830185612496565b61311f6060830184612496565b95945050505050565b7f546f6b656e20494420646f6573206e6f74206578697374000000000000000000600082015250565b600061315e6017836120d4565b915061316982613128565b602082019050919050565b6000602082019050818103600083015261318d81613151565b9050919050565b600081905092915050565b60006131aa826120c9565b6131b48185613194565b93506131c48185602086016120e5565b80840191505092915050565b60006131dc828461319f565b915081905092915050565b60006131fa6131f58461232b565b612310565b905082815260208101848484011115613216576132156122ab565b5b6132218482856120e5565b509392505050565b600082601f83011261323e5761323d6122a6565b5b815161324e8482602086016131e7565b91505092915050565b60006020828403121561326d5761326c612004565b5b600082015167ffffffffffffffff81111561328b5761328a612009565b5b61329784828501613229565b91505092915050565b60006132ac828561319f565b91506132b8828461319f565b91508190509392505050565b7f4552433732313a207472616e736665722066726f6d20696e636f72726563742060008201527f6f776e6572000000000000000000000000000000000000000000000000000000602082015250565b60006133206025836120d4565b915061332b826132c4565b604082019050919050565b6000602082019050818103600083015261334f81613313565b9050919050565b7f4552433732313a207472616e7366657220746f20746865207a65726f2061646460008201527f7265737300000000000000000000000000000000000000000000000000000000602082015250565b60006133b26024836120d4565b91506133bd82613356565b604082019050919050565b600060208201905081810360008301526133e1816133a5565b9050919050565b7f4552433732313a20617070726f766520746f2063616c6c657200000000000000600082015250565b600061341e6019836120d4565b9150613429826133e8565b602082019050919050565b6000602082019050818103600083015261344d81613411565b9050919050565b7f4552433732313a207472616e7366657220746f206e6f6e20455243373231526560008201527f63656976657220696d706c656d656e7465720000000000000000000000000000602082015250565b60006134b06032836120d4565b91506134bb82613454565b604082019050919050565b600060208201905081810360008301526134df816134a3565b9050919050565b7f7b00000000000000000000000000000000000000000000000000000000000000600082015250565b600061351c600183613194565b9150613527826134e6565b600182019050919050565b7f226e616d65223a22000000000000000000000000000000000000000000000000600082015250565b6000613568600883613194565b915061357382613532565b600882019050919050565b7f222c000000000000000000000000000000000000000000000000000000000000600082015250565b60006135b4600283613194565b91506135bf8261357e565b600282019050919050565b7f226465736372697074696f6e223a220000000000000000000000000000000000600082015250565b6000613600600f83613194565b915061360b826135ca565b600f82019050919050565b7f2261747472696275746573223a5b7b2274726169745f74797065223a22636f6c60008201527f6f72222c2276616c7565223a2200000000000000000000000000000000000000602082015250565b6000613672602d83613194565b915061367d82613616565b602d82019050919050565b7f227d2c7b2274726169745f74797065223a22726172697479222c2276616c756560008201527f223a000000000000000000000000000000000000000000000000000000000000602082015250565b60006136e4602283613194565b91506136ef82613688565b602282019050919050565b7f7d5d2c0000000000000000000000000000000000000000000000000000000000600082015250565b6000613730600383613194565b915061373b826136fa565b600382019050919050565b7f22696d616765223a22697066733a2f2f00000000000000000000000000000000600082015250565b600061377c601083613194565b915061378782613746565b601082019050919050565b6000819050919050565b6137ad6137a88261217b565b613792565b82525050565b7f2e706e6722000000000000000000000000000000000000000000000000000000600082015250565b60006137e9600583613194565b91506137f4826137b3565b600582019050919050565b7f7d00000000000000000000000000000000000000000000000000000000000000600082015250565b6000613835600183613194565b9150613840826137ff565b600182019050919050565b60006138568261350f565b91506138618261355b565b915061386d828861319f565b9150613878826135a7565b9150613883826135f3565b915061388f828761319f565b915061389a826135a7565b91506138a582613665565b91506138b1828661319f565b91506138bc826136d7565b91506138c8828561319f565b91506138d382613723565b91506138de8261376f565b91506138ea828461379c565b6020820191506138f9826137dc565b915061390482613828565b91508190509695505050505050565b6000815190506139228161203a565b92915050565b60006020828403121561393e5761393d612004565b5b600061394c84828501613913565b91505092915050565b7f4e487b7100000000000000000000000000000000000000000000000000000000600052601260045260246000fd5b600061398f8261217b565b915061399a8361217b565b9250826139aa576139a9613955565b5b828206905092915050565b60006139c08261217b565b91506139cb8361217b565b9250826139db576139da613955565b5b828204905092915050565b60006139f18261217b565b91506139fc8361217b565b9250828201905080821115613a1457613a1361294f565b5b92915050565b7f4e487b7100000000000000000000000000000000000000000000000000000000600052603260045260246000fd5b6000613a548261217b565b9150613a5f8361217b565b9250828203905081811115613a7757613a7661294f565b5b9291505056fea26469706673582212204233dc61d0f908e4e5c811ccb3a87cc565b12dba116ca7900b9ef91120e315eb64736f6c63430008130033",
  "immutableReferences": {},
  "source": "// SPDX-License-Identifier: MIT\npragma solidity ^0.8.0;\n\nimport \"./openzeppelin-contracts-master/contracts/token/ERC721/IERC721.sol\";\nimport \"./openzeppelin-contracts-master/contracts/token/ERC721/extensions/IERC721Metadata.sol\";\nimport \"./openzeppelin-contracts-master/contracts/token/ERC721/extensions/ERC721URIStorage.sol\";\n\ncontract HatsNFT is ERC721URIStorage {\n    struct Hat {\n        uint256 id;\n        string name;\n        string design;\n        string color;\n        uint256 rarity;\n    }\n    \n    uint256 public nextHatId = 0;\n    mapping(uint256 => Hat) public hats;\n    mapping(uint256 => address) public hatOwners;\n    mapping(uint256 => uint256) public pfpToHat;\n    \n    constructor() ERC721(\"Hats NFT\", \"HAT\") {}\n    \n    \n    function mintHat(string memory name, string memory design, string memory color, uint256 rarity) public returns (uint256) {\n        uint256 hatId = nextHatId++;\n        Hat memory newHat = Hat(hatId, name, design, color, rarity);\n        hats[hatId] = newHat;\n        hatOwners[hatId] = msg.sender;\n        emit HatMinted(hatId, msg.sender, name, design, color, rarity);\n        return hatId;\n    }\n    \n    function transferToContract(address from, uint256 tokenId, uint256 hatId) public {\n        IERC721 pfpContract = IERC721(msg.sender);\n        require(pfpContract.ownerOf(tokenId) == from, \"You must own the PFP NFT to attach a hat\");\n        require(pfpContract.getApproved(tokenId) == address(this), \"You must approve HatsNFT as a spender\");\n        require(hatOwners[hatId] == address(this), \"The hat must be owned by HatsNFT to attach it\");\n        \n        bytes memory data = abi.encode(hatId);\n        pfpContract.safeTransferFrom(from, address(this), tokenId, data);\n        emit HatTransfer(from, address(this), tokenId, hatId);\n    }\n        \n    function tokenURI(uint256 tokenId) public view override returns (string memory) {\n        require(_exists(tokenId), \"Token ID does not exist\");\n        address pfpContract = ownerOf(tokenId);\n        if (pfpToHat[tokenId] == 0) {\n            string memory hatMetadata = generateHatMetadata(tokenId);\n            string memory metadata = string(abi.encodePacked(hatMetadata));\n            return metadata;\n        } else {\n            string memory pfpMetadata = IERC721Metadata(pfpContract).tokenURI(tokenId);\n            string memory hatMetadata = generateHatMetadata(pfpToHat[tokenId]);\n            string memory concatenatedMetadata = string(abi.encodePacked(pfpMetadata, hatMetadata));\n            return concatenatedMetadata;\n        }\n    }\n\n    function generateHatMetadata(uint256 hatId) private view returns (string memory) {\n        Hat memory hat = hats[hatId];\n        string memory json = string(abi.encodePacked(\n            '{',\n                '\"name\":\"', hat.name, '\",',\n                '\"description\":\"', hat.design, '\",',\n                '\"attributes\":[{\"trait_type\":\"color\",\"value\":\"', hat.color, '\"},{\"trait_type\":\"rarity\",\"value\":', uintToString(hat.rarity), '}],',\n                '\"image\":\"ipfs://', hatId, '.png\"',\n            '}'\n        ));\n        return json;\n    }\n\n    function uintToString(uint256 v) private pure returns (string memory) {\n        uint256 maxlength = 100;\n        bytes memory reversed = new bytes(maxlength);\n        uint256 i = 0;\n        while (v != 0) {\n            uint256 remainder = v % 10;\n            v = v / 10;\n            reversed[i++] = bytes1(uint8(48 + remainder));\n        }\n        bytes memory s = new bytes(i); // Set size\n        for (uint256 j = 0; j < i; j++) {\n            s[j] = reversed[i - j - 1]; // Populate from the end\n        }\n        string memory str = string(s); // Convert to string\n        return str;\n    }\n\n    event HatMinted(uint256 hatId, address owner, string name, string design, string color, uint256 rarity);\n    event HatAttached(uint256 hatId, uint256 tokenId, address owner);\n    event HatTransfer(address from, address to, uint256 tokenId, uint256 hatId);\n\n\n\n}",
  "sourcePath": "/Users/urieltan/gitclones/ft5004/nft-project/contracts/hats.sol",
  "compiler": {
    "name": "solc",
    "version": "0.8.19+commit.7dd6d404.Emscripten.clang"
  },
  "schemaVersion": "3.4.13",
  "updatedAt": "2023-04-19T19:30:34.233Z",
  "devdoc": {
    "events": {
      "Approval(address,address,uint256)": {
        "details": "Emitted when `owner` enables `approved` to manage the `tokenId` token."
      },
      "ApprovalForAll(address,address,bool)": {
        "details": "Emitted when `owner` enables or disables (`approved`) `operator` to manage all of its assets."
      },
      "BatchMetadataUpdate(uint256,uint256)": {
        "details": "This event emits when the metadata of a range of tokens is changed. So that the third-party platforms such as NFT market could timely update the images and related attributes of the NFTs."
      },
      "MetadataUpdate(uint256)": {
        "details": "This event emits when the metadata of a token is changed. So that the third-party platforms such as NFT market could timely update the images and related attributes of the NFT."
      },
      "Transfer(address,address,uint256)": {
        "details": "Emitted when `tokenId` token is transferred from `from` to `to`."
      }
    },
    "kind": "dev",
    "methods": {
      "approve(address,uint256)": {
        "details": "See {IERC721-approve}."
      },
      "balanceOf(address)": {
        "details": "See {IERC721-balanceOf}."
      },
      "getApproved(uint256)": {
        "details": "See {IERC721-getApproved}."
      },
      "isApprovedForAll(address,address)": {
        "details": "See {IERC721-isApprovedForAll}."
      },
      "name()": {
        "details": "See {IERC721Metadata-name}."
      },
      "ownerOf(uint256)": {
        "details": "See {IERC721-ownerOf}."
      },
      "safeTransferFrom(address,address,uint256)": {
        "details": "See {IERC721-safeTransferFrom}."
      },
      "safeTransferFrom(address,address,uint256,bytes)": {
        "details": "See {IERC721-safeTransferFrom}."
      },
      "setApprovalForAll(address,bool)": {
        "details": "See {IERC721-setApprovalForAll}."
      },
      "supportsInterface(bytes4)": {
        "details": "See {IERC165-supportsInterface}"
      },
      "symbol()": {
        "details": "See {IERC721Metadata-symbol}."
      },
      "tokenURI(uint256)": {
        "details": "See {IERC721Metadata-tokenURI}."
      },
      "transferFrom(address,address,uint256)": {
        "details": "See {IERC721-transferFrom}."
      }
    },
    "version": 1
  },
  "userdoc": {
    "kind": "user",
    "methods": {},
    "version": 1
  }
}