{
  "contractName": "HatsNFT",
  "abi": [
    {
      "inputs": [],
      "stateMutability": "nonpayable",
      "type": "constructor"
    },
    {
      "anonymous": false,
      "inputs": [
        {
          "indexed": true,
          "internalType": "address",
          "name": "owner",
          "type": "address"
        },
        {
          "indexed": true,
          "internalType": "address",
          "name": "approved",
          "type": "address"
        },
        {
          "indexed": true,
          "internalType": "uint256",
          "name": "tokenId",
          "type": "uint256"
        }
      ],
      "name": "Approval",
      "type": "event"
    },
    {
      "anonymous": false,
      "inputs": [
        {
          "indexed": true,
          "internalType": "address",
          "name": "owner",
          "type": "address"
        },
        {
          "indexed": true,
          "internalType": "address",
          "name": "operator",
          "type": "address"
        },
        {
          "indexed": false,
          "internalType": "bool",
          "name": "approved",
          "type": "bool"
        }
      ],
      "name": "ApprovalForAll",
      "type": "event"
    },
    {
      "anonymous": false,
      "inputs": [
        {
          "indexed": false,
          "internalType": "uint256",
          "name": "_fromTokenId",
          "type": "uint256"
        },
        {
          "indexed": false,
          "internalType": "uint256",
          "name": "_toTokenId",
          "type": "uint256"
        }
      ],
      "name": "BatchMetadataUpdate",
      "type": "event"
    },
    {
      "anonymous": false,
      "inputs": [
        {
          "indexed": false,
          "internalType": "uint256",
          "name": "hatId",
          "type": "uint256"
        },
        {
          "indexed": false,
          "internalType": "uint256",
          "name": "tokenId",
          "type": "uint256"
        },
        {
          "indexed": false,
          "internalType": "address",
          "name": "owner",
          "type": "address"
        }
      ],
      "name": "HatAttached",
      "type": "event"
    },
    {
      "anonymous": false,
      "inputs": [
        {
          "indexed": false,
          "internalType": "uint256",
          "name": "hatId",
          "type": "uint256"
        },
        {
          "indexed": false,
          "internalType": "address",
          "name": "owner",
          "type": "address"
        },
        {
          "indexed": false,
          "internalType": "string",
          "name": "name",
          "type": "string"
        },
        {
          "indexed": false,
          "internalType": "string",
          "name": "design",
          "type": "string"
        },
        {
          "indexed": false,
          "internalType": "string",
          "name": "color",
          "type": "string"
        },
        {
          "indexed": false,
          "internalType": "uint256",
          "name": "rarity",
          "type": "uint256"
        }
      ],
      "name": "HatMinted",
      "type": "event"
    },
    {
      "anonymous": false,
      "inputs": [
        {
          "indexed": false,
          "internalType": "address",
          "name": "from",
          "type": "address"
        },
        {
          "indexed": false,
          "internalType": "address",
          "name": "to",
          "type": "address"
        },
        {
          "indexed": false,
          "internalType": "uint256",
          "name": "tokenId",
          "type": "uint256"
        },
        {
          "indexed": false,
          "internalType": "uint256",
          "name": "hatId",
          "type": "uint256"
        }
      ],
      "name": "HatTransfer",
      "type": "event"
    },
    {
      "anonymous": false,
      "inputs": [
        {
          "indexed": false,
          "internalType": "uint256",
          "name": "_tokenId",
          "type": "uint256"
        }
      ],
      "name": "MetadataUpdate",
      "type": "event"
    },
    {
      "anonymous": false,
      "inputs": [
        {
          "indexed": true,
          "internalType": "address",
          "name": "from",
          "type": "address"
        },
        {
          "indexed": true,
          "internalType": "address",
          "name": "to",
          "type": "address"
        },
        {
          "indexed": true,
          "internalType": "uint256",
          "name": "tokenId",
          "type": "uint256"
        }
      ],
      "name": "Transfer",
      "type": "event"
    },
    {
      "inputs": [
        {
          "internalType": "address",
          "name": "to",
          "type": "address"
        },
        {
          "internalType": "uint256",
          "name": "tokenId",
          "type": "uint256"
        }
      ],
      "name": "approve",
      "outputs": [],
      "stateMutability": "nonpayable",
      "type": "function"
    },
    {
      "inputs": [
        {
          "internalType": "address",
          "name": "owner",
          "type": "address"
        }
      ],
      "name": "balanceOf",
      "outputs": [
        {
          "internalType": "uint256",
          "name": "",
          "type": "uint256"
        }
      ],
      "stateMutability": "view",
      "type": "function"
    },
    {
      "inputs": [
        {
          "internalType": "uint256",
          "name": "tokenId",
          "type": "uint256"
        }
      ],
      "name": "getApproved",
      "outputs": [
        {
          "internalType": "address",
          "name": "",
          "type": "address"
        }
      ],
      "stateMutability": "view",
      "type": "function"
    },
    {
      "inputs": [
        {
          "internalType": "uint256",
          "name": "",
          "type": "uint256"
        }
      ],
      "name": "hatOwners",
      "outputs": [
        {
          "internalType": "address",
          "name": "",
          "type": "address"
        }
      ],
      "stateMutability": "view",
      "type": "function"
    },
    {
      "inputs": [
        {
          "internalType": "uint256",
          "name": "",
          "type": "uint256"
        }
      ],
      "name": "hats",
      "outputs": [
        {
          "internalType": "uint256",
          "name": "id",
          "type": "uint256"
        },
        {
          "internalType": "string",
          "name": "name",
          "type": "string"
        },
        {
          "internalType": "string",
          "name": "design",
          "type": "string"
        },
        {
          "internalType": "string",
          "name": "color",
          "type": "string"
        },
        {
          "internalType": "uint256",
          "name": "rarity",
          "type": "uint256"
        }
      ],
      "stateMutability": "view",
      "type": "function"
    },
    {
      "inputs": [
        {
          "internalType": "address",
          "name": "owner",
          "type": "address"
        },
        {
          "internalType": "address",
          "name": "operator",
          "type": "address"
        }
      ],
      "name": "isApprovedForAll",
      "outputs": [
        {
          "internalType": "bool",
          "name": "",
          "type": "bool"
        }
      ],
      "stateMutability": "view",
      "type": "function"
    },
    {
      "inputs": [],
      "name": "name",
      "outputs": [
        {
          "internalType": "string",
          "name": "",
          "type": "string"
        }
      ],
      "stateMutability": "view",
      "type": "function"
    },
    {
      "inputs": [],
      "name": "nextHatId",
      "outputs": [
        {
          "internalType": "uint256",
          "name": "",
          "type": "uint256"
        }
      ],
      "stateMutability": "view",
      "type": "function"
    },
    {
      "inputs": [
        {
          "internalType": "uint256",
          "name": "tokenId",
          "type": "uint256"
        }
      ],
      "name": "ownerOf",
      "outputs": [
        {
          "internalType": "address",
          "name": "",
          "type": "address"
        }
      ],
      "stateMutability": "view",
      "type": "function"
    },
    {
      "inputs": [
        {
          "internalType": "uint256",
          "name": "",
          "type": "uint256"
        }
      ],
      "name": "pfpToHat",
      "outputs": [
        {
          "internalType": "uint256",
          "name": "",
          "type": "uint256"
        }
      ],
      "stateMutability": "view",
      "type": "function"
    },
    {
      "inputs": [
        {
          "internalType": "address",
          "name": "from",
          "type": "address"
        },
        {
          "internalType": "address",
          "name": "to",
          "type": "address"
        },
        {
          "internalType": "uint256",
          "name": "tokenId",
          "type": "uint256"
        }
      ],
      "name": "safeTransferFrom",
      "outputs": [],
      "stateMutability": "nonpayable",
      "type": "function"
    },
    {
      "inputs": [
        {
          "internalType": "address",
          "name": "from",
          "type": "address"
        },
        {
          "internalType": "address",
          "name": "to",
          "type": "address"
        },
        {
          "internalType": "uint256",
          "name": "tokenId",
          "type": "uint256"
        },
        {
          "internalType": "bytes",
          "name": "data",
          "type": "bytes"
        }
      ],
      "name": "safeTransferFrom",
      "outputs": [],
      "stateMutability": "nonpayable",
      "type": "function"
    },
    {
      "inputs": [
        {
          "internalType": "address",
          "name": "operator",
          "type": "address"
        },
        {
          "internalType": "bool",
          "name": "approved",
          "type": "bool"
        }
      ],
      "name": "setApprovalForAll",
      "outputs": [],
      "stateMutability": "nonpayable",
      "type": "function"
    },
    {
      "inputs": [
        {
          "internalType": "bytes4",
          "name": "interfaceId",
          "type": "bytes4"
        }
      ],
      "name": "supportsInterface",
      "outputs": [
        {
          "internalType": "bool",
          "name": "",
          "type": "bool"
        }
      ],
      "stateMutability": "view",
      "type": "function"
    },
    {
      "inputs": [],
      "name": "symbol",
      "outputs": [
        {
          "internalType": "string",
          "name": "",
          "type": "string"
        }
      ],
      "stateMutability": "view",
      "type": "function"
    },
    {
      "inputs": [
        {
          "internalType": "address",
          "name": "from",
          "type": "address"
        },
        {
          "internalType": "address",
          "name": "to",
          "type": "address"
        },
        {
          "internalType": "uint256",
          "name": "tokenId",
          "type": "uint256"
        }
      ],
      "name": "transferFrom",
      "outputs": [],
      "stateMutability": "nonpayable",
      "type": "function"
    },
    {
      "inputs": [
        {
          "internalType": "string",
          "name": "name",
          "type": "string"
        },
        {
          "internalType": "string",
          "name": "design",
          "type": "string"
        },
        {
          "internalType": "string",
          "name": "color",
          "type": "string"
        },
        {
          "internalType": "uint256",
          "name": "rarity",
          "type": "uint256"
        }
      ],
      "name": "mintHat",
      "outputs": [
        {
          "internalType": "uint256",
          "name": "",
          "type": "uint256"
        }
      ],
      "stateMutability": "nonpayable",
      "type": "function"
    },
    {
      "inputs": [
        {
          "internalType": "uint256",
          "name": "hatId",
          "type": "uint256"
        },
        {
          "internalType": "uint256",
          "name": "pfpId",
          "type": "uint256"
        },
        {
          "internalType": "address",
          "name": "pfpContract",
          "type": "address"
        }
      ],
      "name": "attachHat",
      "outputs": [],
      "stateMutability": "nonpayable",
      "type": "function"
    },
    {
      "inputs": [
        {
          "internalType": "uint256",
          "name": "tokenId",
          "type": "uint256"
        }
      ],
      "name": "tokenURI",
      "outputs": [
        {
          "internalType": "string",
          "name": "",
          "type": "string"
        }
      ],
      "stateMutability": "view",
      "type": "function"
    }
  ],
  "bytecode": "0x608060405260006007553480156200001657600080fd5b506040518060400160405280600881526020017f48617473204e46540000000000000000000000000000000000000000000000008152506040518060400160405280600381526020017f4841540000000000000000000000000000000000000000000000000000000000815250816000908162000094919062000329565b508060019081620000a6919062000329565b50505062000410565b600081519050919050565b7f4e487b7100000000000000000000000000000000000000000000000000000000600052604160045260246000fd5b7f4e487b7100000000000000000000000000000000000000000000000000000000600052602260045260246000fd5b600060028204905060018216806200013157607f821691505b602082108103620001475762000146620000e9565b5b50919050565b60008190508160005260206000209050919050565b60006020601f8301049050919050565b600082821b905092915050565b600060088302620001b17fffffffffffffffffffffffffffffffffffffffffffffffffffffffffffffffff8262000172565b620001bd868362000172565b95508019841693508086168417925050509392505050565b6000819050919050565b6000819050919050565b60006200020a62000204620001fe84620001d5565b620001df565b620001d5565b9050919050565b6000819050919050565b6200022683620001e9565b6200023e620002358262000211565b8484546200017f565b825550505050565b600090565b6200025562000246565b620002628184846200021b565b505050565b5b818110156200028a576200027e6000826200024b565b60018101905062000268565b5050565b601f821115620002d957620002a3816200014d565b620002ae8462000162565b81016020851015620002be578190505b620002d6620002cd8562000162565b83018262000267565b50505b505050565b600082821c905092915050565b6000620002fe60001984600802620002de565b1980831691505092915050565b6000620003198383620002eb565b9150826002028217905092915050565b6200033482620000af565b67ffffffffffffffff81111562000350576200034f620000ba565b5b6200035c825462000118565b620003698282856200028e565b600060209050601f831160018114620003a157600084156200038c578287015190505b6200039885826200030b565b86555062000408565b601f198416620003b1866200014d565b60005b82811015620003db57848901518255600182019150602085019450602081019050620003b4565b86831015620003fb5784890151620003f7601f891682620002eb565b8355505b6001600288020188555050505b505050505050565b61385a80620004206000396000f3fe608060405234801561001057600080fd5b50600436106101215760003560e01c8063434e60c1116100ad578063a22cb46511610071578063a22cb46514610340578063b88d4fde1461035c578063bca747b514610378578063c87b56dd146103ac578063e985e9c5146103dc57610121565b8063434e60c1146102765780636352211e146102a6578063650aa9de146102d657806370a08231146102f257806395d89b411461032257610121565b8063194b38d9116100f4578063194b38d9146101c05780631ccb2346146101f057806323b872dd1461020e57806331888d781461022a57806342842e0e1461025a57610121565b806301ffc9a71461012657806306fdde0314610156578063081812fc14610174578063095ea7b3146101a4575b600080fd5b610140600480360381019061013b9190611ef9565b61040c565b60405161014d9190611f41565b60405180910390f35b61015e61046d565b60405161016b9190611fec565b60405180910390f35b61018e60048036038101906101899190612044565b6104ff565b60405161019b91906120b2565b60405180910390f35b6101be60048036038101906101b991906120f9565b610545565b005b6101da60048036038101906101d5919061226e565b61065c565b6040516101e79190612338565b60405180910390f35b6101f86107b0565b6040516102059190612338565b60405180910390f35b61022860048036038101906102239190612353565b6107b6565b005b610244600480360381019061023f9190612044565b610816565b60405161025191906120b2565b60405180910390f35b610274600480360381019061026f9190612353565b610849565b005b610290600480360381019061028b9190612044565b610869565b60405161029d9190612338565b60405180910390f35b6102c060048036038101906102bb9190612044565b610881565b6040516102cd91906120b2565b60405180910390f35b6102f060048036038101906102eb91906123a6565b610907565b005b61030c600480360381019061030791906123f9565b610ae7565b6040516103199190612338565b60405180910390f35b61032a610b9e565b6040516103379190611fec565b60405180910390f35b61035a60048036038101906103559190612452565b610c30565b005b61037660048036038101906103719190612533565b610c46565b005b610392600480360381019061038d9190612044565b610ca8565b6040516103a39594939291906125b6565b60405180910390f35b6103c660048036038101906103c19190612044565b610e76565b6040516103d39190611fec565b60405180910390f35b6103f660048036038101906103f1919061261e565b610ffa565b6040516104039190611f41565b60405180910390f35b6000634906490660e01b7bffffffffffffffffffffffffffffffffffffffffffffffffffffffff1916827bffffffffffffffffffffffffffffffffffffffffffffffffffffffff1916148061046657506104658261108e565b5b9050919050565b60606000805461047c9061268d565b80601f01602080910402602001604051908101604052809291908181526020018280546104a89061268d565b80156104f55780601f106104ca576101008083540402835291602001916104f5565b820191906000526020600020905b8154815290600101906020018083116104d857829003601f168201915b5050505050905090565b600061050a82611170565b6004600083815260200190815260200160002060009054906101000a900473ffffffffffffffffffffffffffffffffffffffff169050919050565b600061055082610881565b90508073ffffffffffffffffffffffffffffffffffffffff168373ffffffffffffffffffffffffffffffffffffffff16036105c0576040517f08c379a00000000000000000000000000000000000000000000000000000000081526004016105b790612730565b60405180910390fd5b8073ffffffffffffffffffffffffffffffffffffffff166105df6111bb565b73ffffffffffffffffffffffffffffffffffffffff16148061060e575061060d816106086111bb565b610ffa565b5b61064d576040517f08c379a0000000000000000000000000000000000000000000000000000000008152600401610644906127c2565b60405180910390fd5b61065783836111c3565b505050565b6000806007600081548092919061067290612811565b91905055905060006040518060a0016040528083815260200188815260200187815260200186815260200185815250905080600860008481526020019081526020016000206000820151816000015560208201518160010190816106d69190612a05565b5060408201518160020190816106ec9190612a05565b5060608201518160030190816107029190612a05565b5060808201518160040155905050336009600084815260200190815260200160002060006101000a81548173ffffffffffffffffffffffffffffffffffffffff021916908373ffffffffffffffffffffffffffffffffffffffff1602179055507f124c521a9488951d9b84c19515ef4cc51f3f409b29ce2d7f217532380a61349682338989898960405161079b96959493929190612ad7565b60405180910390a18192505050949350505050565b60075481565b6107c76107c16111bb565b8261127c565b610806576040517f08c379a00000000000000000000000000000000000000000000000000000000081526004016107fd90612bbf565b60405180910390fd5b610811838383611311565b505050565b60096020528060005260406000206000915054906101000a900473ffffffffffffffffffffffffffffffffffffffff1681565b61086483838360405180602001604052806000815250610c46565b505050565b600a6020528060005260406000206000915090505481565b60008061088d8361160a565b9050600073ffffffffffffffffffffffffffffffffffffffff168173ffffffffffffffffffffffffffffffffffffffff16036108fe576040517f08c379a00000000000000000000000000000000000000000000000000000000081526004016108f590612c2b565b60405180910390fd5b80915050919050565b6009600084815260200190815260200160002060009054906101000a900473ffffffffffffffffffffffffffffffffffffffff1673ffffffffffffffffffffffffffffffffffffffff163373ffffffffffffffffffffffffffffffffffffffff16146109a8576040517f08c379a000000000000000000000000000000000000000000000000000000000815260040161099f90612c97565b60405180910390fd5b8073ffffffffffffffffffffffffffffffffffffffff16636352211e836040518263ffffffff1660e01b81526004016109e19190612338565b602060405180830381865afa1580156109fe573d6000803e3d6000fd5b505050506040513d601f19601f82011682018060405250810190610a229190612ccc565b73ffffffffffffffffffffffffffffffffffffffff163373ffffffffffffffffffffffffffffffffffffffff1614610a8f576040517f08c379a0000000000000000000000000000000000000000000000000000000008152600401610a8690612d45565b60405180910390fd5b82600a6000848152602001908152602001600020819055507fcc9b2f195a4f183e8f1ef435c011b9258a6beff784bdedb7cde3b593bb573cd7838383604051610ada93929190612d65565b60405180910390a1505050565b60008073ffffffffffffffffffffffffffffffffffffffff168273ffffffffffffffffffffffffffffffffffffffff1603610b57576040517f08c379a0000000000000000000000000000000000000000000000000000000008152600401610b4e90612e0e565b60405180910390fd5b600360008373ffffffffffffffffffffffffffffffffffffffff1673ffffffffffffffffffffffffffffffffffffffff168152602001908152602001600020549050919050565b606060018054610bad9061268d565b80601f0160208091040260200160405190810160405280929190818152602001828054610bd99061268d565b8015610c265780601f10610bfb57610100808354040283529160200191610c26565b820191906000526020600020905b815481529060010190602001808311610c0957829003601f168201915b5050505050905090565b610c42610c3b6111bb565b8383611647565b5050565b610c57610c516111bb565b8361127c565b610c96576040517f08c379a0000000000000000000000000000000000000000000000000000000008152600401610c8d90612bbf565b60405180910390fd5b610ca2848484846117b3565b50505050565b6008602052806000526040600020600091509050806000015490806001018054610cd19061268d565b80601f0160208091040260200160405190810160405280929190818152602001828054610cfd9061268d565b8015610d4a5780601f10610d1f57610100808354040283529160200191610d4a565b820191906000526020600020905b815481529060010190602001808311610d2d57829003601f168201915b505050505090806002018054610d5f9061268d565b80601f0160208091040260200160405190810160405280929190818152602001828054610d8b9061268d565b8015610dd85780601f10610dad57610100808354040283529160200191610dd8565b820191906000526020600020905b815481529060010190602001808311610dbb57829003601f168201915b505050505090806003018054610ded9061268d565b80601f0160208091040260200160405190810160405280929190818152602001828054610e199061268d565b8015610e665780601f10610e3b57610100808354040283529160200191610e66565b820191906000526020600020905b815481529060010190602001808311610e4957829003601f168201915b5050505050908060040154905085565b6060610e818261180f565b610ec0576040517f08c379a0000000000000000000000000000000000000000000000000000000008152600401610eb790612e7a565b60405180910390fd5b6000610ecb83610881565b90506000600a60008581526020019081526020016000205403610f24576000610ef384611850565b9050600081604051602001610f089190612ed6565b6040516020818303038152906040529050809350505050610ff5565b60008173ffffffffffffffffffffffffffffffffffffffff1663c87b56dd856040518263ffffffff1660e01b8152600401610f5f9190612338565b600060405180830381865afa158015610f7c573d6000803e3d6000fd5b505050506040513d6000823e3d601f19601f82011682018060405250810190610fa59190612f5d565b90506000610fc5600a600087815260200190815260200160002054611850565b905060008282604051602001610fdc929190612fa6565b6040516020818303038152906040529050809450505050505b919050565b6000600560008473ffffffffffffffffffffffffffffffffffffffff1673ffffffffffffffffffffffffffffffffffffffff16815260200190815260200160002060008373ffffffffffffffffffffffffffffffffffffffff1673ffffffffffffffffffffffffffffffffffffffff16815260200190815260200160002060009054906101000a900460ff16905092915050565b60007f80ac58cd000000000000000000000000000000000000000000000000000000007bffffffffffffffffffffffffffffffffffffffffffffffffffffffff1916827bffffffffffffffffffffffffffffffffffffffffffffffffffffffff1916148061115957507f5b5e139f000000000000000000000000000000000000000000000000000000007bffffffffffffffffffffffffffffffffffffffffffffffffffffffff1916827bffffffffffffffffffffffffffffffffffffffffffffffffffffffff1916145b80611169575061116882611a8c565b5b9050919050565b6111798161180f565b6111b8576040517f08c379a00000000000000000000000000000000000000000000000000000000081526004016111af90612c2b565b60405180910390fd5b50565b600033905090565b816004600083815260200190815260200160002060006101000a81548173ffffffffffffffffffffffffffffffffffffffff021916908373ffffffffffffffffffffffffffffffffffffffff160217905550808273ffffffffffffffffffffffffffffffffffffffff1661123683610881565b73ffffffffffffffffffffffffffffffffffffffff167f8c5be1e5ebec7d5bd14f71427d1e84f3dd0314c0f7b2291e5b200ac8c7c3b92560405160405180910390a45050565b60008061128883610881565b90508073ffffffffffffffffffffffffffffffffffffffff168473ffffffffffffffffffffffffffffffffffffffff1614806112ca57506112c98185610ffa565b5b8061130857508373ffffffffffffffffffffffffffffffffffffffff166112f0846104ff565b73ffffffffffffffffffffffffffffffffffffffff16145b91505092915050565b8273ffffffffffffffffffffffffffffffffffffffff1661133182610881565b73ffffffffffffffffffffffffffffffffffffffff1614611387576040517f08c379a000000000000000000000000000000000000000000000000000000000815260040161137e9061303c565b60405180910390fd5b600073ffffffffffffffffffffffffffffffffffffffff168273ffffffffffffffffffffffffffffffffffffffff16036113f6576040517f08c379a00000000000000000000000000000000000000000000000000000000081526004016113ed906130ce565b60405180910390fd5b6114038383836001611af6565b8273ffffffffffffffffffffffffffffffffffffffff1661142382610881565b73ffffffffffffffffffffffffffffffffffffffff1614611479576040517f08c379a00000000000000000000000000000000000000000000000000000000081526004016114709061303c565b60405180910390fd5b6004600082815260200190815260200160002060006101000a81549073ffffffffffffffffffffffffffffffffffffffff02191690556001600360008573ffffffffffffffffffffffffffffffffffffffff1673ffffffffffffffffffffffffffffffffffffffff168152602001908152602001600020600082825403925050819055506001600360008473ffffffffffffffffffffffffffffffffffffffff1673ffffffffffffffffffffffffffffffffffffffff16815260200190815260200160002060008282540192505081905550816002600083815260200190815260200160002060006101000a81548173ffffffffffffffffffffffffffffffffffffffff021916908373ffffffffffffffffffffffffffffffffffffffff160217905550808273ffffffffffffffffffffffffffffffffffffffff168473ffffffffffffffffffffffffffffffffffffffff167fddf252ad1be2c89b69c2b068fc378daa952ba7f163c4a11628f55a4df523b3ef60405160405180910390a46116058383836001611afc565b505050565b60006002600083815260200190815260200160002060009054906101000a900473ffffffffffffffffffffffffffffffffffffffff169050919050565b8173ffffffffffffffffffffffffffffffffffffffff168373ffffffffffffffffffffffffffffffffffffffff16036116b5576040517f08c379a00000000000000000000000000000000000000000000000000000000081526004016116ac9061313a565b60405180910390fd5b80600560008573ffffffffffffffffffffffffffffffffffffffff1673ffffffffffffffffffffffffffffffffffffffff16815260200190815260200160002060008473ffffffffffffffffffffffffffffffffffffffff1673ffffffffffffffffffffffffffffffffffffffff16815260200190815260200160002060006101000a81548160ff0219169083151502179055508173ffffffffffffffffffffffffffffffffffffffff168373ffffffffffffffffffffffffffffffffffffffff167f17307eab39ab6107e8899845ad3d59bd9653f200f220920489ca2b5937696c31836040516117a69190611f41565b60405180910390a3505050565b6117be848484611311565b6117ca84848484611b02565b611809576040517f08c379a0000000000000000000000000000000000000000000000000000000008152600401611800906131cc565b60405180910390fd5b50505050565b60008073ffffffffffffffffffffffffffffffffffffffff166118318361160a565b73ffffffffffffffffffffffffffffffffffffffff1614159050919050565b60606000600860008481526020019081526020016000206040518060a00160405290816000820154815260200160018201805461188c9061268d565b80601f01602080910402602001604051908101604052809291908181526020018280546118b89061268d565b80156119055780601f106118da57610100808354040283529160200191611905565b820191906000526020600020905b8154815290600101906020018083116118e857829003601f168201915b5050505050815260200160028201805461191e9061268d565b80601f016020809104026020016040519081016040528092919081815260200182805461194a9061268d565b80156119975780601f1061196c57610100808354040283529160200191611997565b820191906000526020600020905b81548152906001019060200180831161197a57829003601f168201915b505050505081526020016003820180546119b09061268d565b80601f01602080910402602001604051908101604052809291908181526020018280546119dc9061268d565b8015611a295780601f106119fe57610100808354040283529160200191611a29565b820191906000526020600020905b815481529060010190602001808311611a0c57829003601f168201915b5050505050815260200160048201548152505090506000816020015182604001518360600151611a5c8560800151611c89565b87604051602001611a71959493929190613551565b60405160208183030381529060405290508092505050919050565b60007f01ffc9a7000000000000000000000000000000000000000000000000000000007bffffffffffffffffffffffffffffffffffffffffffffffffffffffff1916827bffffffffffffffffffffffffffffffffffffffffffffffffffffffff1916149050919050565b50505050565b50505050565b6000611b238473ffffffffffffffffffffffffffffffffffffffff16611e6a565b15611c7c578373ffffffffffffffffffffffffffffffffffffffff1663150b7a02611b4c6111bb565b8786866040518563ffffffff1660e01b8152600401611b6e949392919061366e565b6020604051808303816000875af1925050508015611baa57506040513d601f19601f82011682018060405250810190611ba791906136cf565b60015b611c2c573d8060008114611bda576040519150601f19603f3d011682016040523d82523d6000602084013e611bdf565b606091505b506000815103611c24576040517f08c379a0000000000000000000000000000000000000000000000000000000008152600401611c1b906131cc565b60405180910390fd5b805181602001fd5b63150b7a0260e01b7bffffffffffffffffffffffffffffffffffffffffffffffffffffffff1916817bffffffffffffffffffffffffffffffffffffffffffffffffffffffff191614915050611c81565b600190505b949350505050565b606060006064905060008167ffffffffffffffff811115611cad57611cac612143565b5b6040519080825280601f01601f191660200182016040528015611cdf5781602001600182028036833780820191505090505b50905060005b60008514611d71576000600a86611cfc919061372b565b9050600a86611d0b919061375c565b9550806030611d1a919061378d565b60f81b838380611d2990612811565b945081518110611d3c57611d3b6137c1565b5b60200101907effffffffffffffffffffffffffffffffffffffffffffffffffffffffffffff1916908160001a90535050611ce5565b60008167ffffffffffffffff811115611d8d57611d8c612143565b5b6040519080825280601f01601f191660200182016040528015611dbf5781602001600182028036833780820191505090505b50905060005b82811015611e57578360018285611ddc91906137f0565b611de691906137f0565b81518110611df757611df66137c1565b5b602001015160f81c60f81b828281518110611e1557611e146137c1565b5b60200101907effffffffffffffffffffffffffffffffffffffffffffffffffffffffffffff1916908160001a9053508080611e4f90612811565b915050611dc5565b5060008190508095505050505050919050565b6000808273ffffffffffffffffffffffffffffffffffffffff163b119050919050565b6000604051905090565b600080fd5b600080fd5b60007fffffffff0000000000000000000000000000000000000000000000000000000082169050919050565b611ed681611ea1565b8114611ee157600080fd5b50565b600081359050611ef381611ecd565b92915050565b600060208284031215611f0f57611f0e611e97565b5b6000611f1d84828501611ee4565b91505092915050565b60008115159050919050565b611f3b81611f26565b82525050565b6000602082019050611f566000830184611f32565b92915050565b600081519050919050565b600082825260208201905092915050565b60005b83811015611f96578082015181840152602081019050611f7b565b60008484015250505050565b6000601f19601f8301169050919050565b6000611fbe82611f5c565b611fc88185611f67565b9350611fd8818560208601611f78565b611fe181611fa2565b840191505092915050565b600060208201905081810360008301526120068184611fb3565b905092915050565b6000819050919050565b6120218161200e565b811461202c57600080fd5b50565b60008135905061203e81612018565b92915050565b60006020828403121561205a57612059611e97565b5b60006120688482850161202f565b91505092915050565b600073ffffffffffffffffffffffffffffffffffffffff82169050919050565b600061209c82612071565b9050919050565b6120ac81612091565b82525050565b60006020820190506120c760008301846120a3565b92915050565b6120d681612091565b81146120e157600080fd5b50565b6000813590506120f3816120cd565b92915050565b600080604083850312156121105761210f611e97565b5b600061211e858286016120e4565b925050602061212f8582860161202f565b9150509250929050565b600080fd5b600080fd5b7f4e487b7100000000000000000000000000000000000000000000000000000000600052604160045260246000fd5b61217b82611fa2565b810181811067ffffffffffffffff8211171561219a57612199612143565b5b80604052505050565b60006121ad611e8d565b90506121b98282612172565b919050565b600067ffffffffffffffff8211156121d9576121d8612143565b5b6121e282611fa2565b9050602081019050919050565b82818337600083830152505050565b600061221161220c846121be565b6121a3565b90508281526020810184848401111561222d5761222c61213e565b5b6122388482856121ef565b509392505050565b600082601f83011261225557612254612139565b5b81356122658482602086016121fe565b91505092915050565b6000806000806080858703121561228857612287611e97565b5b600085013567ffffffffffffffff8111156122a6576122a5611e9c565b5b6122b287828801612240565b945050602085013567ffffffffffffffff8111156122d3576122d2611e9c565b5b6122df87828801612240565b935050604085013567ffffffffffffffff811115612300576122ff611e9c565b5b61230c87828801612240565b925050606061231d8782880161202f565b91505092959194509250565b6123328161200e565b82525050565b600060208201905061234d6000830184612329565b92915050565b60008060006060848603121561236c5761236b611e97565b5b600061237a868287016120e4565b935050602061238b868287016120e4565b925050604061239c8682870161202f565b9150509250925092565b6000806000606084860312156123bf576123be611e97565b5b60006123cd8682870161202f565b93505060206123de8682870161202f565b92505060406123ef868287016120e4565b9150509250925092565b60006020828403121561240f5761240e611e97565b5b600061241d848285016120e4565b91505092915050565b61242f81611f26565b811461243a57600080fd5b50565b60008135905061244c81612426565b92915050565b6000806040838503121561246957612468611e97565b5b6000612477858286016120e4565b92505060206124888582860161243d565b9150509250929050565b600067ffffffffffffffff8211156124ad576124ac612143565b5b6124b682611fa2565b9050602081019050919050565b60006124d66124d184612492565b6121a3565b9050828152602081018484840111156124f2576124f161213e565b5b6124fd8482856121ef565b509392505050565b600082601f83011261251a57612519612139565b5b813561252a8482602086016124c3565b91505092915050565b6000806000806080858703121561254d5761254c611e97565b5b600061255b878288016120e4565b945050602061256c878288016120e4565b935050604061257d8782880161202f565b925050606085013567ffffffffffffffff81111561259e5761259d611e9c565b5b6125aa87828801612505565b91505092959194509250565b600060a0820190506125cb6000830188612329565b81810360208301526125dd8187611fb3565b905081810360408301526125f18186611fb3565b905081810360608301526126058185611fb3565b90506126146080830184612329565b9695505050505050565b6000806040838503121561263557612634611e97565b5b6000612643858286016120e4565b9250506020612654858286016120e4565b9150509250929050565b7f4e487b7100000000000000000000000000000000000000000000000000000000600052602260045260246000fd5b600060028204905060018216806126a557607f821691505b6020821081036126b8576126b761265e565b5b50919050565b7f4552433732313a20617070726f76616c20746f2063757272656e74206f776e6560008201527f7200000000000000000000000000000000000000000000000000000000000000602082015250565b600061271a602183611f67565b9150612725826126be565b604082019050919050565b600060208201905081810360008301526127498161270d565b9050919050565b7f4552433732313a20617070726f76652063616c6c6572206973206e6f7420746f60008201527f6b656e206f776e6572206f7220617070726f76656420666f7220616c6c000000602082015250565b60006127ac603d83611f67565b91506127b782612750565b604082019050919050565b600060208201905081810360008301526127db8161279f565b9050919050565b7f4e487b7100000000000000000000000000000000000000000000000000000000600052601160045260246000fd5b600061281c8261200e565b91507fffffffffffffffffffffffffffffffffffffffffffffffffffffffffffffffff820361284e5761284d6127e2565b5b600182019050919050565b60008190508160005260206000209050919050565b60006020601f8301049050919050565b600082821b905092915050565b6000600883026128bb7fffffffffffffffffffffffffffffffffffffffffffffffffffffffffffffffff8261287e565b6128c5868361287e565b95508019841693508086168417925050509392505050565b6000819050919050565b60006129026128fd6128f88461200e565b6128dd565b61200e565b9050919050565b6000819050919050565b61291c836128e7565b61293061292882612909565b84845461288b565b825550505050565b600090565b612945612938565b612950818484612913565b505050565b5b818110156129745761296960008261293d565b600181019050612956565b5050565b601f8211156129b95761298a81612859565b6129938461286e565b810160208510156129a2578190505b6129b66129ae8561286e565b830182612955565b50505b505050565b600082821c905092915050565b60006129dc600019846008026129be565b1980831691505092915050565b60006129f583836129cb565b9150826002028217905092915050565b612a0e82611f5c565b67ffffffffffffffff811115612a2757612a26612143565b5b612a31825461268d565b612a3c828285612978565b600060209050601f831160018114612a6f5760008415612a5d578287015190505b612a6785826129e9565b865550612acf565b601f198416612a7d86612859565b60005b82811015612aa557848901518255600182019150602085019450602081019050612a80565b86831015612ac25784890151612abe601f8916826129cb565b8355505b6001600288020188555050505b505050505050565b600060c082019050612aec6000830189612329565b612af960208301886120a3565b8181036040830152612b0b8187611fb3565b90508181036060830152612b1f8186611fb3565b90508181036080830152612b338185611fb3565b9050612b4260a0830184612329565b979650505050505050565b7f4552433732313a2063616c6c6572206973206e6f7420746f6b656e206f776e6560008201527f72206f7220617070726f76656400000000000000000000000000000000000000602082015250565b6000612ba9602d83611f67565b9150612bb482612b4d565b604082019050919050565b60006020820190508181036000830152612bd881612b9c565b9050919050565b7f4552433732313a20696e76616c696420746f6b656e2049440000000000000000600082015250565b6000612c15601883611f67565b9150612c2082612bdf565b602082019050919050565b60006020820190508181036000830152612c4481612c08565b9050919050565b7f596f7520646f206e6f74206f776e207468697320686174000000000000000000600082015250565b6000612c81601783611f67565b9150612c8c82612c4b565b602082019050919050565b60006020820190508181036000830152612cb081612c74565b9050919050565b600081519050612cc6816120cd565b92915050565b600060208284031215612ce257612ce1611e97565b5b6000612cf084828501612cb7565b91505092915050565b7f596f7520646f206e6f74206f776e207468697320504650000000000000000000600082015250565b6000612d2f601783611f67565b9150612d3a82612cf9565b602082019050919050565b60006020820190508181036000830152612d5e81612d22565b9050919050565b6000606082019050612d7a6000830186612329565b612d876020830185612329565b612d9460408301846120a3565b949350505050565b7f4552433732313a2061646472657373207a65726f206973206e6f74206120766160008201527f6c6964206f776e65720000000000000000000000000000000000000000000000602082015250565b6000612df8602983611f67565b9150612e0382612d9c565b604082019050919050565b60006020820190508181036000830152612e2781612deb565b9050919050565b7f546f6b656e20494420646f6573206e6f74206578697374000000000000000000600082015250565b6000612e64601783611f67565b9150612e6f82612e2e565b602082019050919050565b60006020820190508181036000830152612e9381612e57565b9050919050565b600081905092915050565b6000612eb082611f5c565b612eba8185612e9a565b9350612eca818560208601611f78565b80840191505092915050565b6000612ee28284612ea5565b915081905092915050565b6000612f00612efb846121be565b6121a3565b905082815260208101848484011115612f1c57612f1b61213e565b5b612f27848285611f78565b509392505050565b600082601f830112612f4457612f43612139565b5b8151612f54848260208601612eed565b91505092915050565b600060208284031215612f7357612f72611e97565b5b600082015167ffffffffffffffff811115612f9157612f90611e9c565b5b612f9d84828501612f2f565b91505092915050565b6000612fb28285612ea5565b9150612fbe8284612ea5565b91508190509392505050565b7f4552433732313a207472616e736665722066726f6d20696e636f72726563742060008201527f6f776e6572000000000000000000000000000000000000000000000000000000602082015250565b6000613026602583611f67565b915061303182612fca565b604082019050919050565b6000602082019050818103600083015261305581613019565b9050919050565b7f4552433732313a207472616e7366657220746f20746865207a65726f2061646460008201527f7265737300000000000000000000000000000000000000000000000000000000602082015250565b60006130b8602483611f67565b91506130c38261305c565b604082019050919050565b600060208201905081810360008301526130e7816130ab565b9050919050565b7f4552433732313a20617070726f766520746f2063616c6c657200000000000000600082015250565b6000613124601983611f67565b915061312f826130ee565b602082019050919050565b6000602082019050818103600083015261315381613117565b9050919050565b7f4552433732313a207472616e7366657220746f206e6f6e20455243373231526560008201527f63656976657220696d706c656d656e7465720000000000000000000000000000602082015250565b60006131b6603283611f67565b91506131c18261315a565b604082019050919050565b600060208201905081810360008301526131e5816131a9565b9050919050565b7f7b00000000000000000000000000000000000000000000000000000000000000600082015250565b6000613222600183612e9a565b915061322d826131ec565b600182019050919050565b7f226e616d65223a22000000000000000000000000000000000000000000000000600082015250565b600061326e600883612e9a565b915061327982613238565b600882019050919050565b7f222c000000000000000000000000000000000000000000000000000000000000600082015250565b60006132ba600283612e9a565b91506132c582613284565b600282019050919050565b7f226465736372697074696f6e223a220000000000000000000000000000000000600082015250565b6000613306600f83612e9a565b9150613311826132d0565b600f82019050919050565b7f2261747472696275746573223a5b7b2274726169745f74797065223a22636f6c60008201527f6f72222c2276616c7565223a2200000000000000000000000000000000000000602082015250565b6000613378602d83612e9a565b91506133838261331c565b602d82019050919050565b7f227d2c7b2274726169745f74797065223a22726172697479222c2276616c756560008201527f223a000000000000000000000000000000000000000000000000000000000000602082015250565b60006133ea602283612e9a565b91506133f58261338e565b602282019050919050565b7f7d5d2c0000000000000000000000000000000000000000000000000000000000600082015250565b6000613436600383612e9a565b915061344182613400565b600382019050919050565b7f22696d616765223a22697066733a2f2f00000000000000000000000000000000600082015250565b6000613482601083612e9a565b915061348d8261344c565b601082019050919050565b6000819050919050565b6134b36134ae8261200e565b613498565b82525050565b7f2e706e6722000000000000000000000000000000000000000000000000000000600082015250565b60006134ef600583612e9a565b91506134fa826134b9565b600582019050919050565b7f7d00000000000000000000000000000000000000000000000000000000000000600082015250565b600061353b600183612e9a565b915061354682613505565b600182019050919050565b600061355c82613215565b915061356782613261565b91506135738288612ea5565b915061357e826132ad565b9150613589826132f9565b91506135958287612ea5565b91506135a0826132ad565b91506135ab8261336b565b91506135b78286612ea5565b91506135c2826133dd565b91506135ce8285612ea5565b91506135d982613429565b91506135e482613475565b91506135f082846134a2565b6020820191506135ff826134e2565b915061360a8261352e565b91508190509695505050505050565b600081519050919050565b600082825260208201905092915050565b600061364082613619565b61364a8185613624565b935061365a818560208601611f78565b61366381611fa2565b840191505092915050565b600060808201905061368360008301876120a3565b61369060208301866120a3565b61369d6040830185612329565b81810360608301526136af8184613635565b905095945050505050565b6000815190506136c981611ecd565b92915050565b6000602082840312156136e5576136e4611e97565b5b60006136f3848285016136ba565b91505092915050565b7f4e487b7100000000000000000000000000000000000000000000000000000000600052601260045260246000fd5b60006137368261200e565b91506137418361200e565b925082613751576137506136fc565b5b828206905092915050565b60006137678261200e565b91506137728361200e565b925082613782576137816136fc565b5b828204905092915050565b60006137988261200e565b91506137a38361200e565b92508282019050808211156137bb576137ba6127e2565b5b92915050565b7f4e487b7100000000000000000000000000000000000000000000000000000000600052603260045260246000fd5b60006137fb8261200e565b91506138068361200e565b925082820390508181111561381e5761381d6127e2565b5b9291505056fea2646970667358221220b0002fb5807c741da7c129aaeac1cd349bf84cb756c712f58bdd5396921f5a6964736f6c63430008130033",
  "immutableReferences": {},
  "source": "// SPDX-License-Identifier: MIT\npragma solidity ^0.8.0;\n\nimport \"./openzeppelin-contracts-master/contracts/token/ERC721/IERC721.sol\";\nimport \"./openzeppelin-contracts-master/contracts/token/ERC721/extensions/IERC721Metadata.sol\";\nimport \"./openzeppelin-contracts-master/contracts/token/ERC721/extensions/ERC721URIStorage.sol\";\n\ncontract HatsNFT is ERC721URIStorage {\n    struct Hat {\n        uint256 id;\n        string name;\n        string design;\n        string color;\n        uint256 rarity;\n    }\n    \n    uint256 public nextHatId = 0;\n    mapping(uint256 => Hat) public hats;\n    mapping(uint256 => address) public hatOwners;\n    mapping(uint256 => uint256) public pfpToHat;\n    \n    constructor() ERC721(\"Hats NFT\", \"HAT\") {}\n    \n    \n    function mintHat(string memory name, string memory design, string memory color, uint256 rarity) public returns (uint256) {\n        uint256 hatId = nextHatId++;\n        Hat memory newHat = Hat(hatId, name, design, color, rarity);\n        hats[hatId] = newHat;\n        hatOwners[hatId] = msg.sender;\n        emit HatMinted(hatId, msg.sender, name, design, color, rarity);\n        return hatId;\n    }\n    \n    function attachHat(uint256 hatId, uint256 pfpId, address pfpContract) public {\n        require(msg.sender == hatOwners[hatId], \"You do not own this hat\");\n        require(msg.sender == IERC721(pfpContract).ownerOf(pfpId), \"You do not own this PFP\");\n        pfpToHat[pfpId] = hatId;\n        emit HatAttached(hatId, pfpId, pfpContract);\n    }\n        \n    function tokenURI(uint256 tokenId) public view override returns (string memory) {\n        require(_exists(tokenId), \"Token ID does not exist\");\n        address pfpContract = ownerOf(tokenId);\n        if (pfpToHat[tokenId] == 0) {\n            string memory hatMetadata = generateHatMetadata(tokenId);\n            string memory metadata = string(abi.encodePacked(hatMetadata));\n            return metadata;\n        } else {\n            string memory pfpMetadata = IERC721Metadata(pfpContract).tokenURI(tokenId);\n            string memory hatMetadata = generateHatMetadata(pfpToHat[tokenId]);\n            string memory concatenatedMetadata = string(abi.encodePacked(pfpMetadata, hatMetadata));\n            return concatenatedMetadata;\n        }\n    }\n\n    function generateHatMetadata(uint256 hatId) private view returns (string memory) {\n        Hat memory hat = hats[hatId];\n        string memory json = string(abi.encodePacked(\n            '{',\n                '\"name\":\"', hat.name, '\",',\n                '\"description\":\"', hat.design, '\",',\n                '\"attributes\":[{\"trait_type\":\"color\",\"value\":\"', hat.color, '\"},{\"trait_type\":\"rarity\",\"value\":', uintToString(hat.rarity), '}],',\n                '\"image\":\"ipfs://', hatId, '.png\"',\n            '}'\n        ));\n        return json;\n    }\n\n    function uintToString(uint256 v) private pure returns (string memory) {\n        uint256 maxlength = 100;\n        bytes memory reversed = new bytes(maxlength);\n        uint256 i = 0;\n        while (v != 0) {\n            uint256 remainder = v % 10;\n            v = v / 10;\n            reversed[i++] = bytes1(uint8(48 + remainder));\n        }\n        bytes memory s = new bytes(i); // Set size\n        for (uint256 j = 0; j < i; j++) {\n            s[j] = reversed[i - j - 1]; // Populate from the end\n        }\n        string memory str = string(s); // Convert to string\n        return str;\n    }\n\n    event HatMinted(uint256 hatId, address owner, string name, string design, string color, uint256 rarity);\n    event HatAttached(uint256 hatId, uint256 tokenId, address owner);\n    event HatTransfer(address from, address to, uint256 tokenId, uint256 hatId);\n\n\n\n}",
  "sourcePath": "/Users/urieltan/gitclones/ft5004/nft-project/contracts/HatsNFT.sol",
  "compiler": {
    "name": "solc",
    "version": "0.8.19+commit.7dd6d404.Emscripten.clang"
  },
  "schemaVersion": "3.4.13",
  "updatedAt": "2023-04-21T19:23:46.699Z",
  "devdoc": {
    "events": {
      "Approval(address,address,uint256)": {
        "details": "Emitted when `owner` enables `approved` to manage the `tokenId` token."
      },
      "ApprovalForAll(address,address,bool)": {
        "details": "Emitted when `owner` enables or disables (`approved`) `operator` to manage all of its assets."
      },
      "BatchMetadataUpdate(uint256,uint256)": {
        "details": "This event emits when the metadata of a range of tokens is changed. So that the third-party platforms such as NFT market could timely update the images and related attributes of the NFTs."
      },
      "MetadataUpdate(uint256)": {
        "details": "This event emits when the metadata of a token is changed. So that the third-party platforms such as NFT market could timely update the images and related attributes of the NFT."
      },
      "Transfer(address,address,uint256)": {
        "details": "Emitted when `tokenId` token is transferred from `from` to `to`."
      }
    },
    "kind": "dev",
    "methods": {
      "approve(address,uint256)": {
        "details": "See {IERC721-approve}."
      },
      "balanceOf(address)": {
        "details": "See {IERC721-balanceOf}."
      },
      "getApproved(uint256)": {
        "details": "See {IERC721-getApproved}."
      },
      "isApprovedForAll(address,address)": {
        "details": "See {IERC721-isApprovedForAll}."
      },
      "name()": {
        "details": "See {IERC721Metadata-name}."
      },
      "ownerOf(uint256)": {
        "details": "See {IERC721-ownerOf}."
      },
      "safeTransferFrom(address,address,uint256)": {
        "details": "See {IERC721-safeTransferFrom}."
      },
      "safeTransferFrom(address,address,uint256,bytes)": {
        "details": "See {IERC721-safeTransferFrom}."
      },
      "setApprovalForAll(address,bool)": {
        "details": "See {IERC721-setApprovalForAll}."
      },
      "supportsInterface(bytes4)": {
        "details": "See {IERC165-supportsInterface}"
      },
      "symbol()": {
        "details": "See {IERC721Metadata-symbol}."
      },
      "tokenURI(uint256)": {
        "details": "See {IERC721Metadata-tokenURI}."
      },
      "transferFrom(address,address,uint256)": {
        "details": "See {IERC721-transferFrom}."
      }
    },
    "version": 1
  },
  "userdoc": {
    "kind": "user",
    "methods": {},
    "version": 1
  }
}