{
  "contractName": "Implementation4",
  "abi": [
    {
      "anonymous": false,
      "inputs": [
        {
          "indexed": false,
          "internalType": "uint8",
          "name": "version",
          "type": "uint8"
        }
      ],
      "name": "Initialized",
      "type": "event"
    },
    {
      "stateMutability": "nonpayable",
      "type": "fallback"
    },
    {
      "inputs": [],
      "name": "initialize",
      "outputs": [],
      "stateMutability": "nonpayable",
      "type": "function"
    },
    {
      "inputs": [
        {
          "internalType": "uint256",
          "name": "_number",
          "type": "uint256"
        }
      ],
      "name": "setValue",
      "outputs": [],
      "stateMutability": "nonpayable",
      "type": "function"
    },
    {
      "inputs": [],
      "name": "getValue",
      "outputs": [
        {
          "internalType": "uint256",
          "name": "",
          "type": "uint256"
        }
      ],
      "stateMutability": "view",
      "type": "function"
    }
  ],
  "bytecode": "0x608060405234801561001057600080fd5b506103d7806100206000396000f3fe608060405234801561001057600080fd5b50600436106100455760003560e01c8063209652551461004e578063552410771461006c5780638129fc1c1461008857610046565b5b600180819055005b610056610092565b6040516100639190610218565b60405180910390f35b61008660048036038101906100819190610264565b61009c565b005b6100906100a6565b005b6000600154905090565b8060018190555050565b60008060019054906101000a900460ff161590508080156100d75750600160008054906101000a900460ff1660ff16105b8061010457506100e6306101dc565b1580156101035750600160008054906101000a900460ff1660ff16145b5b610143576040517f08c379a000000000000000000000000000000000000000000000000000000000815260040161013a90610314565b60405180910390fd5b60016000806101000a81548160ff021916908360ff1602179055508015610180576001600060016101000a81548160ff0219169083151502179055505b80156101d95760008060016101000a81548160ff0219169083151502179055507f7f26b83ff96e1f2b6a682f133852f6798a09c465da95921460cefb384740249860016040516101d09190610386565b60405180910390a15b50565b6000808273ffffffffffffffffffffffffffffffffffffffff163b119050919050565b6000819050919050565b610212816101ff565b82525050565b600060208201905061022d6000830184610209565b92915050565b600080fd5b610241816101ff565b811461024c57600080fd5b50565b60008135905061025e81610238565b92915050565b60006020828403121561027a57610279610233565b5b60006102888482850161024f565b91505092915050565b600082825260208201905092915050565b7f496e697469616c697a61626c653a20636f6e747261637420697320616c72656160008201527f647920696e697469616c697a6564000000000000000000000000000000000000602082015250565b60006102fe602e83610291565b9150610309826102a2565b604082019050919050565b6000602082019050818103600083015261032d816102f1565b9050919050565b6000819050919050565b600060ff82169050919050565b6000819050919050565b600061037061036b61036684610334565b61034b565b61033e565b9050919050565b61038081610355565b82525050565b600060208201905061039b6000830184610377565b9291505056fea2646970667358221220ccd26e8fd190ab859c022c34d812dc2213eb933e7af74c791d046b36036f492a64736f6c63430008130033",
  "immutableReferences": {},
  "source": "// SPDX-License-Identifier: MIT\n\npragma solidity ^0.8.0;\n\nimport \"../proxy/utils/Initializable.sol\";\n\ncontract Implementation1 is Initializable {\n    uint256 internal _value;\n\n    function initialize() public initializer {}\n\n    function setValue(uint256 _number) public {\n        _value = _number;\n    }\n}\n\ncontract Implementation2 is Initializable {\n    uint256 internal _value;\n\n    function initialize() public initializer {}\n\n    function setValue(uint256 _number) public {\n        _value = _number;\n    }\n\n    function getValue() public view returns (uint256) {\n        return _value;\n    }\n}\n\ncontract Implementation3 is Initializable {\n    uint256 internal _value;\n\n    function initialize() public initializer {}\n\n    function setValue(uint256 _number) public {\n        _value = _number;\n    }\n\n    function getValue(uint256 _number) public view returns (uint256) {\n        return _value + _number;\n    }\n}\n\ncontract Implementation4 is Initializable {\n    uint256 internal _value;\n\n    function initialize() public initializer {}\n\n    function setValue(uint256 _number) public {\n        _value = _number;\n    }\n\n    function getValue() public view returns (uint256) {\n        return _value;\n    }\n\n    fallback() external {\n        _value = 1;\n    }\n}\n",
  "sourcePath": "/Users/urieltan/gitclones/ft5004/nft-project/contracts/openzeppelin-contracts-master/contracts/mocks/RegressionImplementation.sol",
  "compiler": {
    "name": "solc",
    "version": "0.8.19+commit.7dd6d404.Emscripten.clang"
  },
  "schemaVersion": "3.4.13",
  "updatedAt": "2023-04-18T20:14:33.673Z",
  "devdoc": {
    "events": {
      "Initialized(uint8)": {
        "details": "Triggered when the contract has been initialized or reinitialized."
      }
    },
    "kind": "dev",
    "methods": {},
    "version": 1
  },
  "userdoc": {
    "kind": "user",
    "methods": {},
    "version": 1
  }
}