{
  "contractName": "MigratableMockV1",
  "abi": [
    {
      "anonymous": false,
      "inputs": [
        {
          "indexed": false,
          "internalType": "uint8",
          "name": "version",
          "type": "uint8"
        }
      ],
      "name": "Initialized",
      "type": "event"
    },
    {
      "inputs": [],
      "name": "x",
      "outputs": [
        {
          "internalType": "uint256",
          "name": "",
          "type": "uint256"
        }
      ],
      "stateMutability": "view",
      "type": "function"
    },
    {
      "inputs": [
        {
          "internalType": "uint256",
          "name": "value",
          "type": "uint256"
        }
      ],
      "name": "initialize",
      "outputs": [],
      "stateMutability": "payable",
      "type": "function"
    }
  ],
  "bytecode": "0x608060405234801561001057600080fd5b506103b4806100206000396000f3fe6080604052600436106100295760003560e01c80630c55699c1461002e578063fe4b84df14610059575b600080fd5b34801561003a57600080fd5b50610043610075565b60405161005091906101f5565b60405180910390f35b610073600480360381019061006e9190610241565b61007b565b005b60015481565b60008060019054906101000a900460ff161590508080156100ac5750600160008054906101000a900460ff1660ff16105b806100d957506100bb306101b9565b1580156100d85750600160008054906101000a900460ff1660ff16145b5b610118576040517f08c379a000000000000000000000000000000000000000000000000000000000815260040161010f906102f1565b60405180910390fd5b60016000806101000a81548160ff021916908360ff1602179055508015610155576001600060016101000a81548160ff0219169083151502179055505b8160018190555080156101b55760008060016101000a81548160ff0219169083151502179055507f7f26b83ff96e1f2b6a682f133852f6798a09c465da95921460cefb384740249860016040516101ac9190610363565b60405180910390a15b5050565b6000808273ffffffffffffffffffffffffffffffffffffffff163b119050919050565b6000819050919050565b6101ef816101dc565b82525050565b600060208201905061020a60008301846101e6565b92915050565b600080fd5b61021e816101dc565b811461022957600080fd5b50565b60008135905061023b81610215565b92915050565b60006020828403121561025757610256610210565b5b60006102658482850161022c565b91505092915050565b600082825260208201905092915050565b7f496e697469616c697a61626c653a20636f6e747261637420697320616c72656160008201527f647920696e697469616c697a6564000000000000000000000000000000000000602082015250565b60006102db602e8361026e565b91506102e68261027f565b604082019050919050565b6000602082019050818103600083015261030a816102ce565b9050919050565b6000819050919050565b600060ff82169050919050565b6000819050919050565b600061034d61034861034384610311565b610328565b61031b565b9050919050565b61035d81610332565b82525050565b60006020820190506103786000830184610354565b9291505056fea26469706673582212204388b26e3c1fc9ff379fb935cf0496b95d1bae7d27890371b11f330f6d331b7a64736f6c63430008130033",
  "immutableReferences": {},
  "source": "// SPDX-License-Identifier: MIT\n\npragma solidity ^0.8.0;\n\nimport \"../proxy/utils/Initializable.sol\";\n\n/**\n * @title MigratableMockV1\n * @dev This contract is a mock to test initializable functionality through migrations\n */\ncontract MigratableMockV1 is Initializable {\n    uint256 public x;\n\n    function initialize(uint256 value) public payable initializer {\n        x = value;\n    }\n}\n\n/**\n * @title MigratableMockV2\n * @dev This contract is a mock to test migratable functionality with params\n */\ncontract MigratableMockV2 is MigratableMockV1 {\n    bool internal _migratedV2;\n    uint256 public y;\n\n    function migrate(uint256 value, uint256 anotherValue) public payable {\n        require(!_migratedV2);\n        x = value;\n        y = anotherValue;\n        _migratedV2 = true;\n    }\n}\n\n/**\n * @title MigratableMockV3\n * @dev This contract is a mock to test migratable functionality without params\n */\ncontract MigratableMockV3 is MigratableMockV2 {\n    bool internal _migratedV3;\n\n    function migrate() public payable {\n        require(!_migratedV3);\n        uint256 oldX = x;\n        x = y;\n        y = oldX;\n        _migratedV3 = true;\n    }\n}\n",
  "sourcePath": "/Users/urieltan/gitclones/ft5004/nft-project/contracts/openzeppelin-contracts-master/contracts/mocks/SingleInheritanceInitializableMocks.sol",
  "compiler": {
    "name": "solc",
    "version": "0.8.19+commit.7dd6d404.Emscripten.clang"
  },
  "schemaVersion": "3.4.13",
  "updatedAt": "2023-04-18T20:14:33.674Z",
  "devdoc": {
    "details": "This contract is a mock to test initializable functionality through migrations",
    "events": {
      "Initialized(uint8)": {
        "details": "Triggered when the contract has been initialized or reinitialized."
      }
    },
    "kind": "dev",
    "methods": {},
    "title": "MigratableMockV1",
    "version": 1
  },
  "userdoc": {
    "kind": "user",
    "methods": {},
    "version": 1
  }
}