{
  "contractName": "MulticallTest",
  "abi": [
    {
      "inputs": [
        {
          "internalType": "contract ERC20MulticallMock",
          "name": "multicallToken",
          "type": "address"
        },
        {
          "internalType": "address[]",
          "name": "recipients",
          "type": "address[]"
        },
        {
          "internalType": "uint256[]",
          "name": "amounts",
          "type": "uint256[]"
        }
      ],
      "name": "checkReturnValues",
      "outputs": [],
      "stateMutability": "nonpayable",
      "type": "function"
    }
  ],
  "bytecode": "0x608060405234801561001057600080fd5b50610a14806100206000396000f3fe608060405234801561001057600080fd5b506004361061002b5760003560e01c8063b568d01614610030575b600080fd5b61004a600480360381019061004591906103d5565b61004c565b005b60008484905067ffffffffffffffff81111561006b5761006a61046a565b5b60405190808252806020026020018201604052801561009e57816020015b60608152602001906001900390816100895790505b50905060005b858590508110156101b0578585828181106100c2576100c1610499565b5b90506020020160208101906100d791906104f4565b8484838181106100ea576100e9610499565b5b90506020020135604051602401610102929190610549565b6040516020818303038152906040527fa9059cbb000000000000000000000000000000000000000000000000000000007bffffffffffffffffffffffffffffffffffffffffffffffffffffffff19166020820180517bffffffffffffffffffffffffffffffffffffffffffffffffffffffff838183161783525050505082828151811061019257610191610499565b5b602002602001018190525080806101a8906105a1565b9150506100a4565b5060008673ffffffffffffffffffffffffffffffffffffffff1663ac9650d8836040518263ffffffff1660e01b81526004016101ec919061073b565b6000604051808303816000875af115801561020b573d6000803e3d6000fd5b505050506040513d6000823e3d601f19601f820116820180604052508101906102349190610930565b905060005b815181101561028c5781818151811061025557610254610499565b5b602002602001015180602001905181019061027091906109b1565b61027957600080fd5b8080610284906105a1565b915050610239565b5050505050505050565b6000604051905090565b600080fd5b600080fd5b600073ffffffffffffffffffffffffffffffffffffffff82169050919050565b60006102d5826102aa565b9050919050565b60006102e7826102ca565b9050919050565b6102f7816102dc565b811461030257600080fd5b50565b600081359050610314816102ee565b92915050565b600080fd5b600080fd5b600080fd5b60008083601f84011261033f5761033e61031a565b5b8235905067ffffffffffffffff81111561035c5761035b61031f565b5b60208301915083602082028301111561037857610377610324565b5b9250929050565b60008083601f8401126103955761039461031a565b5b8235905067ffffffffffffffff8111156103b2576103b161031f565b5b6020830191508360208202830111156103ce576103cd610324565b5b9250929050565b6000806000806000606086880312156103f1576103f06102a0565b5b60006103ff88828901610305565b955050602086013567ffffffffffffffff8111156104205761041f6102a5565b5b61042c88828901610329565b9450945050604086013567ffffffffffffffff81111561044f5761044e6102a5565b5b61045b8882890161037f565b92509250509295509295909350565b7f4e487b7100000000000000000000000000000000000000000000000000000000600052604160045260246000fd5b7f4e487b7100000000000000000000000000000000000000000000000000000000600052603260045260246000fd5b6104d1816102ca565b81146104dc57600080fd5b50565b6000813590506104ee816104c8565b92915050565b60006020828403121561050a576105096102a0565b5b6000610518848285016104df565b91505092915050565b61052a816102ca565b82525050565b6000819050919050565b61054381610530565b82525050565b600060408201905061055e6000830185610521565b61056b602083018461053a565b9392505050565b7f4e487b7100000000000000000000000000000000000000000000000000000000600052601160045260246000fd5b60006105ac82610530565b91507fffffffffffffffffffffffffffffffffffffffffffffffffffffffffffffffff82036105de576105dd610572565b5b600182019050919050565b600081519050919050565b600082825260208201905092915050565b6000819050602082019050919050565b600081519050919050565b600082825260208201905092915050565b60005b8381101561064f578082015181840152602081019050610634565b60008484015250505050565b6000601f19601f8301169050919050565b600061067782610615565b6106818185610620565b9350610691818560208601610631565b61069a8161065b565b840191505092915050565b60006106b1838361066c565b905092915050565b6000602082019050919050565b60006106d1826105e9565b6106db81856105f4565b9350836020820285016106ed85610605565b8060005b85811015610729578484038952815161070a85826106a5565b9450610715836106b9565b925060208a019950506001810190506106f1565b50829750879550505050505092915050565b6000602082019050818103600083015261075581846106c6565b905092915050565b6107668261065b565b810181811067ffffffffffffffff821117156107855761078461046a565b5b80604052505050565b6000610798610296565b90506107a4828261075d565b919050565b600067ffffffffffffffff8211156107c4576107c361046a565b5b602082029050602081019050919050565b600080fd5b600067ffffffffffffffff8211156107f5576107f461046a565b5b6107fe8261065b565b9050602081019050919050565b600061081e610819846107da565b61078e565b90508281526020810184848401111561083a576108396107d5565b5b610845848285610631565b509392505050565b600082601f8301126108625761086161031a565b5b815161087284826020860161080b565b91505092915050565b600061088e610889846107a9565b61078e565b905080838252602082019050602084028301858111156108b1576108b0610324565b5b835b818110156108f857805167ffffffffffffffff8111156108d6576108d561031a565b5b8086016108e3898261084d565b855260208501945050506020810190506108b3565b5050509392505050565b600082601f8301126109175761091661031a565b5b815161092784826020860161087b565b91505092915050565b600060208284031215610946576109456102a0565b5b600082015167ffffffffffffffff811115610964576109636102a5565b5b61097084828501610902565b91505092915050565b60008115159050919050565b61098e81610979565b811461099957600080fd5b50565b6000815190506109ab81610985565b92915050565b6000602082840312156109c7576109c66102a0565b5b60006109d58482850161099c565b9150509291505056fea26469706673582212200a68157726aa8b19a9d8b38c3b5a1fc41b9c7b14e0e3ccb42208fecb89fbb84864736f6c63430008130033",
  "immutableReferences": {},
  "source": "// SPDX-License-Identifier: MIT\n\npragma solidity ^0.8.0;\n\nimport \"./token/ERC20MulticallMock.sol\";\n\ncontract MulticallTest {\n    function checkReturnValues(\n        ERC20MulticallMock multicallToken,\n        address[] calldata recipients,\n        uint256[] calldata amounts\n    ) external {\n        bytes[] memory calls = new bytes[](recipients.length);\n        for (uint256 i = 0; i < recipients.length; i++) {\n            calls[i] = abi.encodeWithSignature(\"transfer(address,uint256)\", recipients[i], amounts[i]);\n        }\n\n        bytes[] memory results = multicallToken.multicall(calls);\n        for (uint256 i = 0; i < results.length; i++) {\n            require(abi.decode(results[i], (bool)));\n        }\n    }\n}\n",
  "sourcePath": "/Users/urieltan/gitclones/ft5004/nft-project/contracts/openzeppelin-contracts-master/contracts/mocks/MulticallTest.sol",
  "compiler": {
    "name": "solc",
    "version": "0.8.19+commit.7dd6d404.Emscripten.clang"
  },
  "schemaVersion": "3.4.13",
  "updatedAt": "2023-04-18T20:14:33.656Z",
  "devdoc": {
    "kind": "dev",
    "methods": {},
    "version": 1
  },
  "userdoc": {
    "kind": "user",
    "methods": {},
    "version": 1
  }
}