{
  "contractName": "MyGovernor",
  "abi": [
    {
      "inputs": [
        {
          "internalType": "contract IVotes",
          "name": "_token",
          "type": "address"
        },
        {
          "internalType": "contract TimelockController",
          "name": "_timelock",
          "type": "address"
        }
      ],
      "stateMutability": "nonpayable",
      "type": "constructor"
    },
    {
      "inputs": [],
      "name": "Empty",
      "type": "error"
    },
    {
      "inputs": [],
      "name": "InvalidShortString",
      "type": "error"
    },
    {
      "inputs": [
        {
          "internalType": "string",
          "name": "str",
          "type": "string"
        }
      ],
      "name": "StringTooLong",
      "type": "error"
    },
    {
      "anonymous": false,
      "inputs": [],
      "name": "EIP712DomainChanged",
      "type": "event"
    },
    {
      "anonymous": false,
      "inputs": [
        {
          "indexed": false,
          "internalType": "uint256",
          "name": "proposalId",
          "type": "uint256"
        }
      ],
      "name": "ProposalCanceled",
      "type": "event"
    },
    {
      "anonymous": false,
      "inputs": [
        {
          "indexed": false,
          "internalType": "uint256",
          "name": "proposalId",
          "type": "uint256"
        },
        {
          "indexed": false,
          "internalType": "address",
          "name": "proposer",
          "type": "address"
        },
        {
          "indexed": false,
          "internalType": "address[]",
          "name": "targets",
          "type": "address[]"
        },
        {
          "indexed": false,
          "internalType": "uint256[]",
          "name": "values",
          "type": "uint256[]"
        },
        {
          "indexed": false,
          "internalType": "string[]",
          "name": "signatures",
          "type": "string[]"
        },
        {
          "indexed": false,
          "internalType": "bytes[]",
          "name": "calldatas",
          "type": "bytes[]"
        },
        {
          "indexed": false,
          "internalType": "uint256",
          "name": "voteStart",
          "type": "uint256"
        },
        {
          "indexed": false,
          "internalType": "uint256",
          "name": "voteEnd",
          "type": "uint256"
        },
        {
          "indexed": false,
          "internalType": "string",
          "name": "description",
          "type": "string"
        }
      ],
      "name": "ProposalCreated",
      "type": "event"
    },
    {
      "anonymous": false,
      "inputs": [
        {
          "indexed": false,
          "internalType": "uint256",
          "name": "proposalId",
          "type": "uint256"
        }
      ],
      "name": "ProposalExecuted",
      "type": "event"
    },
    {
      "anonymous": false,
      "inputs": [
        {
          "indexed": false,
          "internalType": "uint256",
          "name": "proposalId",
          "type": "uint256"
        },
        {
          "indexed": false,
          "internalType": "uint256",
          "name": "eta",
          "type": "uint256"
        }
      ],
      "name": "ProposalQueued",
      "type": "event"
    },
    {
      "anonymous": false,
      "inputs": [
        {
          "indexed": false,
          "internalType": "uint256",
          "name": "oldQuorumNumerator",
          "type": "uint256"
        },
        {
          "indexed": false,
          "internalType": "uint256",
          "name": "newQuorumNumerator",
          "type": "uint256"
        }
      ],
      "name": "QuorumNumeratorUpdated",
      "type": "event"
    },
    {
      "anonymous": false,
      "inputs": [
        {
          "indexed": false,
          "internalType": "address",
          "name": "oldTimelock",
          "type": "address"
        },
        {
          "indexed": false,
          "internalType": "address",
          "name": "newTimelock",
          "type": "address"
        }
      ],
      "name": "TimelockChange",
      "type": "event"
    },
    {
      "anonymous": false,
      "inputs": [
        {
          "indexed": true,
          "internalType": "address",
          "name": "voter",
          "type": "address"
        },
        {
          "indexed": false,
          "internalType": "uint256",
          "name": "proposalId",
          "type": "uint256"
        },
        {
          "indexed": false,
          "internalType": "uint8",
          "name": "support",
          "type": "uint8"
        },
        {
          "indexed": false,
          "internalType": "uint256",
          "name": "weight",
          "type": "uint256"
        },
        {
          "indexed": false,
          "internalType": "string",
          "name": "reason",
          "type": "string"
        }
      ],
      "name": "VoteCast",
      "type": "event"
    },
    {
      "anonymous": false,
      "inputs": [
        {
          "indexed": true,
          "internalType": "address",
          "name": "voter",
          "type": "address"
        },
        {
          "indexed": false,
          "internalType": "uint256",
          "name": "proposalId",
          "type": "uint256"
        },
        {
          "indexed": false,
          "internalType": "uint8",
          "name": "support",
          "type": "uint8"
        },
        {
          "indexed": false,
          "internalType": "uint256",
          "name": "weight",
          "type": "uint256"
        },
        {
          "indexed": false,
          "internalType": "string",
          "name": "reason",
          "type": "string"
        },
        {
          "indexed": false,
          "internalType": "bytes",
          "name": "params",
          "type": "bytes"
        }
      ],
      "name": "VoteCastWithParams",
      "type": "event"
    },
    {
      "inputs": [],
      "name": "BALLOT_TYPEHASH",
      "outputs": [
        {
          "internalType": "bytes32",
          "name": "",
          "type": "bytes32"
        }
      ],
      "stateMutability": "view",
      "type": "function"
    },
    {
      "inputs": [],
      "name": "CLOCK_MODE",
      "outputs": [
        {
          "internalType": "string",
          "name": "",
          "type": "string"
        }
      ],
      "stateMutability": "view",
      "type": "function"
    },
    {
      "inputs": [],
      "name": "COUNTING_MODE",
      "outputs": [
        {
          "internalType": "string",
          "name": "",
          "type": "string"
        }
      ],
      "stateMutability": "pure",
      "type": "function"
    },
    {
      "inputs": [],
      "name": "EXTENDED_BALLOT_TYPEHASH",
      "outputs": [
        {
          "internalType": "bytes32",
          "name": "",
          "type": "bytes32"
        }
      ],
      "stateMutability": "view",
      "type": "function"
    },
    {
      "inputs": [
        {
          "internalType": "uint256",
          "name": "proposalId",
          "type": "uint256"
        },
        {
          "internalType": "uint8",
          "name": "support",
          "type": "uint8"
        }
      ],
      "name": "castVote",
      "outputs": [
        {
          "internalType": "uint256",
          "name": "",
          "type": "uint256"
        }
      ],
      "stateMutability": "nonpayable",
      "type": "function"
    },
    {
      "inputs": [
        {
          "internalType": "uint256",
          "name": "proposalId",
          "type": "uint256"
        },
        {
          "internalType": "uint8",
          "name": "support",
          "type": "uint8"
        },
        {
          "internalType": "uint8",
          "name": "v",
          "type": "uint8"
        },
        {
          "internalType": "bytes32",
          "name": "r",
          "type": "bytes32"
        },
        {
          "internalType": "bytes32",
          "name": "s",
          "type": "bytes32"
        }
      ],
      "name": "castVoteBySig",
      "outputs": [
        {
          "internalType": "uint256",
          "name": "",
          "type": "uint256"
        }
      ],
      "stateMutability": "nonpayable",
      "type": "function"
    },
    {
      "inputs": [
        {
          "internalType": "uint256",
          "name": "proposalId",
          "type": "uint256"
        },
        {
          "internalType": "uint8",
          "name": "support",
          "type": "uint8"
        },
        {
          "internalType": "string",
          "name": "reason",
          "type": "string"
        }
      ],
      "name": "castVoteWithReason",
      "outputs": [
        {
          "internalType": "uint256",
          "name": "",
          "type": "uint256"
        }
      ],
      "stateMutability": "nonpayable",
      "type": "function"
    },
    {
      "inputs": [
        {
          "internalType": "uint256",
          "name": "proposalId",
          "type": "uint256"
        },
        {
          "internalType": "uint8",
          "name": "support",
          "type": "uint8"
        },
        {
          "internalType": "string",
          "name": "reason",
          "type": "string"
        },
        {
          "internalType": "bytes",
          "name": "params",
          "type": "bytes"
        }
      ],
      "name": "castVoteWithReasonAndParams",
      "outputs": [
        {
          "internalType": "uint256",
          "name": "",
          "type": "uint256"
        }
      ],
      "stateMutability": "nonpayable",
      "type": "function"
    },
    {
      "inputs": [
        {
          "internalType": "uint256",
          "name": "proposalId",
          "type": "uint256"
        },
        {
          "internalType": "uint8",
          "name": "support",
          "type": "uint8"
        },
        {
          "internalType": "string",
          "name": "reason",
          "type": "string"
        },
        {
          "internalType": "bytes",
          "name": "params",
          "type": "bytes"
        },
        {
          "internalType": "uint8",
          "name": "v",
          "type": "uint8"
        },
        {
          "internalType": "bytes32",
          "name": "r",
          "type": "bytes32"
        },
        {
          "internalType": "bytes32",
          "name": "s",
          "type": "bytes32"
        }
      ],
      "name": "castVoteWithReasonAndParamsBySig",
      "outputs": [
        {
          "internalType": "uint256",
          "name": "",
          "type": "uint256"
        }
      ],
      "stateMutability": "nonpayable",
      "type": "function"
    },
    {
      "inputs": [],
      "name": "clock",
      "outputs": [
        {
          "internalType": "uint48",
          "name": "",
          "type": "uint48"
        }
      ],
      "stateMutability": "view",
      "type": "function"
    },
    {
      "inputs": [],
      "name": "eip712Domain",
      "outputs": [
        {
          "internalType": "bytes1",
          "name": "fields",
          "type": "bytes1"
        },
        {
          "internalType": "string",
          "name": "name",
          "type": "string"
        },
        {
          "internalType": "string",
          "name": "version",
          "type": "string"
        },
        {
          "internalType": "uint256",
          "name": "chainId",
          "type": "uint256"
        },
        {
          "internalType": "address",
          "name": "verifyingContract",
          "type": "address"
        },
        {
          "internalType": "bytes32",
          "name": "salt",
          "type": "bytes32"
        },
        {
          "internalType": "uint256[]",
          "name": "extensions",
          "type": "uint256[]"
        }
      ],
      "stateMutability": "view",
      "type": "function"
    },
    {
      "inputs": [
        {
          "internalType": "address[]",
          "name": "targets",
          "type": "address[]"
        },
        {
          "internalType": "uint256[]",
          "name": "values",
          "type": "uint256[]"
        },
        {
          "internalType": "bytes[]",
          "name": "calldatas",
          "type": "bytes[]"
        },
        {
          "internalType": "bytes32",
          "name": "descriptionHash",
          "type": "bytes32"
        }
      ],
      "name": "execute",
      "outputs": [
        {
          "internalType": "uint256",
          "name": "",
          "type": "uint256"
        }
      ],
      "stateMutability": "payable",
      "type": "function"
    },
    {
      "inputs": [
        {
          "internalType": "uint256",
          "name": "proposalId",
          "type": "uint256"
        }
      ],
      "name": "execute",
      "outputs": [],
      "stateMutability": "payable",
      "type": "function"
    },
    {
      "inputs": [
        {
          "internalType": "uint256",
          "name": "proposalId",
          "type": "uint256"
        }
      ],
      "name": "getActions",
      "outputs": [
        {
          "internalType": "address[]",
          "name": "targets",
          "type": "address[]"
        },
        {
          "internalType": "uint256[]",
          "name": "values",
          "type": "uint256[]"
        },
        {
          "internalType": "string[]",
          "name": "signatures",
          "type": "string[]"
        },
        {
          "internalType": "bytes[]",
          "name": "calldatas",
          "type": "bytes[]"
        }
      ],
      "stateMutability": "view",
      "type": "function"
    },
    {
      "inputs": [
        {
          "internalType": "uint256",
          "name": "proposalId",
          "type": "uint256"
        },
        {
          "internalType": "address",
          "name": "voter",
          "type": "address"
        }
      ],
      "name": "getReceipt",
      "outputs": [
        {
          "components": [
            {
              "internalType": "bool",
              "name": "hasVoted",
              "type": "bool"
            },
            {
              "internalType": "uint8",
              "name": "support",
              "type": "uint8"
            },
            {
              "internalType": "uint96",
              "name": "votes",
              "type": "uint96"
            }
          ],
          "internalType": "struct IGovernorCompatibilityBravo.Receipt",
          "name": "",
          "type": "tuple"
        }
      ],
      "stateMutability": "view",
      "type": "function"
    },
    {
      "inputs": [
        {
          "internalType": "address",
          "name": "account",
          "type": "address"
        },
        {
          "internalType": "uint256",
          "name": "timepoint",
          "type": "uint256"
        }
      ],
      "name": "getVotes",
      "outputs": [
        {
          "internalType": "uint256",
          "name": "",
          "type": "uint256"
        }
      ],
      "stateMutability": "view",
      "type": "function"
    },
    {
      "inputs": [
        {
          "internalType": "address",
          "name": "account",
          "type": "address"
        },
        {
          "internalType": "uint256",
          "name": "timepoint",
          "type": "uint256"
        },
        {
          "internalType": "bytes",
          "name": "params",
          "type": "bytes"
        }
      ],
      "name": "getVotesWithParams",
      "outputs": [
        {
          "internalType": "uint256",
          "name": "",
          "type": "uint256"
        }
      ],
      "stateMutability": "view",
      "type": "function"
    },
    {
      "inputs": [
        {
          "internalType": "uint256",
          "name": "proposalId",
          "type": "uint256"
        },
        {
          "internalType": "address",
          "name": "account",
          "type": "address"
        }
      ],
      "name": "hasVoted",
      "outputs": [
        {
          "internalType": "bool",
          "name": "",
          "type": "bool"
        }
      ],
      "stateMutability": "view",
      "type": "function"
    },
    {
      "inputs": [
        {
          "internalType": "address[]",
          "name": "targets",
          "type": "address[]"
        },
        {
          "internalType": "uint256[]",
          "name": "values",
          "type": "uint256[]"
        },
        {
          "internalType": "bytes[]",
          "name": "calldatas",
          "type": "bytes[]"
        },
        {
          "internalType": "bytes32",
          "name": "descriptionHash",
          "type": "bytes32"
        }
      ],
      "name": "hashProposal",
      "outputs": [
        {
          "internalType": "uint256",
          "name": "",
          "type": "uint256"
        }
      ],
      "stateMutability": "pure",
      "type": "function"
    },
    {
      "inputs": [],
      "name": "name",
      "outputs": [
        {
          "internalType": "string",
          "name": "",
          "type": "string"
        }
      ],
      "stateMutability": "view",
      "type": "function"
    },
    {
      "inputs": [
        {
          "internalType": "address",
          "name": "",
          "type": "address"
        },
        {
          "internalType": "address",
          "name": "",
          "type": "address"
        },
        {
          "internalType": "uint256[]",
          "name": "",
          "type": "uint256[]"
        },
        {
          "internalType": "uint256[]",
          "name": "",
          "type": "uint256[]"
        },
        {
          "internalType": "bytes",
          "name": "",
          "type": "bytes"
        }
      ],
      "name": "onERC1155BatchReceived",
      "outputs": [
        {
          "internalType": "bytes4",
          "name": "",
          "type": "bytes4"
        }
      ],
      "stateMutability": "nonpayable",
      "type": "function"
    },
    {
      "inputs": [
        {
          "internalType": "address",
          "name": "",
          "type": "address"
        },
        {
          "internalType": "address",
          "name": "",
          "type": "address"
        },
        {
          "internalType": "uint256",
          "name": "",
          "type": "uint256"
        },
        {
          "internalType": "uint256",
          "name": "",
          "type": "uint256"
        },
        {
          "internalType": "bytes",
          "name": "",
          "type": "bytes"
        }
      ],
      "name": "onERC1155Received",
      "outputs": [
        {
          "internalType": "bytes4",
          "name": "",
          "type": "bytes4"
        }
      ],
      "stateMutability": "nonpayable",
      "type": "function"
    },
    {
      "inputs": [
        {
          "internalType": "address",
          "name": "",
          "type": "address"
        },
        {
          "internalType": "address",
          "name": "",
          "type": "address"
        },
        {
          "internalType": "uint256",
          "name": "",
          "type": "uint256"
        },
        {
          "internalType": "bytes",
          "name": "",
          "type": "bytes"
        }
      ],
      "name": "onERC721Received",
      "outputs": [
        {
          "internalType": "bytes4",
          "name": "",
          "type": "bytes4"
        }
      ],
      "stateMutability": "nonpayable",
      "type": "function"
    },
    {
      "inputs": [
        {
          "internalType": "uint256",
          "name": "proposalId",
          "type": "uint256"
        }
      ],
      "name": "proposalDeadline",
      "outputs": [
        {
          "internalType": "uint256",
          "name": "",
          "type": "uint256"
        }
      ],
      "stateMutability": "view",
      "type": "function"
    },
    {
      "inputs": [
        {
          "internalType": "uint256",
          "name": "proposalId",
          "type": "uint256"
        }
      ],
      "name": "proposalEta",
      "outputs": [
        {
          "internalType": "uint256",
          "name": "",
          "type": "uint256"
        }
      ],
      "stateMutability": "view",
      "type": "function"
    },
    {
      "inputs": [
        {
          "internalType": "uint256",
          "name": "proposalId",
          "type": "uint256"
        }
      ],
      "name": "proposalSnapshot",
      "outputs": [
        {
          "internalType": "uint256",
          "name": "",
          "type": "uint256"
        }
      ],
      "stateMutability": "view",
      "type": "function"
    },
    {
      "inputs": [
        {
          "internalType": "uint256",
          "name": "proposalId",
          "type": "uint256"
        }
      ],
      "name": "proposals",
      "outputs": [
        {
          "internalType": "uint256",
          "name": "id",
          "type": "uint256"
        },
        {
          "internalType": "address",
          "name": "proposer",
          "type": "address"
        },
        {
          "internalType": "uint256",
          "name": "eta",
          "type": "uint256"
        },
        {
          "internalType": "uint256",
          "name": "startBlock",
          "type": "uint256"
        },
        {
          "internalType": "uint256",
          "name": "endBlock",
          "type": "uint256"
        },
        {
          "internalType": "uint256",
          "name": "forVotes",
          "type": "uint256"
        },
        {
          "internalType": "uint256",
          "name": "againstVotes",
          "type": "uint256"
        },
        {
          "internalType": "uint256",
          "name": "abstainVotes",
          "type": "uint256"
        },
        {
          "internalType": "bool",
          "name": "canceled",
          "type": "bool"
        },
        {
          "internalType": "bool",
          "name": "executed",
          "type": "bool"
        }
      ],
      "stateMutability": "view",
      "type": "function"
    },
    {
      "inputs": [
        {
          "internalType": "address[]",
          "name": "targets",
          "type": "address[]"
        },
        {
          "internalType": "uint256[]",
          "name": "values",
          "type": "uint256[]"
        },
        {
          "internalType": "bytes[]",
          "name": "calldatas",
          "type": "bytes[]"
        },
        {
          "internalType": "bytes32",
          "name": "descriptionHash",
          "type": "bytes32"
        }
      ],
      "name": "queue",
      "outputs": [
        {
          "internalType": "uint256",
          "name": "",
          "type": "uint256"
        }
      ],
      "stateMutability": "nonpayable",
      "type": "function"
    },
    {
      "inputs": [
        {
          "internalType": "uint256",
          "name": "proposalId",
          "type": "uint256"
        }
      ],
      "name": "queue",
      "outputs": [],
      "stateMutability": "nonpayable",
      "type": "function"
    },
    {
      "inputs": [],
      "name": "quorumDenominator",
      "outputs": [
        {
          "internalType": "uint256",
          "name": "",
          "type": "uint256"
        }
      ],
      "stateMutability": "view",
      "type": "function"
    },
    {
      "inputs": [
        {
          "internalType": "uint256",
          "name": "timepoint",
          "type": "uint256"
        }
      ],
      "name": "quorumNumerator",
      "outputs": [
        {
          "internalType": "uint256",
          "name": "",
          "type": "uint256"
        }
      ],
      "stateMutability": "view",
      "type": "function"
    },
    {
      "inputs": [],
      "name": "quorumNumerator",
      "outputs": [
        {
          "internalType": "uint256",
          "name": "",
          "type": "uint256"
        }
      ],
      "stateMutability": "view",
      "type": "function"
    },
    {
      "inputs": [],
      "name": "quorumVotes",
      "outputs": [
        {
          "internalType": "uint256",
          "name": "",
          "type": "uint256"
        }
      ],
      "stateMutability": "view",
      "type": "function"
    },
    {
      "inputs": [
        {
          "internalType": "address",
          "name": "target",
          "type": "address"
        },
        {
          "internalType": "uint256",
          "name": "value",
          "type": "uint256"
        },
        {
          "internalType": "bytes",
          "name": "data",
          "type": "bytes"
        }
      ],
      "name": "relay",
      "outputs": [],
      "stateMutability": "payable",
      "type": "function"
    },
    {
      "inputs": [],
      "name": "timelock",
      "outputs": [
        {
          "internalType": "address",
          "name": "",
          "type": "address"
        }
      ],
      "stateMutability": "view",
      "type": "function"
    },
    {
      "inputs": [],
      "name": "token",
      "outputs": [
        {
          "internalType": "contract IERC5805",
          "name": "",
          "type": "address"
        }
      ],
      "stateMutability": "view",
      "type": "function"
    },
    {
      "inputs": [
        {
          "internalType": "uint256",
          "name": "newQuorumNumerator",
          "type": "uint256"
        }
      ],
      "name": "updateQuorumNumerator",
      "outputs": [],
      "stateMutability": "nonpayable",
      "type": "function"
    },
    {
      "inputs": [
        {
          "internalType": "contract TimelockController",
          "name": "newTimelock",
          "type": "address"
        }
      ],
      "name": "updateTimelock",
      "outputs": [],
      "stateMutability": "nonpayable",
      "type": "function"
    },
    {
      "inputs": [],
      "name": "version",
      "outputs": [
        {
          "internalType": "string",
          "name": "",
          "type": "string"
        }
      ],
      "stateMutability": "view",
      "type": "function"
    },
    {
      "stateMutability": "payable",
      "type": "receive"
    },
    {
      "inputs": [],
      "name": "votingDelay",
      "outputs": [
        {
          "internalType": "uint256",
          "name": "",
          "type": "uint256"
        }
      ],
      "stateMutability": "pure",
      "type": "function"
    },
    {
      "inputs": [],
      "name": "votingPeriod",
      "outputs": [
        {
          "internalType": "uint256",
          "name": "",
          "type": "uint256"
        }
      ],
      "stateMutability": "pure",
      "type": "function"
    },
    {
      "inputs": [],
      "name": "proposalThreshold",
      "outputs": [
        {
          "internalType": "uint256",
          "name": "",
          "type": "uint256"
        }
      ],
      "stateMutability": "pure",
      "type": "function"
    },
    {
      "inputs": [
        {
          "internalType": "uint256",
          "name": "blockNumber",
          "type": "uint256"
        }
      ],
      "name": "quorum",
      "outputs": [
        {
          "internalType": "uint256",
          "name": "",
          "type": "uint256"
        }
      ],
      "stateMutability": "view",
      "type": "function"
    },
    {
      "inputs": [
        {
          "internalType": "uint256",
          "name": "proposalId",
          "type": "uint256"
        }
      ],
      "name": "state",
      "outputs": [
        {
          "internalType": "enum IGovernor.ProposalState",
          "name": "",
          "type": "uint8"
        }
      ],
      "stateMutability": "view",
      "type": "function"
    },
    {
      "inputs": [
        {
          "internalType": "address[]",
          "name": "targets",
          "type": "address[]"
        },
        {
          "internalType": "uint256[]",
          "name": "values",
          "type": "uint256[]"
        },
        {
          "internalType": "bytes[]",
          "name": "calldatas",
          "type": "bytes[]"
        },
        {
          "internalType": "string",
          "name": "description",
          "type": "string"
        }
      ],
      "name": "propose",
      "outputs": [
        {
          "internalType": "uint256",
          "name": "",
          "type": "uint256"
        }
      ],
      "stateMutability": "nonpayable",
      "type": "function"
    },
    {
      "inputs": [
        {
          "internalType": "address[]",
          "name": "targets",
          "type": "address[]"
        },
        {
          "internalType": "uint256[]",
          "name": "values",
          "type": "uint256[]"
        },
        {
          "internalType": "string[]",
          "name": "signatures",
          "type": "string[]"
        },
        {
          "internalType": "bytes[]",
          "name": "calldatas",
          "type": "bytes[]"
        },
        {
          "internalType": "string",
          "name": "description",
          "type": "string"
        }
      ],
      "name": "propose",
      "outputs": [
        {
          "internalType": "uint256",
          "name": "",
          "type": "uint256"
        }
      ],
      "stateMutability": "nonpayable",
      "type": "function"
    },
    {
      "inputs": [
        {
          "internalType": "uint256",
          "name": "proposalId",
          "type": "uint256"
        }
      ],
      "name": "cancel",
      "outputs": [],
      "stateMutability": "nonpayable",
      "type": "function"
    },
    {
      "inputs": [
        {
          "internalType": "address[]",
          "name": "targets",
          "type": "address[]"
        },
        {
          "internalType": "uint256[]",
          "name": "values",
          "type": "uint256[]"
        },
        {
          "internalType": "bytes[]",
          "name": "calldatas",
          "type": "bytes[]"
        },
        {
          "internalType": "bytes32",
          "name": "descriptionHash",
          "type": "bytes32"
        }
      ],
      "name": "cancel",
      "outputs": [
        {
          "internalType": "uint256",
          "name": "",
          "type": "uint256"
        }
      ],
      "stateMutability": "nonpayable",
      "type": "function"
    },
    {
      "inputs": [
        {
          "internalType": "bytes4",
          "name": "interfaceId",
          "type": "bytes4"
        }
      ],
      "name": "supportsInterface",
      "outputs": [
        {
          "internalType": "bool",
          "name": "",
          "type": "bool"
        }
      ],
      "stateMutability": "view",
      "type": "function"
    }
  ],
  "bytecode": "0x6101806040523480156200001257600080fd5b506040516200a20b3803806200a20b833981810160405281019062000038919062000cf5565b600482826040518060400160405280600a81526020017f4d79476f7665726e6f72000000000000000000000000000000000000000000008152508062000083620001a860201b60201c565b62000099600083620001e560201b90919060201c565b60e08181525050620000b6600182620001e560201b90919060201c565b610100818152505081805190602001206101208181525050808051906020012061014081815250504660a08181525050620000f66200023d60201b60201c565b608081815250503073ffffffffffffffffffffffffffffffffffffffff1660c08173ffffffffffffffffffffffffffffffffffffffff16815250505050806002908162000144919062000fb6565b505062000157816200029b60201b60201c565b508073ffffffffffffffffffffffffffffffffffffffff166101608173ffffffffffffffffffffffffffffffffffffffff1681525050506200019f816200033c60201b60201c565b505050620016bd565b60606040518060400160405280600181526020017f3100000000000000000000000000000000000000000000000000000000000000815250905090565b60006020835110156200020b5762000203836200054a60201b60201c565b905062000237565b826200021d83620005b760201b60201c565b60000190816200022e919062000fb6565b5060ff60001b90505b92915050565b60007f8b73c3c69bb8fe3d512ecc4cf759cc79239f7b179b0ffacaa9a75d522b39400f6101205161014051463060405160200162000280959493929190620010da565b60405160208183030381529060405280519060200120905090565b7f08f74ea46ef7894f65eabfb5e6e695de773a000b47c529ab559178069b226401600660009054906101000a900473ffffffffffffffffffffffffffffffffffffffff1682604051620002f092919062001137565b60405180910390a180600660006101000a81548173ffffffffffffffffffffffffffffffffffffffff021916908373ffffffffffffffffffffffffffffffffffffffff16021790555050565b6200034c620005c160201b60201c565b81111562000391576040517f08c379a0000000000000000000000000000000000000000000000000000000008152600401620003889062001211565b60405180910390fd5b6000620003a3620005ca60201b60201c565b905060008114158015620003bf57506000600a60000180549050145b15620004ba57600a6000016040518060400160405280600063ffffffff168152602001620003f3846200061b60201b60201c565b7bffffffffffffffffffffffffffffffffffffffffffffffffffffffff168152509080600181540180825580915050600190039060005260206000200160009091909190915060008201518160000160006101000a81548163ffffffff021916908363ffffffff16021790555060208201518160000160046101000a8154817bffffffffffffffffffffffffffffffffffffffffffffffffffffffff02191690837bffffffffffffffffffffffffffffffffffffffffffffffffffffffff16021790555050505b62000509620004e6620004d26200068960201b60201c565b65ffffffffffff166200071f60201b60201c565b620004f7846200061b60201b60201c565b600a6200077560201b9092919060201c565b50507f0553476bf02ef2726e8ce5ced78d63e26e602e4a2257b1f559418e24b463399781836040516200053e92919062001233565b60405180910390a15050565b600080829050601f815111156200059a57826040517f305a27a9000000000000000000000000000000000000000000000000000000008152600401620005919190620012de565b60405180910390fd5b805181620005a89062001334565b60001c1760001b915050919050565b6000819050919050565b60006064905090565b600080600a60000180549050146200061257620005ee600a6200079a60201b60201c565b7bffffffffffffffffffffffffffffffffffffffffffffffffffffffff1662000616565b6009545b905090565b60007bffffffffffffffffffffffffffffffffffffffffffffffffffffffff801682111562000681576040517f08c379a000000000000000000000000000000000000000000000000000000000815260040162000678906200141a565b60405180910390fd5b819050919050565b60006101605173ffffffffffffffffffffffffffffffffffffffff166391ddadf46040518163ffffffff1660e01b8152600401602060405180830381865afa925050508015620006f957506040513d601f19601f82011682018060405250810190620006f691906200147f565b60015b62000717576200070f436200081060201b60201c565b90506200071c565b809150505b90565b600063ffffffff80168211156200076d576040517f08c379a0000000000000000000000000000000000000000000000000000000008152600401620007649062001527565b60405180910390fd5b819050919050565b6000806200078e8560000185856200086860201b60201c565b91509150935093915050565b60008082600001805490509050600081146200080557620007d383600001600183620007c7919062001578565b62000c0960201b60201c565b60000160049054906101000a90047bffffffffffffffffffffffffffffffffffffffffffffffffffffffff1662000808565b60005b915050919050565b600065ffffffffffff801682111562000860576040517f08c379a0000000000000000000000000000000000000000000000000000000008152600401620008579062001629565b60405180910390fd5b819050919050565b600080600085805490509050600081111562000b19576000620008a08760018462000894919062001578565b62000c0960201b60201c565b6040518060400160405290816000820160009054906101000a900463ffffffff1663ffffffff1663ffffffff1681526020016000820160049054906101000a90047bffffffffffffffffffffffffffffffffffffffffffffffffffffffff167bffffffffffffffffffffffffffffffffffffffffffffffffffffffff167bffffffffffffffffffffffffffffffffffffffffffffffffffffffff168152505090508563ffffffff16816000015163ffffffff16111562000997576040517f08c379a00000000000000000000000000000000000000000000000000000000081526004016200098e906200169b565b60405180910390fd5b8563ffffffff16816000015163ffffffff160362000a275784620009d088600185620009c4919062001578565b62000c0960201b60201c565b60000160046101000a8154817bffffffffffffffffffffffffffffffffffffffffffffffffffffffff02191690837bffffffffffffffffffffffffffffffffffffffffffffffffffffffff16021790555062000b07565b8660405180604001604052808863ffffffff168152602001877bffffffffffffffffffffffffffffffffffffffffffffffffffffffff168152509080600181540180825580915050600190039060005260206000200160009091909190915060008201518160000160006101000a81548163ffffffff021916908363ffffffff16021790555060208201518160000160046101000a8154817bffffffffffffffffffffffffffffffffffffffffffffffffffffffff02191690837bffffffffffffffffffffffffffffffffffffffffffffffffffffffff16021790555050505b80602001518593509350505062000c01565b8560405180604001604052808763ffffffff168152602001867bffffffffffffffffffffffffffffffffffffffffffffffffffffffff168152509080600181540180825580915050600190039060005260206000200160009091909190915060008201518160000160006101000a81548163ffffffff021916908363ffffffff16021790555060208201518160000160046101000a8154817bffffffffffffffffffffffffffffffffffffffffffffffffffffffff02191690837bffffffffffffffffffffffffffffffffffffffffffffffffffffffff160217905550505060008492509250505b935093915050565b60008260005281602060002001905092915050565b600080fd5b600073ffffffffffffffffffffffffffffffffffffffff82169050919050565b600062000c508262000c23565b9050919050565b600062000c648262000c43565b9050919050565b62000c768162000c57565b811462000c8257600080fd5b50565b60008151905062000c968162000c6b565b92915050565b600062000ca98262000c23565b9050919050565b600062000cbd8262000c9c565b9050919050565b62000ccf8162000cb0565b811462000cdb57600080fd5b50565b60008151905062000cef8162000cc4565b92915050565b6000806040838503121562000d0f5762000d0e62000c1e565b5b600062000d1f8582860162000c85565b925050602062000d328582860162000cde565b9150509250929050565b600081519050919050565b7f4e487b7100000000000000000000000000000000000000000000000000000000600052604160045260246000fd5b7f4e487b7100000000000000000000000000000000000000000000000000000000600052602260045260246000fd5b6000600282049050600182168062000dbe57607f821691505b60208210810362000dd45762000dd362000d76565b5b50919050565b60008190508160005260206000209050919050565b60006020601f8301049050919050565b600082821b905092915050565b60006008830262000e3e7fffffffffffffffffffffffffffffffffffffffffffffffffffffffffffffffff8262000dff565b62000e4a868362000dff565b95508019841693508086168417925050509392505050565b6000819050919050565b6000819050919050565b600062000e9762000e9162000e8b8462000e62565b62000e6c565b62000e62565b9050919050565b6000819050919050565b62000eb38362000e76565b62000ecb62000ec28262000e9e565b84845462000e0c565b825550505050565b600090565b62000ee262000ed3565b62000eef81848462000ea8565b505050565b5b8181101562000f175762000f0b60008262000ed8565b60018101905062000ef5565b5050565b601f82111562000f665762000f308162000dda565b62000f3b8462000def565b8101602085101562000f4b578190505b62000f6362000f5a8562000def565b83018262000ef4565b50505b505050565b600082821c905092915050565b600062000f8b6000198460080262000f6b565b1980831691505092915050565b600062000fa6838362000f78565b9150826002028217905092915050565b62000fc18262000d3c565b67ffffffffffffffff81111562000fdd5762000fdc62000d47565b5b62000fe9825462000da5565b62000ff682828562000f1b565b600060209050601f8311600181146200102e576000841562001019578287015190505b62001025858262000f98565b86555062001095565b601f1984166200103e8662000dda565b60005b82811015620010685784890151825560018201915060208501945060208101905062001041565b8683101562001088578489015162001084601f89168262000f78565b8355505b6001600288020188555050505b505050505050565b6000819050919050565b620010b2816200109d565b82525050565b620010c38162000e62565b82525050565b620010d48162000c43565b82525050565b600060a082019050620010f16000830188620010a7565b620011006020830187620010a7565b6200110f6040830186620010a7565b6200111e6060830185620010b8565b6200112d6080830184620010c9565b9695505050505050565b60006040820190506200114e6000830185620010c9565b6200115d6020830184620010c9565b9392505050565b600082825260208201905092915050565b7f476f7665726e6f72566f74657351756f72756d4672616374696f6e3a2071756f60008201527f72756d4e756d657261746f72206f7665722071756f72756d44656e6f6d696e6160208201527f746f720000000000000000000000000000000000000000000000000000000000604082015250565b6000620011f960438362001164565b9150620012068262001175565b606082019050919050565b600060208201905081810360008301526200122c81620011ea565b9050919050565b60006040820190506200124a6000830185620010b8565b620012596020830184620010b8565b9392505050565b60005b838110156200128057808201518184015260208101905062001263565b60008484015250505050565b6000601f19601f8301169050919050565b6000620012aa8262000d3c565b620012b6818562001164565b9350620012c881856020860162001260565b620012d3816200128c565b840191505092915050565b60006020820190508181036000830152620012fa81846200129d565b905092915050565b600081519050919050565b6000819050602082019050919050565b60006200132b82516200109d565b80915050919050565b6000620013418262001302565b826200134d846200130d565b90506200135a816200131d565b925060208210156200139d57620013987fffffffffffffffffffffffffffffffffffffffffffffffffffffffffffffffff8360200360080262000dff565b831692505b5050919050565b7f53616665436173743a2076616c756520646f65736e27742066697420696e203260008201527f3234206269747300000000000000000000000000000000000000000000000000602082015250565b60006200140260278362001164565b91506200140f82620013a4565b604082019050919050565b600060208201905081810360008301526200143581620013f3565b9050919050565b600065ffffffffffff82169050919050565b62001459816200143c565b81146200146557600080fd5b50565b60008151905062001479816200144e565b92915050565b60006020828403121562001498576200149762000c1e565b5b6000620014a88482850162001468565b91505092915050565b7f53616665436173743a2076616c756520646f65736e27742066697420696e203360008201527f3220626974730000000000000000000000000000000000000000000000000000602082015250565b60006200150f60268362001164565b91506200151c82620014b1565b604082019050919050565b60006020820190508181036000830152620015428162001500565b9050919050565b7f4e487b7100000000000000000000000000000000000000000000000000000000600052601160045260246000fd5b6000620015858262000e62565b9150620015928362000e62565b9250828203905081811115620015ad57620015ac62001549565b5b92915050565b7f53616665436173743a2076616c756520646f65736e27742066697420696e203460008201527f3820626974730000000000000000000000000000000000000000000000000000602082015250565b60006200161160268362001164565b91506200161e82620015b3565b604082019050919050565b60006020820190508181036000830152620016448162001602565b9050919050565b7f436865636b706f696e743a2064656372656173696e67206b6579730000000000600082015250565b600062001683601b8362001164565b915062001690826200164b565b602082019050919050565b60006020820190508181036000830152620016b68162001674565b9050919050565b60805160a05160c05160e05161010051610120516101405161016051618acc6200173f6000396000818161194b01528181611def0152818161253e015281816134aa01526138e601526000614bf601526000614bd501526000611d3001526000611cfc01526000613b5801526000613bae01526000613bd70152618acc6000f3fe6080604052600436106102b25760003560e01c80637b3c71d311610175578063c28bc2fa116100dc578063deaaa7cc11610095578063f23a6e611161006f578063f23a6e6114610c3c578063f8ce560a14610c79578063fc0c546a14610cb6578063fe0d94c114610ce1576102f8565b8063deaaa7cc14610b97578063e23a9a5214610bc2578063eb9019d414610bff576102f8565b8063c28bc2fa14610a82578063c59057e414610a9e578063d33219b414610adb578063da95691a14610b06578063dd4e2ba514610b43578063ddf0b00914610b6e576102f8565b8063a7713a701161012e578063a7713a701461094c578063a890c91014610977578063ab58fb8e146109a0578063b58131b0146109dd578063bc197c8114610a08578063c01f9e3714610a45576102f8565b80637b3c71d31461080e5780637d5e81e21461084b57806384b0196e1461088857806391ddadf4146108b957806397c3d334146108e45780639a802a6d1461090f576102f8565b8063328dd98211610219578063452115d6116101d2578063452115d6146106c45780634bf5d7e91461070157806354fd4d501461072c57806356781388146107575780635f398a141461079457806360c4247f146107d1576102f8565b8063328dd982146105795780633932abb1146105b95780633bccf4fd146105e45780633e4f49e61461062157806340e58ee51461065e5780634385963214610687576102f8565b8063150b7a021161026b578063150b7a021461043c578063160cbed71461047957806324bc1a64146104b65780632656227d146104e15780632d63f693146105115780632fe3e2611461054e576102f8565b8063013cf08b146102fd57806301ffc9a71461034357806302a251a31461038057806303420181146103ab57806306f3f9e6146103e857806306fdde0314610411576102f8565b366102f8573073ffffffffffffffffffffffffffffffffffffffff166102d6610cfd565b73ffffffffffffffffffffffffffffffffffffffff16146102f657600080fd5b005b600080fd5b34801561030957600080fd5b50610324600480360381019061031f9190615789565b610d0c565b60405161033a9a99989796959493929190615821565b60405180910390f35b34801561034f57600080fd5b5061036a60048036038101906103659190615915565b610e01565b6040516103779190615942565b60405180910390f35b34801561038c57600080fd5b50610395610e13565b6040516103a2919061595d565b60405180910390f35b3480156103b757600080fd5b506103d260048036038101906103cd9190615b8d565b610e1d565b6040516103df919061595d565b60405180910390f35b3480156103f457600080fd5b5061040f600480360381019061040a9190615789565b610f02565b005b34801561041d57600080fd5b50610426610ff9565b6040516104339190615cea565b60405180910390f35b34801561044857600080fd5b50610463600480360381019061045e9190615d38565b61108b565b6040516104709190615dca565b60405180910390f35b34801561048557600080fd5b506104a0600480360381019061049b919061604c565b61109f565b6040516104ad919061595d565b60405180910390f35b3480156104c257600080fd5b506104cb611359565b6040516104d8919061595d565b60405180910390f35b6104fb60048036038101906104f6919061604c565b611384565b604051610508919061595d565b60405180910390f35b34801561051d57600080fd5b5061053860048036038101906105339190615789565b6114d2565b604051610545919061595d565b60405180910390f35b34801561055a57600080fd5b50610563611510565b6040516105709190616116565b60405180910390f35b34801561058557600080fd5b506105a0600480360381019061059b9190615789565b611534565b6040516105b094939291906164d0565b60405180910390f35b3480156105c557600080fd5b506105ce6117f1565b6040516105db919061595d565b60405180910390f35b3480156105f057600080fd5b5061060b60048036038101906106069190616531565b6117fa565b604051610618919061595d565b60405180910390f35b34801561062d57600080fd5b5061064860048036038101906106439190615789565b611884565b6040516106559190616623565b60405180910390f35b34801561066a57600080fd5b5061068560048036038101906106809190615789565b611896565b005b34801561069357600080fd5b506106ae60048036038101906106a9919061663e565b6118c1565b6040516106bb9190615942565b60405180910390f35b3480156106d057600080fd5b506106eb60048036038101906106e6919061604c565b61192f565b6040516106f8919061595d565b60405180910390f35b34801561070d57600080fd5b50610716611947565b6040516107239190615cea565b60405180910390f35b34801561073857600080fd5b50610741611a1f565b60405161074e9190615cea565b60405180910390f35b34801561076357600080fd5b5061077e6004803603810190610779919061667e565b611a5c565b60405161078b919061595d565b60405180910390f35b3480156107a057600080fd5b506107bb60048036038101906107b691906166be565b611a8d565b6040516107c8919061595d565b60405180910390f35b3480156107dd57600080fd5b506107f860048036038101906107f39190615789565b611af7565b604051610805919061595d565b60405180910390f35b34801561081a57600080fd5b5061083560048036038101906108309190616762565b611c69565b604051610842919061595d565b60405180910390f35b34801561085757600080fd5b50610872600480360381019061086d9190616877565b611cd1565b60405161087f919061595d565b60405180910390f35b34801561089457600080fd5b5061089d611ce9565b6040516108b09796959493929190616989565b60405180910390f35b3480156108c557600080fd5b506108ce611deb565b6040516108db9190616a2e565b60405180910390f35b3480156108f057600080fd5b506108f9611e91565b604051610906919061595d565b60405180910390f35b34801561091b57600080fd5b5061093660048036038101906109319190616a49565b611e9a565b604051610943919061595d565b60405180910390f35b34801561095857600080fd5b50610961611eb0565b60405161096e919061595d565b60405180910390f35b34801561098357600080fd5b5061099e60048036038101906109999190616b08565b611ef7565b005b3480156109ac57600080fd5b506109c760048036038101906109c29190615789565b611fee565b6040516109d4919061595d565b60405180910390f35b3480156109e957600080fd5b506109f26120bb565b6040516109ff919061595d565b60405180910390f35b348015610a1457600080fd5b50610a2f6004803603810190610a2a9190616b35565b6120cc565b604051610a3c9190615dca565b60405180910390f35b348015610a5157600080fd5b50610a6c6004803603810190610a679190615789565b6120e1565b604051610a79919061595d565b60405180910390f35b610a9c6004803603810190610a979190616c5a565b61211f565b005b348015610aaa57600080fd5b50610ac56004803603810190610ac0919061604c565b6122a8565b604051610ad2919061595d565b60405180910390f35b348015610ae757600080fd5b50610af06122e4565b604051610afd9190616cce565b60405180910390f35b348015610b1257600080fd5b50610b2d6004803603810190610b289190616dca565b61230e565b604051610b3a919061595d565b60405180910390f35b348015610b4f57600080fd5b50610b58612389565b604051610b659190615cea565b60405180910390f35b348015610b7a57600080fd5b50610b956004803603810190610b909190615789565b6123c6565b005b348015610ba357600080fd5b50610bac6123f1565b604051610bb99190616116565b60405180910390f35b348015610bce57600080fd5b50610be96004803603810190610be4919061663e565b612415565b604051610bf69190616f58565b60405180910390f35b348015610c0b57600080fd5b50610c266004803603810190610c219190616f73565b6124f9565b604051610c33919061595d565b60405180910390f35b348015610c4857600080fd5b50610c636004803603810190610c5e9190616fb3565b612515565b604051610c709190615dca565b60405180910390f35b348015610c8557600080fd5b50610ca06004803603810190610c9b9190615789565b61252a565b604051610cad919061595d565b60405180910390f35b348015610cc257600080fd5b50610ccb61253c565b604051610cd891906170a9565b60405180910390f35b610cfb6004803603810190610cf69190615789565b612560565b005b6000610d0761258b565b905090565b6000806000806000806000806000808a9950610d278b611fee565b9750610d328b6114d2565b9650610d3d8b6120e1565b95506000600860008d815260200190815260200160002090508060000160009054906101000a900473ffffffffffffffffffffffffffffffffffffffff1699508060050154955080600601549450806007015493506000610d9d8d611884565b905060026007811115610db357610db26165ac565b5b816007811115610dc657610dc56165ac565b5b149350600780811115610ddc57610ddb6165ac565b5b816007811115610def57610dee6165ac565b5b14925050509193959799509193959799565b6000610e0c826125b5565b9050919050565b600061b2fa905090565b600080610ea0610e987fb3b3f3b703cd84ce352197dcff232b1b5d3cfb2025ce47cf04742d0651f1af888c8c8c8c604051610e599291906170f4565b60405180910390208b80519060200120604051602001610e7d95949392919061711c565b6040516020818303038152906040528051906020012061262f565b868686612649565b9050610ef38a828b8b8b8080601f016020809104026020016040519081016040528093929190818152602001838380828437600081840152601f19601f820116905080830192505050505050508a612674565b91505098975050505050505050565b610f0a610cfd565b73ffffffffffffffffffffffffffffffffffffffff16610f28612800565b73ffffffffffffffffffffffffffffffffffffffff1614610f7e576040517f08c379a0000000000000000000000000000000000000000000000000000000008152600401610f75906171bb565b60405180910390fd5b3073ffffffffffffffffffffffffffffffffffffffff16610f9d610cfd565b73ffffffffffffffffffffffffffffffffffffffff1614610fed576000610fc2612808565b604051610fd09291906170f4565b604051809103902090505b80610fe66004612815565b03610fdb57505b610ff6816128f1565b50565b6060600280546110089061720a565b80601f01602080910402602001604051908101604052809291908181526020018280546110349061720a565b80156110815780601f1061105657610100808354040283529160200191611081565b820191906000526020600020905b81548152906001019060200180831161106457829003601f168201915b5050505050905090565b600063150b7a0260e01b9050949350505050565b6000806110ae868686866122a8565b9050600460078111156110c4576110c36165ac565b5b6110cd82611884565b60078111156110df576110de6165ac565b5b1461111f576040517f08c379a0000000000000000000000000000000000000000000000000000000008152600401611116906172ad565b60405180910390fd5b6000600660009054906101000a900473ffffffffffffffffffffffffffffffffffffffff1673ffffffffffffffffffffffffffffffffffffffff1663f27a0c926040518163ffffffff1660e01b8152600401602060405180830381865afa15801561118e573d6000803e3d6000fd5b505050506040513d601f19601f820116820180604052508101906111b291906172e2565b9050600660009054906101000a900473ffffffffffffffffffffffffffffffffffffffff1673ffffffffffffffffffffffffffffffffffffffff1663b1c5f4278888886000896040518663ffffffff1660e01b8152600401611218959493929190617357565b602060405180830381865afa158015611235573d6000803e3d6000fd5b505050506040513d601f19601f8201168201806040525081019061125991906173d4565b6007600084815260200190815260200160002081905550600660009054906101000a900473ffffffffffffffffffffffffffffffffffffffff1673ffffffffffffffffffffffffffffffffffffffff16638f2a0bb0888888600089876040518763ffffffff1660e01b81526004016112d696959493929190617401565b600060405180830381600087803b1580156112f057600080fd5b505af1158015611304573d6000803e3d6000fd5b505050507f9a2e42fd6722813d69113e7d0079d3d940171428df7373df9c7f7617cfda289282824261133691906174a6565b6040516113449291906174da565b60405180910390a18192505050949350505050565b600061137f6001611368611deb565b6113729190617503565b65ffffffffffff1661252a565b905090565b600080611393868686866122a8565b905060006113a082611884565b9050600460078111156113b6576113b56165ac565b5b8160078111156113c9576113c86165ac565b5b14806113f95750600560078111156113e4576113e36165ac565b5b8160078111156113f7576113f66165ac565b5b145b611438576040517f08c379a000000000000000000000000000000000000000000000000000000000815260040161142f906172ad565b60405180910390fd5b60016003600084815260200190815260200160002060020160006101000a81548160ff0219169083151502179055507f712ae1383f79ac853f8d882153778e0260ef8f03b504e2866e0593e04d2b291f82604051611496919061595d565b60405180910390a16114ab8288888888612ac6565b6114b88288888888612ba9565b6114c58288888888612bbd565b8192505050949350505050565b60006003600083815260200190815260200160002060000160009054906101000a900467ffffffffffffffff1667ffffffffffffffff169050919050565b7fb3b3f3b703cd84ce352197dcff232b1b5d3cfb2025ce47cf04742d0651f1af8881565b606080606080600060086000878152602001908152602001600020905080600101816002018260030183600401838054806020026020016040519081016040528092919081815260200182805480156115e257602002820191906000526020600020905b8160009054906101000a900473ffffffffffffffffffffffffffffffffffffffff1673ffffffffffffffffffffffffffffffffffffffff1681526020019060010190808311611598575b505050505093508280548060200260200160405190810160405280929190818152602001828054801561163457602002820191906000526020600020905b815481526020019060010190808311611620575b5050505050925081805480602002602001604051908101604052809291908181526020016000905b8282101561170857838290600052602060002001805461167b9061720a565b80601f01602080910402602001604051908101604052809291908181526020018280546116a79061720a565b80156116f45780601f106116c9576101008083540402835291602001916116f4565b820191906000526020600020905b8154815290600101906020018083116116d757829003601f168201915b50505050508152602001906001019061165c565b50505050915080805480602002602001604051908101604052809291908181526020016000905b828210156117db57838290600052602060002001805461174e9061720a565b80601f016020809104026020016040519081016040528092919081815260200182805461177a9061720a565b80156117c75780601f1061179c576101008083540402835291602001916117c7565b820191906000526020600020905b8154815290600101906020018083116117aa57829003601f168201915b50505050508152602001906001019061172f565b5050505090509450945094509450509193509193565b60006001905090565b60008061185b6118537f150214d74d59b7d1e90c73fc22ef3d991dd0a76b046543d4d80ab92d2a50328f89896040516020016118389392919061753d565b6040516020818303038152906040528051906020012061262f565b868686612649565b905061187887828860405180602001604052806000815250612c18565b91505095945050505050565b600061188f82612c38565b9050919050565b6000806000806118a585612e0b565b93509350935093506118b98484848461192f565b505050505050565b60006008600084815260200190815260200160002060080160008373ffffffffffffffffffffffffffffffffffffffff1673ffffffffffffffffffffffffffffffffffffffff16815260200190815260200160002060000160009054906101000a900460ff16905092915050565b600061193d858585856130cf565b9050949350505050565b60607f000000000000000000000000000000000000000000000000000000000000000073ffffffffffffffffffffffffffffffffffffffff16634bf5d7e96040518163ffffffff1660e01b8152600401600060405180830381865afa9250505080156119d657506040513d6000823e3d601f19601f820116820180604052508101906119d391906175e4565b60015b611a17576040518060400160405280601d81526020017f6d6f64653d626c6f636b6e756d6265722666726f6d3d64656661756c740000008152509050611a1c565b809150505b90565b60606040518060400160405280600181526020017f3100000000000000000000000000000000000000000000000000000000000000815250905090565b600080611a67612800565b9050611a8484828560405180602001604052806000815250612c18565b91505092915050565b600080611a98612800565b9050611aeb87828888888080601f016020809104026020016040519081016040528093929190818152602001838380828437600081840152601f19601f8201169050808301925050505050505087612674565b91505095945050505050565b600080600a60000180549050905060008103611b1857600954915050611c64565b6000600a600001600183611b2c919061762d565b81548110611b3d57611b3c617661565b5b906000526020600020016040518060400160405290816000820160009054906101000a900463ffffffff1663ffffffff1663ffffffff1681526020016000820160049054906101000a90047bffffffffffffffffffffffffffffffffffffffffffffffffffffffff167bffffffffffffffffffffffffffffffffffffffffffffffffffffffff167bffffffffffffffffffffffffffffffffffffffffffffffffffffffff1681525050905083816000015163ffffffff1611611c255780602001517bffffffffffffffffffffffffffffffffffffffffffffffffffffffff1692505050611c64565b611c41611c31856131dd565b600a61323090919063ffffffff16565b7bffffffffffffffffffffffffffffffffffffffffffffffffffffffff16925050505b919050565b600080611c74612800565b9050611cc686828787878080601f016020809104026020016040519081016040528093929190818152602001838380828437600081840152601f19601f82011690508083019250505050505050612c18565b915050949350505050565b6000611cdf85858585613326565b9050949350505050565b600060608060008060006060611d2960007f00000000000000000000000000000000000000000000000000000000000000006133a190919063ffffffff16565b611d5d60017f00000000000000000000000000000000000000000000000000000000000000006133a190919063ffffffff16565b46306000801b600067ffffffffffffffff811115611d7e57611d7d615a2c565b5b604051908082528060200260200182016040528015611dac5781602001602082028036833780820191505090505b507f0f00000000000000000000000000000000000000000000000000000000000000959493929190965096509650965096509650965090919293949596565b60007f000000000000000000000000000000000000000000000000000000000000000073ffffffffffffffffffffffffffffffffffffffff166391ddadf46040518163ffffffff1660e01b8152600401602060405180830381865afa925050508015611e7557506040513d601f19601f82011682018060405250810190611e7291906176bc565b60015b611e8957611e8243613451565b9050611e8e565b809150505b90565b60006064905090565b6000611ea78484846134a6565b90509392505050565b600080600a6000018054905014611eee57611ecb600a61354d565b7bffffffffffffffffffffffffffffffffffffffffffffffffffffffff16611ef2565b6009545b905090565b611eff610cfd565b73ffffffffffffffffffffffffffffffffffffffff16611f1d612800565b73ffffffffffffffffffffffffffffffffffffffff1614611f73576040517f08c379a0000000000000000000000000000000000000000000000000000000008152600401611f6a906171bb565b60405180910390fd5b3073ffffffffffffffffffffffffffffffffffffffff16611f92610cfd565b73ffffffffffffffffffffffffffffffffffffffff1614611fe2576000611fb7612808565b604051611fc59291906170f4565b604051809103902090505b80611fdb6004612815565b03611fd057505b611feb816135b7565b50565b600080600660009054906101000a900473ffffffffffffffffffffffffffffffffffffffff1673ffffffffffffffffffffffffffffffffffffffff1663d45c443560076000868152602001908152602001600020546040518263ffffffff1660e01b815260040161205f9190616116565b602060405180830381865afa15801561207c573d6000803e3d6000fd5b505050506040513d601f19601f820116820180604052508101906120a091906172e2565b9050600181146120b057806120b3565b60005b915050919050565b6000683635c9adc5dea00000905090565b600063bc197c8160e01b905095945050505050565b60006003600083815260200190815260200160002060010160009054906101000a900467ffffffffffffffff1667ffffffffffffffff169050919050565b612127610cfd565b73ffffffffffffffffffffffffffffffffffffffff16612145612800565b73ffffffffffffffffffffffffffffffffffffffff161461219b576040517f08c379a0000000000000000000000000000000000000000000000000000000008152600401612192906171bb565b60405180910390fd5b3073ffffffffffffffffffffffffffffffffffffffff166121ba610cfd565b73ffffffffffffffffffffffffffffffffffffffff161461220a5760006121df612808565b6040516121ed9291906170f4565b604051809103902090505b806122036004612815565b036121f857505b6000808573ffffffffffffffffffffffffffffffffffffffff168585856040516122359291906170f4565b60006040518083038185875af1925050503d8060008114612272576040519150601f19603f3d011682016040523d82523d6000602084013e612277565b606091505b509150915061229f8282604051806060016040528060288152602001618a6f60289139613656565b50505050505050565b6000848484846040516020016122c194939291906176e9565b6040516020818303038152906040528051906020012060001c9050949350505050565b6000600660009054906101000a900473ffffffffffffffffffffffffffffffffffffffff16905090565b60008251845114612354576040517f08c379a000000000000000000000000000000000000000000000000000000000815260040161234b906177b5565b60405180910390fd5b61236961235f612800565b8787878787613678565b61237e8686612378878761377e565b85611cd1565b905095945050505050565b60606040518060400160405280601a81526020017f737570706f72743d627261766f2671756f72756d3d627261766f000000000000815250905090565b6000806000806123d585612e0b565b93509350935093506123e98484848461109f565b505050505050565b7f150214d74d59b7d1e90c73fc22ef3d991dd0a76b046543d4d80ab92d2a50328f81565b61241d61549d565b6008600084815260200190815260200160002060080160008373ffffffffffffffffffffffffffffffffffffffff1673ffffffffffffffffffffffffffffffffffffffff1681526020019081526020016000206040518060600160405290816000820160009054906101000a900460ff161515151581526020016000820160019054906101000a900460ff1660ff1660ff1681526020016000820160029054906101000a90046bffffffffffffffffffffffff166bffffffffffffffffffffffff166bffffffffffffffffffffffff1681525050905092915050565b600061250d83836125086138ba565b6134a6565b905092915050565b600063f23a6e6160e01b905095945050505050565b6000612535826138d1565b9050919050565b7f000000000000000000000000000000000000000000000000000000000000000081565b60008060008061256f85612e0b565b935093509350935061258384848484611384565b505050505050565b6000600660009054906101000a900473ffffffffffffffffffffffffffffffffffffffff16905090565b60007f6e665ced000000000000000000000000000000000000000000000000000000007bffffffffffffffffffffffffffffffffffffffffffffffffffffffff1916827bffffffffffffffffffffffffffffffffffffffffffffffffffffffff19161480612628575061262782613999565b5b9050919050565b600061264261263c613b54565b83613c0b565b9050919050565b600080600061265a87878787613c4c565b9150915061266781613d2e565b8192505050949350505050565b600080600360008881526020019081526020016000209050600160078111156126a05761269f6165ac565b5b6126a988611884565b60078111156126bb576126ba6165ac565b5b146126fb576040517f08c379a00000000000000000000000000000000000000000000000000000000081526004016126f290617847565b60405180910390fd5b600061272a878360000160009054906101000a900467ffffffffffffffff1667ffffffffffffffff16866134a6565b90506127398888888488613e94565b600084510361279b578673ffffffffffffffffffffffffffffffffffffffff167fb8e138887d0aa13bab447e82de9d5c1777041ecd21ca36ba824ff1e6c07ddda48988848960405161278e9493929190617867565b60405180910390a26127f2565b8673ffffffffffffffffffffffffffffffffffffffff167fe2babfbac5889a709b63bb7f598b324e08bc5a4fb9ec647fb3cbc9ec07eb871289888489896040516127e99594939291906178fd565b60405180910390a25b809250505095945050505050565b600033905090565b3660008036915091509091565b6000612820826140bc565b15612857576040517f3db2a12a00000000000000000000000000000000000000000000000000000000815260040160405180910390fd5b60008260000160009054906101000a9004600f0b905082600101600082600f0b600f0b815260200190815260200160002054915082600101600082600f0b600f0b815260200190815260200160002060009055600181018360000160006101000a8154816fffffffffffffffffffffffffffffffff0219169083600f0b6fffffffffffffffffffffffffffffffff16021790555050919050565b6128f9611e91565b81111561293b576040517f08c379a0000000000000000000000000000000000000000000000000000000008152600401612932906179f6565b60405180910390fd5b6000612945611eb0565b90506000811415801561296057506000600a60000180549050145b15612a5257600a6000016040518060400160405280600063ffffffff16815260200161298b846140f1565b7bffffffffffffffffffffffffffffffffffffffffffffffffffffffff168152509080600181540180825580915050600190039060005260206000200160009091909190915060008201518160000160006101000a81548163ffffffff021916908363ffffffff16021790555060208201518160000160046101000a8154817bffffffffffffffffffffffffffffffffffffffffffffffffffffffff02191690837bffffffffffffffffffffffffffffffffffffffffffffffffffffffff16021790555050505b612a87612a6d612a60611deb565b65ffffffffffff166131dd565b612a76846140f1565b600a61415c9092919063ffffffff16565b50507f0553476bf02ef2726e8ce5ced78d63e26e602e4a2257b1f559418e24b46339978183604051612aba9291906174da565b60405180910390a15050565b3073ffffffffffffffffffffffffffffffffffffffff16612ae5610cfd565b73ffffffffffffffffffffffffffffffffffffffff1614612ba25760005b8451811015612ba0573073ffffffffffffffffffffffffffffffffffffffff16858281518110612b3657612b35617661565b5b602002602001015173ffffffffffffffffffffffffffffffffffffffff1603612b8f57612b8e838281518110612b6f57612b6e617661565b5b602002602001015180519060200120600461417990919063ffffffff16565b5b80612b9990617a16565b9050612b03565b505b5050505050565b612bb685858585856141f5565b5050505050565b3073ffffffffffffffffffffffffffffffffffffffff16612bdc610cfd565b73ffffffffffffffffffffffffffffffffffffffff1614612c1157612c0160046140bc565b612c1057612c0f6004614293565b5b5b5050505050565b6000612c2e85858585612c296138ba565b612674565b9050949350505050565b600080612c4483614314565b905060046007811115612c5a57612c596165ac565b5b816007811115612c6d57612c6c6165ac565b5b14612c7b5780915050612e06565b6000600760008581526020019081526020016000205490506000801b8103612ca7578192505050612e06565b600660009054906101000a900473ffffffffffffffffffffffffffffffffffffffff1673ffffffffffffffffffffffffffffffffffffffff16632ab0f529826040518263ffffffff1660e01b8152600401612d029190616116565b602060405180830381865afa158015612d1f573d6000803e3d6000fd5b505050506040513d601f19601f82011682018060405250810190612d439190617a8a565b15612d5357600792505050612e06565b600660009054906101000a900473ffffffffffffffffffffffffffffffffffffffff1673ffffffffffffffffffffffffffffffffffffffff1663584b153e826040518263ffffffff1660e01b8152600401612dae9190616116565b602060405180830381865afa158015612dcb573d6000803e3d6000fd5b505050506040513d601f19601f82011682018060405250810190612def9190617a8a565b15612dff57600592505050612e06565b6002925050505b919050565b60608060606000806008600087815260200190815260200160002090508060010181600201612fe083600301805480602002602001604051908101604052809291908181526020016000905b82821015612f03578382906000526020600020018054612e769061720a565b80601f0160208091040260200160405190810160405280929190818152602001828054612ea29061720a565b8015612eef5780601f10612ec457610100808354040283529160200191612eef565b820191906000526020600020905b815481529060010190602001808311612ed257829003601f168201915b505050505081526020019060010190612e57565b5050505084600401805480602002602001604051908101604052809291908181526020016000905b82821015612fd7578382906000526020600020018054612f4a9061720a565b80601f0160208091040260200160405190810160405280929190818152602001828054612f769061720a565b8015612fc35780601f10612f9857610100808354040283529160200191612fc3565b820191906000526020600020905b815481529060010190602001808311612fa657829003601f168201915b505050505081526020019060010190612f2b565b5050505061377e565b83600901548380548060200260200160405190810160405280929190818152602001828054801561306657602002820191906000526020600020905b8160009054906101000a900473ffffffffffffffffffffffffffffffffffffffff1673ffffffffffffffffffffffffffffffffffffffff168152602001906001019080831161301c575b50505050509350828054806020026020016040519081016040528092919081815260200182805480156130b857602002820191906000526020600020905b8154815260200190600101908083116130a4575b505050505092509450945094509450509193509193565b6000806130de868686866122a8565b905060006008600083815260200190815260200160002060000160009054906101000a900473ffffffffffffffffffffffffffffffffffffffff1690508073ffffffffffffffffffffffffffffffffffffffff1661313a612800565b73ffffffffffffffffffffffffffffffffffffffff161480613186575061315f6120bb565b61318482600161316d611deb565b6131779190617503565b65ffffffffffff166124f9565b105b6131c5576040517f08c379a00000000000000000000000000000000000000000000000000000000081526004016131bc90617b29565b60405180910390fd5b6131d187878787614440565b92505050949350505050565b600063ffffffff8016821115613228576040517f08c379a000000000000000000000000000000000000000000000000000000000815260040161321f90617bbb565b60405180910390fd5b819050919050565b6000808360000180549050905060008082905060058311156132b257600061325784614458565b84613262919061762d565b90506132718760000182614551565b60000160009054906101000a900463ffffffff1663ffffffff168663ffffffff1610156132a0578091506132b0565b6001816132ad91906174a6565b92505b505b60006132c387600001878585614566565b905060008114613317576132e6876000016001836132e1919061762d565b614551565b60000160049054906101000a90047bffffffffffffffffffffffffffffffffffffffffffffffffffffffff1661331a565b60005b94505050505092915050565b600061338b613333612800565b8686865167ffffffffffffffff8111156133505761334f615a2c565b5b60405190808252806020026020018201604052801561338357816020015b606081526020019060019003908161336e5790505b508787613678565b613397858585856145d9565b9050949350505050565b606060ff60001b83146133be576133b783614a82565b905061344b565b8180546133ca9061720a565b80601f01602080910402602001604051908101604052809291908181526020018280546133f69061720a565b80156134435780601f1061341857610100808354040283529160200191613443565b820191906000526020600020905b81548152906001019060200180831161342657829003601f168201915b505050505090505b92915050565b600065ffffffffffff801682111561349e576040517f08c379a000000000000000000000000000000000000000000000000000000000815260040161349590617c4d565b60405180910390fd5b819050919050565b60007f000000000000000000000000000000000000000000000000000000000000000073ffffffffffffffffffffffffffffffffffffffff16633a46b1a885856040518363ffffffff1660e01b8152600401613503929190617c6d565b602060405180830381865afa158015613520573d6000803e3d6000fd5b505050506040513d601f19601f8201168201806040525081019061354491906172e2565b90509392505050565b60008082600001805490509050600081146135ac5761357b83600001600183613576919061762d565b614551565b60000160049054906101000a90047bffffffffffffffffffffffffffffffffffffffffffffffffffffffff166135af565b60005b915050919050565b7f08f74ea46ef7894f65eabfb5e6e695de773a000b47c529ab559178069b226401600660009054906101000a900473ffffffffffffffffffffffffffffffffffffffff168260405161360a929190617c96565b60405180910390a180600660006101000a81548173ffffffffffffffffffffffffffffffffffffffff021916908373ffffffffffffffffffffffffffffffffffffffff16021790555050565b6060831561366657829050613671565b6136708383614af6565b5b9392505050565b600081805190602001209050600061369b8787613695888861377e565b856122a8565b905060006008600083815260200190815260200160002090506000801b81600901540361377357888160000160006101000a81548173ffffffffffffffffffffffffffffffffffffffff021916908373ffffffffffffffffffffffffffffffffffffffff1602179055508781600101908051906020019061371d9291906154d1565b508681600201908051906020019061373692919061555b565b508581600301908051906020019061374f9291906155a8565b5084816004019080519060200190613768929190615601565b508281600901819055505b505050505050505050565b60606000825167ffffffffffffffff81111561379d5761379c615a2c565b5b6040519080825280602002602001820160405280156137d057816020015b60608152602001906001900390816137bb5790505b50905060005b81518110156138af5760008582815181106137f4576137f3617661565b5b602002602001015151146138645784818151811061381557613814617661565b5b60200260200101518051906020012084828151811061383757613836617661565b5b6020026020010151604051602001613850929190617d11565b604051602081830303815290604052613880565b83818151811061387757613876617661565b5b60200260200101515b82828151811061389357613892617661565b5b6020026020010181905250806138a890617a16565b90506137d6565b508091505092915050565b606060405180602001604052806000815250905090565b60006138db611e91565b6138e483611af7565b7f000000000000000000000000000000000000000000000000000000000000000073ffffffffffffffffffffffffffffffffffffffff16638e539e8c856040518263ffffffff1660e01b815260040161393d919061595d565b602060405180830381865afa15801561395a573d6000803e3d6000fd5b505050506040513d601f19601f8201168201806040525081019061397e91906172e2565b6139889190617d39565b6139929190617daa565b9050919050565b6000639a802a6d60e01b630342018160e01b635f398a1460e01b63452115d660e01b7fda287a1d000000000000000000000000000000000000000000000000000000007fe6d416a40000000000000000000000000000000000000000000000000000000018181818187bffffffffffffffffffffffffffffffffffffffffffffffffffffffff1916827bffffffffffffffffffffffffffffffffffffffffffffffffffffffff19161480613ad5575063452115d660e01b7fda287a1d000000000000000000000000000000000000000000000000000000007fe6d416a40000000000000000000000000000000000000000000000000000000018187bffffffffffffffffffffffffffffffffffffffffffffffffffffffff1916827bffffffffffffffffffffffffffffffffffffffffffffffffffffffff1916145b80613b3d57507f4e2312e0000000000000000000000000000000000000000000000000000000007bffffffffffffffffffffffffffffffffffffffffffffffffffffffff1916827bffffffffffffffffffffffffffffffffffffffffffffffffffffffff1916145b80613b4d5750613b4c82614b46565b5b9050919050565b60007f000000000000000000000000000000000000000000000000000000000000000073ffffffffffffffffffffffffffffffffffffffff163073ffffffffffffffffffffffffffffffffffffffff16148015613bd057507f000000000000000000000000000000000000000000000000000000000000000046145b15613bfd577f00000000000000000000000000000000000000000000000000000000000000009050613c08565b613c05614bb0565b90505b90565b60006040517f190100000000000000000000000000000000000000000000000000000000000081528360028201528260228201526042812091505092915050565b6000807f7fffffffffffffffffffffffffffffff5d576e7357a4501ddfe92f46681b20a08360001c1115613c87576000600391509150613d25565b600060018787878760405160008152602001604052604051613cac9493929190617ddb565b6020604051602081039080840390855afa158015613cce573d6000803e3d6000fd5b505050602060405103519050600073ffffffffffffffffffffffffffffffffffffffff168173ffffffffffffffffffffffffffffffffffffffff1603613d1c57600060019250925050613d25565b80600092509250505b94509492505050565b60006004811115613d4257613d416165ac565b5b816004811115613d5557613d546165ac565b5b0315613e915760016004811115613d6f57613d6e6165ac565b5b816004811115613d8257613d816165ac565b5b03613dc2576040517f08c379a0000000000000000000000000000000000000000000000000000000008152600401613db990617e6c565b60405180910390fd5b60026004811115613dd657613dd56165ac565b5b816004811115613de957613de86165ac565b5b03613e29576040517f08c379a0000000000000000000000000000000000000000000000000000000008152600401613e2090617ed8565b60405180910390fd5b60036004811115613e3d57613e3c6165ac565b5b816004811115613e5057613e4f6165ac565b5b03613e90576040517f08c379a0000000000000000000000000000000000000000000000000000000008152600401613e8790617f6a565b60405180910390fd5b5b50565b600060086000878152602001908152602001600020905060008160080160008773ffffffffffffffffffffffffffffffffffffffff1673ffffffffffffffffffffffffffffffffffffffff16815260200190815260200160002090508060000160009054906101000a900460ff1615613f42576040517f08c379a0000000000000000000000000000000000000000000000000000000008152600401613f3990617ffc565b60405180910390fd5b60018160000160006101000a81548160ff021916908315150217905550848160000160016101000a81548160ff021916908360ff160217905550613f8584614c46565b8160000160026101000a8154816bffffffffffffffffffffffff02191690836bffffffffffffffffffffffff16021790555060006002811115613fcb57613fca6165ac565b5b60ff168560ff1603613ff75783826006016000828254613feb91906174a6565b925050819055506140b3565b6001600281111561400b5761400a6165ac565b5b60ff168560ff1603614037578382600501600082825461402b91906174a6565b925050819055506140b2565b60028081111561404a576140496165ac565b5b60ff168560ff1603614076578382600701600082825461406a91906174a6565b925050819055506140b1565b6040517f08c379a00000000000000000000000000000000000000000000000000000000081526004016140a89061808e565b60405180910390fd5b5b5b50505050505050565b60008160000160009054906101000a9004600f0b600f0b8260000160109054906101000a9004600f0b600f0b13159050919050565b60007bffffffffffffffffffffffffffffffffffffffffffffffffffffffff8016821115614154576040517f08c379a000000000000000000000000000000000000000000000000000000000815260040161414b90618120565b60405180910390fd5b819050919050565b60008061416d856000018585614ca1565b91509150935093915050565b60008260000160109054906101000a9004600f0b90508183600101600083600f0b600f0b815260200190815260200160002081905550600181018360000160106101000a8154816fffffffffffffffffffffffffffffffff0219169083600f0b6fffffffffffffffffffffffffffffffff160217905550505050565b600660009054906101000a900473ffffffffffffffffffffffffffffffffffffffff1673ffffffffffffffffffffffffffffffffffffffff1663e38335e5348686866000876040518763ffffffff1660e01b815260040161425a959493929190617357565b6000604051808303818588803b15801561427357600080fd5b505af1158015614287573d6000803e3d6000fd5b50505050505050505050565b60008160000160006101000a8154816fffffffffffffffffffffffffffffffff0219169083600f0b6fffffffffffffffffffffffffffffffff16021790555060008160000160106101000a8154816fffffffffffffffffffffffffffffffff0219169083600f0b6fffffffffffffffffffffffffffffffff16021790555050565b6000806003600084815260200190815260200160002090508060020160009054906101000a900460ff161561434d57600791505061443b565b8060020160019054906101000a900460ff161561436e57600291505061443b565b6000614379846114d2565b9050600081036143be576040517f08c379a00000000000000000000000000000000000000000000000000000000081526004016143b59061818c565b60405180910390fd5b60006143c8611deb565b65ffffffffffff1690508082106143e5576000935050505061443b565b60006143f0866120e1565b905081811061440657600194505050505061443b565b61440f86615027565b8015614420575061441f8661505f565b5b1561443257600494505050505061443b565b60039450505050505b919050565b600061444e8585858561508a565b9050949350505050565b600080820361446a576000905061454c565b600060016144778461517c565b901c6001901b9050600181848161449157614490617d7b565b5b048201901c905060018184816144aa576144a9617d7b565b5b048201901c905060018184816144c3576144c2617d7b565b5b048201901c905060018184816144dc576144db617d7b565b5b048201901c905060018184816144f5576144f4617d7b565b5b048201901c9050600181848161450e5761450d617d7b565b5b048201901c9050600181848161452757614526617d7b565b5b048201901c90506145488182858161454257614541617d7b565b5b0461525d565b9150505b919050565b60008260005281602060002001905092915050565b60005b818310156145ce57600061457d8484615276565b90508463ffffffff166145908783614551565b60000160009054906101000a900463ffffffff1663ffffffff1611156145b8578092506145c8565b6001816145c591906174a6565b93505b50614569565b819050949350505050565b6000806145e4612800565b905060006145f0611deb565b65ffffffffffff1690506146026120bb565b61461883600184614613919061762d565b6124f9565b1015614659576040517f08c379a00000000000000000000000000000000000000000000000000000000081526004016146509061821e565b60405180910390fd5b600061466e88888888805190602001206122a8565b905086518851146146b4576040517f08c379a00000000000000000000000000000000000000000000000000000000081526004016146ab906182b0565b60405180910390fd5b85518851146146f8576040517f08c379a00000000000000000000000000000000000000000000000000000000081526004016146ef906182b0565b60405180910390fd5b600088511161473c576040517f08c379a00000000000000000000000000000000000000000000000000000000081526004016147339061831c565b60405180910390fd5b60006003600083815260200190815260200160002060000160009054906101000a900467ffffffffffffffff1667ffffffffffffffff16146147b3576040517f08c379a00000000000000000000000000000000000000000000000000000000081526004016147aa906183ae565b60405180910390fd5b60006147bd6117f1565b836147c891906174a6565b905060006147d4610e13565b826147df91906174a6565b90506040518060e001604052806147f58461529c565b67ffffffffffffffff1681526020018673ffffffffffffffffffffffffffffffffffffffff168152602001600060e01b7bffffffffffffffffffffffffffffffffffffffffffffffffffffffff191681526020016148528361529c565b67ffffffffffffffff168152602001600060401b67ffffffffffffffff19168152602001600015158152602001600015158152506003600085815260200190815260200160002060008201518160000160006101000a81548167ffffffffffffffff021916908367ffffffffffffffff16021790555060208201518160000160086101000a81548173ffffffffffffffffffffffffffffffffffffffff021916908373ffffffffffffffffffffffffffffffffffffffff160217905550604082015181600001601c6101000a81548163ffffffff021916908360e01c021790555060608201518160010160006101000a81548167ffffffffffffffff021916908367ffffffffffffffff16021790555060808201518160010160086101000a81548177ffffffffffffffffffffffffffffffffffffffffffffffff021916908360401c021790555060a08201518160020160006101000a81548160ff02191690831515021790555060c08201518160020160016101000a81548160ff0219169083151502179055509050507f7d84a6263ae0d98d3329bd7b46bb4e8d6f98cd35a7adb45c274c8b7fd5ebd5e083868c8c8e5167ffffffffffffffff811115614a1d57614a1c615a2c565b5b604051908082528060200260200182016040528015614a5057816020015b6060815260200190600190039081614a3b5790505b508d88888f604051614a6a999897969594939291906183ce565b60405180910390a18295505050505050949350505050565b60606000614a8f836152f3565b90506000602067ffffffffffffffff811115614aae57614aad615a2c565b5b6040519080825280601f01601f191660200182016040528015614ae05781602001600182028036833780820191505090505b5090508181528360208201528092505050919050565b600082511115614b095781518083602001fd5b806040517f08c379a0000000000000000000000000000000000000000000000000000000008152600401614b3d9190615cea565b60405180910390fd5b60007f01ffc9a7000000000000000000000000000000000000000000000000000000007bffffffffffffffffffffffffffffffffffffffffffffffffffffffff1916827bffffffffffffffffffffffffffffffffffffffffffffffffffffffff1916149050919050565b60007f8b73c3c69bb8fe3d512ecc4cf759cc79239f7b179b0ffacaa9a75d522b39400f7f00000000000000000000000000000000000000000000000000000000000000007f00000000000000000000000000000000000000000000000000000000000000004630604051602001614c2b95949392919061847e565b60405160208183030381529060405280519060200120905090565b60006bffffffffffffffffffffffff8016821115614c99576040517f08c379a0000000000000000000000000000000000000000000000000000000008152600401614c9090618543565b60405180910390fd5b819050919050565b6000806000858054905090506000811115614f37576000614cce87600184614cc9919061762d565b614551565b6040518060400160405290816000820160009054906101000a900463ffffffff1663ffffffff1663ffffffff1681526020016000820160049054906101000a90047bffffffffffffffffffffffffffffffffffffffffffffffffffffffff167bffffffffffffffffffffffffffffffffffffffffffffffffffffffff167bffffffffffffffffffffffffffffffffffffffffffffffffffffffff168152505090508563ffffffff16816000015163ffffffff161115614dc2576040517f08c379a0000000000000000000000000000000000000000000000000000000008152600401614db9906185af565b60405180910390fd5b8563ffffffff16816000015163ffffffff1603614e465784614df088600185614deb919061762d565b614551565b60000160046101000a8154817bffffffffffffffffffffffffffffffffffffffffffffffffffffffff02191690837bffffffffffffffffffffffffffffffffffffffffffffffffffffffff160217905550614f26565b8660405180604001604052808863ffffffff168152602001877bffffffffffffffffffffffffffffffffffffffffffffffffffffffff168152509080600181540180825580915050600190039060005260206000200160009091909190915060008201518160000160006101000a81548163ffffffff021916908363ffffffff16021790555060208201518160000160046101000a8154817bffffffffffffffffffffffffffffffffffffffffffffffffffffffff02191690837bffffffffffffffffffffffffffffffffffffffffffffffffffffffff16021790555050505b80602001518593509350505061501f565b8560405180604001604052808763ffffffff168152602001867bffffffffffffffffffffffffffffffffffffffffffffffffffffffff168152509080600181540180825580915050600190039060005260206000200160009091909190915060008201518160000160006101000a81548163ffffffff021916908363ffffffff16021790555060208201518160000160046101000a8154817bffffffffffffffffffffffffffffffffffffffffffffffffffffffff02191690837bffffffffffffffffffffffffffffffffffffffffffffffffffffffff160217905550505060008492509250505b935093915050565b6000806008600084815260200190815260200160002090508060050154615055615050856114d2565b61252a565b1115915050919050565b6000806008600084815260200190815260200160002090508060060154816005015411915050919050565b60008061509986868686615343565b90506000801b60076000838152602001908152602001600020541461517057600660009054906101000a900473ffffffffffffffffffffffffffffffffffffffff1673ffffffffffffffffffffffffffffffffffffffff1663c4d252f560076000848152602001908152602001600020546040518263ffffffff1660e01b81526004016151269190616116565b600060405180830381600087803b15801561514057600080fd5b505af1158015615154573d6000803e3d6000fd5b5050505060076000828152602001908152602001600020600090555b80915050949350505050565b600080600090506000608084901c111561519e57608083901c92506080810190505b6000604084901c11156151b957604083901c92506040810190505b6000602084901c11156151d457602083901c92506020810190505b6000601084901c11156151ef57601083901c92506010810190505b6000600884901c111561520a57600883901c92506008810190505b6000600484901c111561522557600483901c92506004810190505b6000600284901c111561524057600283901c92506002810190505b6000600184901c1115615254576001810190505b80915050919050565b600081831061526c578161526e565b825b905092915050565b600060028284186152879190617daa565b82841661529491906174a6565b905092915050565b600067ffffffffffffffff80168211156152eb576040517f08c379a00000000000000000000000000000000000000000000000000000000081526004016152e290618641565b60405180910390fd5b819050919050565b60008060ff8360001c169050601f81111561533a576040517fb3512b0c00000000000000000000000000000000000000000000000000000000815260040160405180910390fd5b80915050919050565b600080615352868686866122a8565b9050600061535f82611884565b905060026007811115615375576153746165ac565b5b816007811115615388576153876165ac565b5b141580156153bb5750600660078111156153a5576153a46165ac565b5b8160078111156153b8576153b76165ac565b5b14155b80156153eb57506007808111156153d5576153d46165ac565b5b8160078111156153e8576153e76165ac565b5b14155b61542a576040517f08c379a0000000000000000000000000000000000000000000000000000000008152600401615421906186ad565b60405180910390fd5b60016003600084815260200190815260200160002060020160016101000a81548160ff0219169083151502179055507f789cf55be980739dad1d0699b93b58e806b51c9d96619bfa8fe0a28abaa7b30c82604051615488919061595d565b60405180910390a18192505050949350505050565b6040518060600160405280600015158152602001600060ff16815260200160006bffffffffffffffffffffffff1681525090565b82805482825590600052602060002090810192821561554a579160200282015b828111156155495782518260006101000a81548173ffffffffffffffffffffffffffffffffffffffff021916908373ffffffffffffffffffffffffffffffffffffffff160217905550916020019190600101906154f1565b5b509050615557919061565a565b5090565b828054828255906000526020600020908101928215615597579160200282015b8281111561559657825182559160200191906001019061557b565b5b5090506155a4919061565a565b5090565b8280548282559060005260206000209081019282156155f0579160200282015b828111156155ef5782518290816155df919061886f565b50916020019190600101906155c8565b5b5090506155fd9190615677565b5090565b828054828255906000526020600020908101928215615649579160200282015b82811115615648578251829081615638919061899c565b5091602001919060010190615621565b5b509050615656919061569b565b5090565b5b8082111561567357600081600090555060010161565b565b5090565b5b80821115615697576000818161568e91906156bf565b50600101615678565b5090565b5b808211156156bb57600081816156b291906156ff565b5060010161569c565b5090565b5080546156cb9061720a565b6000825580601f106156dd57506156fc565b601f0160209004906000526020600020908101906156fb919061565a565b5b50565b50805461570b9061720a565b6000825580601f1061571d575061573c565b601f01602090049060005260206000209081019061573b919061565a565b5b50565b6000604051905090565b600080fd5b600080fd5b6000819050919050565b61576681615753565b811461577157600080fd5b50565b6000813590506157838161575d565b92915050565b60006020828403121561579f5761579e615749565b5b60006157ad84828501615774565b91505092915050565b6157bf81615753565b82525050565b600073ffffffffffffffffffffffffffffffffffffffff82169050919050565b60006157f0826157c5565b9050919050565b615800816157e5565b82525050565b60008115159050919050565b61581b81615806565b82525050565b600061014082019050615837600083018d6157b6565b615844602083018c6157f7565b615851604083018b6157b6565b61585e606083018a6157b6565b61586b60808301896157b6565b61587860a08301886157b6565b61588560c08301876157b6565b61589260e08301866157b6565b6158a0610100830185615812565b6158ae610120830184615812565b9b9a5050505050505050505050565b60007fffffffff0000000000000000000000000000000000000000000000000000000082169050919050565b6158f2816158bd565b81146158fd57600080fd5b50565b60008135905061590f816158e9565b92915050565b60006020828403121561592b5761592a615749565b5b600061593984828501615900565b91505092915050565b60006020820190506159576000830184615812565b92915050565b600060208201905061597260008301846157b6565b92915050565b600060ff82169050919050565b61598e81615978565b811461599957600080fd5b50565b6000813590506159ab81615985565b92915050565b600080fd5b600080fd5b600080fd5b60008083601f8401126159d6576159d56159b1565b5b8235905067ffffffffffffffff8111156159f3576159f26159b6565b5b602083019150836001820283011115615a0f57615a0e6159bb565b5b9250929050565b600080fd5b6000601f19601f8301169050919050565b7f4e487b7100000000000000000000000000000000000000000000000000000000600052604160045260246000fd5b615a6482615a1b565b810181811067ffffffffffffffff82111715615a8357615a82615a2c565b5b80604052505050565b6000615a9661573f565b9050615aa28282615a5b565b919050565b600067ffffffffffffffff821115615ac257615ac1615a2c565b5b615acb82615a1b565b9050602081019050919050565b82818337600083830152505050565b6000615afa615af584615aa7565b615a8c565b905082815260208101848484011115615b1657615b15615a16565b5b615b21848285615ad8565b509392505050565b600082601f830112615b3e57615b3d6159b1565b5b8135615b4e848260208601615ae7565b91505092915050565b6000819050919050565b615b6a81615b57565b8114615b7557600080fd5b50565b600081359050615b8781615b61565b92915050565b60008060008060008060008060e0898b031215615bad57615bac615749565b5b6000615bbb8b828c01615774565b9850506020615bcc8b828c0161599c565b975050604089013567ffffffffffffffff811115615bed57615bec61574e565b5b615bf98b828c016159c0565b9650965050606089013567ffffffffffffffff811115615c1c57615c1b61574e565b5b615c288b828c01615b29565b9450506080615c398b828c0161599c565b93505060a0615c4a8b828c01615b78565b92505060c0615c5b8b828c01615b78565b9150509295985092959890939650565b600081519050919050565b600082825260208201905092915050565b60005b83811015615ca5578082015181840152602081019050615c8a565b60008484015250505050565b6000615cbc82615c6b565b615cc68185615c76565b9350615cd6818560208601615c87565b615cdf81615a1b565b840191505092915050565b60006020820190508181036000830152615d048184615cb1565b905092915050565b615d15816157e5565b8114615d2057600080fd5b50565b600081359050615d3281615d0c565b92915050565b60008060008060808587031215615d5257615d51615749565b5b6000615d6087828801615d23565b9450506020615d7187828801615d23565b9350506040615d8287828801615774565b925050606085013567ffffffffffffffff811115615da357615da261574e565b5b615daf87828801615b29565b91505092959194509250565b615dc4816158bd565b82525050565b6000602082019050615ddf6000830184615dbb565b92915050565b600067ffffffffffffffff821115615e0057615dff615a2c565b5b602082029050602081019050919050565b6000615e24615e1f84615de5565b615a8c565b90508083825260208201905060208402830185811115615e4757615e466159bb565b5b835b81811015615e705780615e5c8882615d23565b845260208401935050602081019050615e49565b5050509392505050565b600082601f830112615e8f57615e8e6159b1565b5b8135615e9f848260208601615e11565b91505092915050565b600067ffffffffffffffff821115615ec357615ec2615a2c565b5b602082029050602081019050919050565b6000615ee7615ee284615ea8565b615a8c565b90508083825260208201905060208402830185811115615f0a57615f096159bb565b5b835b81811015615f335780615f1f8882615774565b845260208401935050602081019050615f0c565b5050509392505050565b600082601f830112615f5257615f516159b1565b5b8135615f62848260208601615ed4565b91505092915050565b600067ffffffffffffffff821115615f8657615f85615a2c565b5b602082029050602081019050919050565b6000615faa615fa584615f6b565b615a8c565b90508083825260208201905060208402830185811115615fcd57615fcc6159bb565b5b835b8181101561601457803567ffffffffffffffff811115615ff257615ff16159b1565b5b808601615fff8982615b29565b85526020850194505050602081019050615fcf565b5050509392505050565b600082601f830112616033576160326159b1565b5b8135616043848260208601615f97565b91505092915050565b6000806000806080858703121561606657616065615749565b5b600085013567ffffffffffffffff8111156160845761608361574e565b5b61609087828801615e7a565b945050602085013567ffffffffffffffff8111156160b1576160b061574e565b5b6160bd87828801615f3d565b935050604085013567ffffffffffffffff8111156160de576160dd61574e565b5b6160ea8782880161601e565b92505060606160fb87828801615b78565b91505092959194509250565b61611081615b57565b82525050565b600060208201905061612b6000830184616107565b92915050565b600081519050919050565b600082825260208201905092915050565b6000819050602082019050919050565b616166816157e5565b82525050565b6000616178838361615d565b60208301905092915050565b6000602082019050919050565b600061619c82616131565b6161a6818561613c565b93506161b18361614d565b8060005b838110156161e25781516161c9888261616c565b97506161d483616184565b9250506001810190506161b5565b5085935050505092915050565b600081519050919050565b600082825260208201905092915050565b6000819050602082019050919050565b61622481615753565b82525050565b6000616236838361621b565b60208301905092915050565b6000602082019050919050565b600061625a826161ef565b61626481856161fa565b935061626f8361620b565b8060005b838110156162a0578151616287888261622a565b975061629283616242565b925050600181019050616273565b5085935050505092915050565b600081519050919050565b600082825260208201905092915050565b6000819050602082019050919050565b600082825260208201905092915050565b60006162f582615c6b565b6162ff81856162d9565b935061630f818560208601615c87565b61631881615a1b565b840191505092915050565b600061632f83836162ea565b905092915050565b6000602082019050919050565b600061634f826162ad565b61635981856162b8565b93508360208202850161636b856162c9565b8060005b858110156163a757848403895281516163888582616323565b945061639383616337565b925060208a0199505060018101905061636f565b50829750879550505050505092915050565b600081519050919050565b600082825260208201905092915050565b6000819050602082019050919050565b600081519050919050565b600082825260208201905092915050565b600061640c826163e5565b61641681856163f0565b9350616426818560208601615c87565b61642f81615a1b565b840191505092915050565b60006164468383616401565b905092915050565b6000602082019050919050565b6000616466826163b9565b61647081856163c4565b935083602082028501616482856163d5565b8060005b858110156164be578484038952815161649f858261643a565b94506164aa8361644e565b925060208a01995050600181019050616486565b50829750879550505050505092915050565b600060808201905081810360008301526164ea8187616191565b905081810360208301526164fe818661624f565b905081810360408301526165128185616344565b90508181036060830152616526818461645b565b905095945050505050565b600080600080600060a0868803121561654d5761654c615749565b5b600061655b88828901615774565b955050602061656c8882890161599c565b945050604061657d8882890161599c565b935050606061658e88828901615b78565b925050608061659f88828901615b78565b9150509295509295909350565b7f4e487b7100000000000000000000000000000000000000000000000000000000600052602160045260246000fd5b600881106165ec576165eb6165ac565b5b50565b60008190506165fd826165db565b919050565b600061660d826165ef565b9050919050565b61661d81616602565b82525050565b60006020820190506166386000830184616614565b92915050565b6000806040838503121561665557616654615749565b5b600061666385828601615774565b925050602061667485828601615d23565b9150509250929050565b6000806040838503121561669557616694615749565b5b60006166a385828601615774565b92505060206166b48582860161599c565b9150509250929050565b6000806000806000608086880312156166da576166d9615749565b5b60006166e888828901615774565b95505060206166f98882890161599c565b945050604086013567ffffffffffffffff81111561671a5761671961574e565b5b616726888289016159c0565b9350935050606086013567ffffffffffffffff8111156167495761674861574e565b5b61675588828901615b29565b9150509295509295909350565b6000806000806060858703121561677c5761677b615749565b5b600061678a87828801615774565b945050602061679b8782880161599c565b935050604085013567ffffffffffffffff8111156167bc576167bb61574e565b5b6167c8878288016159c0565b925092505092959194509250565b600067ffffffffffffffff8211156167f1576167f0615a2c565b5b6167fa82615a1b565b9050602081019050919050565b600061681a616815846167d6565b615a8c565b90508281526020810184848401111561683657616835615a16565b5b616841848285615ad8565b509392505050565b600082601f83011261685e5761685d6159b1565b5b813561686e848260208601616807565b91505092915050565b6000806000806080858703121561689157616890615749565b5b600085013567ffffffffffffffff8111156168af576168ae61574e565b5b6168bb87828801615e7a565b945050602085013567ffffffffffffffff8111156168dc576168db61574e565b5b6168e887828801615f3d565b935050604085013567ffffffffffffffff8111156169095761690861574e565b5b6169158782880161601e565b925050606085013567ffffffffffffffff8111156169365761693561574e565b5b61694287828801616849565b91505092959194509250565b60007fff0000000000000000000000000000000000000000000000000000000000000082169050919050565b6169838161694e565b82525050565b600060e08201905061699e600083018a61697a565b81810360208301526169b08189615cb1565b905081810360408301526169c48188615cb1565b90506169d360608301876157b6565b6169e060808301866157f7565b6169ed60a0830185616107565b81810360c08301526169ff818461624f565b905098975050505050505050565b600065ffffffffffff82169050919050565b616a2881616a0d565b82525050565b6000602082019050616a436000830184616a1f565b92915050565b600080600060608486031215616a6257616a61615749565b5b6000616a7086828701615d23565b9350506020616a8186828701615774565b925050604084013567ffffffffffffffff811115616aa257616aa161574e565b5b616aae86828701615b29565b9150509250925092565b6000616ac3826157c5565b9050919050565b6000616ad582616ab8565b9050919050565b616ae581616aca565b8114616af057600080fd5b50565b600081359050616b0281616adc565b92915050565b600060208284031215616b1e57616b1d615749565b5b6000616b2c84828501616af3565b91505092915050565b600080600080600060a08688031215616b5157616b50615749565b5b6000616b5f88828901615d23565b9550506020616b7088828901615d23565b945050604086013567ffffffffffffffff811115616b9157616b9061574e565b5b616b9d88828901615f3d565b935050606086013567ffffffffffffffff811115616bbe57616bbd61574e565b5b616bca88828901615f3d565b925050608086013567ffffffffffffffff811115616beb57616bea61574e565b5b616bf788828901615b29565b9150509295509295909350565b60008083601f840112616c1a57616c196159b1565b5b8235905067ffffffffffffffff811115616c3757616c366159b6565b5b602083019150836001820283011115616c5357616c526159bb565b5b9250929050565b60008060008060608587031215616c7457616c73615749565b5b6000616c8287828801615d23565b9450506020616c9387828801615774565b935050604085013567ffffffffffffffff811115616cb457616cb361574e565b5b616cc087828801616c04565b925092505092959194509250565b6000602082019050616ce360008301846157f7565b92915050565b600067ffffffffffffffff821115616d0457616d03615a2c565b5b602082029050602081019050919050565b6000616d28616d2384616ce9565b615a8c565b90508083825260208201905060208402830185811115616d4b57616d4a6159bb565b5b835b81811015616d9257803567ffffffffffffffff811115616d7057616d6f6159b1565b5b808601616d7d8982616849565b85526020850194505050602081019050616d4d565b5050509392505050565b600082601f830112616db157616db06159b1565b5b8135616dc1848260208601616d15565b91505092915050565b600080600080600060a08688031215616de657616de5615749565b5b600086013567ffffffffffffffff811115616e0457616e0361574e565b5b616e1088828901615e7a565b955050602086013567ffffffffffffffff811115616e3157616e3061574e565b5b616e3d88828901615f3d565b945050604086013567ffffffffffffffff811115616e5e57616e5d61574e565b5b616e6a88828901616d9c565b935050606086013567ffffffffffffffff811115616e8b57616e8a61574e565b5b616e978882890161601e565b925050608086013567ffffffffffffffff811115616eb857616eb761574e565b5b616ec488828901616849565b9150509295509295909350565b616eda81615806565b82525050565b616ee981615978565b82525050565b60006bffffffffffffffffffffffff82169050919050565b616f1081616eef565b82525050565b606082016000820151616f2c6000850182616ed1565b506020820151616f3f6020850182616ee0565b506040820151616f526040850182616f07565b50505050565b6000606082019050616f6d6000830184616f16565b92915050565b60008060408385031215616f8a57616f89615749565b5b6000616f9885828601615d23565b9250506020616fa985828601615774565b9150509250929050565b600080600080600060a08688031215616fcf57616fce615749565b5b6000616fdd88828901615d23565b9550506020616fee88828901615d23565b9450506040616fff88828901615774565b935050606061701088828901615774565b925050608086013567ffffffffffffffff8111156170315761703061574e565b5b61703d88828901615b29565b9150509295509295909350565b6000819050919050565b600061706f61706a617065846157c5565b61704a565b6157c5565b9050919050565b600061708182617054565b9050919050565b600061709382617076565b9050919050565b6170a381617088565b82525050565b60006020820190506170be600083018461709a565b92915050565b600081905092915050565b60006170db83856170c4565b93506170e8838584615ad8565b82840190509392505050565b60006171018284866170cf565b91508190509392505050565b61711681615978565b82525050565b600060a0820190506171316000830188616107565b61713e60208301876157b6565b61714b604083018661710d565b6171586060830185616107565b6171656080830184616107565b9695505050505050565b7f476f7665726e6f723a206f6e6c79476f7665726e616e63650000000000000000600082015250565b60006171a5601883615c76565b91506171b08261716f565b602082019050919050565b600060208201905081810360008301526171d481617198565b9050919050565b7f4e487b7100000000000000000000000000000000000000000000000000000000600052602260045260246000fd5b6000600282049050600182168061722257607f821691505b602082108103617235576172346171db565b5b50919050565b7f476f7665726e6f723a2070726f706f73616c206e6f742073756363657373667560008201527f6c00000000000000000000000000000000000000000000000000000000000000602082015250565b6000617297602183615c76565b91506172a28261723b565b604082019050919050565b600060208201905081810360008301526172c68161728a565b9050919050565b6000815190506172dc8161575d565b92915050565b6000602082840312156172f8576172f7615749565b5b6000617306848285016172cd565b91505092915050565b6000819050919050565b60008160001b9050919050565b600061734161733c6173378461730f565b617319565b615b57565b9050919050565b61735181617326565b82525050565b600060a08201905081810360008301526173718188616191565b90508181036020830152617385818761624f565b90508181036040830152617399818661645b565b90506173a86060830185617348565b6173b56080830184616107565b9695505050505050565b6000815190506173ce81615b61565b92915050565b6000602082840312156173ea576173e9615749565b5b60006173f8848285016173bf565b91505092915050565b600060c082019050818103600083015261741b8189616191565b9050818103602083015261742f818861624f565b90508181036040830152617443818761645b565b90506174526060830186617348565b61745f6080830185616107565b61746c60a08301846157b6565b979650505050505050565b7f4e487b7100000000000000000000000000000000000000000000000000000000600052601160045260246000fd5b60006174b182615753565b91506174bc83615753565b92508282019050808211156174d4576174d3617477565b5b92915050565b60006040820190506174ef60008301856157b6565b6174fc60208301846157b6565b9392505050565b600061750e82616a0d565b915061751983616a0d565b9250828203905065ffffffffffff81111561753757617536617477565b5b92915050565b60006060820190506175526000830186616107565b61755f60208301856157b6565b61756c604083018461710d565b949350505050565b6000617587617582846167d6565b615a8c565b9050828152602081018484840111156175a3576175a2615a16565b5b6175ae848285615c87565b509392505050565b600082601f8301126175cb576175ca6159b1565b5b81516175db848260208601617574565b91505092915050565b6000602082840312156175fa576175f9615749565b5b600082015167ffffffffffffffff8111156176185761761761574e565b5b617624848285016175b6565b91505092915050565b600061763882615753565b915061764383615753565b925082820390508181111561765b5761765a617477565b5b92915050565b7f4e487b7100000000000000000000000000000000000000000000000000000000600052603260045260246000fd5b61769981616a0d565b81146176a457600080fd5b50565b6000815190506176b681617690565b92915050565b6000602082840312156176d2576176d1615749565b5b60006176e0848285016176a7565b91505092915050565b600060808201905081810360008301526177038187616191565b90508181036020830152617717818661624f565b9050818103604083015261772b818561645b565b905061773a6060830184616107565b95945050505050565b7f476f7665726e6f72427261766f3a20696e76616c6964207369676e617475726560008201527f73206c656e677468000000000000000000000000000000000000000000000000602082015250565b600061779f602883615c76565b91506177aa82617743565b604082019050919050565b600060208201905081810360008301526177ce81617792565b9050919050565b7f476f7665726e6f723a20766f7465206e6f742063757272656e746c792061637460008201527f6976650000000000000000000000000000000000000000000000000000000000602082015250565b6000617831602383615c76565b915061783c826177d5565b604082019050919050565b6000602082019050818103600083015261786081617824565b9050919050565b600060808201905061787c60008301876157b6565b617889602083018661710d565b61789660408301856157b6565b81810360608301526178a88184615cb1565b905095945050505050565b600082825260208201905092915050565b60006178cf826163e5565b6178d981856178b3565b93506178e9818560208601615c87565b6178f281615a1b565b840191505092915050565b600060a08201905061791260008301886157b6565b61791f602083018761710d565b61792c60408301866157b6565b818103606083015261793e8185615cb1565b9050818103608083015261795281846178c4565b90509695505050505050565b7f476f7665726e6f72566f74657351756f72756d4672616374696f6e3a2071756f60008201527f72756d4e756d657261746f72206f7665722071756f72756d44656e6f6d696e6160208201527f746f720000000000000000000000000000000000000000000000000000000000604082015250565b60006179e0604383615c76565b91506179eb8261795e565b606082019050919050565b60006020820190508181036000830152617a0f816179d3565b9050919050565b6000617a2182615753565b91507fffffffffffffffffffffffffffffffffffffffffffffffffffffffffffffffff8203617a5357617a52617477565b5b600182019050919050565b617a6781615806565b8114617a7257600080fd5b50565b600081519050617a8481617a5e565b92915050565b600060208284031215617aa057617a9f615749565b5b6000617aae84828501617a75565b91505092915050565b7f476f7665726e6f72427261766f3a2070726f706f7365722061626f766520746860008201527f726573686f6c6400000000000000000000000000000000000000000000000000602082015250565b6000617b13602783615c76565b9150617b1e82617ab7565b604082019050919050565b60006020820190508181036000830152617b4281617b06565b9050919050565b7f53616665436173743a2076616c756520646f65736e27742066697420696e203360008201527f3220626974730000000000000000000000000000000000000000000000000000602082015250565b6000617ba5602683615c76565b9150617bb082617b49565b604082019050919050565b60006020820190508181036000830152617bd481617b98565b9050919050565b7f53616665436173743a2076616c756520646f65736e27742066697420696e203460008201527f3820626974730000000000000000000000000000000000000000000000000000602082015250565b6000617c37602683615c76565b9150617c4282617bdb565b604082019050919050565b60006020820190508181036000830152617c6681617c2a565b9050919050565b6000604082019050617c8260008301856157f7565b617c8f60208301846157b6565b9392505050565b6000604082019050617cab60008301856157f7565b617cb860208301846157f7565b9392505050565b6000819050919050565b617cda617cd5826158bd565b617cbf565b82525050565b6000617ceb826163e5565b617cf581856170c4565b9350617d05818560208601615c87565b80840191505092915050565b6000617d1d8285617cc9565b600482019150617d2d8284617ce0565b91508190509392505050565b6000617d4482615753565b9150617d4f83615753565b9250828202617d5d81615753565b91508282048414831517617d7457617d73617477565b5b5092915050565b7f4e487b7100000000000000000000000000000000000000000000000000000000600052601260045260246000fd5b6000617db582615753565b9150617dc083615753565b925082617dd057617dcf617d7b565b5b828204905092915050565b6000608082019050617df06000830187616107565b617dfd602083018661710d565b617e0a6040830185616107565b617e176060830184616107565b95945050505050565b7f45434453413a20696e76616c6964207369676e61747572650000000000000000600082015250565b6000617e56601883615c76565b9150617e6182617e20565b602082019050919050565b60006020820190508181036000830152617e8581617e49565b9050919050565b7f45434453413a20696e76616c6964207369676e6174757265206c656e67746800600082015250565b6000617ec2601f83615c76565b9150617ecd82617e8c565b602082019050919050565b60006020820190508181036000830152617ef181617eb5565b9050919050565b7f45434453413a20696e76616c6964207369676e6174757265202773272076616c60008201527f7565000000000000000000000000000000000000000000000000000000000000602082015250565b6000617f54602283615c76565b9150617f5f82617ef8565b604082019050919050565b60006020820190508181036000830152617f8381617f47565b9050919050565b7f476f7665726e6f72436f6d7061746962696c697479427261766f3a20766f746560008201527f20616c7265616479206361737400000000000000000000000000000000000000602082015250565b6000617fe6602d83615c76565b9150617ff182617f8a565b604082019050919050565b6000602082019050818103600083015261801581617fd9565b9050919050565b7f476f7665726e6f72436f6d7061746962696c697479427261766f3a20696e766160008201527f6c696420766f7465207479706500000000000000000000000000000000000000602082015250565b6000618078602d83615c76565b91506180838261801c565b604082019050919050565b600060208201905081810360008301526180a78161806b565b9050919050565b7f53616665436173743a2076616c756520646f65736e27742066697420696e203260008201527f3234206269747300000000000000000000000000000000000000000000000000602082015250565b600061810a602783615c76565b9150618115826180ae565b604082019050919050565b60006020820190508181036000830152618139816180fd565b9050919050565b7f476f7665726e6f723a20756e6b6e6f776e2070726f706f73616c206964000000600082015250565b6000618176601d83615c76565b915061818182618140565b602082019050919050565b600060208201905081810360008301526181a581618169565b9050919050565b7f476f7665726e6f723a2070726f706f73657220766f7465732062656c6f77207060008201527f726f706f73616c207468726573686f6c64000000000000000000000000000000602082015250565b6000618208603183615c76565b9150618213826181ac565b604082019050919050565b60006020820190508181036000830152618237816181fb565b9050919050565b7f476f7665726e6f723a20696e76616c69642070726f706f73616c206c656e677460008201527f6800000000000000000000000000000000000000000000000000000000000000602082015250565b600061829a602183615c76565b91506182a58261823e565b604082019050919050565b600060208201905081810360008301526182c98161828d565b9050919050565b7f476f7665726e6f723a20656d7074792070726f706f73616c0000000000000000600082015250565b6000618306601883615c76565b9150618311826182d0565b602082019050919050565b60006020820190508181036000830152618335816182f9565b9050919050565b7f476f7665726e6f723a2070726f706f73616c20616c726561647920657869737460008201527f7300000000000000000000000000000000000000000000000000000000000000602082015250565b6000618398602183615c76565b91506183a38261833c565b604082019050919050565b600060208201905081810360008301526183c78161838b565b9050919050565b6000610120820190506183e4600083018c6157b6565b6183f1602083018b6157f7565b8181036040830152618403818a616191565b90508181036060830152618417818961624f565b9050818103608083015261842b8188616344565b905081810360a083015261843f818761645b565b905061844e60c08301866157b6565b61845b60e08301856157b6565b81810361010083015261846e8184615cb1565b90509a9950505050505050505050565b600060a0820190506184936000830188616107565b6184a06020830187616107565b6184ad6040830186616107565b6184ba60608301856157b6565b6184c760808301846157f7565b9695505050505050565b7f53616665436173743a2076616c756520646f65736e27742066697420696e203960008201527f3620626974730000000000000000000000000000000000000000000000000000602082015250565b600061852d602683615c76565b9150618538826184d1565b604082019050919050565b6000602082019050818103600083015261855c81618520565b9050919050565b7f436865636b706f696e743a2064656372656173696e67206b6579730000000000600082015250565b6000618599601b83615c76565b91506185a482618563565b602082019050919050565b600060208201905081810360008301526185c88161858c565b9050919050565b7f53616665436173743a2076616c756520646f65736e27742066697420696e203660008201527f3420626974730000000000000000000000000000000000000000000000000000602082015250565b600061862b602683615c76565b9150618636826185cf565b604082019050919050565b6000602082019050818103600083015261865a8161861e565b9050919050565b7f476f7665726e6f723a2070726f706f73616c206e6f7420616374697665000000600082015250565b6000618697601d83615c76565b91506186a282618661565b602082019050919050565b600060208201905081810360008301526186c68161868a565b9050919050565b60008190508160005260206000209050919050565b60006020601f8301049050919050565b600082821b905092915050565b60006008830261872f7fffffffffffffffffffffffffffffffffffffffffffffffffffffffffffffffff826186f2565b61873986836186f2565b95508019841693508086168417925050509392505050565b600061876c61876761876284615753565b61704a565b615753565b9050919050565b6000819050919050565b61878683618751565b61879a61879282618773565b8484546186ff565b825550505050565b600090565b6187af6187a2565b6187ba81848461877d565b505050565b5b818110156187de576187d36000826187a7565b6001810190506187c0565b5050565b601f821115618823576187f4816186cd565b6187fd846186e2565b8101602085101561880c578190505b618820618818856186e2565b8301826187bf565b50505b505050565b600082821c905092915050565b600061884660001984600802618828565b1980831691505092915050565b600061885f8383618835565b9150826002028217905092915050565b61887882615c6b565b67ffffffffffffffff81111561889157618890615a2c565b5b61889b825461720a565b6188a68282856187e2565b600060209050601f8311600181146188d957600084156188c7578287015190505b6188d18582618853565b865550618939565b601f1984166188e7866186cd565b60005b8281101561890f578489015182556001820191506020850194506020810190506188ea565b8683101561892c5784890151618928601f891682618835565b8355505b6001600288020188555050505b505050505050565b60008190508160005260206000209050919050565b601f8211156189975761896881618941565b618971846186e2565b81016020851015618980578190505b61899461898c856186e2565b8301826187bf565b50505b505050565b6189a5826163e5565b67ffffffffffffffff8111156189be576189bd615a2c565b5b6189c8825461720a565b6189d3828285618956565b600060209050601f831160018114618a0657600084156189f4578287015190505b6189fe8582618853565b865550618a66565b601f198416618a1486618941565b60005b82811015618a3c57848901518255600182019150602085019450602081019050618a17565b86831015618a595784890151618a55601f891682618835565b8355505b6001600288020188555050505b50505050505056fe476f7665726e6f723a2072656c617920726576657274656420776974686f7574206d657373616765a264697066735822122021851298ab820fdfd669acc0c31f2f0e7dc332992aba1aa02af39e3d6508377264736f6c63430008130033",
  "immutableReferences": {
    "8194": [
      {
        "length": 32,
        "start": 6475
      },
      {
        "length": 32,
        "start": 7663
      },
      {
        "length": 32,
        "start": 9534
      },
      {
        "length": 32,
        "start": 13482
      },
      {
        "length": 32,
        "start": 14566
      }
    ],
    "32915": [
      {
        "length": 32,
        "start": 15319
      }
    ],
    "32917": [
      {
        "length": 32,
        "start": 15278
      }
    ],
    "32919": [
      {
        "length": 32,
        "start": 15192
      }
    ],
    "32922": [
      {
        "length": 32,
        "start": 7420
      }
    ],
    "32925": [
      {
        "length": 32,
        "start": 7472
      }
    ],
    "32931": [
      {
        "length": 32,
        "start": 19413
      }
    ],
    "32933": [
      {
        "length": 32,
        "start": 19446
      }
    ]
  },
  "source": "// SPDX-License-Identifier: MIT\npragma solidity ^0.8.2;\n\nimport \"../../governance/Governor.sol\";\nimport \"../../governance/compatibility/GovernorCompatibilityBravo.sol\";\nimport \"../../governance/extensions/GovernorVotes.sol\";\nimport \"../../governance/extensions/GovernorVotesQuorumFraction.sol\";\nimport \"../../governance/extensions/GovernorTimelockControl.sol\";\n\ncontract MyGovernor is\n    Governor,\n    GovernorTimelockControl,\n    GovernorCompatibilityBravo,\n    GovernorVotes,\n    GovernorVotesQuorumFraction\n{\n    constructor(\n        IVotes _token,\n        TimelockController _timelock\n    ) Governor(\"MyGovernor\") GovernorVotes(_token) GovernorVotesQuorumFraction(4) GovernorTimelockControl(_timelock) {}\n\n    function votingDelay() public pure override returns (uint256) {\n        return 1; // 1 block\n    }\n\n    function votingPeriod() public pure override returns (uint256) {\n        return 45818; // 1 week\n    }\n\n    function proposalThreshold() public pure override returns (uint256) {\n        return 1000e18;\n    }\n\n    // The following functions are overrides required by Solidity.\n\n    function quorum(\n        uint256 blockNumber\n    ) public view override(IGovernor, GovernorVotesQuorumFraction) returns (uint256) {\n        return super.quorum(blockNumber);\n    }\n\n    function state(\n        uint256 proposalId\n    ) public view override(Governor, IGovernor, GovernorTimelockControl) returns (ProposalState) {\n        return super.state(proposalId);\n    }\n\n    function propose(\n        address[] memory targets,\n        uint256[] memory values,\n        bytes[] memory calldatas,\n        string memory description\n    ) public override(Governor, GovernorCompatibilityBravo, IGovernor) returns (uint256) {\n        return super.propose(targets, values, calldatas, description);\n    }\n\n    function cancel(\n        address[] memory targets,\n        uint256[] memory values,\n        bytes[] memory calldatas,\n        bytes32 descriptionHash\n    ) public override(Governor, GovernorCompatibilityBravo, IGovernor) returns (uint256) {\n        return super.cancel(targets, values, calldatas, descriptionHash);\n    }\n\n    function _execute(\n        uint256 proposalId,\n        address[] memory targets,\n        uint256[] memory values,\n        bytes[] memory calldatas,\n        bytes32 descriptionHash\n    ) internal override(Governor, GovernorTimelockControl) {\n        super._execute(proposalId, targets, values, calldatas, descriptionHash);\n    }\n\n    function _cancel(\n        address[] memory targets,\n        uint256[] memory values,\n        bytes[] memory calldatas,\n        bytes32 descriptionHash\n    ) internal override(Governor, GovernorTimelockControl) returns (uint256) {\n        return super._cancel(targets, values, calldatas, descriptionHash);\n    }\n\n    function _executor() internal view override(Governor, GovernorTimelockControl) returns (address) {\n        return super._executor();\n    }\n\n    function supportsInterface(\n        bytes4 interfaceId\n    ) public view override(Governor, IERC165, GovernorTimelockControl) returns (bool) {\n        return super.supportsInterface(interfaceId);\n    }\n}\n",
  "sourcePath": "/Users/urieltan/gitclones/ft5004/nft-project/contracts/openzeppelin-contracts-master/contracts/mocks/wizard/MyGovernor3.sol",
  "compiler": {
    "name": "solc",
    "version": "0.8.19+commit.7dd6d404.Emscripten.clang"
  },
  "schemaVersion": "3.4.13",
  "updatedAt": "2023-04-18T20:14:33.775Z",
  "devdoc": {
    "errors": {
      "Empty()": [
        {
          "details": "An operation (e.g. {front}) couldn't be completed due to the queue being empty."
        }
      ]
    },
    "events": {
      "EIP712DomainChanged()": {
        "details": "MAY be emitted to signal that the domain could have changed."
      },
      "ProposalCanceled(uint256)": {
        "details": "Emitted when a proposal is canceled."
      },
      "ProposalCreated(uint256,address,address[],uint256[],string[],bytes[],uint256,uint256,string)": {
        "details": "Emitted when a proposal is created."
      },
      "ProposalExecuted(uint256)": {
        "details": "Emitted when a proposal is executed."
      },
      "TimelockChange(address,address)": {
        "details": "Emitted when the timelock controller used for proposal execution is modified."
      },
      "VoteCast(address,uint256,uint8,uint256,string)": {
        "details": "Emitted when a vote is cast without params. Note: `support` values should be seen as buckets. Their interpretation depends on the voting module used."
      },
      "VoteCastWithParams(address,uint256,uint8,uint256,string,bytes)": {
        "details": "Emitted when a vote is cast with params. Note: `support` values should be seen as buckets. Their interpretation depends on the voting module used. `params` are additional encoded parameters. Their interpepretation also depends on the voting module used."
      }
    },
    "kind": "dev",
    "methods": {
      "CLOCK_MODE()": {
        "details": "Machine-readable description of the clock as specified in EIP-6372."
      },
      "COUNTING_MODE()": {
        "details": "A description of the possible `support` values for {castVote} and the way these votes are counted, meant to be consumed by UIs to show correct vote options and interpret the results. The string is a URL-encoded sequence of key-value pairs that each describe one aspect, for example `support=bravo&quorum=for,abstain`. There are 2 standard keys: `support` and `quorum`. - `support=bravo` refers to the vote options 0 = Against, 1 = For, 2 = Abstain, as in `GovernorBravo`. - `quorum=bravo` means that only For votes are counted towards quorum. - `quorum=for,abstain` means that both For and Abstain votes are counted towards quorum. If a counting module makes use of encoded `params`, it should  include this under a `params` key with a unique name that describes the behavior. For example: - `params=fractional` might refer to a scheme where votes are divided fractionally between for/against/abstain. - `params=erc721` might refer to a scheme where specific NFTs are delegated to vote. NOTE: The string can be decoded by the standard https://developer.mozilla.org/en-US/docs/Web/API/URLSearchParams[`URLSearchParams`] JavaScript class."
      },
      "cancel(uint256)": {
        "details": "Cancel a proposal with GovernorBravo logic."
      },
      "castVote(uint256,uint8)": {
        "details": "See {IGovernor-castVote}."
      },
      "castVoteBySig(uint256,uint8,uint8,bytes32,bytes32)": {
        "details": "See {IGovernor-castVoteBySig}."
      },
      "castVoteWithReason(uint256,uint8,string)": {
        "details": "See {IGovernor-castVoteWithReason}."
      },
      "castVoteWithReasonAndParams(uint256,uint8,string,bytes)": {
        "details": "See {IGovernor-castVoteWithReasonAndParams}."
      },
      "castVoteWithReasonAndParamsBySig(uint256,uint8,string,bytes,uint8,bytes32,bytes32)": {
        "details": "See {IGovernor-castVoteWithReasonAndParamsBySig}."
      },
      "clock()": {
        "details": "Clock (as specified in EIP-6372) is set to match the token's clock. Fallback to block numbers if the token does not implement EIP-6372."
      },
      "eip712Domain()": {
        "details": "See {EIP-5267}."
      },
      "execute(address[],uint256[],bytes[],bytes32)": {
        "details": "See {IGovernor-execute}."
      },
      "execute(uint256)": {
        "details": "See {IGovernorCompatibilityBravo-execute}."
      },
      "getActions(uint256)": {
        "details": "See {IGovernorCompatibilityBravo-getActions}."
      },
      "getReceipt(uint256,address)": {
        "details": "See {IGovernorCompatibilityBravo-getReceipt}."
      },
      "getVotes(address,uint256)": {
        "details": "See {IGovernor-getVotes}."
      },
      "getVotesWithParams(address,uint256,bytes)": {
        "details": "See {IGovernor-getVotesWithParams}."
      },
      "hasVoted(uint256,address)": {
        "details": "See {IGovernor-hasVoted}."
      },
      "hashProposal(address[],uint256[],bytes[],bytes32)": {
        "details": "See {IGovernor-hashProposal}. The proposal id is produced by hashing the ABI encoded `targets` array, the `values` array, the `calldatas` array and the descriptionHash (bytes32 which itself is the keccak256 hash of the description string). This proposal id can be produced from the proposal data which is part of the {ProposalCreated} event. It can even be computed in advance, before the proposal is submitted. Note that the chainId and the governor address are not part of the proposal id computation. Consequently, the same proposal (with same operation and same description) will have the same id if submitted on multiple governors across multiple networks. This also means that in order to execute the same operation twice (on the same governor) the proposer will have to change the description in order to avoid proposal id conflicts."
      },
      "name()": {
        "details": "See {IGovernor-name}."
      },
      "onERC1155BatchReceived(address,address,uint256[],uint256[],bytes)": {
        "details": "See {IERC1155Receiver-onERC1155BatchReceived}."
      },
      "onERC1155Received(address,address,uint256,uint256,bytes)": {
        "details": "See {IERC1155Receiver-onERC1155Received}."
      },
      "onERC721Received(address,address,uint256,bytes)": {
        "details": "See {IERC721Receiver-onERC721Received}."
      },
      "proposalDeadline(uint256)": {
        "details": "See {IGovernor-proposalDeadline}."
      },
      "proposalEta(uint256)": {
        "details": "Public accessor to check the eta of a queued proposal"
      },
      "proposalSnapshot(uint256)": {
        "details": "See {IGovernor-proposalSnapshot}."
      },
      "proposalThreshold()": {
        "details": "Part of the Governor Bravo's interface: _\"The number of votes required in order for a voter to become a proposer\"_."
      },
      "proposals(uint256)": {
        "details": "See {IGovernorCompatibilityBravo-proposals}."
      },
      "propose(address[],uint256[],string[],bytes[],string)": {
        "details": "See {IGovernorCompatibilityBravo-propose}."
      },
      "queue(address[],uint256[],bytes[],bytes32)": {
        "details": "Function to queue a proposal to the timelock."
      },
      "queue(uint256)": {
        "details": "See {IGovernorCompatibilityBravo-queue}."
      },
      "quorumDenominator()": {
        "details": "Returns the quorum denominator. Defaults to 100, but may be overridden."
      },
      "quorumNumerator()": {
        "details": "Returns the current quorum numerator. See {quorumDenominator}."
      },
      "quorumNumerator(uint256)": {
        "details": "Returns the quorum numerator at a specific timepoint. See {quorumDenominator}."
      },
      "quorumVotes()": {
        "details": "See {IGovernorCompatibilityBravo-quorumVotes}."
      },
      "relay(address,uint256,bytes)": {
        "details": "Relays a transaction or function call to an arbitrary target. In cases where the governance executor is some contract other than the governor itself, like when using a timelock, this function can be invoked in a governance proposal to recover tokens or Ether that was sent to the governor contract by mistake. Note that if the executor is simply the governor itself, use of `relay` is redundant."
      },
      "timelock()": {
        "details": "Public accessor to check the address of the timelock"
      },
      "updateQuorumNumerator(uint256)": {
        "details": "Changes the quorum numerator. Emits a {QuorumNumeratorUpdated} event. Requirements: - Must be called through a governance proposal. - New numerator must be smaller or equal to the denominator."
      },
      "updateTimelock(address)": {
        "details": "Public endpoint to update the underlying timelock instance. Restricted to the timelock itself, so updates must be proposed, scheduled, and executed through governance proposals. CAUTION: It is not recommended to change the timelock while there are other queued governance proposals."
      },
      "version()": {
        "details": "See {IGovernor-version}."
      },
      "votingDelay()": {
        "details": "Delay, between the proposal is created and the vote starts. The unit this duration is expressed in depends on the clock (see EIP-6372) this contract uses. This can be increased to leave time for users to buy voting power, or delegate it, before the voting of a proposal starts."
      },
      "votingPeriod()": {
        "details": "Delay, between the vote start and vote ends. The unit this duration is expressed in depends on the clock (see EIP-6372) this contract uses. NOTE: The {votingDelay} can delay the start of the vote. This must be considered when setting the voting duration compared to the voting delay."
      }
    },
    "version": 1
  },
  "userdoc": {
    "kind": "user",
    "methods": {
      "COUNTING_MODE()": {
        "notice": "module:voting"
      },
      "votingDelay()": {
        "notice": "module:user-config"
      },
      "votingPeriod()": {
        "notice": "module:user-config"
      }
    },
    "version": 1
  }
}