{
  "contractName": "MyGovernor1",
  "abi": [
    {
      "inputs": [
        {
          "internalType": "contract IVotes",
          "name": "_token",
          "type": "address"
        },
        {
          "internalType": "contract TimelockController",
          "name": "_timelock",
          "type": "address"
        }
      ],
      "stateMutability": "nonpayable",
      "type": "constructor"
    },
    {
      "inputs": [],
      "name": "Empty",
      "type": "error"
    },
    {
      "inputs": [],
      "name": "InvalidShortString",
      "type": "error"
    },
    {
      "inputs": [
        {
          "internalType": "string",
          "name": "str",
          "type": "string"
        }
      ],
      "name": "StringTooLong",
      "type": "error"
    },
    {
      "anonymous": false,
      "inputs": [],
      "name": "EIP712DomainChanged",
      "type": "event"
    },
    {
      "anonymous": false,
      "inputs": [
        {
          "indexed": false,
          "internalType": "uint256",
          "name": "proposalId",
          "type": "uint256"
        }
      ],
      "name": "ProposalCanceled",
      "type": "event"
    },
    {
      "anonymous": false,
      "inputs": [
        {
          "indexed": false,
          "internalType": "uint256",
          "name": "proposalId",
          "type": "uint256"
        },
        {
          "indexed": false,
          "internalType": "address",
          "name": "proposer",
          "type": "address"
        },
        {
          "indexed": false,
          "internalType": "address[]",
          "name": "targets",
          "type": "address[]"
        },
        {
          "indexed": false,
          "internalType": "uint256[]",
          "name": "values",
          "type": "uint256[]"
        },
        {
          "indexed": false,
          "internalType": "string[]",
          "name": "signatures",
          "type": "string[]"
        },
        {
          "indexed": false,
          "internalType": "bytes[]",
          "name": "calldatas",
          "type": "bytes[]"
        },
        {
          "indexed": false,
          "internalType": "uint256",
          "name": "voteStart",
          "type": "uint256"
        },
        {
          "indexed": false,
          "internalType": "uint256",
          "name": "voteEnd",
          "type": "uint256"
        },
        {
          "indexed": false,
          "internalType": "string",
          "name": "description",
          "type": "string"
        }
      ],
      "name": "ProposalCreated",
      "type": "event"
    },
    {
      "anonymous": false,
      "inputs": [
        {
          "indexed": false,
          "internalType": "uint256",
          "name": "proposalId",
          "type": "uint256"
        }
      ],
      "name": "ProposalExecuted",
      "type": "event"
    },
    {
      "anonymous": false,
      "inputs": [
        {
          "indexed": false,
          "internalType": "uint256",
          "name": "proposalId",
          "type": "uint256"
        },
        {
          "indexed": false,
          "internalType": "uint256",
          "name": "eta",
          "type": "uint256"
        }
      ],
      "name": "ProposalQueued",
      "type": "event"
    },
    {
      "anonymous": false,
      "inputs": [
        {
          "indexed": false,
          "internalType": "uint256",
          "name": "oldQuorumNumerator",
          "type": "uint256"
        },
        {
          "indexed": false,
          "internalType": "uint256",
          "name": "newQuorumNumerator",
          "type": "uint256"
        }
      ],
      "name": "QuorumNumeratorUpdated",
      "type": "event"
    },
    {
      "anonymous": false,
      "inputs": [
        {
          "indexed": false,
          "internalType": "address",
          "name": "oldTimelock",
          "type": "address"
        },
        {
          "indexed": false,
          "internalType": "address",
          "name": "newTimelock",
          "type": "address"
        }
      ],
      "name": "TimelockChange",
      "type": "event"
    },
    {
      "anonymous": false,
      "inputs": [
        {
          "indexed": true,
          "internalType": "address",
          "name": "voter",
          "type": "address"
        },
        {
          "indexed": false,
          "internalType": "uint256",
          "name": "proposalId",
          "type": "uint256"
        },
        {
          "indexed": false,
          "internalType": "uint8",
          "name": "support",
          "type": "uint8"
        },
        {
          "indexed": false,
          "internalType": "uint256",
          "name": "weight",
          "type": "uint256"
        },
        {
          "indexed": false,
          "internalType": "string",
          "name": "reason",
          "type": "string"
        }
      ],
      "name": "VoteCast",
      "type": "event"
    },
    {
      "anonymous": false,
      "inputs": [
        {
          "indexed": true,
          "internalType": "address",
          "name": "voter",
          "type": "address"
        },
        {
          "indexed": false,
          "internalType": "uint256",
          "name": "proposalId",
          "type": "uint256"
        },
        {
          "indexed": false,
          "internalType": "uint8",
          "name": "support",
          "type": "uint8"
        },
        {
          "indexed": false,
          "internalType": "uint256",
          "name": "weight",
          "type": "uint256"
        },
        {
          "indexed": false,
          "internalType": "string",
          "name": "reason",
          "type": "string"
        },
        {
          "indexed": false,
          "internalType": "bytes",
          "name": "params",
          "type": "bytes"
        }
      ],
      "name": "VoteCastWithParams",
      "type": "event"
    },
    {
      "inputs": [],
      "name": "BALLOT_TYPEHASH",
      "outputs": [
        {
          "internalType": "bytes32",
          "name": "",
          "type": "bytes32"
        }
      ],
      "stateMutability": "view",
      "type": "function"
    },
    {
      "inputs": [],
      "name": "CLOCK_MODE",
      "outputs": [
        {
          "internalType": "string",
          "name": "",
          "type": "string"
        }
      ],
      "stateMutability": "view",
      "type": "function"
    },
    {
      "inputs": [],
      "name": "COUNTING_MODE",
      "outputs": [
        {
          "internalType": "string",
          "name": "",
          "type": "string"
        }
      ],
      "stateMutability": "pure",
      "type": "function"
    },
    {
      "inputs": [],
      "name": "EXTENDED_BALLOT_TYPEHASH",
      "outputs": [
        {
          "internalType": "bytes32",
          "name": "",
          "type": "bytes32"
        }
      ],
      "stateMutability": "view",
      "type": "function"
    },
    {
      "inputs": [
        {
          "internalType": "address[]",
          "name": "targets",
          "type": "address[]"
        },
        {
          "internalType": "uint256[]",
          "name": "values",
          "type": "uint256[]"
        },
        {
          "internalType": "bytes[]",
          "name": "calldatas",
          "type": "bytes[]"
        },
        {
          "internalType": "bytes32",
          "name": "descriptionHash",
          "type": "bytes32"
        }
      ],
      "name": "cancel",
      "outputs": [
        {
          "internalType": "uint256",
          "name": "",
          "type": "uint256"
        }
      ],
      "stateMutability": "nonpayable",
      "type": "function"
    },
    {
      "inputs": [
        {
          "internalType": "uint256",
          "name": "proposalId",
          "type": "uint256"
        },
        {
          "internalType": "uint8",
          "name": "support",
          "type": "uint8"
        }
      ],
      "name": "castVote",
      "outputs": [
        {
          "internalType": "uint256",
          "name": "",
          "type": "uint256"
        }
      ],
      "stateMutability": "nonpayable",
      "type": "function"
    },
    {
      "inputs": [
        {
          "internalType": "uint256",
          "name": "proposalId",
          "type": "uint256"
        },
        {
          "internalType": "uint8",
          "name": "support",
          "type": "uint8"
        },
        {
          "internalType": "uint8",
          "name": "v",
          "type": "uint8"
        },
        {
          "internalType": "bytes32",
          "name": "r",
          "type": "bytes32"
        },
        {
          "internalType": "bytes32",
          "name": "s",
          "type": "bytes32"
        }
      ],
      "name": "castVoteBySig",
      "outputs": [
        {
          "internalType": "uint256",
          "name": "",
          "type": "uint256"
        }
      ],
      "stateMutability": "nonpayable",
      "type": "function"
    },
    {
      "inputs": [
        {
          "internalType": "uint256",
          "name": "proposalId",
          "type": "uint256"
        },
        {
          "internalType": "uint8",
          "name": "support",
          "type": "uint8"
        },
        {
          "internalType": "string",
          "name": "reason",
          "type": "string"
        }
      ],
      "name": "castVoteWithReason",
      "outputs": [
        {
          "internalType": "uint256",
          "name": "",
          "type": "uint256"
        }
      ],
      "stateMutability": "nonpayable",
      "type": "function"
    },
    {
      "inputs": [
        {
          "internalType": "uint256",
          "name": "proposalId",
          "type": "uint256"
        },
        {
          "internalType": "uint8",
          "name": "support",
          "type": "uint8"
        },
        {
          "internalType": "string",
          "name": "reason",
          "type": "string"
        },
        {
          "internalType": "bytes",
          "name": "params",
          "type": "bytes"
        }
      ],
      "name": "castVoteWithReasonAndParams",
      "outputs": [
        {
          "internalType": "uint256",
          "name": "",
          "type": "uint256"
        }
      ],
      "stateMutability": "nonpayable",
      "type": "function"
    },
    {
      "inputs": [
        {
          "internalType": "uint256",
          "name": "proposalId",
          "type": "uint256"
        },
        {
          "internalType": "uint8",
          "name": "support",
          "type": "uint8"
        },
        {
          "internalType": "string",
          "name": "reason",
          "type": "string"
        },
        {
          "internalType": "bytes",
          "name": "params",
          "type": "bytes"
        },
        {
          "internalType": "uint8",
          "name": "v",
          "type": "uint8"
        },
        {
          "internalType": "bytes32",
          "name": "r",
          "type": "bytes32"
        },
        {
          "internalType": "bytes32",
          "name": "s",
          "type": "bytes32"
        }
      ],
      "name": "castVoteWithReasonAndParamsBySig",
      "outputs": [
        {
          "internalType": "uint256",
          "name": "",
          "type": "uint256"
        }
      ],
      "stateMutability": "nonpayable",
      "type": "function"
    },
    {
      "inputs": [],
      "name": "clock",
      "outputs": [
        {
          "internalType": "uint48",
          "name": "",
          "type": "uint48"
        }
      ],
      "stateMutability": "view",
      "type": "function"
    },
    {
      "inputs": [],
      "name": "eip712Domain",
      "outputs": [
        {
          "internalType": "bytes1",
          "name": "fields",
          "type": "bytes1"
        },
        {
          "internalType": "string",
          "name": "name",
          "type": "string"
        },
        {
          "internalType": "string",
          "name": "version",
          "type": "string"
        },
        {
          "internalType": "uint256",
          "name": "chainId",
          "type": "uint256"
        },
        {
          "internalType": "address",
          "name": "verifyingContract",
          "type": "address"
        },
        {
          "internalType": "bytes32",
          "name": "salt",
          "type": "bytes32"
        },
        {
          "internalType": "uint256[]",
          "name": "extensions",
          "type": "uint256[]"
        }
      ],
      "stateMutability": "view",
      "type": "function"
    },
    {
      "inputs": [
        {
          "internalType": "address[]",
          "name": "targets",
          "type": "address[]"
        },
        {
          "internalType": "uint256[]",
          "name": "values",
          "type": "uint256[]"
        },
        {
          "internalType": "bytes[]",
          "name": "calldatas",
          "type": "bytes[]"
        },
        {
          "internalType": "bytes32",
          "name": "descriptionHash",
          "type": "bytes32"
        }
      ],
      "name": "execute",
      "outputs": [
        {
          "internalType": "uint256",
          "name": "",
          "type": "uint256"
        }
      ],
      "stateMutability": "payable",
      "type": "function"
    },
    {
      "inputs": [
        {
          "internalType": "address",
          "name": "account",
          "type": "address"
        },
        {
          "internalType": "uint256",
          "name": "timepoint",
          "type": "uint256"
        }
      ],
      "name": "getVotes",
      "outputs": [
        {
          "internalType": "uint256",
          "name": "",
          "type": "uint256"
        }
      ],
      "stateMutability": "view",
      "type": "function"
    },
    {
      "inputs": [
        {
          "internalType": "address",
          "name": "account",
          "type": "address"
        },
        {
          "internalType": "uint256",
          "name": "timepoint",
          "type": "uint256"
        },
        {
          "internalType": "bytes",
          "name": "params",
          "type": "bytes"
        }
      ],
      "name": "getVotesWithParams",
      "outputs": [
        {
          "internalType": "uint256",
          "name": "",
          "type": "uint256"
        }
      ],
      "stateMutability": "view",
      "type": "function"
    },
    {
      "inputs": [
        {
          "internalType": "uint256",
          "name": "proposalId",
          "type": "uint256"
        },
        {
          "internalType": "address",
          "name": "account",
          "type": "address"
        }
      ],
      "name": "hasVoted",
      "outputs": [
        {
          "internalType": "bool",
          "name": "",
          "type": "bool"
        }
      ],
      "stateMutability": "view",
      "type": "function"
    },
    {
      "inputs": [
        {
          "internalType": "address[]",
          "name": "targets",
          "type": "address[]"
        },
        {
          "internalType": "uint256[]",
          "name": "values",
          "type": "uint256[]"
        },
        {
          "internalType": "bytes[]",
          "name": "calldatas",
          "type": "bytes[]"
        },
        {
          "internalType": "bytes32",
          "name": "descriptionHash",
          "type": "bytes32"
        }
      ],
      "name": "hashProposal",
      "outputs": [
        {
          "internalType": "uint256",
          "name": "",
          "type": "uint256"
        }
      ],
      "stateMutability": "pure",
      "type": "function"
    },
    {
      "inputs": [],
      "name": "name",
      "outputs": [
        {
          "internalType": "string",
          "name": "",
          "type": "string"
        }
      ],
      "stateMutability": "view",
      "type": "function"
    },
    {
      "inputs": [
        {
          "internalType": "address",
          "name": "",
          "type": "address"
        },
        {
          "internalType": "address",
          "name": "",
          "type": "address"
        },
        {
          "internalType": "uint256[]",
          "name": "",
          "type": "uint256[]"
        },
        {
          "internalType": "uint256[]",
          "name": "",
          "type": "uint256[]"
        },
        {
          "internalType": "bytes",
          "name": "",
          "type": "bytes"
        }
      ],
      "name": "onERC1155BatchReceived",
      "outputs": [
        {
          "internalType": "bytes4",
          "name": "",
          "type": "bytes4"
        }
      ],
      "stateMutability": "nonpayable",
      "type": "function"
    },
    {
      "inputs": [
        {
          "internalType": "address",
          "name": "",
          "type": "address"
        },
        {
          "internalType": "address",
          "name": "",
          "type": "address"
        },
        {
          "internalType": "uint256",
          "name": "",
          "type": "uint256"
        },
        {
          "internalType": "uint256",
          "name": "",
          "type": "uint256"
        },
        {
          "internalType": "bytes",
          "name": "",
          "type": "bytes"
        }
      ],
      "name": "onERC1155Received",
      "outputs": [
        {
          "internalType": "bytes4",
          "name": "",
          "type": "bytes4"
        }
      ],
      "stateMutability": "nonpayable",
      "type": "function"
    },
    {
      "inputs": [
        {
          "internalType": "address",
          "name": "",
          "type": "address"
        },
        {
          "internalType": "address",
          "name": "",
          "type": "address"
        },
        {
          "internalType": "uint256",
          "name": "",
          "type": "uint256"
        },
        {
          "internalType": "bytes",
          "name": "",
          "type": "bytes"
        }
      ],
      "name": "onERC721Received",
      "outputs": [
        {
          "internalType": "bytes4",
          "name": "",
          "type": "bytes4"
        }
      ],
      "stateMutability": "nonpayable",
      "type": "function"
    },
    {
      "inputs": [
        {
          "internalType": "uint256",
          "name": "proposalId",
          "type": "uint256"
        }
      ],
      "name": "proposalDeadline",
      "outputs": [
        {
          "internalType": "uint256",
          "name": "",
          "type": "uint256"
        }
      ],
      "stateMutability": "view",
      "type": "function"
    },
    {
      "inputs": [
        {
          "internalType": "uint256",
          "name": "proposalId",
          "type": "uint256"
        }
      ],
      "name": "proposalEta",
      "outputs": [
        {
          "internalType": "uint256",
          "name": "",
          "type": "uint256"
        }
      ],
      "stateMutability": "view",
      "type": "function"
    },
    {
      "inputs": [
        {
          "internalType": "uint256",
          "name": "proposalId",
          "type": "uint256"
        }
      ],
      "name": "proposalSnapshot",
      "outputs": [
        {
          "internalType": "uint256",
          "name": "",
          "type": "uint256"
        }
      ],
      "stateMutability": "view",
      "type": "function"
    },
    {
      "inputs": [],
      "name": "proposalThreshold",
      "outputs": [
        {
          "internalType": "uint256",
          "name": "",
          "type": "uint256"
        }
      ],
      "stateMutability": "view",
      "type": "function"
    },
    {
      "inputs": [
        {
          "internalType": "uint256",
          "name": "proposalId",
          "type": "uint256"
        }
      ],
      "name": "proposalVotes",
      "outputs": [
        {
          "internalType": "uint256",
          "name": "againstVotes",
          "type": "uint256"
        },
        {
          "internalType": "uint256",
          "name": "forVotes",
          "type": "uint256"
        },
        {
          "internalType": "uint256",
          "name": "abstainVotes",
          "type": "uint256"
        }
      ],
      "stateMutability": "view",
      "type": "function"
    },
    {
      "inputs": [
        {
          "internalType": "address[]",
          "name": "targets",
          "type": "address[]"
        },
        {
          "internalType": "uint256[]",
          "name": "values",
          "type": "uint256[]"
        },
        {
          "internalType": "bytes[]",
          "name": "calldatas",
          "type": "bytes[]"
        },
        {
          "internalType": "bytes32",
          "name": "descriptionHash",
          "type": "bytes32"
        }
      ],
      "name": "queue",
      "outputs": [
        {
          "internalType": "uint256",
          "name": "",
          "type": "uint256"
        }
      ],
      "stateMutability": "nonpayable",
      "type": "function"
    },
    {
      "inputs": [],
      "name": "quorumDenominator",
      "outputs": [
        {
          "internalType": "uint256",
          "name": "",
          "type": "uint256"
        }
      ],
      "stateMutability": "view",
      "type": "function"
    },
    {
      "inputs": [
        {
          "internalType": "uint256",
          "name": "timepoint",
          "type": "uint256"
        }
      ],
      "name": "quorumNumerator",
      "outputs": [
        {
          "internalType": "uint256",
          "name": "",
          "type": "uint256"
        }
      ],
      "stateMutability": "view",
      "type": "function"
    },
    {
      "inputs": [],
      "name": "quorumNumerator",
      "outputs": [
        {
          "internalType": "uint256",
          "name": "",
          "type": "uint256"
        }
      ],
      "stateMutability": "view",
      "type": "function"
    },
    {
      "inputs": [
        {
          "internalType": "address",
          "name": "target",
          "type": "address"
        },
        {
          "internalType": "uint256",
          "name": "value",
          "type": "uint256"
        },
        {
          "internalType": "bytes",
          "name": "data",
          "type": "bytes"
        }
      ],
      "name": "relay",
      "outputs": [],
      "stateMutability": "payable",
      "type": "function"
    },
    {
      "inputs": [],
      "name": "timelock",
      "outputs": [
        {
          "internalType": "address",
          "name": "",
          "type": "address"
        }
      ],
      "stateMutability": "view",
      "type": "function"
    },
    {
      "inputs": [],
      "name": "token",
      "outputs": [
        {
          "internalType": "contract IERC5805",
          "name": "",
          "type": "address"
        }
      ],
      "stateMutability": "view",
      "type": "function"
    },
    {
      "inputs": [
        {
          "internalType": "uint256",
          "name": "newQuorumNumerator",
          "type": "uint256"
        }
      ],
      "name": "updateQuorumNumerator",
      "outputs": [],
      "stateMutability": "nonpayable",
      "type": "function"
    },
    {
      "inputs": [
        {
          "internalType": "contract TimelockController",
          "name": "newTimelock",
          "type": "address"
        }
      ],
      "name": "updateTimelock",
      "outputs": [],
      "stateMutability": "nonpayable",
      "type": "function"
    },
    {
      "inputs": [],
      "name": "version",
      "outputs": [
        {
          "internalType": "string",
          "name": "",
          "type": "string"
        }
      ],
      "stateMutability": "view",
      "type": "function"
    },
    {
      "stateMutability": "payable",
      "type": "receive"
    },
    {
      "inputs": [],
      "name": "votingDelay",
      "outputs": [
        {
          "internalType": "uint256",
          "name": "",
          "type": "uint256"
        }
      ],
      "stateMutability": "pure",
      "type": "function"
    },
    {
      "inputs": [],
      "name": "votingPeriod",
      "outputs": [
        {
          "internalType": "uint256",
          "name": "",
          "type": "uint256"
        }
      ],
      "stateMutability": "pure",
      "type": "function"
    },
    {
      "inputs": [
        {
          "internalType": "uint256",
          "name": "blockNumber",
          "type": "uint256"
        }
      ],
      "name": "quorum",
      "outputs": [
        {
          "internalType": "uint256",
          "name": "",
          "type": "uint256"
        }
      ],
      "stateMutability": "view",
      "type": "function"
    },
    {
      "inputs": [
        {
          "internalType": "uint256",
          "name": "proposalId",
          "type": "uint256"
        }
      ],
      "name": "state",
      "outputs": [
        {
          "internalType": "enum IGovernor.ProposalState",
          "name": "",
          "type": "uint8"
        }
      ],
      "stateMutability": "view",
      "type": "function"
    },
    {
      "inputs": [
        {
          "internalType": "address[]",
          "name": "targets",
          "type": "address[]"
        },
        {
          "internalType": "uint256[]",
          "name": "values",
          "type": "uint256[]"
        },
        {
          "internalType": "bytes[]",
          "name": "calldatas",
          "type": "bytes[]"
        },
        {
          "internalType": "string",
          "name": "description",
          "type": "string"
        }
      ],
      "name": "propose",
      "outputs": [
        {
          "internalType": "uint256",
          "name": "",
          "type": "uint256"
        }
      ],
      "stateMutability": "nonpayable",
      "type": "function"
    },
    {
      "inputs": [
        {
          "internalType": "bytes4",
          "name": "interfaceId",
          "type": "bytes4"
        }
      ],
      "name": "supportsInterface",
      "outputs": [
        {
          "internalType": "bool",
          "name": "",
          "type": "bool"
        }
      ],
      "stateMutability": "view",
      "type": "function"
    }
  ],
  "bytecode": "0x6101806040523480156200001257600080fd5b50604051620089ec380380620089ec833981810160405281019062000038919062000cf5565b600482826040518060400160405280600a81526020017f4d79476f7665726e6f72000000000000000000000000000000000000000000008152508062000083620001a860201b60201c565b62000099600083620001e560201b90919060201c565b60e08181525050620000b6600182620001e560201b90919060201c565b610100818152505081805190602001206101208181525050808051906020012061014081815250504660a08181525050620000f66200023d60201b60201c565b608081815250503073ffffffffffffffffffffffffffffffffffffffff1660c08173ffffffffffffffffffffffffffffffffffffffff16815250505050806002908162000144919062000fb6565b505062000157816200029b60201b60201c565b508073ffffffffffffffffffffffffffffffffffffffff166101608173ffffffffffffffffffffffffffffffffffffffff1681525050506200019f816200033c60201b60201c565b505050620016bd565b60606040518060400160405280600181526020017f3100000000000000000000000000000000000000000000000000000000000000815250905090565b60006020835110156200020b5762000203836200054a60201b60201c565b905062000237565b826200021d83620005b760201b60201c565b60000190816200022e919062000fb6565b5060ff60001b90505b92915050565b60007f8b73c3c69bb8fe3d512ecc4cf759cc79239f7b179b0ffacaa9a75d522b39400f6101205161014051463060405160200162000280959493929190620010da565b60405160208183030381529060405280519060200120905090565b7f08f74ea46ef7894f65eabfb5e6e695de773a000b47c529ab559178069b226401600660009054906101000a900473ffffffffffffffffffffffffffffffffffffffff1682604051620002f092919062001137565b60405180910390a180600660006101000a81548173ffffffffffffffffffffffffffffffffffffffff021916908373ffffffffffffffffffffffffffffffffffffffff16021790555050565b6200034c620005c160201b60201c565b81111562000391576040517f08c379a0000000000000000000000000000000000000000000000000000000008152600401620003889062001211565b60405180910390fd5b6000620003a3620005ca60201b60201c565b905060008114158015620003bf57506000600960000180549050145b15620004ba5760096000016040518060400160405280600063ffffffff168152602001620003f3846200061b60201b60201c565b7bffffffffffffffffffffffffffffffffffffffffffffffffffffffff168152509080600181540180825580915050600190039060005260206000200160009091909190915060008201518160000160006101000a81548163ffffffff021916908363ffffffff16021790555060208201518160000160046101000a8154817bffffffffffffffffffffffffffffffffffffffffffffffffffffffff02191690837bffffffffffffffffffffffffffffffffffffffffffffffffffffffff16021790555050505b62000509620004e6620004d26200068960201b60201c565b65ffffffffffff166200071f60201b60201c565b620004f7846200061b60201b60201c565b60096200077560201b9092919060201c565b50507f0553476bf02ef2726e8ce5ced78d63e26e602e4a2257b1f559418e24b463399781836040516200053e92919062001233565b60405180910390a15050565b600080829050601f815111156200059a57826040517f305a27a9000000000000000000000000000000000000000000000000000000008152600401620005919190620012de565b60405180910390fd5b805181620005a89062001334565b60001c1760001b915050919050565b6000819050919050565b60006064905090565b600080600960000180549050146200061257620005ee60096200079a60201b60201c565b7bffffffffffffffffffffffffffffffffffffffffffffffffffffffff1662000616565b6008545b905090565b60007bffffffffffffffffffffffffffffffffffffffffffffffffffffffff801682111562000681576040517f08c379a000000000000000000000000000000000000000000000000000000000815260040162000678906200141a565b60405180910390fd5b819050919050565b60006101605173ffffffffffffffffffffffffffffffffffffffff166391ddadf46040518163ffffffff1660e01b8152600401602060405180830381865afa925050508015620006f957506040513d601f19601f82011682018060405250810190620006f691906200147f565b60015b62000717576200070f436200081060201b60201c565b90506200071c565b809150505b90565b600063ffffffff80168211156200076d576040517f08c379a0000000000000000000000000000000000000000000000000000000008152600401620007649062001527565b60405180910390fd5b819050919050565b6000806200078e8560000185856200086860201b60201c565b91509150935093915050565b60008082600001805490509050600081146200080557620007d383600001600183620007c7919062001578565b62000c0960201b60201c565b60000160049054906101000a90047bffffffffffffffffffffffffffffffffffffffffffffffffffffffff1662000808565b60005b915050919050565b600065ffffffffffff801682111562000860576040517f08c379a0000000000000000000000000000000000000000000000000000000008152600401620008579062001629565b60405180910390fd5b819050919050565b600080600085805490509050600081111562000b19576000620008a08760018462000894919062001578565b62000c0960201b60201c565b6040518060400160405290816000820160009054906101000a900463ffffffff1663ffffffff1663ffffffff1681526020016000820160049054906101000a90047bffffffffffffffffffffffffffffffffffffffffffffffffffffffff167bffffffffffffffffffffffffffffffffffffffffffffffffffffffff167bffffffffffffffffffffffffffffffffffffffffffffffffffffffff168152505090508563ffffffff16816000015163ffffffff16111562000997576040517f08c379a00000000000000000000000000000000000000000000000000000000081526004016200098e906200169b565b60405180910390fd5b8563ffffffff16816000015163ffffffff160362000a275784620009d088600185620009c4919062001578565b62000c0960201b60201c565b60000160046101000a8154817bffffffffffffffffffffffffffffffffffffffffffffffffffffffff02191690837bffffffffffffffffffffffffffffffffffffffffffffffffffffffff16021790555062000b07565b8660405180604001604052808863ffffffff168152602001877bffffffffffffffffffffffffffffffffffffffffffffffffffffffff168152509080600181540180825580915050600190039060005260206000200160009091909190915060008201518160000160006101000a81548163ffffffff021916908363ffffffff16021790555060208201518160000160046101000a8154817bffffffffffffffffffffffffffffffffffffffffffffffffffffffff02191690837bffffffffffffffffffffffffffffffffffffffffffffffffffffffff16021790555050505b80602001518593509350505062000c01565b8560405180604001604052808763ffffffff168152602001867bffffffffffffffffffffffffffffffffffffffffffffffffffffffff168152509080600181540180825580915050600190039060005260206000200160009091909190915060008201518160000160006101000a81548163ffffffff021916908363ffffffff16021790555060208201518160000160046101000a8154817bffffffffffffffffffffffffffffffffffffffffffffffffffffffff02191690837bffffffffffffffffffffffffffffffffffffffffffffffffffffffff160217905550505060008492509250505b935093915050565b60008260005281602060002001905092915050565b600080fd5b600073ffffffffffffffffffffffffffffffffffffffff82169050919050565b600062000c508262000c23565b9050919050565b600062000c648262000c43565b9050919050565b62000c768162000c57565b811462000c8257600080fd5b50565b60008151905062000c968162000c6b565b92915050565b600062000ca98262000c23565b9050919050565b600062000cbd8262000c9c565b9050919050565b62000ccf8162000cb0565b811462000cdb57600080fd5b50565b60008151905062000cef8162000cc4565b92915050565b6000806040838503121562000d0f5762000d0e62000c1e565b5b600062000d1f8582860162000c85565b925050602062000d328582860162000cde565b9150509250929050565b600081519050919050565b7f4e487b7100000000000000000000000000000000000000000000000000000000600052604160045260246000fd5b7f4e487b7100000000000000000000000000000000000000000000000000000000600052602260045260246000fd5b6000600282049050600182168062000dbe57607f821691505b60208210810362000dd45762000dd362000d76565b5b50919050565b60008190508160005260206000209050919050565b60006020601f8301049050919050565b600082821b905092915050565b60006008830262000e3e7fffffffffffffffffffffffffffffffffffffffffffffffffffffffffffffffff8262000dff565b62000e4a868362000dff565b95508019841693508086168417925050509392505050565b6000819050919050565b6000819050919050565b600062000e9762000e9162000e8b8462000e62565b62000e6c565b62000e62565b9050919050565b6000819050919050565b62000eb38362000e76565b62000ecb62000ec28262000e9e565b84845462000e0c565b825550505050565b600090565b62000ee262000ed3565b62000eef81848462000ea8565b505050565b5b8181101562000f175762000f0b60008262000ed8565b60018101905062000ef5565b5050565b601f82111562000f665762000f308162000dda565b62000f3b8462000def565b8101602085101562000f4b578190505b62000f6362000f5a8562000def565b83018262000ef4565b50505b505050565b600082821c905092915050565b600062000f8b6000198460080262000f6b565b1980831691505092915050565b600062000fa6838362000f78565b9150826002028217905092915050565b62000fc18262000d3c565b67ffffffffffffffff81111562000fdd5762000fdc62000d47565b5b62000fe9825462000da5565b62000ff682828562000f1b565b600060209050601f8311600181146200102e576000841562001019578287015190505b62001025858262000f98565b86555062001095565b601f1984166200103e8662000dda565b60005b82811015620010685784890151825560018201915060208501945060208101905062001041565b8683101562001088578489015162001084601f89168262000f78565b8355505b6001600288020188555050505b505050505050565b6000819050919050565b620010b2816200109d565b82525050565b620010c38162000e62565b82525050565b620010d48162000c43565b82525050565b600060a082019050620010f16000830188620010a7565b620011006020830187620010a7565b6200110f6040830186620010a7565b6200111e6060830185620010b8565b6200112d6080830184620010c9565b9695505050505050565b60006040820190506200114e6000830185620010c9565b6200115d6020830184620010c9565b9392505050565b600082825260208201905092915050565b7f476f7665726e6f72566f74657351756f72756d4672616374696f6e3a2071756f60008201527f72756d4e756d657261746f72206f7665722071756f72756d44656e6f6d696e6160208201527f746f720000000000000000000000000000000000000000000000000000000000604082015250565b6000620011f960438362001164565b9150620012068262001175565b606082019050919050565b600060208201905081810360008301526200122c81620011ea565b9050919050565b60006040820190506200124a6000830185620010b8565b620012596020830184620010b8565b9392505050565b60005b838110156200128057808201518184015260208101905062001263565b60008484015250505050565b6000601f19601f8301169050919050565b6000620012aa8262000d3c565b620012b6818562001164565b9350620012c881856020860162001260565b620012d3816200128c565b840191505092915050565b60006020820190508181036000830152620012fa81846200129d565b905092915050565b600081519050919050565b6000819050602082019050919050565b60006200132b82516200109d565b80915050919050565b6000620013418262001302565b826200134d846200130d565b90506200135a816200131d565b925060208210156200139d57620013987fffffffffffffffffffffffffffffffffffffffffffffffffffffffffffffffff8360200360080262000dff565b831692505b5050919050565b7f53616665436173743a2076616c756520646f65736e27742066697420696e203260008201527f3234206269747300000000000000000000000000000000000000000000000000602082015250565b60006200140260278362001164565b91506200140f82620013a4565b604082019050919050565b600060208201905081810360008301526200143581620013f3565b9050919050565b600065ffffffffffff82169050919050565b62001459816200143c565b81146200146557600080fd5b50565b60008151905062001479816200144e565b92915050565b60006020828403121562001498576200149762000c1e565b5b6000620014a88482850162001468565b91505092915050565b7f53616665436173743a2076616c756520646f65736e27742066697420696e203360008201527f3220626974730000000000000000000000000000000000000000000000000000602082015250565b60006200150f60268362001164565b91506200151c82620014b1565b604082019050919050565b60006020820190508181036000830152620015428162001500565b9050919050565b7f4e487b7100000000000000000000000000000000000000000000000000000000600052601160045260246000fd5b6000620015858262000e62565b9150620015928362000e62565b9250828203905081811115620015ad57620015ac62001549565b5b92915050565b7f53616665436173743a2076616c756520646f65736e27742066697420696e203460008201527f3820626974730000000000000000000000000000000000000000000000000000602082015250565b60006200161160268362001164565b91506200161e82620015b3565b604082019050919050565b60006020820190508181036000830152620016448162001602565b9050919050565b7f436865636b706f696e743a2064656372656173696e67206b6579730000000000600082015250565b600062001683601b8362001164565b915062001690826200164b565b602082019050919050565b60006020820190508181036000830152620016b68162001674565b9050919050565b60805160a05160c05160e051610100516101205161014051610160516172ad6200173f600039600081816114b30152818161198f01528181611f4801528181612efd01526130f70152600061406b0152600061404a015260006118d00152600061189c01526000613369015260006133bf015260006133e801526172ad6000f3fe6080604052600436106102555760003560e01c80637b3c71d311610139578063bc197c81116100b6578063dd4e2ba51161007a578063dd4e2ba514610a0e578063deaaa7cc14610a39578063eb9019d414610a64578063f23a6e6114610aa1578063f8ce560a14610ade578063fc0c546a14610b1b5761029b565b8063bc197c8114610910578063c01f9e371461094d578063c28bc2fa1461098a578063c59057e4146109a6578063d33219b4146109e35761029b565b80639a802a6d116100fd5780639a802a6d14610817578063a7713a7014610854578063a890c9101461087f578063ab58fb8e146108a8578063b58131b0146108e55761029b565b80637b3c71d3146107165780637d5e81e21461075357806384b0196e1461079057806391ddadf4146107c157806397c3d334146107ec5761029b565b80633932abb1116101d25780634bf5d7e9116101965780634bf5d7e9146105ca578063544ffc9c146105f557806354fd4d5014610634578063567813881461065f5780635f398a141461069c57806360c4247f146106d95761029b565b80633932abb1146104ab5780633bccf4fd146104d65780633e4f49e6146105135780634385963214610550578063452115d61461058d5761029b565b8063150b7a0211610219578063150b7a0214610399578063160cbed7146103d65780632656227d146104135780632d63f693146104435780632fe3e261146104805761029b565b806301ffc9a7146102a057806302a251a3146102dd578063034201811461030857806306f3f9e61461034557806306fdde031461036e5761029b565b3661029b573073ffffffffffffffffffffffffffffffffffffffff16610279610b46565b73ffffffffffffffffffffffffffffffffffffffff161461029957600080fd5b005b600080fd5b3480156102ac57600080fd5b506102c760048036038101906102c291906147e9565b610b55565b6040516102d49190614831565b60405180910390f35b3480156102e957600080fd5b506102f2610b67565b6040516102ff9190614865565b60405180910390f35b34801561031457600080fd5b5061032f600480360381019061032a9190614ac1565b610b71565b60405161033c9190614865565b60405180910390f35b34801561035157600080fd5b5061036c60048036038101906103679190614b9f565b610c56565b005b34801561037a57600080fd5b50610383610d4d565b6040516103909190614c4b565b60405180910390f35b3480156103a557600080fd5b506103c060048036038101906103bb9190614ccb565b610ddf565b6040516103cd9190614d5d565b60405180910390f35b3480156103e257600080fd5b506103fd60048036038101906103f89190614fdf565b610df3565b60405161040a9190614865565b60405180910390f35b61042d60048036038101906104289190614fdf565b6110ad565b60405161043a9190614865565b60405180910390f35b34801561044f57600080fd5b5061046a60048036038101906104659190614b9f565b6111fb565b6040516104779190614865565b60405180910390f35b34801561048c57600080fd5b50610495611239565b6040516104a291906150a9565b60405180910390f35b3480156104b757600080fd5b506104c061125d565b6040516104cd9190614865565b60405180910390f35b3480156104e257600080fd5b506104fd60048036038101906104f891906150c4565b611266565b60405161050a9190614865565b60405180910390f35b34801561051f57600080fd5b5061053a60048036038101906105359190614b9f565b6112f0565b60405161054791906151b6565b60405180910390f35b34801561055c57600080fd5b50610577600480360381019061057291906151d1565b611302565b6040516105849190614831565b60405180910390f35b34801561059957600080fd5b506105b460048036038101906105af9190614fdf565b61136d565b6040516105c19190614865565b60405180910390f35b3480156105d657600080fd5b506105df6114af565b6040516105ec9190614c4b565b60405180910390f35b34801561060157600080fd5b5061061c60048036038101906106179190614b9f565b611587565b60405161062b93929190615211565b60405180910390f35b34801561064057600080fd5b506106496115bf565b6040516106569190614c4b565b60405180910390f35b34801561066b57600080fd5b5061068660048036038101906106819190615248565b6115fc565b6040516106939190614865565b60405180910390f35b3480156106a857600080fd5b506106c360048036038101906106be9190615288565b61162d565b6040516106d09190614865565b60405180910390f35b3480156106e557600080fd5b5061070060048036038101906106fb9190614b9f565b611697565b60405161070d9190614865565b60405180910390f35b34801561072257600080fd5b5061073d6004803603810190610738919061532c565b611809565b60405161074a9190614865565b60405180910390f35b34801561075f57600080fd5b5061077a60048036038101906107759190615441565b611871565b6040516107879190614865565b60405180910390f35b34801561079c57600080fd5b506107a5611889565b6040516107b89796959493929190615620565b60405180910390f35b3480156107cd57600080fd5b506107d661198b565b6040516107e391906156c5565b60405180910390f35b3480156107f857600080fd5b50610801611a31565b60405161080e9190614865565b60405180910390f35b34801561082357600080fd5b5061083e600480360381019061083991906156e0565b611a3a565b60405161084b9190614865565b60405180910390f35b34801561086057600080fd5b50610869611a50565b6040516108769190614865565b60405180910390f35b34801561088b57600080fd5b506108a660048036038101906108a1919061579f565b611a97565b005b3480156108b457600080fd5b506108cf60048036038101906108ca9190614b9f565b611b8e565b6040516108dc9190614865565b60405180910390f35b3480156108f157600080fd5b506108fa611c5b565b6040516109079190614865565b60405180910390f35b34801561091c57600080fd5b50610937600480360381019061093291906157cc565b611c60565b6040516109449190614d5d565b60405180910390f35b34801561095957600080fd5b50610974600480360381019061096f9190614b9f565b611c75565b6040516109819190614865565b60405180910390f35b6109a4600480360381019061099f91906158f1565b611cb3565b005b3480156109b257600080fd5b506109cd60048036038101906109c89190614fdf565b611e3c565b6040516109da9190614865565b60405180910390f35b3480156109ef57600080fd5b506109f8611e78565b604051610a059190615965565b60405180910390f35b348015610a1a57600080fd5b50610a23611ea2565b604051610a309190614c4b565b60405180910390f35b348015610a4557600080fd5b50610a4e611edf565b604051610a5b91906150a9565b60405180910390f35b348015610a7057600080fd5b50610a8b6004803603810190610a869190615980565b611f03565b604051610a989190614865565b60405180910390f35b348015610aad57600080fd5b50610ac86004803603810190610ac391906159c0565b611f1f565b604051610ad59190614d5d565b60405180910390f35b348015610aea57600080fd5b50610b056004803603810190610b009190614b9f565b611f34565b604051610b129190614865565b60405180910390f35b348015610b2757600080fd5b50610b30611f46565b604051610b3d9190615ab6565b60405180910390f35b6000610b50611f6a565b905090565b6000610b6082611f94565b9050919050565b600061b2fa905090565b600080610bf4610bec7fb3b3f3b703cd84ce352197dcff232b1b5d3cfb2025ce47cf04742d0651f1af888c8c8c8c604051610bad929190615b01565b60405180910390208b80519060200120604051602001610bd1959493929190615b29565b6040516020818303038152906040528051906020012061200e565b868686612028565b9050610c478a828b8b8b8080601f016020809104026020016040519081016040528093929190818152602001838380828437600081840152601f19601f820116905080830192505050505050508a612053565b91505098975050505050505050565b610c5e610b46565b73ffffffffffffffffffffffffffffffffffffffff16610c7c6121df565b73ffffffffffffffffffffffffffffffffffffffff1614610cd2576040517f08c379a0000000000000000000000000000000000000000000000000000000008152600401610cc990615bc8565b60405180910390fd5b3073ffffffffffffffffffffffffffffffffffffffff16610cf1610b46565b73ffffffffffffffffffffffffffffffffffffffff1614610d41576000610d166121e7565b604051610d24929190615b01565b604051809103902090505b80610d3a60046121f4565b03610d2f57505b610d4a816122d0565b50565b606060028054610d5c90615c17565b80601f0160208091040260200160405190810160405280929190818152602001828054610d8890615c17565b8015610dd55780601f10610daa57610100808354040283529160200191610dd5565b820191906000526020600020905b815481529060010190602001808311610db857829003601f168201915b5050505050905090565b600063150b7a0260e01b9050949350505050565b600080610e0286868686611e3c565b905060046007811115610e1857610e1761513f565b5b610e21826112f0565b6007811115610e3357610e3261513f565b5b14610e73576040517f08c379a0000000000000000000000000000000000000000000000000000000008152600401610e6a90615cba565b60405180910390fd5b6000600660009054906101000a900473ffffffffffffffffffffffffffffffffffffffff1673ffffffffffffffffffffffffffffffffffffffff1663f27a0c926040518163ffffffff1660e01b8152600401602060405180830381865afa158015610ee2573d6000803e3d6000fd5b505050506040513d601f19601f82011682018060405250810190610f069190615cef565b9050600660009054906101000a900473ffffffffffffffffffffffffffffffffffffffff1673ffffffffffffffffffffffffffffffffffffffff1663b1c5f4278888886000896040518663ffffffff1660e01b8152600401610f6c959493929190615f39565b602060405180830381865afa158015610f89573d6000803e3d6000fd5b505050506040513d601f19601f82011682018060405250810190610fad9190615fb6565b6007600084815260200190815260200160002081905550600660009054906101000a900473ffffffffffffffffffffffffffffffffffffffff1673ffffffffffffffffffffffffffffffffffffffff16638f2a0bb0888888600089876040518763ffffffff1660e01b815260040161102a96959493929190615fe3565b600060405180830381600087803b15801561104457600080fd5b505af1158015611058573d6000803e3d6000fd5b505050507f9a2e42fd6722813d69113e7d0079d3d940171428df7373df9c7f7617cfda289282824261108a9190616088565b6040516110989291906160bc565b60405180910390a18192505050949350505050565b6000806110bc86868686611e3c565b905060006110c9826112f0565b9050600460078111156110df576110de61513f565b5b8160078111156110f2576110f161513f565b5b148061112257506005600781111561110d5761110c61513f565b5b8160078111156111205761111f61513f565b5b145b611161576040517f08c379a000000000000000000000000000000000000000000000000000000000815260040161115890615cba565b60405180910390fd5b60016003600084815260200190815260200160002060020160006101000a81548160ff0219169083151502179055507f712ae1383f79ac853f8d882153778e0260ef8f03b504e2866e0593e04d2b291f826040516111bf9190614865565b60405180910390a16111d482888888886124a5565b6111e18288888888612588565b6111ee828888888861259c565b8192505050949350505050565b60006003600083815260200190815260200160002060000160009054906101000a900467ffffffffffffffff1667ffffffffffffffff169050919050565b7fb3b3f3b703cd84ce352197dcff232b1b5d3cfb2025ce47cf04742d0651f1af8881565b60006001905090565b6000806112c76112bf7f150214d74d59b7d1e90c73fc22ef3d991dd0a76b046543d4d80ab92d2a50328f89896040516020016112a4939291906160e5565b6040516020818303038152906040528051906020012061200e565b868686612028565b90506112e4878288604051806020016040528060008152506125f7565b91505095945050505050565b60006112fb82612617565b9050919050565b6000600a600084815260200190815260200160002060030160008373ffffffffffffffffffffffffffffffffffffffff1673ffffffffffffffffffffffffffffffffffffffff16815260200190815260200160002060009054906101000a900460ff16905092915050565b60008061137c86868686611e3c565b9050600060078111156113925761139161513f565b5b61139b826112f0565b60078111156113ad576113ac61513f565b5b146113ed576040517f08c379a00000000000000000000000000000000000000000000000000000000081526004016113e490616168565b60405180910390fd5b6003600082815260200190815260200160002060000160089054906101000a900473ffffffffffffffffffffffffffffffffffffffff1673ffffffffffffffffffffffffffffffffffffffff166114426121df565b73ffffffffffffffffffffffffffffffffffffffff1614611498576040517f08c379a000000000000000000000000000000000000000000000000000000000815260040161148f906161fa565b60405180910390fd5b6114a4868686866127ea565b915050949350505050565b60607f000000000000000000000000000000000000000000000000000000000000000073ffffffffffffffffffffffffffffffffffffffff16634bf5d7e96040518163ffffffff1660e01b8152600401600060405180830381865afa92505050801561153e57506040513d6000823e3d601f19601f8201168201806040525081019061153b919061628a565b60015b61157f576040518060400160405280601d81526020017f6d6f64653d626c6f636b6e756d6265722666726f6d3d64656661756c740000008152509050611584565b809150505b90565b600080600080600a60008681526020019081526020016000209050806000015481600101548260020154935093509350509193909250565b60606040518060400160405280600181526020017f3100000000000000000000000000000000000000000000000000000000000000815250905090565b6000806116076121df565b9050611624848285604051806020016040528060008152506125f7565b91505092915050565b6000806116386121df565b905061168b87828888888080601f016020809104026020016040519081016040528093929190818152602001838380828437600081840152601f19601f8201169050808301925050505050505087612053565b91505095945050505050565b6000806009600001805490509050600081036116b857600854915050611804565b600060096000016001836116cc91906162d3565b815481106116dd576116dc616307565b5b906000526020600020016040518060400160405290816000820160009054906101000a900463ffffffff1663ffffffff1663ffffffff1681526020016000820160049054906101000a90047bffffffffffffffffffffffffffffffffffffffffffffffffffffffff167bffffffffffffffffffffffffffffffffffffffffffffffffffffffff167bffffffffffffffffffffffffffffffffffffffffffffffffffffffff1681525050905083816000015163ffffffff16116117c55780602001517bffffffffffffffffffffffffffffffffffffffffffffffffffffffff1692505050611804565b6117e16117d185612802565b600961285590919063ffffffff16565b7bffffffffffffffffffffffffffffffffffffffffffffffffffffffff16925050505b919050565b6000806118146121df565b905061186686828787878080601f016020809104026020016040519081016040528093929190818152602001838380828437600081840152601f19601f820116905080830192505050505050506125f7565b915050949350505050565b600061187f8585858561294b565b9050949350505050565b6000606080600080600060606118c960007f0000000000000000000000000000000000000000000000000000000000000000612df490919063ffffffff16565b6118fd60017f0000000000000000000000000000000000000000000000000000000000000000612df490919063ffffffff16565b46306000801b600067ffffffffffffffff81111561191e5761191d614960565b5b60405190808252806020026020018201604052801561194c5781602001602082028036833780820191505090505b507f0f00000000000000000000000000000000000000000000000000000000000000959493929190965096509650965096509650965090919293949596565b60007f000000000000000000000000000000000000000000000000000000000000000073ffffffffffffffffffffffffffffffffffffffff166391ddadf46040518163ffffffff1660e01b8152600401602060405180830381865afa925050508015611a1557506040513d601f19601f82011682018060405250810190611a129190616362565b60015b611a2957611a2243612ea4565b9050611a2e565b809150505b90565b60006064905090565b6000611a47848484612ef9565b90509392505050565b60008060096000018054905014611a8e57611a6b6009612fa0565b7bffffffffffffffffffffffffffffffffffffffffffffffffffffffff16611a92565b6008545b905090565b611a9f610b46565b73ffffffffffffffffffffffffffffffffffffffff16611abd6121df565b73ffffffffffffffffffffffffffffffffffffffff1614611b13576040517f08c379a0000000000000000000000000000000000000000000000000000000008152600401611b0a90615bc8565b60405180910390fd5b3073ffffffffffffffffffffffffffffffffffffffff16611b32610b46565b73ffffffffffffffffffffffffffffffffffffffff1614611b82576000611b576121e7565b604051611b65929190615b01565b604051809103902090505b80611b7b60046121f4565b03611b7057505b611b8b8161300a565b50565b600080600660009054906101000a900473ffffffffffffffffffffffffffffffffffffffff1673ffffffffffffffffffffffffffffffffffffffff1663d45c443560076000868152602001908152602001600020546040518263ffffffff1660e01b8152600401611bff91906150a9565b602060405180830381865afa158015611c1c573d6000803e3d6000fd5b505050506040513d601f19601f82011682018060405250810190611c409190615cef565b905060018114611c505780611c53565b60005b915050919050565b600090565b600063bc197c8160e01b905095945050505050565b60006003600083815260200190815260200160002060010160009054906101000a900467ffffffffffffffff1667ffffffffffffffff169050919050565b611cbb610b46565b73ffffffffffffffffffffffffffffffffffffffff16611cd96121df565b73ffffffffffffffffffffffffffffffffffffffff1614611d2f576040517f08c379a0000000000000000000000000000000000000000000000000000000008152600401611d2690615bc8565b60405180910390fd5b3073ffffffffffffffffffffffffffffffffffffffff16611d4e610b46565b73ffffffffffffffffffffffffffffffffffffffff1614611d9e576000611d736121e7565b604051611d81929190615b01565b604051809103902090505b80611d9760046121f4565b03611d8c57505b6000808573ffffffffffffffffffffffffffffffffffffffff16858585604051611dc9929190615b01565b60006040518083038185875af1925050503d8060008114611e06576040519150601f19603f3d011682016040523d82523d6000602084013e611e0b565b606091505b5091509150611e338282604051806060016040528060288152602001617250602891396130a9565b50505050505050565b600084848484604051602001611e55949392919061638f565b6040516020818303038152906040528051906020012060001c9050949350505050565b6000600660009054906101000a900473ffffffffffffffffffffffffffffffffffffffff16905090565b60606040518060400160405280602081526020017f737570706f72743d627261766f2671756f72756d3d666f722c6162737461696e815250905090565b7f150214d74d59b7d1e90c73fc22ef3d991dd0a76b046543d4d80ab92d2a50328f81565b6000611f178383611f126130cb565b612ef9565b905092915050565b600063f23a6e6160e01b905095945050505050565b6000611f3f826130e2565b9050919050565b7f000000000000000000000000000000000000000000000000000000000000000081565b6000600660009054906101000a900473ffffffffffffffffffffffffffffffffffffffff16905090565b60007f6e665ced000000000000000000000000000000000000000000000000000000007bffffffffffffffffffffffffffffffffffffffffffffffffffffffff1916827bffffffffffffffffffffffffffffffffffffffffffffffffffffffff191614806120075750612006826131aa565b5b9050919050565b600061202161201b613365565b8361341c565b9050919050565b60008060006120398787878761345d565b915091506120468161353f565b8192505050949350505050565b6000806003600088815260200190815260200160002090506001600781111561207f5761207e61513f565b5b612088886112f0565b600781111561209a5761209961513f565b5b146120da576040517f08c379a00000000000000000000000000000000000000000000000000000000081526004016120d19061645b565b60405180910390fd5b6000612109878360000160009054906101000a900467ffffffffffffffff1667ffffffffffffffff1686612ef9565b905061211888888884886136a5565b600084510361217a578673ffffffffffffffffffffffffffffffffffffffff167fb8e138887d0aa13bab447e82de9d5c1777041ecd21ca36ba824ff1e6c07ddda48988848960405161216d949392919061647b565b60405180910390a26121d1565b8673ffffffffffffffffffffffffffffffffffffffff167fe2babfbac5889a709b63bb7f598b324e08bc5a4fb9ec647fb3cbc9ec07eb871289888489896040516121c8959493929190616511565b60405180910390a25b809250505095945050505050565b600033905090565b3660008036915091509091565b60006121ff826138a9565b15612236576040517f3db2a12a00000000000000000000000000000000000000000000000000000000815260040160405180910390fd5b60008260000160009054906101000a9004600f0b905082600101600082600f0b600f0b815260200190815260200160002054915082600101600082600f0b600f0b815260200190815260200160002060009055600181018360000160006101000a8154816fffffffffffffffffffffffffffffffff0219169083600f0b6fffffffffffffffffffffffffffffffff16021790555050919050565b6122d8611a31565b81111561231a576040517f08c379a00000000000000000000000000000000000000000000000000000000081526004016123119061660a565b60405180910390fd5b6000612324611a50565b90506000811415801561233f57506000600960000180549050145b156124315760096000016040518060400160405280600063ffffffff16815260200161236a846138de565b7bffffffffffffffffffffffffffffffffffffffffffffffffffffffff168152509080600181540180825580915050600190039060005260206000200160009091909190915060008201518160000160006101000a81548163ffffffff021916908363ffffffff16021790555060208201518160000160046101000a8154817bffffffffffffffffffffffffffffffffffffffffffffffffffffffff02191690837bffffffffffffffffffffffffffffffffffffffffffffffffffffffff16021790555050505b61246661244c61243f61198b565b65ffffffffffff16612802565b612455846138de565b60096139499092919063ffffffff16565b50507f0553476bf02ef2726e8ce5ced78d63e26e602e4a2257b1f559418e24b463399781836040516124999291906160bc565b60405180910390a15050565b3073ffffffffffffffffffffffffffffffffffffffff166124c4610b46565b73ffffffffffffffffffffffffffffffffffffffff16146125815760005b845181101561257f573073ffffffffffffffffffffffffffffffffffffffff1685828151811061251557612514616307565b5b602002602001015173ffffffffffffffffffffffffffffffffffffffff160361256e5761256d83828151811061254e5761254d616307565b5b602002602001015180519060200120600461396690919063ffffffff16565b5b806125789061662a565b90506124e2565b505b5050505050565b61259585858585856139e2565b5050505050565b3073ffffffffffffffffffffffffffffffffffffffff166125bb610b46565b73ffffffffffffffffffffffffffffffffffffffff16146125f0576125e060046138a9565b6125ef576125ee6004613a80565b5b5b5050505050565b600061260d858585856126086130cb565b612053565b9050949350505050565b60008061262383613b01565b9050600460078111156126395761263861513f565b5b81600781111561264c5761264b61513f565b5b1461265a57809150506127e5565b6000600760008581526020019081526020016000205490506000801b81036126865781925050506127e5565b600660009054906101000a900473ffffffffffffffffffffffffffffffffffffffff1673ffffffffffffffffffffffffffffffffffffffff16632ab0f529826040518263ffffffff1660e01b81526004016126e191906150a9565b602060405180830381865afa1580156126fe573d6000803e3d6000fd5b505050506040513d601f19601f82011682018060405250810190612722919061669e565b15612732576007925050506127e5565b600660009054906101000a900473ffffffffffffffffffffffffffffffffffffffff1673ffffffffffffffffffffffffffffffffffffffff1663584b153e826040518263ffffffff1660e01b815260040161278d91906150a9565b602060405180830381865afa1580156127aa573d6000803e3d6000fd5b505050506040513d601f19601f820116820180604052508101906127ce919061669e565b156127de576005925050506127e5565b6002925050505b919050565b60006127f885858585613c2d565b9050949350505050565b600063ffffffff801682111561284d576040517f08c379a00000000000000000000000000000000000000000000000000000000081526004016128449061673d565b60405180910390fd5b819050919050565b6000808360000180549050905060008082905060058311156128d757600061287c84613d1f565b8461288791906162d3565b90506128968760000182613e18565b60000160009054906101000a900463ffffffff1663ffffffff168663ffffffff1610156128c5578091506128d5565b6001816128d29190616088565b92505b505b60006128e887600001878585613e2d565b90506000811461293c5761290b8760000160018361290691906162d3565b613e18565b60000160049054906101000a90047bffffffffffffffffffffffffffffffffffffffffffffffffffffffff1661293f565b60005b94505050505092915050565b6000806129566121df565b9050600061296261198b565b65ffffffffffff169050612974611c5b565b61298a8360018461298591906162d3565b611f03565b10156129cb576040517f08c379a00000000000000000000000000000000000000000000000000000000081526004016129c2906167cf565b60405180910390fd5b60006129e08888888880519060200120611e3c565b90508651885114612a26576040517f08c379a0000000000000000000000000000000000000000000000000000000008152600401612a1d90616861565b60405180910390fd5b8551885114612a6a576040517f08c379a0000000000000000000000000000000000000000000000000000000008152600401612a6190616861565b60405180910390fd5b6000885111612aae576040517f08c379a0000000000000000000000000000000000000000000000000000000008152600401612aa5906168cd565b60405180910390fd5b60006003600083815260200190815260200160002060000160009054906101000a900467ffffffffffffffff1667ffffffffffffffff1614612b25576040517f08c379a0000000000000000000000000000000000000000000000000000000008152600401612b1c9061695f565b60405180910390fd5b6000612b2f61125d565b83612b3a9190616088565b90506000612b46610b67565b82612b519190616088565b90506040518060e00160405280612b6784613ea0565b67ffffffffffffffff1681526020018673ffffffffffffffffffffffffffffffffffffffff168152602001600060e01b7bffffffffffffffffffffffffffffffffffffffffffffffffffffffff19168152602001612bc483613ea0565b67ffffffffffffffff168152602001600060401b67ffffffffffffffff19168152602001600015158152602001600015158152506003600085815260200190815260200160002060008201518160000160006101000a81548167ffffffffffffffff021916908367ffffffffffffffff16021790555060208201518160000160086101000a81548173ffffffffffffffffffffffffffffffffffffffff021916908373ffffffffffffffffffffffffffffffffffffffff160217905550604082015181600001601c6101000a81548163ffffffff021916908360e01c021790555060608201518160010160006101000a81548167ffffffffffffffff021916908367ffffffffffffffff16021790555060808201518160010160086101000a81548177ffffffffffffffffffffffffffffffffffffffffffffffff021916908360401c021790555060a08201518160020160006101000a81548160ff02191690831515021790555060c08201518160020160016101000a81548160ff0219169083151502179055509050507f7d84a6263ae0d98d3329bd7b46bb4e8d6f98cd35a7adb45c274c8b7fd5ebd5e083868c8c8e5167ffffffffffffffff811115612d8f57612d8e614960565b5b604051908082528060200260200182016040528015612dc257816020015b6060815260200190600190039081612dad5790505b508d88888f604051612ddc99989796959493929190616a8b565b60405180910390a18295505050505050949350505050565b606060ff60001b8314612e1157612e0a83613ef7565b9050612e9e565b818054612e1d90615c17565b80601f0160208091040260200160405190810160405280929190818152602001828054612e4990615c17565b8015612e965780601f10612e6b57610100808354040283529160200191612e96565b820191906000526020600020905b815481529060010190602001808311612e7957829003601f168201915b505050505090505b92915050565b600065ffffffffffff8016821115612ef1576040517f08c379a0000000000000000000000000000000000000000000000000000000008152600401612ee890616bad565b60405180910390fd5b819050919050565b60007f000000000000000000000000000000000000000000000000000000000000000073ffffffffffffffffffffffffffffffffffffffff16633a46b1a885856040518363ffffffff1660e01b8152600401612f56929190616bcd565b602060405180830381865afa158015612f73573d6000803e3d6000fd5b505050506040513d601f19601f82011682018060405250810190612f979190615cef565b90509392505050565b6000808260000180549050905060008114612fff57612fce83600001600183612fc991906162d3565b613e18565b60000160049054906101000a90047bffffffffffffffffffffffffffffffffffffffffffffffffffffffff16613002565b60005b915050919050565b7f08f74ea46ef7894f65eabfb5e6e695de773a000b47c529ab559178069b226401600660009054906101000a900473ffffffffffffffffffffffffffffffffffffffff168260405161305d929190616bf6565b60405180910390a180600660006101000a81548173ffffffffffffffffffffffffffffffffffffffff021916908373ffffffffffffffffffffffffffffffffffffffff16021790555050565b606083156130b9578290506130c4565b6130c38383613f6b565b5b9392505050565b606060405180602001604052806000815250905090565b60006130ec611a31565b6130f583611697565b7f000000000000000000000000000000000000000000000000000000000000000073ffffffffffffffffffffffffffffffffffffffff16638e539e8c856040518263ffffffff1660e01b815260040161314e9190614865565b602060405180830381865afa15801561316b573d6000803e3d6000fd5b505050506040513d601f19601f8201168201806040525081019061318f9190615cef565b6131999190616c1f565b6131a39190616c90565b9050919050565b6000639a802a6d60e01b630342018160e01b635f398a1460e01b63452115d660e01b7fda287a1d000000000000000000000000000000000000000000000000000000007fe6d416a40000000000000000000000000000000000000000000000000000000018181818187bffffffffffffffffffffffffffffffffffffffffffffffffffffffff1916827bffffffffffffffffffffffffffffffffffffffffffffffffffffffff191614806132e6575063452115d660e01b7fda287a1d000000000000000000000000000000000000000000000000000000007fe6d416a40000000000000000000000000000000000000000000000000000000018187bffffffffffffffffffffffffffffffffffffffffffffffffffffffff1916827bffffffffffffffffffffffffffffffffffffffffffffffffffffffff1916145b8061334e57507f4e2312e0000000000000000000000000000000000000000000000000000000007bffffffffffffffffffffffffffffffffffffffffffffffffffffffff1916827bffffffffffffffffffffffffffffffffffffffffffffffffffffffff1916145b8061335e575061335d82613fbb565b5b9050919050565b60007f000000000000000000000000000000000000000000000000000000000000000073ffffffffffffffffffffffffffffffffffffffff163073ffffffffffffffffffffffffffffffffffffffff161480156133e157507f000000000000000000000000000000000000000000000000000000000000000046145b1561340e577f00000000000000000000000000000000000000000000000000000000000000009050613419565b613416614025565b90505b90565b60006040517f190100000000000000000000000000000000000000000000000000000000000081528360028201528260228201526042812091505092915050565b6000807f7fffffffffffffffffffffffffffffff5d576e7357a4501ddfe92f46681b20a08360001c1115613498576000600391509150613536565b6000600187878787604051600081526020016040526040516134bd9493929190616cc1565b6020604051602081039080840390855afa1580156134df573d6000803e3d6000fd5b505050602060405103519050600073ffffffffffffffffffffffffffffffffffffffff168173ffffffffffffffffffffffffffffffffffffffff160361352d57600060019250925050613536565b80600092509250505b94509492505050565b600060048111156135535761355261513f565b5b8160048111156135665761356561513f565b5b03156136a257600160048111156135805761357f61513f565b5b8160048111156135935761359261513f565b5b036135d3576040517f08c379a00000000000000000000000000000000000000000000000000000000081526004016135ca90616d52565b60405180910390fd5b600260048111156135e7576135e661513f565b5b8160048111156135fa576135f961513f565b5b0361363a576040517f08c379a000000000000000000000000000000000000000000000000000000000815260040161363190616dbe565b60405180910390fd5b6003600481111561364e5761364d61513f565b5b8160048111156136615761366061513f565b5b036136a1576040517f08c379a000000000000000000000000000000000000000000000000000000000815260040161369890616e50565b60405180910390fd5b5b50565b6000600a600087815260200190815260200160002090508060030160008673ffffffffffffffffffffffffffffffffffffffff1673ffffffffffffffffffffffffffffffffffffffff16815260200190815260200160002060009054906101000a900460ff161561374b576040517f08c379a000000000000000000000000000000000000000000000000000000000815260040161374290616ee2565b60405180910390fd5b60018160030160008773ffffffffffffffffffffffffffffffffffffffff1673ffffffffffffffffffffffffffffffffffffffff16815260200190815260200160002060006101000a81548160ff021916908315150217905550600060028111156137b9576137b861513f565b5b60ff168460ff16036137e557828160000160008282546137d99190616088565b925050819055506138a1565b600160028111156137f9576137f861513f565b5b60ff168460ff160361382557828160010160008282546138199190616088565b925050819055506138a0565b6002808111156138385761383761513f565b5b60ff168460ff160361386457828160020160008282546138589190616088565b9250508190555061389f565b6040517f08c379a000000000000000000000000000000000000000000000000000000000815260040161389690616f74565b60405180910390fd5b5b5b505050505050565b60008160000160009054906101000a9004600f0b600f0b8260000160109054906101000a9004600f0b600f0b13159050919050565b60007bffffffffffffffffffffffffffffffffffffffffffffffffffffffff8016821115613941576040517f08c379a000000000000000000000000000000000000000000000000000000000815260040161393890617006565b60405180910390fd5b819050919050565b60008061395a8560000185856140bb565b91509150935093915050565b60008260000160109054906101000a9004600f0b90508183600101600083600f0b600f0b815260200190815260200160002081905550600181018360000160106101000a8154816fffffffffffffffffffffffffffffffff0219169083600f0b6fffffffffffffffffffffffffffffffff160217905550505050565b600660009054906101000a900473ffffffffffffffffffffffffffffffffffffffff1673ffffffffffffffffffffffffffffffffffffffff1663e38335e5348686866000876040518763ffffffff1660e01b8152600401613a47959493929190615f39565b6000604051808303818588803b158015613a6057600080fd5b505af1158015613a74573d6000803e3d6000fd5b50505050505050505050565b60008160000160006101000a8154816fffffffffffffffffffffffffffffffff0219169083600f0b6fffffffffffffffffffffffffffffffff16021790555060008160000160106101000a8154816fffffffffffffffffffffffffffffffff0219169083600f0b6fffffffffffffffffffffffffffffffff16021790555050565b6000806003600084815260200190815260200160002090508060020160009054906101000a900460ff1615613b3a576007915050613c28565b8060020160019054906101000a900460ff1615613b5b576002915050613c28565b6000613b66846111fb565b905060008103613bab576040517f08c379a0000000000000000000000000000000000000000000000000000000008152600401613ba290617072565b60405180910390fd5b6000613bb561198b565b65ffffffffffff169050808210613bd25760009350505050613c28565b6000613bdd86611c75565b9050818110613bf3576001945050505050613c28565b613bfc86614441565b8015613c0d5750613c0c86614488565b5b15613c1f576004945050505050613c28565b60039450505050505b919050565b600080613c3c868686866144b3565b90506000801b600760008381526020019081526020016000205414613d1357600660009054906101000a900473ffffffffffffffffffffffffffffffffffffffff1673ffffffffffffffffffffffffffffffffffffffff1663c4d252f560076000848152602001908152602001600020546040518263ffffffff1660e01b8152600401613cc991906150a9565b600060405180830381600087803b158015613ce357600080fd5b505af1158015613cf7573d6000803e3d6000fd5b5050505060076000828152602001908152602001600020600090555b80915050949350505050565b6000808203613d315760009050613e13565b60006001613d3e8461460d565b901c6001901b90506001818481613d5857613d57616c61565b5b048201901c90506001818481613d7157613d70616c61565b5b048201901c90506001818481613d8a57613d89616c61565b5b048201901c90506001818481613da357613da2616c61565b5b048201901c90506001818481613dbc57613dbb616c61565b5b048201901c90506001818481613dd557613dd4616c61565b5b048201901c90506001818481613dee57613ded616c61565b5b048201901c9050613e0f81828581613e0957613e08616c61565b5b046146ee565b9150505b919050565b60008260005281602060002001905092915050565b60005b81831015613e95576000613e448484614707565b90508463ffffffff16613e578783613e18565b60000160009054906101000a900463ffffffff1663ffffffff161115613e7f57809250613e8f565b600181613e8c9190616088565b93505b50613e30565b819050949350505050565b600067ffffffffffffffff8016821115613eef576040517f08c379a0000000000000000000000000000000000000000000000000000000008152600401613ee690617104565b60405180910390fd5b819050919050565b60606000613f048361472d565b90506000602067ffffffffffffffff811115613f2357613f22614960565b5b6040519080825280601f01601f191660200182016040528015613f555781602001600182028036833780820191505090505b5090508181528360208201528092505050919050565b600082511115613f7e5781518083602001fd5b806040517f08c379a0000000000000000000000000000000000000000000000000000000008152600401613fb29190614c4b565b60405180910390fd5b60007f01ffc9a7000000000000000000000000000000000000000000000000000000007bffffffffffffffffffffffffffffffffffffffffffffffffffffffff1916827bffffffffffffffffffffffffffffffffffffffffffffffffffffffff1916149050919050565b60007f8b73c3c69bb8fe3d512ecc4cf759cc79239f7b179b0ffacaa9a75d522b39400f7f00000000000000000000000000000000000000000000000000000000000000007f000000000000000000000000000000000000000000000000000000000000000046306040516020016140a0959493929190617124565b60405160208183030381529060405280519060200120905090565b60008060008580549050905060008111156143515760006140e8876001846140e391906162d3565b613e18565b6040518060400160405290816000820160009054906101000a900463ffffffff1663ffffffff1663ffffffff1681526020016000820160049054906101000a90047bffffffffffffffffffffffffffffffffffffffffffffffffffffffff167bffffffffffffffffffffffffffffffffffffffffffffffffffffffff167bffffffffffffffffffffffffffffffffffffffffffffffffffffffff168152505090508563ffffffff16816000015163ffffffff1611156141dc576040517f08c379a00000000000000000000000000000000000000000000000000000000081526004016141d3906171c3565b60405180910390fd5b8563ffffffff16816000015163ffffffff1603614260578461420a8860018561420591906162d3565b613e18565b60000160046101000a8154817bffffffffffffffffffffffffffffffffffffffffffffffffffffffff02191690837bffffffffffffffffffffffffffffffffffffffffffffffffffffffff160217905550614340565b8660405180604001604052808863ffffffff168152602001877bffffffffffffffffffffffffffffffffffffffffffffffffffffffff168152509080600181540180825580915050600190039060005260206000200160009091909190915060008201518160000160006101000a81548163ffffffff021916908363ffffffff16021790555060208201518160000160046101000a8154817bffffffffffffffffffffffffffffffffffffffffffffffffffffffff02191690837bffffffffffffffffffffffffffffffffffffffffffffffffffffffff16021790555050505b806020015185935093505050614439565b8560405180604001604052808763ffffffff168152602001867bffffffffffffffffffffffffffffffffffffffffffffffffffffffff168152509080600181540180825580915050600190039060005260206000200160009091909190915060008201518160000160006101000a81548163ffffffff021916908363ffffffff16021790555060208201518160000160046101000a8154817bffffffffffffffffffffffffffffffffffffffffffffffffffffffff02191690837bffffffffffffffffffffffffffffffffffffffffffffffffffffffff160217905550505060008492509250505b935093915050565b600080600a600084815260200190815260200160002090508060020154816001015461446d9190616088565b61447e614479856111fb565b611f34565b1115915050919050565b600080600a600084815260200190815260200160002090508060000154816001015411915050919050565b6000806144c286868686611e3c565b905060006144cf826112f0565b9050600260078111156144e5576144e461513f565b5b8160078111156144f8576144f761513f565b5b1415801561452b5750600660078111156145155761451461513f565b5b8160078111156145285761452761513f565b5b14155b801561455b57506007808111156145455761454461513f565b5b8160078111156145585761455761513f565b5b14155b61459a576040517f08c379a00000000000000000000000000000000000000000000000000000000081526004016145919061722f565b60405180910390fd5b60016003600084815260200190815260200160002060020160016101000a81548160ff0219169083151502179055507f789cf55be980739dad1d0699b93b58e806b51c9d96619bfa8fe0a28abaa7b30c826040516145f89190614865565b60405180910390a18192505050949350505050565b600080600090506000608084901c111561462f57608083901c92506080810190505b6000604084901c111561464a57604083901c92506040810190505b6000602084901c111561466557602083901c92506020810190505b6000601084901c111561468057601083901c92506010810190505b6000600884901c111561469b57600883901c92506008810190505b6000600484901c11156146b657600483901c92506004810190505b6000600284901c11156146d157600283901c92506002810190505b6000600184901c11156146e5576001810190505b80915050919050565b60008183106146fd57816146ff565b825b905092915050565b600060028284186147189190616c90565b8284166147259190616088565b905092915050565b60008060ff8360001c169050601f811115614774576040517fb3512b0c00000000000000000000000000000000000000000000000000000000815260040160405180910390fd5b80915050919050565b6000604051905090565b600080fd5b600080fd5b60007fffffffff0000000000000000000000000000000000000000000000000000000082169050919050565b6147c681614791565b81146147d157600080fd5b50565b6000813590506147e3816147bd565b92915050565b6000602082840312156147ff576147fe614787565b5b600061480d848285016147d4565b91505092915050565b60008115159050919050565b61482b81614816565b82525050565b60006020820190506148466000830184614822565b92915050565b6000819050919050565b61485f8161484c565b82525050565b600060208201905061487a6000830184614856565b92915050565b6148898161484c565b811461489457600080fd5b50565b6000813590506148a681614880565b92915050565b600060ff82169050919050565b6148c2816148ac565b81146148cd57600080fd5b50565b6000813590506148df816148b9565b92915050565b600080fd5b600080fd5b600080fd5b60008083601f84011261490a576149096148e5565b5b8235905067ffffffffffffffff811115614927576149266148ea565b5b602083019150836001820283011115614943576149426148ef565b5b9250929050565b600080fd5b6000601f19601f8301169050919050565b7f4e487b7100000000000000000000000000000000000000000000000000000000600052604160045260246000fd5b6149988261494f565b810181811067ffffffffffffffff821117156149b7576149b6614960565b5b80604052505050565b60006149ca61477d565b90506149d6828261498f565b919050565b600067ffffffffffffffff8211156149f6576149f5614960565b5b6149ff8261494f565b9050602081019050919050565b82818337600083830152505050565b6000614a2e614a29846149db565b6149c0565b905082815260208101848484011115614a4a57614a4961494a565b5b614a55848285614a0c565b509392505050565b600082601f830112614a7257614a716148e5565b5b8135614a82848260208601614a1b565b91505092915050565b6000819050919050565b614a9e81614a8b565b8114614aa957600080fd5b50565b600081359050614abb81614a95565b92915050565b60008060008060008060008060e0898b031215614ae157614ae0614787565b5b6000614aef8b828c01614897565b9850506020614b008b828c016148d0565b975050604089013567ffffffffffffffff811115614b2157614b2061478c565b5b614b2d8b828c016148f4565b9650965050606089013567ffffffffffffffff811115614b5057614b4f61478c565b5b614b5c8b828c01614a5d565b9450506080614b6d8b828c016148d0565b93505060a0614b7e8b828c01614aac565b92505060c0614b8f8b828c01614aac565b9150509295985092959890939650565b600060208284031215614bb557614bb4614787565b5b6000614bc384828501614897565b91505092915050565b600081519050919050565b600082825260208201905092915050565b60005b83811015614c06578082015181840152602081019050614beb565b60008484015250505050565b6000614c1d82614bcc565b614c278185614bd7565b9350614c37818560208601614be8565b614c408161494f565b840191505092915050565b60006020820190508181036000830152614c658184614c12565b905092915050565b600073ffffffffffffffffffffffffffffffffffffffff82169050919050565b6000614c9882614c6d565b9050919050565b614ca881614c8d565b8114614cb357600080fd5b50565b600081359050614cc581614c9f565b92915050565b60008060008060808587031215614ce557614ce4614787565b5b6000614cf387828801614cb6565b9450506020614d0487828801614cb6565b9350506040614d1587828801614897565b925050606085013567ffffffffffffffff811115614d3657614d3561478c565b5b614d4287828801614a5d565b91505092959194509250565b614d5781614791565b82525050565b6000602082019050614d726000830184614d4e565b92915050565b600067ffffffffffffffff821115614d9357614d92614960565b5b602082029050602081019050919050565b6000614db7614db284614d78565b6149c0565b90508083825260208201905060208402830185811115614dda57614dd96148ef565b5b835b81811015614e035780614def8882614cb6565b845260208401935050602081019050614ddc565b5050509392505050565b600082601f830112614e2257614e216148e5565b5b8135614e32848260208601614da4565b91505092915050565b600067ffffffffffffffff821115614e5657614e55614960565b5b602082029050602081019050919050565b6000614e7a614e7584614e3b565b6149c0565b90508083825260208201905060208402830185811115614e9d57614e9c6148ef565b5b835b81811015614ec65780614eb28882614897565b845260208401935050602081019050614e9f565b5050509392505050565b600082601f830112614ee557614ee46148e5565b5b8135614ef5848260208601614e67565b91505092915050565b600067ffffffffffffffff821115614f1957614f18614960565b5b602082029050602081019050919050565b6000614f3d614f3884614efe565b6149c0565b90508083825260208201905060208402830185811115614f6057614f5f6148ef565b5b835b81811015614fa757803567ffffffffffffffff811115614f8557614f846148e5565b5b808601614f928982614a5d565b85526020850194505050602081019050614f62565b5050509392505050565b600082601f830112614fc657614fc56148e5565b5b8135614fd6848260208601614f2a565b91505092915050565b60008060008060808587031215614ff957614ff8614787565b5b600085013567ffffffffffffffff8111156150175761501661478c565b5b61502387828801614e0d565b945050602085013567ffffffffffffffff8111156150445761504361478c565b5b61505087828801614ed0565b935050604085013567ffffffffffffffff8111156150715761507061478c565b5b61507d87828801614fb1565b925050606061508e87828801614aac565b91505092959194509250565b6150a381614a8b565b82525050565b60006020820190506150be600083018461509a565b92915050565b600080600080600060a086880312156150e0576150df614787565b5b60006150ee88828901614897565b95505060206150ff888289016148d0565b9450506040615110888289016148d0565b935050606061512188828901614aac565b925050608061513288828901614aac565b9150509295509295909350565b7f4e487b7100000000000000000000000000000000000000000000000000000000600052602160045260246000fd5b6008811061517f5761517e61513f565b5b50565b60008190506151908261516e565b919050565b60006151a082615182565b9050919050565b6151b081615195565b82525050565b60006020820190506151cb60008301846151a7565b92915050565b600080604083850312156151e8576151e7614787565b5b60006151f685828601614897565b925050602061520785828601614cb6565b9150509250929050565b60006060820190506152266000830186614856565b6152336020830185614856565b6152406040830184614856565b949350505050565b6000806040838503121561525f5761525e614787565b5b600061526d85828601614897565b925050602061527e858286016148d0565b9150509250929050565b6000806000806000608086880312156152a4576152a3614787565b5b60006152b288828901614897565b95505060206152c3888289016148d0565b945050604086013567ffffffffffffffff8111156152e4576152e361478c565b5b6152f0888289016148f4565b9350935050606086013567ffffffffffffffff8111156153135761531261478c565b5b61531f88828901614a5d565b9150509295509295909350565b6000806000806060858703121561534657615345614787565b5b600061535487828801614897565b9450506020615365878288016148d0565b935050604085013567ffffffffffffffff8111156153865761538561478c565b5b615392878288016148f4565b925092505092959194509250565b600067ffffffffffffffff8211156153bb576153ba614960565b5b6153c48261494f565b9050602081019050919050565b60006153e46153df846153a0565b6149c0565b905082815260208101848484011115615400576153ff61494a565b5b61540b848285614a0c565b509392505050565b600082601f830112615428576154276148e5565b5b81356154388482602086016153d1565b91505092915050565b6000806000806080858703121561545b5761545a614787565b5b600085013567ffffffffffffffff8111156154795761547861478c565b5b61548587828801614e0d565b945050602085013567ffffffffffffffff8111156154a6576154a561478c565b5b6154b287828801614ed0565b935050604085013567ffffffffffffffff8111156154d3576154d261478c565b5b6154df87828801614fb1565b925050606085013567ffffffffffffffff811115615500576154ff61478c565b5b61550c87828801615413565b91505092959194509250565b60007fff0000000000000000000000000000000000000000000000000000000000000082169050919050565b61554d81615518565b82525050565b61555c81614c8d565b82525050565b600081519050919050565b600082825260208201905092915050565b6000819050602082019050919050565b6155978161484c565b82525050565b60006155a9838361558e565b60208301905092915050565b6000602082019050919050565b60006155cd82615562565b6155d7818561556d565b93506155e28361557e565b8060005b838110156156135781516155fa888261559d565b9750615605836155b5565b9250506001810190506155e6565b5085935050505092915050565b600060e082019050615635600083018a615544565b81810360208301526156478189614c12565b9050818103604083015261565b8188614c12565b905061566a6060830187614856565b6156776080830186615553565b61568460a083018561509a565b81810360c083015261569681846155c2565b905098975050505050505050565b600065ffffffffffff82169050919050565b6156bf816156a4565b82525050565b60006020820190506156da60008301846156b6565b92915050565b6000806000606084860312156156f9576156f8614787565b5b600061570786828701614cb6565b935050602061571886828701614897565b925050604084013567ffffffffffffffff8111156157395761573861478c565b5b61574586828701614a5d565b9150509250925092565b600061575a82614c6d565b9050919050565b600061576c8261574f565b9050919050565b61577c81615761565b811461578757600080fd5b50565b60008135905061579981615773565b92915050565b6000602082840312156157b5576157b4614787565b5b60006157c38482850161578a565b91505092915050565b600080600080600060a086880312156157e8576157e7614787565b5b60006157f688828901614cb6565b955050602061580788828901614cb6565b945050604086013567ffffffffffffffff8111156158285761582761478c565b5b61583488828901614ed0565b935050606086013567ffffffffffffffff8111156158555761585461478c565b5b61586188828901614ed0565b925050608086013567ffffffffffffffff8111156158825761588161478c565b5b61588e88828901614a5d565b9150509295509295909350565b60008083601f8401126158b1576158b06148e5565b5b8235905067ffffffffffffffff8111156158ce576158cd6148ea565b5b6020830191508360018202830111156158ea576158e96148ef565b5b9250929050565b6000806000806060858703121561590b5761590a614787565b5b600061591987828801614cb6565b945050602061592a87828801614897565b935050604085013567ffffffffffffffff81111561594b5761594a61478c565b5b6159578782880161589b565b925092505092959194509250565b600060208201905061597a6000830184615553565b92915050565b6000806040838503121561599757615996614787565b5b60006159a585828601614cb6565b92505060206159b685828601614897565b9150509250929050565b600080600080600060a086880312156159dc576159db614787565b5b60006159ea88828901614cb6565b95505060206159fb88828901614cb6565b9450506040615a0c88828901614897565b9350506060615a1d88828901614897565b925050608086013567ffffffffffffffff811115615a3e57615a3d61478c565b5b615a4a88828901614a5d565b9150509295509295909350565b6000819050919050565b6000615a7c615a77615a7284614c6d565b615a57565b614c6d565b9050919050565b6000615a8e82615a61565b9050919050565b6000615aa082615a83565b9050919050565b615ab081615a95565b82525050565b6000602082019050615acb6000830184615aa7565b92915050565b600081905092915050565b6000615ae88385615ad1565b9350615af5838584614a0c565b82840190509392505050565b6000615b0e828486615adc565b91508190509392505050565b615b23816148ac565b82525050565b600060a082019050615b3e600083018861509a565b615b4b6020830187614856565b615b586040830186615b1a565b615b65606083018561509a565b615b72608083018461509a565b9695505050505050565b7f476f7665726e6f723a206f6e6c79476f7665726e616e63650000000000000000600082015250565b6000615bb2601883614bd7565b9150615bbd82615b7c565b602082019050919050565b60006020820190508181036000830152615be181615ba5565b9050919050565b7f4e487b7100000000000000000000000000000000000000000000000000000000600052602260045260246000fd5b60006002820490506001821680615c2f57607f821691505b602082108103615c4257615c41615be8565b5b50919050565b7f476f7665726e6f723a2070726f706f73616c206e6f742073756363657373667560008201527f6c00000000000000000000000000000000000000000000000000000000000000602082015250565b6000615ca4602183614bd7565b9150615caf82615c48565b604082019050919050565b60006020820190508181036000830152615cd381615c97565b9050919050565b600081519050615ce981614880565b92915050565b600060208284031215615d0557615d04614787565b5b6000615d1384828501615cda565b91505092915050565b600081519050919050565b600082825260208201905092915050565b6000819050602082019050919050565b615d5181614c8d565b82525050565b6000615d638383615d48565b60208301905092915050565b6000602082019050919050565b6000615d8782615d1c565b615d918185615d27565b9350615d9c83615d38565b8060005b83811015615dcd578151615db48882615d57565b9750615dbf83615d6f565b925050600181019050615da0565b5085935050505092915050565b600081519050919050565b600082825260208201905092915050565b6000819050602082019050919050565b600081519050919050565b600082825260208201905092915050565b6000615e2d82615e06565b615e378185615e11565b9350615e47818560208601614be8565b615e508161494f565b840191505092915050565b6000615e678383615e22565b905092915050565b6000602082019050919050565b6000615e8782615dda565b615e918185615de5565b935083602082028501615ea385615df6565b8060005b85811015615edf5784840389528151615ec08582615e5b565b9450615ecb83615e6f565b925060208a01995050600181019050615ea7565b50829750879550505050505092915050565b6000819050919050565b60008160001b9050919050565b6000615f23615f1e615f1984615ef1565b615efb565b614a8b565b9050919050565b615f3381615f08565b82525050565b600060a0820190508181036000830152615f538188615d7c565b90508181036020830152615f6781876155c2565b90508181036040830152615f7b8186615e7c565b9050615f8a6060830185615f2a565b615f97608083018461509a565b9695505050505050565b600081519050615fb081614a95565b92915050565b600060208284031215615fcc57615fcb614787565b5b6000615fda84828501615fa1565b91505092915050565b600060c0820190508181036000830152615ffd8189615d7c565b9050818103602083015261601181886155c2565b905081810360408301526160258187615e7c565b90506160346060830186615f2a565b616041608083018561509a565b61604e60a0830184614856565b979650505050505050565b7f4e487b7100000000000000000000000000000000000000000000000000000000600052601160045260246000fd5b60006160938261484c565b915061609e8361484c565b92508282019050808211156160b6576160b5616059565b5b92915050565b60006040820190506160d16000830185614856565b6160de6020830184614856565b9392505050565b60006060820190506160fa600083018661509a565b6161076020830185614856565b6161146040830184615b1a565b949350505050565b7f476f7665726e6f723a20746f6f206c61746520746f2063616e63656c00000000600082015250565b6000616152601c83614bd7565b915061615d8261611c565b602082019050919050565b6000602082019050818103600083015261618181616145565b9050919050565b7f476f7665726e6f723a206f6e6c792070726f706f7365722063616e2063616e6360008201527f656c000000000000000000000000000000000000000000000000000000000000602082015250565b60006161e4602283614bd7565b91506161ef82616188565b604082019050919050565b60006020820190508181036000830152616213816161d7565b9050919050565b600061622d616228846153a0565b6149c0565b9050828152602081018484840111156162495761624861494a565b5b616254848285614be8565b509392505050565b600082601f830112616271576162706148e5565b5b815161628184826020860161621a565b91505092915050565b6000602082840312156162a05761629f614787565b5b600082015167ffffffffffffffff8111156162be576162bd61478c565b5b6162ca8482850161625c565b91505092915050565b60006162de8261484c565b91506162e98361484c565b925082820390508181111561630157616300616059565b5b92915050565b7f4e487b7100000000000000000000000000000000000000000000000000000000600052603260045260246000fd5b61633f816156a4565b811461634a57600080fd5b50565b60008151905061635c81616336565b92915050565b60006020828403121561637857616377614787565b5b60006163868482850161634d565b91505092915050565b600060808201905081810360008301526163a98187615d7c565b905081810360208301526163bd81866155c2565b905081810360408301526163d18185615e7c565b90506163e0606083018461509a565b95945050505050565b7f476f7665726e6f723a20766f7465206e6f742063757272656e746c792061637460008201527f6976650000000000000000000000000000000000000000000000000000000000602082015250565b6000616445602383614bd7565b9150616450826163e9565b604082019050919050565b6000602082019050818103600083015261647481616438565b9050919050565b60006080820190506164906000830187614856565b61649d6020830186615b1a565b6164aa6040830185614856565b81810360608301526164bc8184614c12565b905095945050505050565b600082825260208201905092915050565b60006164e382615e06565b6164ed81856164c7565b93506164fd818560208601614be8565b6165068161494f565b840191505092915050565b600060a0820190506165266000830188614856565b6165336020830187615b1a565b6165406040830186614856565b81810360608301526165528185614c12565b9050818103608083015261656681846164d8565b90509695505050505050565b7f476f7665726e6f72566f74657351756f72756d4672616374696f6e3a2071756f60008201527f72756d4e756d657261746f72206f7665722071756f72756d44656e6f6d696e6160208201527f746f720000000000000000000000000000000000000000000000000000000000604082015250565b60006165f4604383614bd7565b91506165ff82616572565b606082019050919050565b60006020820190508181036000830152616623816165e7565b9050919050565b60006166358261484c565b91507fffffffffffffffffffffffffffffffffffffffffffffffffffffffffffffffff820361666757616666616059565b5b600182019050919050565b61667b81614816565b811461668657600080fd5b50565b60008151905061669881616672565b92915050565b6000602082840312156166b4576166b3614787565b5b60006166c284828501616689565b91505092915050565b7f53616665436173743a2076616c756520646f65736e27742066697420696e203360008201527f3220626974730000000000000000000000000000000000000000000000000000602082015250565b6000616727602683614bd7565b9150616732826166cb565b604082019050919050565b600060208201905081810360008301526167568161671a565b9050919050565b7f476f7665726e6f723a2070726f706f73657220766f7465732062656c6f77207060008201527f726f706f73616c207468726573686f6c64000000000000000000000000000000602082015250565b60006167b9603183614bd7565b91506167c48261675d565b604082019050919050565b600060208201905081810360008301526167e8816167ac565b9050919050565b7f476f7665726e6f723a20696e76616c69642070726f706f73616c206c656e677460008201527f6800000000000000000000000000000000000000000000000000000000000000602082015250565b600061684b602183614bd7565b9150616856826167ef565b604082019050919050565b6000602082019050818103600083015261687a8161683e565b9050919050565b7f476f7665726e6f723a20656d7074792070726f706f73616c0000000000000000600082015250565b60006168b7601883614bd7565b91506168c282616881565b602082019050919050565b600060208201905081810360008301526168e6816168aa565b9050919050565b7f476f7665726e6f723a2070726f706f73616c20616c726561647920657869737460008201527f7300000000000000000000000000000000000000000000000000000000000000602082015250565b6000616949602183614bd7565b9150616954826168ed565b604082019050919050565b600060208201905081810360008301526169788161693c565b9050919050565b600081519050919050565b600082825260208201905092915050565b6000819050602082019050919050565b600082825260208201905092915050565b60006169c782614bcc565b6169d181856169ab565b93506169e1818560208601614be8565b6169ea8161494f565b840191505092915050565b6000616a0183836169bc565b905092915050565b6000602082019050919050565b6000616a218261697f565b616a2b818561698a565b935083602082028501616a3d8561699b565b8060005b85811015616a795784840389528151616a5a85826169f5565b9450616a6583616a09565b925060208a01995050600181019050616a41565b50829750879550505050505092915050565b600061012082019050616aa1600083018c614856565b616aae602083018b615553565b8181036040830152616ac0818a615d7c565b90508181036060830152616ad481896155c2565b90508181036080830152616ae88188616a16565b905081810360a0830152616afc8187615e7c565b9050616b0b60c0830186614856565b616b1860e0830185614856565b818103610100830152616b2b8184614c12565b90509a9950505050505050505050565b7f53616665436173743a2076616c756520646f65736e27742066697420696e203460008201527f3820626974730000000000000000000000000000000000000000000000000000602082015250565b6000616b97602683614bd7565b9150616ba282616b3b565b604082019050919050565b60006020820190508181036000830152616bc681616b8a565b9050919050565b6000604082019050616be26000830185615553565b616bef6020830184614856565b9392505050565b6000604082019050616c0b6000830185615553565b616c186020830184615553565b9392505050565b6000616c2a8261484c565b9150616c358361484c565b9250828202616c438161484c565b91508282048414831517616c5a57616c59616059565b5b5092915050565b7f4e487b7100000000000000000000000000000000000000000000000000000000600052601260045260246000fd5b6000616c9b8261484c565b9150616ca68361484c565b925082616cb657616cb5616c61565b5b828204905092915050565b6000608082019050616cd6600083018761509a565b616ce36020830186615b1a565b616cf0604083018561509a565b616cfd606083018461509a565b95945050505050565b7f45434453413a20696e76616c6964207369676e61747572650000000000000000600082015250565b6000616d3c601883614bd7565b9150616d4782616d06565b602082019050919050565b60006020820190508181036000830152616d6b81616d2f565b9050919050565b7f45434453413a20696e76616c6964207369676e6174757265206c656e67746800600082015250565b6000616da8601f83614bd7565b9150616db382616d72565b602082019050919050565b60006020820190508181036000830152616dd781616d9b565b9050919050565b7f45434453413a20696e76616c6964207369676e6174757265202773272076616c60008201527f7565000000000000000000000000000000000000000000000000000000000000602082015250565b6000616e3a602283614bd7565b9150616e4582616dde565b604082019050919050565b60006020820190508181036000830152616e6981616e2d565b9050919050565b7f476f7665726e6f72566f74696e6753696d706c653a20766f746520616c72656160008201527f6479206361737400000000000000000000000000000000000000000000000000602082015250565b6000616ecc602783614bd7565b9150616ed782616e70565b604082019050919050565b60006020820190508181036000830152616efb81616ebf565b9050919050565b7f476f7665726e6f72566f74696e6753696d706c653a20696e76616c696420766160008201527f6c756520666f7220656e756d20566f7465547970650000000000000000000000602082015250565b6000616f5e603583614bd7565b9150616f6982616f02565b604082019050919050565b60006020820190508181036000830152616f8d81616f51565b9050919050565b7f53616665436173743a2076616c756520646f65736e27742066697420696e203260008201527f3234206269747300000000000000000000000000000000000000000000000000602082015250565b6000616ff0602783614bd7565b9150616ffb82616f94565b604082019050919050565b6000602082019050818103600083015261701f81616fe3565b9050919050565b7f476f7665726e6f723a20756e6b6e6f776e2070726f706f73616c206964000000600082015250565b600061705c601d83614bd7565b915061706782617026565b602082019050919050565b6000602082019050818103600083015261708b8161704f565b9050919050565b7f53616665436173743a2076616c756520646f65736e27742066697420696e203660008201527f3420626974730000000000000000000000000000000000000000000000000000602082015250565b60006170ee602683614bd7565b91506170f982617092565b604082019050919050565b6000602082019050818103600083015261711d816170e1565b9050919050565b600060a082019050617139600083018861509a565b617146602083018761509a565b617153604083018661509a565b6171606060830185614856565b61716d6080830184615553565b9695505050505050565b7f436865636b706f696e743a2064656372656173696e67206b6579730000000000600082015250565b60006171ad601b83614bd7565b91506171b882617177565b602082019050919050565b600060208201905081810360008301526171dc816171a0565b9050919050565b7f476f7665726e6f723a2070726f706f73616c206e6f7420616374697665000000600082015250565b6000617219601d83614bd7565b9150617224826171e3565b602082019050919050565b600060208201905081810360008301526172488161720c565b905091905056fe476f7665726e6f723a2072656c617920726576657274656420776974686f7574206d657373616765a264697066735822122054e20ae6872f293a00eb3376d05be5526f3b4596e9d775cf5ef3628b0f60282164736f6c63430008130033",
  "immutableReferences": {
    "8194": [
      {
        "length": 32,
        "start": 5299
      },
      {
        "length": 32,
        "start": 6543
      },
      {
        "length": 32,
        "start": 8008
      },
      {
        "length": 32,
        "start": 12029
      },
      {
        "length": 32,
        "start": 12535
      }
    ],
    "32915": [
      {
        "length": 32,
        "start": 13288
      }
    ],
    "32917": [
      {
        "length": 32,
        "start": 13247
      }
    ],
    "32919": [
      {
        "length": 32,
        "start": 13161
      }
    ],
    "32922": [
      {
        "length": 32,
        "start": 6300
      }
    ],
    "32925": [
      {
        "length": 32,
        "start": 6352
      }
    ],
    "32931": [
      {
        "length": 32,
        "start": 16458
      }
    ],
    "32933": [
      {
        "length": 32,
        "start": 16491
      }
    ]
  },
  "source": "// SPDX-License-Identifier: MIT\npragma solidity ^0.8.2;\n\nimport \"../../governance/Governor.sol\";\nimport \"../../governance/extensions/GovernorCountingSimple.sol\";\nimport \"../../governance/extensions/GovernorVotes.sol\";\nimport \"../../governance/extensions/GovernorVotesQuorumFraction.sol\";\nimport \"../../governance/extensions/GovernorTimelockControl.sol\";\n\ncontract MyGovernor1 is\n    Governor,\n    GovernorTimelockControl,\n    GovernorVotes,\n    GovernorVotesQuorumFraction,\n    GovernorCountingSimple\n{\n    constructor(\n        IVotes _token,\n        TimelockController _timelock\n    ) Governor(\"MyGovernor\") GovernorVotes(_token) GovernorVotesQuorumFraction(4) GovernorTimelockControl(_timelock) {}\n\n    function votingDelay() public pure override returns (uint256) {\n        return 1; // 1 block\n    }\n\n    function votingPeriod() public pure override returns (uint256) {\n        return 45818; // 1 week\n    }\n\n    // The following functions are overrides required by Solidity.\n\n    function quorum(\n        uint256 blockNumber\n    ) public view override(IGovernor, GovernorVotesQuorumFraction) returns (uint256) {\n        return super.quorum(blockNumber);\n    }\n\n    function state(uint256 proposalId) public view override(Governor, GovernorTimelockControl) returns (ProposalState) {\n        return super.state(proposalId);\n    }\n\n    function propose(\n        address[] memory targets,\n        uint256[] memory values,\n        bytes[] memory calldatas,\n        string memory description\n    ) public override(Governor, IGovernor) returns (uint256) {\n        return super.propose(targets, values, calldatas, description);\n    }\n\n    function _execute(\n        uint256 proposalId,\n        address[] memory targets,\n        uint256[] memory values,\n        bytes[] memory calldatas,\n        bytes32 descriptionHash\n    ) internal override(Governor, GovernorTimelockControl) {\n        super._execute(proposalId, targets, values, calldatas, descriptionHash);\n    }\n\n    function _cancel(\n        address[] memory targets,\n        uint256[] memory values,\n        bytes[] memory calldatas,\n        bytes32 descriptionHash\n    ) internal override(Governor, GovernorTimelockControl) returns (uint256) {\n        return super._cancel(targets, values, calldatas, descriptionHash);\n    }\n\n    function _executor() internal view override(Governor, GovernorTimelockControl) returns (address) {\n        return super._executor();\n    }\n\n    function supportsInterface(\n        bytes4 interfaceId\n    ) public view override(Governor, GovernorTimelockControl) returns (bool) {\n        return super.supportsInterface(interfaceId);\n    }\n}\n",
  "sourcePath": "/Users/urieltan/gitclones/ft5004/nft-project/contracts/openzeppelin-contracts-master/contracts/mocks/wizard/MyGovernor1.sol",
  "compiler": {
    "name": "solc",
    "version": "0.8.19+commit.7dd6d404.Emscripten.clang"
  },
  "schemaVersion": "3.4.13",
  "updatedAt": "2023-04-18T20:14:33.752Z",
  "devdoc": {
    "errors": {
      "Empty()": [
        {
          "details": "An operation (e.g. {front}) couldn't be completed due to the queue being empty."
        }
      ]
    },
    "events": {
      "EIP712DomainChanged()": {
        "details": "MAY be emitted to signal that the domain could have changed."
      },
      "ProposalCanceled(uint256)": {
        "details": "Emitted when a proposal is canceled."
      },
      "ProposalCreated(uint256,address,address[],uint256[],string[],bytes[],uint256,uint256,string)": {
        "details": "Emitted when a proposal is created."
      },
      "ProposalExecuted(uint256)": {
        "details": "Emitted when a proposal is executed."
      },
      "TimelockChange(address,address)": {
        "details": "Emitted when the timelock controller used for proposal execution is modified."
      },
      "VoteCast(address,uint256,uint8,uint256,string)": {
        "details": "Emitted when a vote is cast without params. Note: `support` values should be seen as buckets. Their interpretation depends on the voting module used."
      },
      "VoteCastWithParams(address,uint256,uint8,uint256,string,bytes)": {
        "details": "Emitted when a vote is cast with params. Note: `support` values should be seen as buckets. Their interpretation depends on the voting module used. `params` are additional encoded parameters. Their interpepretation also depends on the voting module used."
      }
    },
    "kind": "dev",
    "methods": {
      "CLOCK_MODE()": {
        "details": "Machine-readable description of the clock as specified in EIP-6372."
      },
      "COUNTING_MODE()": {
        "details": "See {IGovernor-COUNTING_MODE}."
      },
      "cancel(address[],uint256[],bytes[],bytes32)": {
        "details": "See {IGovernor-cancel}."
      },
      "castVote(uint256,uint8)": {
        "details": "See {IGovernor-castVote}."
      },
      "castVoteBySig(uint256,uint8,uint8,bytes32,bytes32)": {
        "details": "See {IGovernor-castVoteBySig}."
      },
      "castVoteWithReason(uint256,uint8,string)": {
        "details": "See {IGovernor-castVoteWithReason}."
      },
      "castVoteWithReasonAndParams(uint256,uint8,string,bytes)": {
        "details": "See {IGovernor-castVoteWithReasonAndParams}."
      },
      "castVoteWithReasonAndParamsBySig(uint256,uint8,string,bytes,uint8,bytes32,bytes32)": {
        "details": "See {IGovernor-castVoteWithReasonAndParamsBySig}."
      },
      "clock()": {
        "details": "Clock (as specified in EIP-6372) is set to match the token's clock. Fallback to block numbers if the token does not implement EIP-6372."
      },
      "eip712Domain()": {
        "details": "See {EIP-5267}."
      },
      "execute(address[],uint256[],bytes[],bytes32)": {
        "details": "See {IGovernor-execute}."
      },
      "getVotes(address,uint256)": {
        "details": "See {IGovernor-getVotes}."
      },
      "getVotesWithParams(address,uint256,bytes)": {
        "details": "See {IGovernor-getVotesWithParams}."
      },
      "hasVoted(uint256,address)": {
        "details": "See {IGovernor-hasVoted}."
      },
      "hashProposal(address[],uint256[],bytes[],bytes32)": {
        "details": "See {IGovernor-hashProposal}. The proposal id is produced by hashing the ABI encoded `targets` array, the `values` array, the `calldatas` array and the descriptionHash (bytes32 which itself is the keccak256 hash of the description string). This proposal id can be produced from the proposal data which is part of the {ProposalCreated} event. It can even be computed in advance, before the proposal is submitted. Note that the chainId and the governor address are not part of the proposal id computation. Consequently, the same proposal (with same operation and same description) will have the same id if submitted on multiple governors across multiple networks. This also means that in order to execute the same operation twice (on the same governor) the proposer will have to change the description in order to avoid proposal id conflicts."
      },
      "name()": {
        "details": "See {IGovernor-name}."
      },
      "onERC1155BatchReceived(address,address,uint256[],uint256[],bytes)": {
        "details": "See {IERC1155Receiver-onERC1155BatchReceived}."
      },
      "onERC1155Received(address,address,uint256,uint256,bytes)": {
        "details": "See {IERC1155Receiver-onERC1155Received}."
      },
      "onERC721Received(address,address,uint256,bytes)": {
        "details": "See {IERC721Receiver-onERC721Received}."
      },
      "proposalDeadline(uint256)": {
        "details": "See {IGovernor-proposalDeadline}."
      },
      "proposalEta(uint256)": {
        "details": "Public accessor to check the eta of a queued proposal"
      },
      "proposalSnapshot(uint256)": {
        "details": "See {IGovernor-proposalSnapshot}."
      },
      "proposalThreshold()": {
        "details": "Part of the Governor Bravo's interface: _\"The number of votes required in order for a voter to become a proposer\"_."
      },
      "proposalVotes(uint256)": {
        "details": "Accessor to the internal vote counts."
      },
      "queue(address[],uint256[],bytes[],bytes32)": {
        "details": "Function to queue a proposal to the timelock."
      },
      "quorumDenominator()": {
        "details": "Returns the quorum denominator. Defaults to 100, but may be overridden."
      },
      "quorumNumerator()": {
        "details": "Returns the current quorum numerator. See {quorumDenominator}."
      },
      "quorumNumerator(uint256)": {
        "details": "Returns the quorum numerator at a specific timepoint. See {quorumDenominator}."
      },
      "relay(address,uint256,bytes)": {
        "details": "Relays a transaction or function call to an arbitrary target. In cases where the governance executor is some contract other than the governor itself, like when using a timelock, this function can be invoked in a governance proposal to recover tokens or Ether that was sent to the governor contract by mistake. Note that if the executor is simply the governor itself, use of `relay` is redundant."
      },
      "timelock()": {
        "details": "Public accessor to check the address of the timelock"
      },
      "updateQuorumNumerator(uint256)": {
        "details": "Changes the quorum numerator. Emits a {QuorumNumeratorUpdated} event. Requirements: - Must be called through a governance proposal. - New numerator must be smaller or equal to the denominator."
      },
      "updateTimelock(address)": {
        "details": "Public endpoint to update the underlying timelock instance. Restricted to the timelock itself, so updates must be proposed, scheduled, and executed through governance proposals. CAUTION: It is not recommended to change the timelock while there are other queued governance proposals."
      },
      "version()": {
        "details": "See {IGovernor-version}."
      },
      "votingDelay()": {
        "details": "Delay, between the proposal is created and the vote starts. The unit this duration is expressed in depends on the clock (see EIP-6372) this contract uses. This can be increased to leave time for users to buy voting power, or delegate it, before the voting of a proposal starts."
      },
      "votingPeriod()": {
        "details": "Delay, between the vote start and vote ends. The unit this duration is expressed in depends on the clock (see EIP-6372) this contract uses. NOTE: The {votingDelay} can delay the start of the vote. This must be considered when setting the voting duration compared to the voting delay."
      }
    },
    "version": 1
  },
  "userdoc": {
    "kind": "user",
    "methods": {
      "votingDelay()": {
        "notice": "module:user-config"
      },
      "votingPeriod()": {
        "notice": "module:user-config"
      }
    },
    "version": 1
  }
}