{
  "contractName": "MyToken",
  "abi": [
    {
      "inputs": [],
      "stateMutability": "nonpayable",
      "type": "constructor"
    },
    {
      "anonymous": false,
      "inputs": [
        {
          "indexed": true,
          "internalType": "address",
          "name": "owner",
          "type": "address"
        },
        {
          "indexed": true,
          "internalType": "address",
          "name": "approved",
          "type": "address"
        },
        {
          "indexed": true,
          "internalType": "uint256",
          "name": "tokenId",
          "type": "uint256"
        }
      ],
      "name": "Approval",
      "type": "event"
    },
    {
      "anonymous": false,
      "inputs": [
        {
          "indexed": true,
          "internalType": "address",
          "name": "owner",
          "type": "address"
        },
        {
          "indexed": true,
          "internalType": "address",
          "name": "operator",
          "type": "address"
        },
        {
          "indexed": false,
          "internalType": "bool",
          "name": "approved",
          "type": "bool"
        }
      ],
      "name": "ApprovalForAll",
      "type": "event"
    },
    {
      "anonymous": false,
      "inputs": [
        {
          "indexed": false,
          "internalType": "uint256",
          "name": "_fromTokenId",
          "type": "uint256"
        },
        {
          "indexed": false,
          "internalType": "uint256",
          "name": "_toTokenId",
          "type": "uint256"
        }
      ],
      "name": "BatchMetadataUpdate",
      "type": "event"
    },
    {
      "anonymous": false,
      "inputs": [
        {
          "indexed": false,
          "internalType": "uint256",
          "name": "_tokenId",
          "type": "uint256"
        }
      ],
      "name": "MetadataUpdate",
      "type": "event"
    },
    {
      "anonymous": false,
      "inputs": [
        {
          "indexed": true,
          "internalType": "address",
          "name": "previousOwner",
          "type": "address"
        },
        {
          "indexed": true,
          "internalType": "address",
          "name": "newOwner",
          "type": "address"
        }
      ],
      "name": "OwnershipTransferred",
      "type": "event"
    },
    {
      "anonymous": false,
      "inputs": [
        {
          "indexed": false,
          "internalType": "address",
          "name": "account",
          "type": "address"
        }
      ],
      "name": "Paused",
      "type": "event"
    },
    {
      "anonymous": false,
      "inputs": [
        {
          "indexed": true,
          "internalType": "address",
          "name": "from",
          "type": "address"
        },
        {
          "indexed": true,
          "internalType": "address",
          "name": "to",
          "type": "address"
        },
        {
          "indexed": true,
          "internalType": "uint256",
          "name": "tokenId",
          "type": "uint256"
        }
      ],
      "name": "Transfer",
      "type": "event"
    },
    {
      "anonymous": false,
      "inputs": [
        {
          "indexed": false,
          "internalType": "address",
          "name": "account",
          "type": "address"
        }
      ],
      "name": "Unpaused",
      "type": "event"
    },
    {
      "inputs": [
        {
          "internalType": "address",
          "name": "to",
          "type": "address"
        },
        {
          "internalType": "uint256",
          "name": "tokenId",
          "type": "uint256"
        }
      ],
      "name": "approve",
      "outputs": [],
      "stateMutability": "nonpayable",
      "type": "function"
    },
    {
      "inputs": [
        {
          "internalType": "address",
          "name": "owner",
          "type": "address"
        }
      ],
      "name": "balanceOf",
      "outputs": [
        {
          "internalType": "uint256",
          "name": "",
          "type": "uint256"
        }
      ],
      "stateMutability": "view",
      "type": "function"
    },
    {
      "inputs": [
        {
          "internalType": "uint256",
          "name": "tokenId",
          "type": "uint256"
        }
      ],
      "name": "burn",
      "outputs": [],
      "stateMutability": "nonpayable",
      "type": "function"
    },
    {
      "inputs": [
        {
          "internalType": "uint256",
          "name": "tokenId",
          "type": "uint256"
        }
      ],
      "name": "getApproved",
      "outputs": [
        {
          "internalType": "address",
          "name": "",
          "type": "address"
        }
      ],
      "stateMutability": "view",
      "type": "function"
    },
    {
      "inputs": [
        {
          "internalType": "address",
          "name": "owner",
          "type": "address"
        },
        {
          "internalType": "address",
          "name": "operator",
          "type": "address"
        }
      ],
      "name": "isApprovedForAll",
      "outputs": [
        {
          "internalType": "bool",
          "name": "",
          "type": "bool"
        }
      ],
      "stateMutability": "view",
      "type": "function"
    },
    {
      "inputs": [],
      "name": "name",
      "outputs": [
        {
          "internalType": "string",
          "name": "",
          "type": "string"
        }
      ],
      "stateMutability": "view",
      "type": "function"
    },
    {
      "inputs": [],
      "name": "owner",
      "outputs": [
        {
          "internalType": "address",
          "name": "",
          "type": "address"
        }
      ],
      "stateMutability": "view",
      "type": "function"
    },
    {
      "inputs": [
        {
          "internalType": "uint256",
          "name": "tokenId",
          "type": "uint256"
        }
      ],
      "name": "ownerOf",
      "outputs": [
        {
          "internalType": "address",
          "name": "",
          "type": "address"
        }
      ],
      "stateMutability": "view",
      "type": "function"
    },
    {
      "inputs": [],
      "name": "paused",
      "outputs": [
        {
          "internalType": "bool",
          "name": "",
          "type": "bool"
        }
      ],
      "stateMutability": "view",
      "type": "function"
    },
    {
      "inputs": [],
      "name": "renounceOwnership",
      "outputs": [],
      "stateMutability": "nonpayable",
      "type": "function"
    },
    {
      "inputs": [
        {
          "internalType": "address",
          "name": "from",
          "type": "address"
        },
        {
          "internalType": "address",
          "name": "to",
          "type": "address"
        },
        {
          "internalType": "uint256",
          "name": "tokenId",
          "type": "uint256"
        }
      ],
      "name": "safeTransferFrom",
      "outputs": [],
      "stateMutability": "nonpayable",
      "type": "function"
    },
    {
      "inputs": [
        {
          "internalType": "address",
          "name": "from",
          "type": "address"
        },
        {
          "internalType": "address",
          "name": "to",
          "type": "address"
        },
        {
          "internalType": "uint256",
          "name": "tokenId",
          "type": "uint256"
        },
        {
          "internalType": "bytes",
          "name": "data",
          "type": "bytes"
        }
      ],
      "name": "safeTransferFrom",
      "outputs": [],
      "stateMutability": "nonpayable",
      "type": "function"
    },
    {
      "inputs": [
        {
          "internalType": "address",
          "name": "operator",
          "type": "address"
        },
        {
          "internalType": "bool",
          "name": "approved",
          "type": "bool"
        }
      ],
      "name": "setApprovalForAll",
      "outputs": [],
      "stateMutability": "nonpayable",
      "type": "function"
    },
    {
      "inputs": [],
      "name": "symbol",
      "outputs": [
        {
          "internalType": "string",
          "name": "",
          "type": "string"
        }
      ],
      "stateMutability": "view",
      "type": "function"
    },
    {
      "inputs": [
        {
          "internalType": "uint256",
          "name": "index",
          "type": "uint256"
        }
      ],
      "name": "tokenByIndex",
      "outputs": [
        {
          "internalType": "uint256",
          "name": "",
          "type": "uint256"
        }
      ],
      "stateMutability": "view",
      "type": "function"
    },
    {
      "inputs": [
        {
          "internalType": "address",
          "name": "owner",
          "type": "address"
        },
        {
          "internalType": "uint256",
          "name": "index",
          "type": "uint256"
        }
      ],
      "name": "tokenOfOwnerByIndex",
      "outputs": [
        {
          "internalType": "uint256",
          "name": "",
          "type": "uint256"
        }
      ],
      "stateMutability": "view",
      "type": "function"
    },
    {
      "inputs": [],
      "name": "totalSupply",
      "outputs": [
        {
          "internalType": "uint256",
          "name": "",
          "type": "uint256"
        }
      ],
      "stateMutability": "view",
      "type": "function"
    },
    {
      "inputs": [
        {
          "internalType": "address",
          "name": "from",
          "type": "address"
        },
        {
          "internalType": "address",
          "name": "to",
          "type": "address"
        },
        {
          "internalType": "uint256",
          "name": "tokenId",
          "type": "uint256"
        }
      ],
      "name": "transferFrom",
      "outputs": [],
      "stateMutability": "nonpayable",
      "type": "function"
    },
    {
      "inputs": [
        {
          "internalType": "address",
          "name": "newOwner",
          "type": "address"
        }
      ],
      "name": "transferOwnership",
      "outputs": [],
      "stateMutability": "nonpayable",
      "type": "function"
    },
    {
      "inputs": [],
      "name": "pause",
      "outputs": [],
      "stateMutability": "nonpayable",
      "type": "function"
    },
    {
      "inputs": [],
      "name": "unpause",
      "outputs": [],
      "stateMutability": "nonpayable",
      "type": "function"
    },
    {
      "inputs": [
        {
          "internalType": "address",
          "name": "to",
          "type": "address"
        },
        {
          "internalType": "string",
          "name": "uri",
          "type": "string"
        }
      ],
      "name": "safeMint",
      "outputs": [],
      "stateMutability": "nonpayable",
      "type": "function"
    },
    {
      "inputs": [
        {
          "internalType": "uint256",
          "name": "tokenId",
          "type": "uint256"
        }
      ],
      "name": "tokenURI",
      "outputs": [
        {
          "internalType": "string",
          "name": "",
          "type": "string"
        }
      ],
      "stateMutability": "view",
      "type": "function"
    },
    {
      "inputs": [
        {
          "internalType": "bytes4",
          "name": "interfaceId",
          "type": "bytes4"
        }
      ],
      "name": "supportsInterface",
      "outputs": [
        {
          "internalType": "bool",
          "name": "",
          "type": "bool"
        }
      ],
      "stateMutability": "view",
      "type": "function"
    }
  ],
  "bytecode": "0x60806040523480156200001157600080fd5b506040518060400160405280600781526020017f4d79546f6b656e000000000000000000000000000000000000000000000000008152506040518060400160405280600381526020017f4d544b000000000000000000000000000000000000000000000000000000000081525081600090816200008f91906200042d565b508060019081620000a191906200042d565b5050506000600b60006101000a81548160ff021916908315150217905550620000df620000d3620000e560201b60201c565b620000ed60201b60201c565b62000514565b600033905090565b6000600b60019054906101000a900473ffffffffffffffffffffffffffffffffffffffff16905081600b60016101000a81548173ffffffffffffffffffffffffffffffffffffffff021916908373ffffffffffffffffffffffffffffffffffffffff1602179055508173ffffffffffffffffffffffffffffffffffffffff168173ffffffffffffffffffffffffffffffffffffffff167f8be0079c531659141344cd1fd0a4f28419497f9722a3daafe3b4186f6b6457e060405160405180910390a35050565b600081519050919050565b7f4e487b7100000000000000000000000000000000000000000000000000000000600052604160045260246000fd5b7f4e487b7100000000000000000000000000000000000000000000000000000000600052602260045260246000fd5b600060028204905060018216806200023557607f821691505b6020821081036200024b576200024a620001ed565b5b50919050565b60008190508160005260206000209050919050565b60006020601f8301049050919050565b600082821b905092915050565b600060088302620002b57fffffffffffffffffffffffffffffffffffffffffffffffffffffffffffffffff8262000276565b620002c1868362000276565b95508019841693508086168417925050509392505050565b6000819050919050565b6000819050919050565b60006200030e620003086200030284620002d9565b620002e3565b620002d9565b9050919050565b6000819050919050565b6200032a83620002ed565b62000342620003398262000315565b84845462000283565b825550505050565b600090565b620003596200034a565b620003668184846200031f565b505050565b5b818110156200038e57620003826000826200034f565b6001810190506200036c565b5050565b601f821115620003dd57620003a78162000251565b620003b28462000266565b81016020851015620003c2578190505b620003da620003d18562000266565b8301826200036b565b50505b505050565b600082821c905092915050565b60006200040260001984600802620003e2565b1980831691505092915050565b60006200041d8383620003ef565b9150826002028217905092915050565b6200043882620001b3565b67ffffffffffffffff811115620004545762000453620001be565b5b6200046082546200021c565b6200046d82828562000392565b600060209050601f831160018114620004a5576000841562000490578287015190505b6200049c85826200040f565b8655506200050c565b601f198416620004b58662000251565b60005b82811015620004df57848901518255600182019150602085019450602081019050620004b8565b86831015620004ff5784890151620004fb601f891682620003ef565b8355505b6001600288020188555050505b505050505050565b613d8e80620005246000396000f3fe608060405234801561001057600080fd5b50600436106101585760003560e01c80636352211e116100c3578063a22cb4651161007c578063a22cb465146103a1578063b88d4fde146103bd578063c87b56dd146103d9578063d204c45e14610409578063e985e9c514610425578063f2fde38b1461045557610158565b80636352211e146102f157806370a0823114610321578063715018a6146103515780638456cb591461035b5780638da5cb5b1461036557806395d89b411461038357610158565b80632f745c59116101155780632f745c59146102315780633f4ba83a1461026157806342842e0e1461026b57806342966c68146102875780634f6ccce7146102a35780635c975abb146102d357610158565b806301ffc9a71461015d57806306fdde031461018d578063081812fc146101ab578063095ea7b3146101db57806318160ddd146101f757806323b872dd14610215575b600080fd5b610177600480360381019061017291906127fa565b610471565b6040516101849190612842565b60405180910390f35b610195610483565b6040516101a291906128ed565b60405180910390f35b6101c560048036038101906101c09190612945565b610515565b6040516101d291906129b3565b60405180910390f35b6101f560048036038101906101f091906129fa565b61055b565b005b6101ff610672565b60405161020c9190612a49565b60405180910390f35b61022f600480360381019061022a9190612a64565b61067f565b005b61024b600480360381019061024691906129fa565b6106df565b6040516102589190612a49565b60405180910390f35b610269610784565b005b61028560048036038101906102809190612a64565b610796565b005b6102a1600480360381019061029c9190612945565b6107b6565b005b6102bd60048036038101906102b89190612945565b610812565b6040516102ca9190612a49565b60405180910390f35b6102db610883565b6040516102e89190612842565b60405180910390f35b61030b60048036038101906103069190612945565b61089a565b60405161031891906129b3565b60405180910390f35b61033b60048036038101906103369190612ab7565b610920565b6040516103489190612a49565b60405180910390f35b6103596109d7565b005b6103636109eb565b005b61036d6109fd565b60405161037a91906129b3565b60405180910390f35b61038b610a27565b60405161039891906128ed565b60405180910390f35b6103bb60048036038101906103b69190612b10565b610ab9565b005b6103d760048036038101906103d29190612c85565b610acf565b005b6103f360048036038101906103ee9190612945565b610b31565b60405161040091906128ed565b60405180910390f35b610423600480360381019061041e9190612da9565b610b43565b005b61043f600480360381019061043a9190612e05565b610b7c565b60405161044c9190612842565b60405180910390f35b61046f600480360381019061046a9190612ab7565b610c10565b005b600061047c82610c93565b9050919050565b60606000805461049290612e74565b80601f01602080910402602001604051908101604052809291908181526020018280546104be90612e74565b801561050b5780601f106104e05761010080835404028352916020019161050b565b820191906000526020600020905b8154815290600101906020018083116104ee57829003601f168201915b5050505050905090565b600061052082610cf4565b6004600083815260200190815260200160002060009054906101000a900473ffffffffffffffffffffffffffffffffffffffff169050919050565b60006105668261089a565b90508073ffffffffffffffffffffffffffffffffffffffff168373ffffffffffffffffffffffffffffffffffffffff16036105d6576040517f08c379a00000000000000000000000000000000000000000000000000000000081526004016105cd90612f17565b60405180910390fd5b8073ffffffffffffffffffffffffffffffffffffffff166105f5610d3f565b73ffffffffffffffffffffffffffffffffffffffff16148061062457506106238161061e610d3f565b610b7c565b5b610663576040517f08c379a000000000000000000000000000000000000000000000000000000000815260040161065a90612fa9565b60405180910390fd5b61066d8383610d47565b505050565b6000600880549050905090565b61069061068a610d3f565b82610e00565b6106cf576040517f08c379a00000000000000000000000000000000000000000000000000000000081526004016106c69061303b565b60405180910390fd5b6106da838383610e95565b505050565b60006106ea83610920565b821061072b576040517f08c379a0000000000000000000000000000000000000000000000000000000008152600401610722906130cd565b60405180910390fd5b600660008473ffffffffffffffffffffffffffffffffffffffff1673ffffffffffffffffffffffffffffffffffffffff168152602001908152602001600020600083815260200190815260200160002054905092915050565b61078c61118e565b61079461120c565b565b6107b183838360405180602001604052806000815250610acf565b505050565b6107c76107c1610d3f565b82610e00565b610806576040517f08c379a00000000000000000000000000000000000000000000000000000000081526004016107fd9061303b565b60405180910390fd5b61080f8161126f565b50565b600061081c610672565b821061085d576040517f08c379a00000000000000000000000000000000000000000000000000000000081526004016108549061315f565b60405180910390fd5b600882815481106108715761087061317f565b5b90600052602060002001549050919050565b6000600b60009054906101000a900460ff16905090565b6000806108a68361127b565b9050600073ffffffffffffffffffffffffffffffffffffffff168173ffffffffffffffffffffffffffffffffffffffff1603610917576040517f08c379a000000000000000000000000000000000000000000000000000000000815260040161090e906131fa565b60405180910390fd5b80915050919050565b60008073ffffffffffffffffffffffffffffffffffffffff168273ffffffffffffffffffffffffffffffffffffffff1603610990576040517f08c379a00000000000000000000000000000000000000000000000000000000081526004016109879061328c565b60405180910390fd5b600360008373ffffffffffffffffffffffffffffffffffffffff1673ffffffffffffffffffffffffffffffffffffffff168152602001908152602001600020549050919050565b6109df61118e565b6109e960006112b8565b565b6109f361118e565b6109fb61137e565b565b6000600b60019054906101000a900473ffffffffffffffffffffffffffffffffffffffff16905090565b606060018054610a3690612e74565b80601f0160208091040260200160405190810160405280929190818152602001828054610a6290612e74565b8015610aaf5780601f10610a8457610100808354040283529160200191610aaf565b820191906000526020600020905b815481529060010190602001808311610a9257829003601f168201915b5050505050905090565b610acb610ac4610d3f565b83836113e1565b5050565b610ae0610ada610d3f565b83610e00565b610b1f576040517f08c379a0000000000000000000000000000000000000000000000000000000008152600401610b169061303b565b60405180910390fd5b610b2b8484848461154d565b50505050565b6060610b3c826115a9565b9050919050565b610b4b61118e565b6000610b57600c6116bb565b9050610b63600c6116c9565b610b6d83826116df565b610b7781836116fd565b505050565b6000600560008473ffffffffffffffffffffffffffffffffffffffff1673ffffffffffffffffffffffffffffffffffffffff16815260200190815260200160002060008373ffffffffffffffffffffffffffffffffffffffff1673ffffffffffffffffffffffffffffffffffffffff16815260200190815260200160002060009054906101000a900460ff16905092915050565b610c1861118e565b600073ffffffffffffffffffffffffffffffffffffffff168173ffffffffffffffffffffffffffffffffffffffff1603610c87576040517f08c379a0000000000000000000000000000000000000000000000000000000008152600401610c7e9061331e565b60405180910390fd5b610c90816112b8565b50565b6000634906490660e01b7bffffffffffffffffffffffffffffffffffffffffffffffffffffffff1916827bffffffffffffffffffffffffffffffffffffffffffffffffffffffff19161480610ced5750610cec826117a1565b5b9050919050565b610cfd8161181b565b610d3c576040517f08c379a0000000000000000000000000000000000000000000000000000000008152600401610d33906131fa565b60405180910390fd5b50565b600033905090565b816004600083815260200190815260200160002060006101000a81548173ffffffffffffffffffffffffffffffffffffffff021916908373ffffffffffffffffffffffffffffffffffffffff160217905550808273ffffffffffffffffffffffffffffffffffffffff16610dba8361089a565b73ffffffffffffffffffffffffffffffffffffffff167f8c5be1e5ebec7d5bd14f71427d1e84f3dd0314c0f7b2291e5b200ac8c7c3b92560405160405180910390a45050565b600080610e0c8361089a565b90508073ffffffffffffffffffffffffffffffffffffffff168473ffffffffffffffffffffffffffffffffffffffff161480610e4e5750610e4d8185610b7c565b5b80610e8c57508373ffffffffffffffffffffffffffffffffffffffff16610e7484610515565b73ffffffffffffffffffffffffffffffffffffffff16145b91505092915050565b8273ffffffffffffffffffffffffffffffffffffffff16610eb58261089a565b73ffffffffffffffffffffffffffffffffffffffff1614610f0b576040517f08c379a0000000000000000000000000000000000000000000000000000000008152600401610f02906133b0565b60405180910390fd5b600073ffffffffffffffffffffffffffffffffffffffff168273ffffffffffffffffffffffffffffffffffffffff1603610f7a576040517f08c379a0000000000000000000000000000000000000000000000000000000008152600401610f7190613442565b60405180910390fd5b610f87838383600161185c565b8273ffffffffffffffffffffffffffffffffffffffff16610fa78261089a565b73ffffffffffffffffffffffffffffffffffffffff1614610ffd576040517f08c379a0000000000000000000000000000000000000000000000000000000008152600401610ff4906133b0565b60405180910390fd5b6004600082815260200190815260200160002060006101000a81549073ffffffffffffffffffffffffffffffffffffffff02191690556001600360008573ffffffffffffffffffffffffffffffffffffffff1673ffffffffffffffffffffffffffffffffffffffff168152602001908152602001600020600082825403925050819055506001600360008473ffffffffffffffffffffffffffffffffffffffff1673ffffffffffffffffffffffffffffffffffffffff16815260200190815260200160002060008282540192505081905550816002600083815260200190815260200160002060006101000a81548173ffffffffffffffffffffffffffffffffffffffff021916908373ffffffffffffffffffffffffffffffffffffffff160217905550808273ffffffffffffffffffffffffffffffffffffffff168473ffffffffffffffffffffffffffffffffffffffff167fddf252ad1be2c89b69c2b068fc378daa952ba7f163c4a11628f55a4df523b3ef60405160405180910390a46111898383836001611876565b505050565b611196610d3f565b73ffffffffffffffffffffffffffffffffffffffff166111b46109fd565b73ffffffffffffffffffffffffffffffffffffffff161461120a576040517f08c379a0000000000000000000000000000000000000000000000000000000008152600401611201906134ae565b60405180910390fd5b565b61121461187c565b6000600b60006101000a81548160ff0219169083151502179055507f5db9ee0a495bf2e6ff9c91a7834c1ba4fdd244a5e8aa4e537bd38aeae4b073aa611258610d3f565b60405161126591906129b3565b60405180910390a1565b611278816118c5565b50565b60006002600083815260200190815260200160002060009054906101000a900473ffffffffffffffffffffffffffffffffffffffff169050919050565b6000600b60019054906101000a900473ffffffffffffffffffffffffffffffffffffffff16905081600b60016101000a81548173ffffffffffffffffffffffffffffffffffffffff021916908373ffffffffffffffffffffffffffffffffffffffff1602179055508173ffffffffffffffffffffffffffffffffffffffff168173ffffffffffffffffffffffffffffffffffffffff167f8be0079c531659141344cd1fd0a4f28419497f9722a3daafe3b4186f6b6457e060405160405180910390a35050565b611386611918565b6001600b60006101000a81548160ff0219169083151502179055507f62e78cea01bee320cd4e420270b5ea74000d11b0c9f74754ebdbfc544b05a2586113ca610d3f565b6040516113d791906129b3565b60405180910390a1565b8173ffffffffffffffffffffffffffffffffffffffff168373ffffffffffffffffffffffffffffffffffffffff160361144f576040517f08c379a00000000000000000000000000000000000000000000000000000000081526004016114469061351a565b60405180910390fd5b80600560008573ffffffffffffffffffffffffffffffffffffffff1673ffffffffffffffffffffffffffffffffffffffff16815260200190815260200160002060008473ffffffffffffffffffffffffffffffffffffffff1673ffffffffffffffffffffffffffffffffffffffff16815260200190815260200160002060006101000a81548160ff0219169083151502179055508173ffffffffffffffffffffffffffffffffffffffff168373ffffffffffffffffffffffffffffffffffffffff167f17307eab39ab6107e8899845ad3d59bd9653f200f220920489ca2b5937696c31836040516115409190612842565b60405180910390a3505050565b611558848484610e95565b61156484848484611962565b6115a3576040517f08c379a000000000000000000000000000000000000000000000000000000000815260040161159a906135ac565b60405180910390fd5b50505050565b60606115b482610cf4565b6000600a600084815260200190815260200160002080546115d490612e74565b80601f016020809104026020016040519081016040528092919081815260200182805461160090612e74565b801561164d5780601f106116225761010080835404028352916020019161164d565b820191906000526020600020905b81548152906001019060200180831161163057829003601f168201915b50505050509050600061165e611ae9565b905060008151036116735781925050506116b6565b6000825111156116a8578082604051602001611690929190613608565b604051602081830303815290604052925050506116b6565b6116b184611b09565b925050505b919050565b600081600001549050919050565b6001816000016000828254019250508190555050565b6116f9828260405180602001604052806000815250611b71565b5050565b6117068261181b565b611745576040517f08c379a000000000000000000000000000000000000000000000000000000000815260040161173c9061369e565b60405180910390fd5b80600a60008481526020019081526020016000209081611765919061386a565b507ff8e1a15aba9398e019f0b49df1a4fde98ee17ae345cb5f6b5e2c27f5033e8ce7826040516117959190612a49565b60405180910390a15050565b60007f780e9d63000000000000000000000000000000000000000000000000000000007bffffffffffffffffffffffffffffffffffffffffffffffffffffffff1916827bffffffffffffffffffffffffffffffffffffffffffffffffffffffff19161480611814575061181382611bcc565b5b9050919050565b60008073ffffffffffffffffffffffffffffffffffffffff1661183d8361127b565b73ffffffffffffffffffffffffffffffffffffffff1614159050919050565b611864611918565b61187084848484611cae565b50505050565b50505050565b611884610883565b6118c3576040517f08c379a00000000000000000000000000000000000000000000000000000000081526004016118ba90613988565b60405180910390fd5b565b6118ce81611e0c565b6000600a600083815260200190815260200160002080546118ee90612e74565b90501461191557600a600082815260200190815260200160002060006119149190612731565b5b50565b611920610883565b15611960576040517f08c379a0000000000000000000000000000000000000000000000000000000008152600401611957906139f4565b60405180910390fd5b565b60006119838473ffffffffffffffffffffffffffffffffffffffff16611f5a565b15611adc578373ffffffffffffffffffffffffffffffffffffffff1663150b7a026119ac610d3f565b8786866040518563ffffffff1660e01b81526004016119ce9493929190613a69565b6020604051808303816000875af1925050508015611a0a57506040513d601f19601f82011682018060405250810190611a079190613aca565b60015b611a8c573d8060008114611a3a576040519150601f19603f3d011682016040523d82523d6000602084013e611a3f565b606091505b506000815103611a84576040517f08c379a0000000000000000000000000000000000000000000000000000000008152600401611a7b906135ac565b60405180910390fd5b805181602001fd5b63150b7a0260e01b7bffffffffffffffffffffffffffffffffffffffffffffffffffffffff1916817bffffffffffffffffffffffffffffffffffffffffffffffffffffffff191614915050611ae1565b600190505b949350505050565b6060604051806060016040528060368152602001613d2360369139905090565b6060611b1482610cf4565b6000611b1e611ae9565b90506000815111611b3e5760405180602001604052806000815250611b69565b80611b4884611f7d565b604051602001611b59929190613608565b6040516020818303038152906040525b915050919050565b611b7b838361204b565b611b886000848484611962565b611bc7576040517f08c379a0000000000000000000000000000000000000000000000000000000008152600401611bbe906135ac565b60405180910390fd5b505050565b60007f80ac58cd000000000000000000000000000000000000000000000000000000007bffffffffffffffffffffffffffffffffffffffffffffffffffffffff1916827bffffffffffffffffffffffffffffffffffffffffffffffffffffffff19161480611c9757507f5b5e139f000000000000000000000000000000000000000000000000000000007bffffffffffffffffffffffffffffffffffffffffffffffffffffffff1916827bffffffffffffffffffffffffffffffffffffffffffffffffffffffff1916145b80611ca75750611ca682612268565b5b9050919050565b611cba848484846122d2565b6001811115611cfe576040517f08c379a0000000000000000000000000000000000000000000000000000000008152600401611cf590613b69565b60405180910390fd5b6000829050600073ffffffffffffffffffffffffffffffffffffffff168573ffffffffffffffffffffffffffffffffffffffff1603611d4557611d40816122d8565b611d84565b8373ffffffffffffffffffffffffffffffffffffffff168573ffffffffffffffffffffffffffffffffffffffff1614611d8357611d828582612321565b5b5b600073ffffffffffffffffffffffffffffffffffffffff168473ffffffffffffffffffffffffffffffffffffffff1603611dc657611dc18161248e565b611e05565b8473ffffffffffffffffffffffffffffffffffffffff168473ffffffffffffffffffffffffffffffffffffffff1614611e0457611e03848261255f565b5b5b5050505050565b6000611e178261089a565b9050611e2781600084600161185c565b611e308261089a565b90506004600083815260200190815260200160002060006101000a81549073ffffffffffffffffffffffffffffffffffffffff02191690556001600360008373ffffffffffffffffffffffffffffffffffffffff1673ffffffffffffffffffffffffffffffffffffffff168152602001908152602001600020600082825403925050819055506002600083815260200190815260200160002060006101000a81549073ffffffffffffffffffffffffffffffffffffffff021916905581600073ffffffffffffffffffffffffffffffffffffffff168273ffffffffffffffffffffffffffffffffffffffff167fddf252ad1be2c89b69c2b068fc378daa952ba7f163c4a11628f55a4df523b3ef60405160405180910390a4611f56816000846001611876565b5050565b6000808273ffffffffffffffffffffffffffffffffffffffff163b119050919050565b606060006001611f8c846125de565b01905060008167ffffffffffffffff811115611fab57611faa612b5a565b5b6040519080825280601f01601f191660200182016040528015611fdd5781602001600182028036833780820191505090505b509050600082602001820190505b600115612040578080600190039150507f3031323334353637383961626364656600000000000000000000000000000000600a86061a8153600a858161203457612033613b89565b5b04945060008503611feb575b819350505050919050565b600073ffffffffffffffffffffffffffffffffffffffff168273ffffffffffffffffffffffffffffffffffffffff16036120ba576040517f08c379a00000000000000000000000000000000000000000000000000000000081526004016120b190613c04565b60405180910390fd5b6120c38161181b565b15612103576040517f08c379a00000000000000000000000000000000000000000000000000000000081526004016120fa90613c70565b60405180910390fd5b61211160008383600161185c565b61211a8161181b565b1561215a576040517f08c379a000000000000000000000000000000000000000000000000000000000815260040161215190613c70565b60405180910390fd5b6001600360008473ffffffffffffffffffffffffffffffffffffffff1673ffffffffffffffffffffffffffffffffffffffff16815260200190815260200160002060008282540192505081905550816002600083815260200190815260200160002060006101000a81548173ffffffffffffffffffffffffffffffffffffffff021916908373ffffffffffffffffffffffffffffffffffffffff160217905550808273ffffffffffffffffffffffffffffffffffffffff16600073ffffffffffffffffffffffffffffffffffffffff167fddf252ad1be2c89b69c2b068fc378daa952ba7f163c4a11628f55a4df523b3ef60405160405180910390a4612264600083836001611876565b5050565b60007f01ffc9a7000000000000000000000000000000000000000000000000000000007bffffffffffffffffffffffffffffffffffffffffffffffffffffffff1916827bffffffffffffffffffffffffffffffffffffffffffffffffffffffff1916149050919050565b50505050565b6008805490506009600083815260200190815260200160002081905550600881908060018154018082558091505060019003906000526020600020016000909190919091505550565b6000600161232e84610920565b6123389190613cbf565b905060006007600084815260200190815260200160002054905081811461241d576000600660008673ffffffffffffffffffffffffffffffffffffffff1673ffffffffffffffffffffffffffffffffffffffff168152602001908152602001600020600084815260200190815260200160002054905080600660008773ffffffffffffffffffffffffffffffffffffffff1673ffffffffffffffffffffffffffffffffffffffff168152602001908152602001600020600084815260200190815260200160002081905550816007600083815260200190815260200160002081905550505b6007600084815260200190815260200160002060009055600660008573ffffffffffffffffffffffffffffffffffffffff1673ffffffffffffffffffffffffffffffffffffffff16815260200190815260200160002060008381526020019081526020016000206000905550505050565b600060016008805490506124a29190613cbf565b90506000600960008481526020019081526020016000205490506000600883815481106124d2576124d161317f565b5b9060005260206000200154905080600883815481106124f4576124f361317f565b5b90600052602060002001819055508160096000838152602001908152602001600020819055506009600085815260200190815260200160002060009055600880548061254357612542613cf3565b5b6001900381819060005260206000200160009055905550505050565b600061256a83610920565b905081600660008573ffffffffffffffffffffffffffffffffffffffff1673ffffffffffffffffffffffffffffffffffffffff168152602001908152602001600020600083815260200190815260200160002081905550806007600084815260200190815260200160002081905550505050565b600080600090507a184f03e93ff9f4daa797ed6e38ed64bf6a1f010000000000000000831061263c577a184f03e93ff9f4daa797ed6e38ed64bf6a1f010000000000000000838161263257612631613b89565b5b0492506040810190505b6d04ee2d6d415b85acef81000000008310612679576d04ee2d6d415b85acef8100000000838161266f5761266e613b89565b5b0492506020810190505b662386f26fc1000083106126a857662386f26fc10000838161269e5761269d613b89565b5b0492506010810190505b6305f5e10083106126d1576305f5e10083816126c7576126c6613b89565b5b0492506008810190505b61271083106126f65761271083816126ec576126eb613b89565b5b0492506004810190505b60648310612719576064838161270f5761270e613b89565b5b0492506002810190505b600a8310612728576001810190505b80915050919050565b50805461273d90612e74565b6000825580601f1061274f575061276e565b601f01602090049060005260206000209081019061276d9190612771565b5b50565b5b8082111561278a576000816000905550600101612772565b5090565b6000604051905090565b600080fd5b600080fd5b60007fffffffff0000000000000000000000000000000000000000000000000000000082169050919050565b6127d7816127a2565b81146127e257600080fd5b50565b6000813590506127f4816127ce565b92915050565b6000602082840312156128105761280f612798565b5b600061281e848285016127e5565b91505092915050565b60008115159050919050565b61283c81612827565b82525050565b60006020820190506128576000830184612833565b92915050565b600081519050919050565b600082825260208201905092915050565b60005b8381101561289757808201518184015260208101905061287c565b60008484015250505050565b6000601f19601f8301169050919050565b60006128bf8261285d565b6128c98185612868565b93506128d9818560208601612879565b6128e2816128a3565b840191505092915050565b6000602082019050818103600083015261290781846128b4565b905092915050565b6000819050919050565b6129228161290f565b811461292d57600080fd5b50565b60008135905061293f81612919565b92915050565b60006020828403121561295b5761295a612798565b5b600061296984828501612930565b91505092915050565b600073ffffffffffffffffffffffffffffffffffffffff82169050919050565b600061299d82612972565b9050919050565b6129ad81612992565b82525050565b60006020820190506129c860008301846129a4565b92915050565b6129d781612992565b81146129e257600080fd5b50565b6000813590506129f4816129ce565b92915050565b60008060408385031215612a1157612a10612798565b5b6000612a1f858286016129e5565b9250506020612a3085828601612930565b9150509250929050565b612a438161290f565b82525050565b6000602082019050612a5e6000830184612a3a565b92915050565b600080600060608486031215612a7d57612a7c612798565b5b6000612a8b868287016129e5565b9350506020612a9c868287016129e5565b9250506040612aad86828701612930565b9150509250925092565b600060208284031215612acd57612acc612798565b5b6000612adb848285016129e5565b91505092915050565b612aed81612827565b8114612af857600080fd5b50565b600081359050612b0a81612ae4565b92915050565b60008060408385031215612b2757612b26612798565b5b6000612b35858286016129e5565b9250506020612b4685828601612afb565b9150509250929050565b600080fd5b600080fd5b7f4e487b7100000000000000000000000000000000000000000000000000000000600052604160045260246000fd5b612b92826128a3565b810181811067ffffffffffffffff82111715612bb157612bb0612b5a565b5b80604052505050565b6000612bc461278e565b9050612bd08282612b89565b919050565b600067ffffffffffffffff821115612bf057612bef612b5a565b5b612bf9826128a3565b9050602081019050919050565b82818337600083830152505050565b6000612c28612c2384612bd5565b612bba565b905082815260208101848484011115612c4457612c43612b55565b5b612c4f848285612c06565b509392505050565b600082601f830112612c6c57612c6b612b50565b5b8135612c7c848260208601612c15565b91505092915050565b60008060008060808587031215612c9f57612c9e612798565b5b6000612cad878288016129e5565b9450506020612cbe878288016129e5565b9350506040612ccf87828801612930565b925050606085013567ffffffffffffffff811115612cf057612cef61279d565b5b612cfc87828801612c57565b91505092959194509250565b600067ffffffffffffffff821115612d2357612d22612b5a565b5b612d2c826128a3565b9050602081019050919050565b6000612d4c612d4784612d08565b612bba565b905082815260208101848484011115612d6857612d67612b55565b5b612d73848285612c06565b509392505050565b600082601f830112612d9057612d8f612b50565b5b8135612da0848260208601612d39565b91505092915050565b60008060408385031215612dc057612dbf612798565b5b6000612dce858286016129e5565b925050602083013567ffffffffffffffff811115612def57612dee61279d565b5b612dfb85828601612d7b565b9150509250929050565b60008060408385031215612e1c57612e1b612798565b5b6000612e2a858286016129e5565b9250506020612e3b858286016129e5565b9150509250929050565b7f4e487b7100000000000000000000000000000000000000000000000000000000600052602260045260246000fd5b60006002820490506001821680612e8c57607f821691505b602082108103612e9f57612e9e612e45565b5b50919050565b7f4552433732313a20617070726f76616c20746f2063757272656e74206f776e6560008201527f7200000000000000000000000000000000000000000000000000000000000000602082015250565b6000612f01602183612868565b9150612f0c82612ea5565b604082019050919050565b60006020820190508181036000830152612f3081612ef4565b9050919050565b7f4552433732313a20617070726f76652063616c6c6572206973206e6f7420746f60008201527f6b656e206f776e6572206f7220617070726f76656420666f7220616c6c000000602082015250565b6000612f93603d83612868565b9150612f9e82612f37565b604082019050919050565b60006020820190508181036000830152612fc281612f86565b9050919050565b7f4552433732313a2063616c6c6572206973206e6f7420746f6b656e206f776e6560008201527f72206f7220617070726f76656400000000000000000000000000000000000000602082015250565b6000613025602d83612868565b915061303082612fc9565b604082019050919050565b6000602082019050818103600083015261305481613018565b9050919050565b7f455243373231456e756d657261626c653a206f776e657220696e646578206f7560008201527f74206f6620626f756e6473000000000000000000000000000000000000000000602082015250565b60006130b7602b83612868565b91506130c28261305b565b604082019050919050565b600060208201905081810360008301526130e6816130aa565b9050919050565b7f455243373231456e756d657261626c653a20676c6f62616c20696e646578206f60008201527f7574206f6620626f756e64730000000000000000000000000000000000000000602082015250565b6000613149602c83612868565b9150613154826130ed565b604082019050919050565b600060208201905081810360008301526131788161313c565b9050919050565b7f4e487b7100000000000000000000000000000000000000000000000000000000600052603260045260246000fd5b7f4552433732313a20696e76616c696420746f6b656e2049440000000000000000600082015250565b60006131e4601883612868565b91506131ef826131ae565b602082019050919050565b60006020820190508181036000830152613213816131d7565b9050919050565b7f4552433732313a2061646472657373207a65726f206973206e6f74206120766160008201527f6c6964206f776e65720000000000000000000000000000000000000000000000602082015250565b6000613276602983612868565b91506132818261321a565b604082019050919050565b600060208201905081810360008301526132a581613269565b9050919050565b7f4f776e61626c653a206e6577206f776e657220697320746865207a65726f206160008201527f6464726573730000000000000000000000000000000000000000000000000000602082015250565b6000613308602683612868565b9150613313826132ac565b604082019050919050565b60006020820190508181036000830152613337816132fb565b9050919050565b7f4552433732313a207472616e736665722066726f6d20696e636f72726563742060008201527f6f776e6572000000000000000000000000000000000000000000000000000000602082015250565b600061339a602583612868565b91506133a58261333e565b604082019050919050565b600060208201905081810360008301526133c98161338d565b9050919050565b7f4552433732313a207472616e7366657220746f20746865207a65726f2061646460008201527f7265737300000000000000000000000000000000000000000000000000000000602082015250565b600061342c602483612868565b9150613437826133d0565b604082019050919050565b6000602082019050818103600083015261345b8161341f565b9050919050565b7f4f776e61626c653a2063616c6c6572206973206e6f7420746865206f776e6572600082015250565b6000613498602083612868565b91506134a382613462565b602082019050919050565b600060208201905081810360008301526134c78161348b565b9050919050565b7f4552433732313a20617070726f766520746f2063616c6c657200000000000000600082015250565b6000613504601983612868565b915061350f826134ce565b602082019050919050565b60006020820190508181036000830152613533816134f7565b9050919050565b7f4552433732313a207472616e7366657220746f206e6f6e20455243373231526560008201527f63656976657220696d706c656d656e7465720000000000000000000000000000602082015250565b6000613596603283612868565b91506135a18261353a565b604082019050919050565b600060208201905081810360008301526135c581613589565b9050919050565b600081905092915050565b60006135e28261285d565b6135ec81856135cc565b93506135fc818560208601612879565b80840191505092915050565b600061361482856135d7565b915061362082846135d7565b91508190509392505050565b7f45524337323155524953746f726167653a2055524920736574206f66206e6f6e60008201527f6578697374656e7420746f6b656e000000000000000000000000000000000000602082015250565b6000613688602e83612868565b91506136938261362c565b604082019050919050565b600060208201905081810360008301526136b78161367b565b9050919050565b60008190508160005260206000209050919050565b60006020601f8301049050919050565b600082821b905092915050565b6000600883026137207fffffffffffffffffffffffffffffffffffffffffffffffffffffffffffffffff826136e3565b61372a86836136e3565b95508019841693508086168417925050509392505050565b6000819050919050565b600061376761376261375d8461290f565b613742565b61290f565b9050919050565b6000819050919050565b6137818361374c565b61379561378d8261376e565b8484546136f0565b825550505050565b600090565b6137aa61379d565b6137b5818484613778565b505050565b5b818110156137d9576137ce6000826137a2565b6001810190506137bb565b5050565b601f82111561381e576137ef816136be565b6137f8846136d3565b81016020851015613807578190505b61381b613813856136d3565b8301826137ba565b50505b505050565b600082821c905092915050565b600061384160001984600802613823565b1980831691505092915050565b600061385a8383613830565b9150826002028217905092915050565b6138738261285d565b67ffffffffffffffff81111561388c5761388b612b5a565b5b6138968254612e74565b6138a18282856137dd565b600060209050601f8311600181146138d457600084156138c2578287015190505b6138cc858261384e565b865550613934565b601f1984166138e2866136be565b60005b8281101561390a578489015182556001820191506020850194506020810190506138e5565b868310156139275784890151613923601f891682613830565b8355505b6001600288020188555050505b505050505050565b7f5061757361626c653a206e6f7420706175736564000000000000000000000000600082015250565b6000613972601483612868565b915061397d8261393c565b602082019050919050565b600060208201905081810360008301526139a181613965565b9050919050565b7f5061757361626c653a2070617573656400000000000000000000000000000000600082015250565b60006139de601083612868565b91506139e9826139a8565b602082019050919050565b60006020820190508181036000830152613a0d816139d1565b9050919050565b600081519050919050565b600082825260208201905092915050565b6000613a3b82613a14565b613a458185613a1f565b9350613a55818560208601612879565b613a5e816128a3565b840191505092915050565b6000608082019050613a7e60008301876129a4565b613a8b60208301866129a4565b613a986040830185612a3a565b8181036060830152613aaa8184613a30565b905095945050505050565b600081519050613ac4816127ce565b92915050565b600060208284031215613ae057613adf612798565b5b6000613aee84828501613ab5565b91505092915050565b7f455243373231456e756d657261626c653a20636f6e736563757469766520747260008201527f616e7366657273206e6f7420737570706f727465640000000000000000000000602082015250565b6000613b53603583612868565b9150613b5e82613af7565b604082019050919050565b60006020820190508181036000830152613b8281613b46565b9050919050565b7f4e487b7100000000000000000000000000000000000000000000000000000000600052601260045260246000fd5b7f4552433732313a206d696e7420746f20746865207a65726f2061646472657373600082015250565b6000613bee602083612868565b9150613bf982613bb8565b602082019050919050565b60006020820190508181036000830152613c1d81613be1565b9050919050565b7f4552433732313a20746f6b656e20616c7265616479206d696e74656400000000600082015250565b6000613c5a601c83612868565b9150613c6582613c24565b602082019050919050565b60006020820190508181036000830152613c8981613c4d565b9050919050565b7f4e487b7100000000000000000000000000000000000000000000000000000000600052601160045260246000fd5b6000613cca8261290f565b9150613cd58361290f565b9250828203905081811115613ced57613cec613c90565b5b92915050565b7f4e487b7100000000000000000000000000000000000000000000000000000000600052603160045260246000fdfe697066733a2f2f516d65536a53696e4870506e6d586d73704d6a776958794e367a533445397a63636172694752336a7863615774712fa2646970667358221220eb248ffb21d46bb5496b856b6783d12ee92561aef91d2a3fb473277d749d1b7364736f6c63430008130033",
  "immutableReferences": {},
  "source": "// SPDX-License-Identifier: MIT\npragma solidity ^0.8.9;\n\nimport \"./openzeppelin-contracts-master/contracts/token/ERC721/ERC721.sol\";\nimport \"./openzeppelin-contracts-master/contracts/token/ERC721/extensions/ERC721Enumerable.sol\";\nimport \"./openzeppelin-contracts-master/contracts/token/ERC721/extensions/ERC721URIStorage.sol\";\nimport \"./openzeppelin-contracts-master/contracts/security/Pausable.sol\";\nimport \"./openzeppelin-contracts-master/contracts/access/Ownable.sol\";\nimport \"./openzeppelin-contracts-master/contracts/token/ERC721/extensions/ERC721Burnable.sol\";\nimport \"./openzeppelin-contracts-master/contracts/utils/Counters.sol\";\n\ncontract MyToken is ERC721, ERC721Enumerable, ERC721URIStorage, Pausable, Ownable, ERC721Burnable {\n    using Counters for Counters.Counter;\n    Counters.Counter private _tokenIdCounter;\n\n    constructor() ERC721(\"MyToken\", \"MTK\") {}\n\n    function _baseURI() internal pure override returns (string memory) {\n        return \"ipfs://QmeSjSinHpPnmXmspMjwiXyN6zS4E9zccariGR3jxcaWtq/\";\n    }\n\n    function pause() public onlyOwner {\n        _pause();\n    }\n\n    function unpause() public onlyOwner {\n        _unpause();\n    }\n\n    function safeMint(address to, string memory uri) public onlyOwner {\n        uint256 tokenId = _tokenIdCounter.current();\n        _tokenIdCounter.increment();\n        _safeMint(to, tokenId);\n        _setTokenURI(tokenId, uri);\n    }\n\n    function _beforeTokenTransfer(address from, address to, uint256 tokenId, uint256 batchSize)\n        internal\n        whenNotPaused\n        override(ERC721, ERC721Enumerable)\n    {\n        super._beforeTokenTransfer(from, to, tokenId, batchSize);\n    }\n\n    // The following functions are overrides required by Solidity.\n    function _burn(uint256 tokenId) internal override(ERC721, ERC721URIStorage) {\n        super._burn(tokenId);\n    }\n\n    function tokenURI(uint256 tokenId)\n        public\n        view\n        override(ERC721, ERC721URIStorage)\n        returns (string memory)\n    {\n        return super.tokenURI(tokenId);\n    }\n\n    function supportsInterface(bytes4 interfaceId)\n        public\n        view\n        override(ERC721, ERC721Enumerable, ERC721URIStorage)\n        returns (bool)\n    {\n        return super.supportsInterface(interfaceId);\n    }\n}\n",
  "sourcePath": "/Users/urieltan/gitclones/ft5004/nft-project/contracts/bayc.sol",
  "compiler": {
    "name": "solc",
    "version": "0.8.19+commit.7dd6d404.Emscripten.clang"
  },
  "schemaVersion": "3.4.13",
  "updatedAt": "2023-04-19T19:30:34.219Z",
  "devdoc": {
    "events": {
      "Approval(address,address,uint256)": {
        "details": "Emitted when `owner` enables `approved` to manage the `tokenId` token."
      },
      "ApprovalForAll(address,address,bool)": {
        "details": "Emitted when `owner` enables or disables (`approved`) `operator` to manage all of its assets."
      },
      "BatchMetadataUpdate(uint256,uint256)": {
        "details": "This event emits when the metadata of a range of tokens is changed. So that the third-party platforms such as NFT market could timely update the images and related attributes of the NFTs."
      },
      "MetadataUpdate(uint256)": {
        "details": "This event emits when the metadata of a token is changed. So that the third-party platforms such as NFT market could timely update the images and related attributes of the NFT."
      },
      "Paused(address)": {
        "details": "Emitted when the pause is triggered by `account`."
      },
      "Transfer(address,address,uint256)": {
        "details": "Emitted when `tokenId` token is transferred from `from` to `to`."
      },
      "Unpaused(address)": {
        "details": "Emitted when the pause is lifted by `account`."
      }
    },
    "kind": "dev",
    "methods": {
      "approve(address,uint256)": {
        "details": "See {IERC721-approve}."
      },
      "balanceOf(address)": {
        "details": "See {IERC721-balanceOf}."
      },
      "burn(uint256)": {
        "details": "Burns `tokenId`. See {ERC721-_burn}. Requirements: - The caller must own `tokenId` or be an approved operator."
      },
      "getApproved(uint256)": {
        "details": "See {IERC721-getApproved}."
      },
      "isApprovedForAll(address,address)": {
        "details": "See {IERC721-isApprovedForAll}."
      },
      "name()": {
        "details": "See {IERC721Metadata-name}."
      },
      "owner()": {
        "details": "Returns the address of the current owner."
      },
      "ownerOf(uint256)": {
        "details": "See {IERC721-ownerOf}."
      },
      "paused()": {
        "details": "Returns true if the contract is paused, and false otherwise."
      },
      "renounceOwnership()": {
        "details": "Leaves the contract without owner. It will not be possible to call `onlyOwner` functions. Can only be called by the current owner. NOTE: Renouncing ownership will leave the contract without an owner, thereby disabling any functionality that is only available to the owner."
      },
      "safeTransferFrom(address,address,uint256)": {
        "details": "See {IERC721-safeTransferFrom}."
      },
      "safeTransferFrom(address,address,uint256,bytes)": {
        "details": "See {IERC721-safeTransferFrom}."
      },
      "setApprovalForAll(address,bool)": {
        "details": "See {IERC721-setApprovalForAll}."
      },
      "symbol()": {
        "details": "See {IERC721Metadata-symbol}."
      },
      "tokenByIndex(uint256)": {
        "details": "See {IERC721Enumerable-tokenByIndex}."
      },
      "tokenOfOwnerByIndex(address,uint256)": {
        "details": "See {IERC721Enumerable-tokenOfOwnerByIndex}."
      },
      "totalSupply()": {
        "details": "See {IERC721Enumerable-totalSupply}."
      },
      "transferFrom(address,address,uint256)": {
        "details": "See {IERC721-transferFrom}."
      },
      "transferOwnership(address)": {
        "details": "Transfers ownership of the contract to a new account (`newOwner`). Can only be called by the current owner."
      }
    },
    "version": 1
  },
  "userdoc": {
    "kind": "user",
    "methods": {},
    "version": 1
  }
}