{
  "contractName": "NonUpgradeableMock",
  "abi": [
    {
      "inputs": [],
      "name": "current",
      "outputs": [
        {
          "internalType": "uint256",
          "name": "",
          "type": "uint256"
        }
      ],
      "stateMutability": "view",
      "type": "function"
    },
    {
      "inputs": [],
      "name": "increment",
      "outputs": [],
      "stateMutability": "nonpayable",
      "type": "function"
    }
  ],
  "bytecode": "0x608060405234801561001057600080fd5b5060fc8061001f6000396000f3fe6080604052348015600f57600080fd5b506004361060325760003560e01c80639fa6a6e3146037578063d09de08a146051575b600080fd5b603d6059565b6040516048919060ad565b60405180910390f35b60576068565b005b6000606360006072565b905090565b607060006080565b565b600081600001549050919050565b6001816000016000828254019250508190555050565b6000819050919050565b60a7816096565b82525050565b600060208201905060c0600083018460a0565b9291505056fea264697066735822122090ca2a07b32427c00a607ae436b4b8bf63affe7241b5a896d72343cf33dad56b64736f6c63430008130033",
  "immutableReferences": {},
  "source": "// SPDX-License-Identifier: MIT\n\npragma solidity ^0.8.0;\n\nimport \"../../proxy/utils/UUPSUpgradeable.sol\";\nimport \"../../utils/Counters.sol\";\n\ncontract NonUpgradeableMock {\n    Counters.Counter internal _counter;\n\n    function current() external view returns (uint256) {\n        return Counters.current(_counter);\n    }\n\n    function increment() external {\n        return Counters.increment(_counter);\n    }\n}\n\ncontract UUPSUpgradeableMock is NonUpgradeableMock, UUPSUpgradeable {\n    // Not having any checks in this function is dangerous! Do not do this outside tests!\n    function _authorizeUpgrade(address) internal override {}\n}\n\ncontract UUPSUpgradeableUnsafeMock is UUPSUpgradeableMock {\n    function upgradeTo(address newImplementation) public override {\n        ERC1967Upgrade._upgradeToAndCall(newImplementation, bytes(\"\"), false);\n    }\n\n    function upgradeToAndCall(address newImplementation, bytes memory data) public payable override {\n        ERC1967Upgrade._upgradeToAndCall(newImplementation, data, false);\n    }\n}\n",
  "sourcePath": "/Users/urieltan/gitclones/ft5004/nft-project/contracts/openzeppelin-contracts-master/contracts/mocks/proxy/UUPSUpgradeableMock.sol",
  "compiler": {
    "name": "solc",
    "version": "0.8.19+commit.7dd6d404.Emscripten.clang"
  },
  "schemaVersion": "3.4.13",
  "updatedAt": "2023-04-18T20:14:33.714Z",
  "devdoc": {
    "kind": "dev",
    "methods": {},
    "version": 1
  },
  "userdoc": {
    "kind": "user",
    "methods": {},
    "version": 1
  }
}