{
  "contractName": "PfpContract",
  "abi": [
    {
      "inputs": [],
      "stateMutability": "nonpayable",
      "type": "constructor"
    },
    {
      "anonymous": false,
      "inputs": [
        {
          "indexed": true,
          "internalType": "address",
          "name": "owner",
          "type": "address"
        },
        {
          "indexed": true,
          "internalType": "address",
          "name": "approved",
          "type": "address"
        },
        {
          "indexed": true,
          "internalType": "uint256",
          "name": "tokenId",
          "type": "uint256"
        }
      ],
      "name": "Approval",
      "type": "event"
    },
    {
      "anonymous": false,
      "inputs": [
        {
          "indexed": true,
          "internalType": "address",
          "name": "owner",
          "type": "address"
        },
        {
          "indexed": true,
          "internalType": "address",
          "name": "operator",
          "type": "address"
        },
        {
          "indexed": false,
          "internalType": "bool",
          "name": "approved",
          "type": "bool"
        }
      ],
      "name": "ApprovalForAll",
      "type": "event"
    },
    {
      "anonymous": false,
      "inputs": [
        {
          "indexed": false,
          "internalType": "uint256",
          "name": "_fromTokenId",
          "type": "uint256"
        },
        {
          "indexed": false,
          "internalType": "uint256",
          "name": "_toTokenId",
          "type": "uint256"
        }
      ],
      "name": "BatchMetadataUpdate",
      "type": "event"
    },
    {
      "anonymous": false,
      "inputs": [
        {
          "indexed": false,
          "internalType": "uint256",
          "name": "_tokenId",
          "type": "uint256"
        }
      ],
      "name": "MetadataUpdate",
      "type": "event"
    },
    {
      "anonymous": false,
      "inputs": [
        {
          "indexed": true,
          "internalType": "address",
          "name": "previousOwner",
          "type": "address"
        },
        {
          "indexed": true,
          "internalType": "address",
          "name": "newOwner",
          "type": "address"
        }
      ],
      "name": "OwnershipTransferred",
      "type": "event"
    },
    {
      "anonymous": false,
      "inputs": [
        {
          "indexed": false,
          "internalType": "address",
          "name": "account",
          "type": "address"
        }
      ],
      "name": "Paused",
      "type": "event"
    },
    {
      "anonymous": false,
      "inputs": [
        {
          "indexed": true,
          "internalType": "address",
          "name": "from",
          "type": "address"
        },
        {
          "indexed": true,
          "internalType": "address",
          "name": "to",
          "type": "address"
        },
        {
          "indexed": true,
          "internalType": "uint256",
          "name": "tokenId",
          "type": "uint256"
        }
      ],
      "name": "Transfer",
      "type": "event"
    },
    {
      "anonymous": false,
      "inputs": [
        {
          "indexed": false,
          "internalType": "address",
          "name": "account",
          "type": "address"
        }
      ],
      "name": "Unpaused",
      "type": "event"
    },
    {
      "inputs": [
        {
          "internalType": "address",
          "name": "to",
          "type": "address"
        },
        {
          "internalType": "uint256",
          "name": "tokenId",
          "type": "uint256"
        }
      ],
      "name": "approve",
      "outputs": [],
      "stateMutability": "nonpayable",
      "type": "function"
    },
    {
      "inputs": [
        {
          "internalType": "address",
          "name": "owner",
          "type": "address"
        }
      ],
      "name": "balanceOf",
      "outputs": [
        {
          "internalType": "uint256",
          "name": "",
          "type": "uint256"
        }
      ],
      "stateMutability": "view",
      "type": "function"
    },
    {
      "inputs": [
        {
          "internalType": "uint256",
          "name": "tokenId",
          "type": "uint256"
        }
      ],
      "name": "burn",
      "outputs": [],
      "stateMutability": "nonpayable",
      "type": "function"
    },
    {
      "inputs": [
        {
          "internalType": "uint256",
          "name": "tokenId",
          "type": "uint256"
        }
      ],
      "name": "getApproved",
      "outputs": [
        {
          "internalType": "address",
          "name": "",
          "type": "address"
        }
      ],
      "stateMutability": "view",
      "type": "function"
    },
    {
      "inputs": [
        {
          "internalType": "address",
          "name": "owner",
          "type": "address"
        },
        {
          "internalType": "address",
          "name": "operator",
          "type": "address"
        }
      ],
      "name": "isApprovedForAll",
      "outputs": [
        {
          "internalType": "bool",
          "name": "",
          "type": "bool"
        }
      ],
      "stateMutability": "view",
      "type": "function"
    },
    {
      "inputs": [],
      "name": "name",
      "outputs": [
        {
          "internalType": "string",
          "name": "",
          "type": "string"
        }
      ],
      "stateMutability": "view",
      "type": "function"
    },
    {
      "inputs": [],
      "name": "owner",
      "outputs": [
        {
          "internalType": "address",
          "name": "",
          "type": "address"
        }
      ],
      "stateMutability": "view",
      "type": "function"
    },
    {
      "inputs": [
        {
          "internalType": "uint256",
          "name": "tokenId",
          "type": "uint256"
        }
      ],
      "name": "ownerOf",
      "outputs": [
        {
          "internalType": "address",
          "name": "",
          "type": "address"
        }
      ],
      "stateMutability": "view",
      "type": "function"
    },
    {
      "inputs": [],
      "name": "paused",
      "outputs": [
        {
          "internalType": "bool",
          "name": "",
          "type": "bool"
        }
      ],
      "stateMutability": "view",
      "type": "function"
    },
    {
      "inputs": [],
      "name": "renounceOwnership",
      "outputs": [],
      "stateMutability": "nonpayable",
      "type": "function"
    },
    {
      "inputs": [
        {
          "internalType": "address",
          "name": "from",
          "type": "address"
        },
        {
          "internalType": "address",
          "name": "to",
          "type": "address"
        },
        {
          "internalType": "uint256",
          "name": "tokenId",
          "type": "uint256"
        }
      ],
      "name": "safeTransferFrom",
      "outputs": [],
      "stateMutability": "nonpayable",
      "type": "function"
    },
    {
      "inputs": [
        {
          "internalType": "address",
          "name": "from",
          "type": "address"
        },
        {
          "internalType": "address",
          "name": "to",
          "type": "address"
        },
        {
          "internalType": "uint256",
          "name": "tokenId",
          "type": "uint256"
        },
        {
          "internalType": "bytes",
          "name": "data",
          "type": "bytes"
        }
      ],
      "name": "safeTransferFrom",
      "outputs": [],
      "stateMutability": "nonpayable",
      "type": "function"
    },
    {
      "inputs": [
        {
          "internalType": "address",
          "name": "operator",
          "type": "address"
        },
        {
          "internalType": "bool",
          "name": "approved",
          "type": "bool"
        }
      ],
      "name": "setApprovalForAll",
      "outputs": [],
      "stateMutability": "nonpayable",
      "type": "function"
    },
    {
      "inputs": [],
      "name": "symbol",
      "outputs": [
        {
          "internalType": "string",
          "name": "",
          "type": "string"
        }
      ],
      "stateMutability": "view",
      "type": "function"
    },
    {
      "inputs": [
        {
          "internalType": "uint256",
          "name": "index",
          "type": "uint256"
        }
      ],
      "name": "tokenByIndex",
      "outputs": [
        {
          "internalType": "uint256",
          "name": "",
          "type": "uint256"
        }
      ],
      "stateMutability": "view",
      "type": "function"
    },
    {
      "inputs": [
        {
          "internalType": "address",
          "name": "owner",
          "type": "address"
        },
        {
          "internalType": "uint256",
          "name": "index",
          "type": "uint256"
        }
      ],
      "name": "tokenOfOwnerByIndex",
      "outputs": [
        {
          "internalType": "uint256",
          "name": "",
          "type": "uint256"
        }
      ],
      "stateMutability": "view",
      "type": "function"
    },
    {
      "inputs": [],
      "name": "totalSupply",
      "outputs": [
        {
          "internalType": "uint256",
          "name": "",
          "type": "uint256"
        }
      ],
      "stateMutability": "view",
      "type": "function"
    },
    {
      "inputs": [
        {
          "internalType": "address",
          "name": "from",
          "type": "address"
        },
        {
          "internalType": "address",
          "name": "to",
          "type": "address"
        },
        {
          "internalType": "uint256",
          "name": "tokenId",
          "type": "uint256"
        }
      ],
      "name": "transferFrom",
      "outputs": [],
      "stateMutability": "nonpayable",
      "type": "function"
    },
    {
      "inputs": [
        {
          "internalType": "address",
          "name": "newOwner",
          "type": "address"
        }
      ],
      "name": "transferOwnership",
      "outputs": [],
      "stateMutability": "nonpayable",
      "type": "function"
    },
    {
      "inputs": [],
      "name": "pause",
      "outputs": [],
      "stateMutability": "nonpayable",
      "type": "function"
    },
    {
      "inputs": [],
      "name": "unpause",
      "outputs": [],
      "stateMutability": "nonpayable",
      "type": "function"
    },
    {
      "inputs": [
        {
          "internalType": "address",
          "name": "to",
          "type": "address"
        },
        {
          "internalType": "string",
          "name": "uri",
          "type": "string"
        }
      ],
      "name": "safeMint",
      "outputs": [],
      "stateMutability": "nonpayable",
      "type": "function"
    },
    {
      "inputs": [
        {
          "internalType": "address",
          "name": "to",
          "type": "address"
        }
      ],
      "name": "mint",
      "outputs": [],
      "stateMutability": "nonpayable",
      "type": "function"
    },
    {
      "inputs": [
        {
          "internalType": "uint256",
          "name": "tokenId",
          "type": "uint256"
        }
      ],
      "name": "tokenURI",
      "outputs": [
        {
          "internalType": "string",
          "name": "",
          "type": "string"
        }
      ],
      "stateMutability": "view",
      "type": "function"
    },
    {
      "inputs": [
        {
          "internalType": "bytes4",
          "name": "interfaceId",
          "type": "bytes4"
        }
      ],
      "name": "supportsInterface",
      "outputs": [
        {
          "internalType": "bool",
          "name": "",
          "type": "bool"
        }
      ],
      "stateMutability": "view",
      "type": "function"
    }
  ],
  "bytecode": "0x60806040523480156200001157600080fd5b506040518060400160405280600781526020017f4d79546f6b656e000000000000000000000000000000000000000000000000008152506040518060400160405280600381526020017f4d544b000000000000000000000000000000000000000000000000000000000081525081600090816200008f91906200042d565b508060019081620000a191906200042d565b5050506000600b60006101000a81548160ff021916908315150217905550620000df620000d3620000e560201b60201c565b620000ed60201b60201c565b62000514565b600033905090565b6000600b60019054906101000a900473ffffffffffffffffffffffffffffffffffffffff16905081600b60016101000a81548173ffffffffffffffffffffffffffffffffffffffff021916908373ffffffffffffffffffffffffffffffffffffffff1602179055508173ffffffffffffffffffffffffffffffffffffffff168173ffffffffffffffffffffffffffffffffffffffff167f8be0079c531659141344cd1fd0a4f28419497f9722a3daafe3b4186f6b6457e060405160405180910390a35050565b600081519050919050565b7f4e487b7100000000000000000000000000000000000000000000000000000000600052604160045260246000fd5b7f4e487b7100000000000000000000000000000000000000000000000000000000600052602260045260246000fd5b600060028204905060018216806200023557607f821691505b6020821081036200024b576200024a620001ed565b5b50919050565b60008190508160005260206000209050919050565b60006020601f8301049050919050565b600082821b905092915050565b600060088302620002b57fffffffffffffffffffffffffffffffffffffffffffffffffffffffffffffffff8262000276565b620002c1868362000276565b95508019841693508086168417925050509392505050565b6000819050919050565b6000819050919050565b60006200030e620003086200030284620002d9565b620002e3565b620002d9565b9050919050565b6000819050919050565b6200032a83620002ed565b62000342620003398262000315565b84845462000283565b825550505050565b600090565b620003596200034a565b620003668184846200031f565b505050565b5b818110156200038e57620003826000826200034f565b6001810190506200036c565b5050565b601f821115620003dd57620003a78162000251565b620003b28462000266565b81016020851015620003c2578190505b620003da620003d18562000266565b8301826200036b565b50505b505050565b600082821c905092915050565b60006200040260001984600802620003e2565b1980831691505092915050565b60006200041d8383620003ef565b9150826002028217905092915050565b6200043882620001b3565b67ffffffffffffffff811115620004545762000453620001be565b5b6200046082546200021c565b6200046d82828562000392565b600060209050601f831160018114620004a5576000841562000490578287015190505b6200049c85826200040f565b8655506200050c565b601f198416620004b58662000251565b60005b82811015620004df57848901518255600182019150602085019450602081019050620004b8565b86831015620004ff5784890151620004fb601f891682620003ef565b8355505b6001600288020188555050505b505050505050565b613df380620005246000396000f3fe608060405234801561001057600080fd5b50600436106101735760003560e01c80636352211e116100de57806395d89b4111610097578063c87b56dd11610071578063c87b56dd14610410578063d204c45e14610440578063e985e9c51461045c578063f2fde38b1461048c57610173565b806395d89b41146103ba578063a22cb465146103d8578063b88d4fde146103f457610173565b80636352211e1461030c5780636a6278421461033c57806370a0823114610358578063715018a6146103885780638456cb59146103925780638da5cb5b1461039c57610173565b80632f745c59116101305780632f745c591461024c5780633f4ba83a1461027c57806342842e0e1461028657806342966c68146102a25780634f6ccce7146102be5780635c975abb146102ee57610173565b806301ffc9a71461017857806306fdde03146101a8578063081812fc146101c6578063095ea7b3146101f657806318160ddd1461021257806323b872dd14610230575b600080fd5b610192600480360381019061018d919061285f565b6104a8565b60405161019f91906128a7565b60405180910390f35b6101b06104ba565b6040516101bd9190612952565b60405180910390f35b6101e060048036038101906101db91906129aa565b61054c565b6040516101ed9190612a18565b60405180910390f35b610210600480360381019061020b9190612a5f565b610592565b005b61021a6106a9565b6040516102279190612aae565b60405180910390f35b61024a60048036038101906102459190612ac9565b6106b6565b005b61026660048036038101906102619190612a5f565b610716565b6040516102739190612aae565b60405180910390f35b6102846107bb565b005b6102a0600480360381019061029b9190612ac9565b6107cd565b005b6102bc60048036038101906102b791906129aa565b6107ed565b005b6102d860048036038101906102d391906129aa565b610849565b6040516102e59190612aae565b60405180910390f35b6102f66108ba565b60405161030391906128a7565b60405180910390f35b610326600480360381019061032191906129aa565b6108d1565b6040516103339190612a18565b60405180910390f35b61035660048036038101906103519190612b1c565b610957565b005b610372600480360381019061036d9190612b1c565b610985565b60405161037f9190612aae565b60405180910390f35b610390610a3c565b005b61039a610a50565b005b6103a4610a62565b6040516103b19190612a18565b60405180910390f35b6103c2610a8c565b6040516103cf9190612952565b60405180910390f35b6103f260048036038101906103ed9190612b75565b610b1e565b005b61040e60048036038101906104099190612cea565b610b34565b005b61042a600480360381019061042591906129aa565b610b96565b6040516104379190612952565b60405180910390f35b61045a60048036038101906104559190612e0e565b610ba8565b005b61047660048036038101906104719190612e6a565b610be1565b60405161048391906128a7565b60405180910390f35b6104a660048036038101906104a19190612b1c565b610c75565b005b60006104b382610cf8565b9050919050565b6060600080546104c990612ed9565b80601f01602080910402602001604051908101604052809291908181526020018280546104f590612ed9565b80156105425780601f1061051757610100808354040283529160200191610542565b820191906000526020600020905b81548152906001019060200180831161052557829003601f168201915b5050505050905090565b600061055782610d59565b6004600083815260200190815260200160002060009054906101000a900473ffffffffffffffffffffffffffffffffffffffff169050919050565b600061059d826108d1565b90508073ffffffffffffffffffffffffffffffffffffffff168373ffffffffffffffffffffffffffffffffffffffff160361060d576040517f08c379a000000000000000000000000000000000000000000000000000000000815260040161060490612f7c565b60405180910390fd5b8073ffffffffffffffffffffffffffffffffffffffff1661062c610da4565b73ffffffffffffffffffffffffffffffffffffffff16148061065b575061065a81610655610da4565b610be1565b5b61069a576040517f08c379a00000000000000000000000000000000000000000000000000000000081526004016106919061300e565b60405180910390fd5b6106a48383610dac565b505050565b6000600880549050905090565b6106c76106c1610da4565b82610e65565b610706576040517f08c379a00000000000000000000000000000000000000000000000000000000081526004016106fd906130a0565b60405180910390fd5b610711838383610efa565b505050565b600061072183610985565b8210610762576040517f08c379a000000000000000000000000000000000000000000000000000000000815260040161075990613132565b60405180910390fd5b600660008473ffffffffffffffffffffffffffffffffffffffff1673ffffffffffffffffffffffffffffffffffffffff168152602001908152602001600020600083815260200190815260200160002054905092915050565b6107c36111f3565b6107cb611271565b565b6107e883838360405180602001604052806000815250610b34565b505050565b6107fe6107f8610da4565b82610e65565b61083d576040517f08c379a0000000000000000000000000000000000000000000000000000000008152600401610834906130a0565b60405180910390fd5b610846816112d4565b50565b60006108536106a9565b8210610894576040517f08c379a000000000000000000000000000000000000000000000000000000000815260040161088b906131c4565b60405180910390fd5b600882815481106108a8576108a76131e4565b5b90600052602060002001549050919050565b6000600b60009054906101000a900460ff16905090565b6000806108dd836112e0565b9050600073ffffffffffffffffffffffffffffffffffffffff168173ffffffffffffffffffffffffffffffffffffffff160361094e576040517f08c379a00000000000000000000000000000000000000000000000000000000081526004016109459061325f565b60405180910390fd5b80915050919050565b61095f6111f3565b600061096b600c61131d565b9050610977600c61132b565b6109818282611341565b5050565b60008073ffffffffffffffffffffffffffffffffffffffff168273ffffffffffffffffffffffffffffffffffffffff16036109f5576040517f08c379a00000000000000000000000000000000000000000000000000000000081526004016109ec906132f1565b60405180910390fd5b600360008373ffffffffffffffffffffffffffffffffffffffff1673ffffffffffffffffffffffffffffffffffffffff168152602001908152602001600020549050919050565b610a446111f3565b610a4e600061155e565b565b610a586111f3565b610a60611624565b565b6000600b60019054906101000a900473ffffffffffffffffffffffffffffffffffffffff16905090565b606060018054610a9b90612ed9565b80601f0160208091040260200160405190810160405280929190818152602001828054610ac790612ed9565b8015610b145780601f10610ae957610100808354040283529160200191610b14565b820191906000526020600020905b815481529060010190602001808311610af757829003601f168201915b5050505050905090565b610b30610b29610da4565b8383611687565b5050565b610b45610b3f610da4565b83610e65565b610b84576040517f08c379a0000000000000000000000000000000000000000000000000000000008152600401610b7b906130a0565b60405180910390fd5b610b90848484846117f3565b50505050565b6060610ba18261184f565b9050919050565b610bb06111f3565b6000610bbc600c61131d565b9050610bc8600c61132b565b610bd28382611961565b610bdc818361197f565b505050565b6000600560008473ffffffffffffffffffffffffffffffffffffffff1673ffffffffffffffffffffffffffffffffffffffff16815260200190815260200160002060008373ffffffffffffffffffffffffffffffffffffffff1673ffffffffffffffffffffffffffffffffffffffff16815260200190815260200160002060009054906101000a900460ff16905092915050565b610c7d6111f3565b600073ffffffffffffffffffffffffffffffffffffffff168173ffffffffffffffffffffffffffffffffffffffff1603610cec576040517f08c379a0000000000000000000000000000000000000000000000000000000008152600401610ce390613383565b60405180910390fd5b610cf58161155e565b50565b6000634906490660e01b7bffffffffffffffffffffffffffffffffffffffffffffffffffffffff1916827bffffffffffffffffffffffffffffffffffffffffffffffffffffffff19161480610d525750610d5182611a23565b5b9050919050565b610d6281611a9d565b610da1576040517f08c379a0000000000000000000000000000000000000000000000000000000008152600401610d989061325f565b60405180910390fd5b50565b600033905090565b816004600083815260200190815260200160002060006101000a81548173ffffffffffffffffffffffffffffffffffffffff021916908373ffffffffffffffffffffffffffffffffffffffff160217905550808273ffffffffffffffffffffffffffffffffffffffff16610e1f836108d1565b73ffffffffffffffffffffffffffffffffffffffff167f8c5be1e5ebec7d5bd14f71427d1e84f3dd0314c0f7b2291e5b200ac8c7c3b92560405160405180910390a45050565b600080610e71836108d1565b90508073ffffffffffffffffffffffffffffffffffffffff168473ffffffffffffffffffffffffffffffffffffffff161480610eb35750610eb28185610be1565b5b80610ef157508373ffffffffffffffffffffffffffffffffffffffff16610ed98461054c565b73ffffffffffffffffffffffffffffffffffffffff16145b91505092915050565b8273ffffffffffffffffffffffffffffffffffffffff16610f1a826108d1565b73ffffffffffffffffffffffffffffffffffffffff1614610f70576040517f08c379a0000000000000000000000000000000000000000000000000000000008152600401610f6790613415565b60405180910390fd5b600073ffffffffffffffffffffffffffffffffffffffff168273ffffffffffffffffffffffffffffffffffffffff1603610fdf576040517f08c379a0000000000000000000000000000000000000000000000000000000008152600401610fd6906134a7565b60405180910390fd5b610fec8383836001611ade565b8273ffffffffffffffffffffffffffffffffffffffff1661100c826108d1565b73ffffffffffffffffffffffffffffffffffffffff1614611062576040517f08c379a000000000000000000000000000000000000000000000000000000000815260040161105990613415565b60405180910390fd5b6004600082815260200190815260200160002060006101000a81549073ffffffffffffffffffffffffffffffffffffffff02191690556001600360008573ffffffffffffffffffffffffffffffffffffffff1673ffffffffffffffffffffffffffffffffffffffff168152602001908152602001600020600082825403925050819055506001600360008473ffffffffffffffffffffffffffffffffffffffff1673ffffffffffffffffffffffffffffffffffffffff16815260200190815260200160002060008282540192505081905550816002600083815260200190815260200160002060006101000a81548173ffffffffffffffffffffffffffffffffffffffff021916908373ffffffffffffffffffffffffffffffffffffffff160217905550808273ffffffffffffffffffffffffffffffffffffffff168473ffffffffffffffffffffffffffffffffffffffff167fddf252ad1be2c89b69c2b068fc378daa952ba7f163c4a11628f55a4df523b3ef60405160405180910390a46111ee8383836001611af8565b505050565b6111fb610da4565b73ffffffffffffffffffffffffffffffffffffffff16611219610a62565b73ffffffffffffffffffffffffffffffffffffffff161461126f576040517f08c379a000000000000000000000000000000000000000000000000000000000815260040161126690613513565b60405180910390fd5b565b611279611afe565b6000600b60006101000a81548160ff0219169083151502179055507f5db9ee0a495bf2e6ff9c91a7834c1ba4fdd244a5e8aa4e537bd38aeae4b073aa6112bd610da4565b6040516112ca9190612a18565b60405180910390a1565b6112dd81611b47565b50565b60006002600083815260200190815260200160002060009054906101000a900473ffffffffffffffffffffffffffffffffffffffff169050919050565b600081600001549050919050565b6001816000016000828254019250508190555050565b600073ffffffffffffffffffffffffffffffffffffffff168273ffffffffffffffffffffffffffffffffffffffff16036113b0576040517f08c379a00000000000000000000000000000000000000000000000000000000081526004016113a79061357f565b60405180910390fd5b6113b981611a9d565b156113f9576040517f08c379a00000000000000000000000000000000000000000000000000000000081526004016113f0906135eb565b60405180910390fd5b611407600083836001611ade565b61141081611a9d565b15611450576040517f08c379a0000000000000000000000000000000000000000000000000000000008152600401611447906135eb565b60405180910390fd5b6001600360008473ffffffffffffffffffffffffffffffffffffffff1673ffffffffffffffffffffffffffffffffffffffff16815260200190815260200160002060008282540192505081905550816002600083815260200190815260200160002060006101000a81548173ffffffffffffffffffffffffffffffffffffffff021916908373ffffffffffffffffffffffffffffffffffffffff160217905550808273ffffffffffffffffffffffffffffffffffffffff16600073ffffffffffffffffffffffffffffffffffffffff167fddf252ad1be2c89b69c2b068fc378daa952ba7f163c4a11628f55a4df523b3ef60405160405180910390a461155a600083836001611af8565b5050565b6000600b60019054906101000a900473ffffffffffffffffffffffffffffffffffffffff16905081600b60016101000a81548173ffffffffffffffffffffffffffffffffffffffff021916908373ffffffffffffffffffffffffffffffffffffffff1602179055508173ffffffffffffffffffffffffffffffffffffffff168173ffffffffffffffffffffffffffffffffffffffff167f8be0079c531659141344cd1fd0a4f28419497f9722a3daafe3b4186f6b6457e060405160405180910390a35050565b61162c611b9a565b6001600b60006101000a81548160ff0219169083151502179055507f62e78cea01bee320cd4e420270b5ea74000d11b0c9f74754ebdbfc544b05a258611670610da4565b60405161167d9190612a18565b60405180910390a1565b8173ffffffffffffffffffffffffffffffffffffffff168373ffffffffffffffffffffffffffffffffffffffff16036116f5576040517f08c379a00000000000000000000000000000000000000000000000000000000081526004016116ec90613657565b60405180910390fd5b80600560008573ffffffffffffffffffffffffffffffffffffffff1673ffffffffffffffffffffffffffffffffffffffff16815260200190815260200160002060008473ffffffffffffffffffffffffffffffffffffffff1673ffffffffffffffffffffffffffffffffffffffff16815260200190815260200160002060006101000a81548160ff0219169083151502179055508173ffffffffffffffffffffffffffffffffffffffff168373ffffffffffffffffffffffffffffffffffffffff167f17307eab39ab6107e8899845ad3d59bd9653f200f220920489ca2b5937696c31836040516117e691906128a7565b60405180910390a3505050565b6117fe848484610efa565b61180a84848484611be4565b611849576040517f08c379a0000000000000000000000000000000000000000000000000000000008152600401611840906136e9565b60405180910390fd5b50505050565b606061185a82610d59565b6000600a6000848152602001908152602001600020805461187a90612ed9565b80601f01602080910402602001604051908101604052809291908181526020018280546118a690612ed9565b80156118f35780601f106118c8576101008083540402835291602001916118f3565b820191906000526020600020905b8154815290600101906020018083116118d657829003601f168201915b505050505090506000611904611d6b565b9050600081510361191957819250505061195c565b60008251111561194e578082604051602001611936929190613745565b6040516020818303038152906040529250505061195c565b61195784611d8b565b925050505b919050565b61197b828260405180602001604052806000815250611df3565b5050565b61198882611a9d565b6119c7576040517f08c379a00000000000000000000000000000000000000000000000000000000081526004016119be906137db565b60405180910390fd5b80600a600084815260200190815260200160002090816119e791906139a7565b507ff8e1a15aba9398e019f0b49df1a4fde98ee17ae345cb5f6b5e2c27f5033e8ce782604051611a179190612aae565b60405180910390a15050565b60007f780e9d63000000000000000000000000000000000000000000000000000000007bffffffffffffffffffffffffffffffffffffffffffffffffffffffff1916827bffffffffffffffffffffffffffffffffffffffffffffffffffffffff19161480611a965750611a9582611e4e565b5b9050919050565b60008073ffffffffffffffffffffffffffffffffffffffff16611abf836112e0565b73ffffffffffffffffffffffffffffffffffffffff1614159050919050565b611ae6611b9a565b611af284848484611f30565b50505050565b50505050565b611b066108ba565b611b45576040517f08c379a0000000000000000000000000000000000000000000000000000000008152600401611b3c90613ac5565b60405180910390fd5b565b611b508161208e565b6000600a60008381526020019081526020016000208054611b7090612ed9565b905014611b9757600a60008281526020019081526020016000206000611b969190612796565b5b50565b611ba26108ba565b15611be2576040517f08c379a0000000000000000000000000000000000000000000000000000000008152600401611bd990613b31565b60405180910390fd5b565b6000611c058473ffffffffffffffffffffffffffffffffffffffff166121dc565b15611d5e578373ffffffffffffffffffffffffffffffffffffffff1663150b7a02611c2e610da4565b8786866040518563ffffffff1660e01b8152600401611c509493929190613ba6565b6020604051808303816000875af1925050508015611c8c57506040513d601f19601f82011682018060405250810190611c899190613c07565b60015b611d0e573d8060008114611cbc576040519150601f19603f3d011682016040523d82523d6000602084013e611cc1565b606091505b506000815103611d06576040517f08c379a0000000000000000000000000000000000000000000000000000000008152600401611cfd906136e9565b60405180910390fd5b805181602001fd5b63150b7a0260e01b7bffffffffffffffffffffffffffffffffffffffffffffffffffffffff1916817bffffffffffffffffffffffffffffffffffffffffffffffffffffffff191614915050611d63565b600190505b949350505050565b6060604051806060016040528060368152602001613d8860369139905090565b6060611d9682610d59565b6000611da0611d6b565b90506000815111611dc05760405180602001604052806000815250611deb565b80611dca846121ff565b604051602001611ddb929190613745565b6040516020818303038152906040525b915050919050565b611dfd8383611341565b611e0a6000848484611be4565b611e49576040517f08c379a0000000000000000000000000000000000000000000000000000000008152600401611e40906136e9565b60405180910390fd5b505050565b60007f80ac58cd000000000000000000000000000000000000000000000000000000007bffffffffffffffffffffffffffffffffffffffffffffffffffffffff1916827bffffffffffffffffffffffffffffffffffffffffffffffffffffffff19161480611f1957507f5b5e139f000000000000000000000000000000000000000000000000000000007bffffffffffffffffffffffffffffffffffffffffffffffffffffffff1916827bffffffffffffffffffffffffffffffffffffffffffffffffffffffff1916145b80611f295750611f28826122cd565b5b9050919050565b611f3c84848484612337565b6001811115611f80576040517f08c379a0000000000000000000000000000000000000000000000000000000008152600401611f7790613ca6565b60405180910390fd5b6000829050600073ffffffffffffffffffffffffffffffffffffffff168573ffffffffffffffffffffffffffffffffffffffff1603611fc757611fc28161233d565b612006565b8373ffffffffffffffffffffffffffffffffffffffff168573ffffffffffffffffffffffffffffffffffffffff1614612005576120048582612386565b5b5b600073ffffffffffffffffffffffffffffffffffffffff168473ffffffffffffffffffffffffffffffffffffffff160361204857612043816124f3565b612087565b8473ffffffffffffffffffffffffffffffffffffffff168473ffffffffffffffffffffffffffffffffffffffff16146120865761208584826125c4565b5b5b5050505050565b6000612099826108d1565b90506120a9816000846001611ade565b6120b2826108d1565b90506004600083815260200190815260200160002060006101000a81549073ffffffffffffffffffffffffffffffffffffffff02191690556001600360008373ffffffffffffffffffffffffffffffffffffffff1673ffffffffffffffffffffffffffffffffffffffff168152602001908152602001600020600082825403925050819055506002600083815260200190815260200160002060006101000a81549073ffffffffffffffffffffffffffffffffffffffff021916905581600073ffffffffffffffffffffffffffffffffffffffff168273ffffffffffffffffffffffffffffffffffffffff167fddf252ad1be2c89b69c2b068fc378daa952ba7f163c4a11628f55a4df523b3ef60405160405180910390a46121d8816000846001611af8565b5050565b6000808273ffffffffffffffffffffffffffffffffffffffff163b119050919050565b60606000600161220e84612643565b01905060008167ffffffffffffffff81111561222d5761222c612bbf565b5b6040519080825280601f01601f19166020018201604052801561225f5781602001600182028036833780820191505090505b509050600082602001820190505b6001156122c2578080600190039150507f3031323334353637383961626364656600000000000000000000000000000000600a86061a8153600a85816122b6576122b5613cc6565b5b0494506000850361226d575b819350505050919050565b60007f01ffc9a7000000000000000000000000000000000000000000000000000000007bffffffffffffffffffffffffffffffffffffffffffffffffffffffff1916827bffffffffffffffffffffffffffffffffffffffffffffffffffffffff1916149050919050565b50505050565b6008805490506009600083815260200190815260200160002081905550600881908060018154018082558091505060019003906000526020600020016000909190919091505550565b6000600161239384610985565b61239d9190613d24565b9050600060076000848152602001908152602001600020549050818114612482576000600660008673ffffffffffffffffffffffffffffffffffffffff1673ffffffffffffffffffffffffffffffffffffffff168152602001908152602001600020600084815260200190815260200160002054905080600660008773ffffffffffffffffffffffffffffffffffffffff1673ffffffffffffffffffffffffffffffffffffffff168152602001908152602001600020600084815260200190815260200160002081905550816007600083815260200190815260200160002081905550505b6007600084815260200190815260200160002060009055600660008573ffffffffffffffffffffffffffffffffffffffff1673ffffffffffffffffffffffffffffffffffffffff16815260200190815260200160002060008381526020019081526020016000206000905550505050565b600060016008805490506125079190613d24565b9050600060096000848152602001908152602001600020549050600060088381548110612537576125366131e4565b5b906000526020600020015490508060088381548110612559576125586131e4565b5b9060005260206000200181905550816009600083815260200190815260200160002081905550600960008581526020019081526020016000206000905560088054806125a8576125a7613d58565b5b6001900381819060005260206000200160009055905550505050565b60006125cf83610985565b905081600660008573ffffffffffffffffffffffffffffffffffffffff1673ffffffffffffffffffffffffffffffffffffffff168152602001908152602001600020600083815260200190815260200160002081905550806007600084815260200190815260200160002081905550505050565b600080600090507a184f03e93ff9f4daa797ed6e38ed64bf6a1f01000000000000000083106126a1577a184f03e93ff9f4daa797ed6e38ed64bf6a1f010000000000000000838161269757612696613cc6565b5b0492506040810190505b6d04ee2d6d415b85acef810000000083106126de576d04ee2d6d415b85acef810000000083816126d4576126d3613cc6565b5b0492506020810190505b662386f26fc10000831061270d57662386f26fc10000838161270357612702613cc6565b5b0492506010810190505b6305f5e1008310612736576305f5e100838161272c5761272b613cc6565b5b0492506008810190505b612710831061275b57612710838161275157612750613cc6565b5b0492506004810190505b6064831061277e576064838161277457612773613cc6565b5b0492506002810190505b600a831061278d576001810190505b80915050919050565b5080546127a290612ed9565b6000825580601f106127b457506127d3565b601f0160209004906000526020600020908101906127d291906127d6565b5b50565b5b808211156127ef5760008160009055506001016127d7565b5090565b6000604051905090565b600080fd5b600080fd5b60007fffffffff0000000000000000000000000000000000000000000000000000000082169050919050565b61283c81612807565b811461284757600080fd5b50565b60008135905061285981612833565b92915050565b600060208284031215612875576128746127fd565b5b60006128838482850161284a565b91505092915050565b60008115159050919050565b6128a18161288c565b82525050565b60006020820190506128bc6000830184612898565b92915050565b600081519050919050565b600082825260208201905092915050565b60005b838110156128fc5780820151818401526020810190506128e1565b60008484015250505050565b6000601f19601f8301169050919050565b6000612924826128c2565b61292e81856128cd565b935061293e8185602086016128de565b61294781612908565b840191505092915050565b6000602082019050818103600083015261296c8184612919565b905092915050565b6000819050919050565b61298781612974565b811461299257600080fd5b50565b6000813590506129a48161297e565b92915050565b6000602082840312156129c0576129bf6127fd565b5b60006129ce84828501612995565b91505092915050565b600073ffffffffffffffffffffffffffffffffffffffff82169050919050565b6000612a02826129d7565b9050919050565b612a12816129f7565b82525050565b6000602082019050612a2d6000830184612a09565b92915050565b612a3c816129f7565b8114612a4757600080fd5b50565b600081359050612a5981612a33565b92915050565b60008060408385031215612a7657612a756127fd565b5b6000612a8485828601612a4a565b9250506020612a9585828601612995565b9150509250929050565b612aa881612974565b82525050565b6000602082019050612ac36000830184612a9f565b92915050565b600080600060608486031215612ae257612ae16127fd565b5b6000612af086828701612a4a565b9350506020612b0186828701612a4a565b9250506040612b1286828701612995565b9150509250925092565b600060208284031215612b3257612b316127fd565b5b6000612b4084828501612a4a565b91505092915050565b612b528161288c565b8114612b5d57600080fd5b50565b600081359050612b6f81612b49565b92915050565b60008060408385031215612b8c57612b8b6127fd565b5b6000612b9a85828601612a4a565b9250506020612bab85828601612b60565b9150509250929050565b600080fd5b600080fd5b7f4e487b7100000000000000000000000000000000000000000000000000000000600052604160045260246000fd5b612bf782612908565b810181811067ffffffffffffffff82111715612c1657612c15612bbf565b5b80604052505050565b6000612c296127f3565b9050612c358282612bee565b919050565b600067ffffffffffffffff821115612c5557612c54612bbf565b5b612c5e82612908565b9050602081019050919050565b82818337600083830152505050565b6000612c8d612c8884612c3a565b612c1f565b905082815260208101848484011115612ca957612ca8612bba565b5b612cb4848285612c6b565b509392505050565b600082601f830112612cd157612cd0612bb5565b5b8135612ce1848260208601612c7a565b91505092915050565b60008060008060808587031215612d0457612d036127fd565b5b6000612d1287828801612a4a565b9450506020612d2387828801612a4a565b9350506040612d3487828801612995565b925050606085013567ffffffffffffffff811115612d5557612d54612802565b5b612d6187828801612cbc565b91505092959194509250565b600067ffffffffffffffff821115612d8857612d87612bbf565b5b612d9182612908565b9050602081019050919050565b6000612db1612dac84612d6d565b612c1f565b905082815260208101848484011115612dcd57612dcc612bba565b5b612dd8848285612c6b565b509392505050565b600082601f830112612df557612df4612bb5565b5b8135612e05848260208601612d9e565b91505092915050565b60008060408385031215612e2557612e246127fd565b5b6000612e3385828601612a4a565b925050602083013567ffffffffffffffff811115612e5457612e53612802565b5b612e6085828601612de0565b9150509250929050565b60008060408385031215612e8157612e806127fd565b5b6000612e8f85828601612a4a565b9250506020612ea085828601612a4a565b9150509250929050565b7f4e487b7100000000000000000000000000000000000000000000000000000000600052602260045260246000fd5b60006002820490506001821680612ef157607f821691505b602082108103612f0457612f03612eaa565b5b50919050565b7f4552433732313a20617070726f76616c20746f2063757272656e74206f776e6560008201527f7200000000000000000000000000000000000000000000000000000000000000602082015250565b6000612f666021836128cd565b9150612f7182612f0a565b604082019050919050565b60006020820190508181036000830152612f9581612f59565b9050919050565b7f4552433732313a20617070726f76652063616c6c6572206973206e6f7420746f60008201527f6b656e206f776e6572206f7220617070726f76656420666f7220616c6c000000602082015250565b6000612ff8603d836128cd565b915061300382612f9c565b604082019050919050565b6000602082019050818103600083015261302781612feb565b9050919050565b7f4552433732313a2063616c6c6572206973206e6f7420746f6b656e206f776e6560008201527f72206f7220617070726f76656400000000000000000000000000000000000000602082015250565b600061308a602d836128cd565b91506130958261302e565b604082019050919050565b600060208201905081810360008301526130b98161307d565b9050919050565b7f455243373231456e756d657261626c653a206f776e657220696e646578206f7560008201527f74206f6620626f756e6473000000000000000000000000000000000000000000602082015250565b600061311c602b836128cd565b9150613127826130c0565b604082019050919050565b6000602082019050818103600083015261314b8161310f565b9050919050565b7f455243373231456e756d657261626c653a20676c6f62616c20696e646578206f60008201527f7574206f6620626f756e64730000000000000000000000000000000000000000602082015250565b60006131ae602c836128cd565b91506131b982613152565b604082019050919050565b600060208201905081810360008301526131dd816131a1565b9050919050565b7f4e487b7100000000000000000000000000000000000000000000000000000000600052603260045260246000fd5b7f4552433732313a20696e76616c696420746f6b656e2049440000000000000000600082015250565b60006132496018836128cd565b915061325482613213565b602082019050919050565b600060208201905081810360008301526132788161323c565b9050919050565b7f4552433732313a2061646472657373207a65726f206973206e6f74206120766160008201527f6c6964206f776e65720000000000000000000000000000000000000000000000602082015250565b60006132db6029836128cd565b91506132e68261327f565b604082019050919050565b6000602082019050818103600083015261330a816132ce565b9050919050565b7f4f776e61626c653a206e6577206f776e657220697320746865207a65726f206160008201527f6464726573730000000000000000000000000000000000000000000000000000602082015250565b600061336d6026836128cd565b915061337882613311565b604082019050919050565b6000602082019050818103600083015261339c81613360565b9050919050565b7f4552433732313a207472616e736665722066726f6d20696e636f72726563742060008201527f6f776e6572000000000000000000000000000000000000000000000000000000602082015250565b60006133ff6025836128cd565b915061340a826133a3565b604082019050919050565b6000602082019050818103600083015261342e816133f2565b9050919050565b7f4552433732313a207472616e7366657220746f20746865207a65726f2061646460008201527f7265737300000000000000000000000000000000000000000000000000000000602082015250565b60006134916024836128cd565b915061349c82613435565b604082019050919050565b600060208201905081810360008301526134c081613484565b9050919050565b7f4f776e61626c653a2063616c6c6572206973206e6f7420746865206f776e6572600082015250565b60006134fd6020836128cd565b9150613508826134c7565b602082019050919050565b6000602082019050818103600083015261352c816134f0565b9050919050565b7f4552433732313a206d696e7420746f20746865207a65726f2061646472657373600082015250565b60006135696020836128cd565b915061357482613533565b602082019050919050565b600060208201905081810360008301526135988161355c565b9050919050565b7f4552433732313a20746f6b656e20616c7265616479206d696e74656400000000600082015250565b60006135d5601c836128cd565b91506135e08261359f565b602082019050919050565b60006020820190508181036000830152613604816135c8565b9050919050565b7f4552433732313a20617070726f766520746f2063616c6c657200000000000000600082015250565b60006136416019836128cd565b915061364c8261360b565b602082019050919050565b6000602082019050818103600083015261367081613634565b9050919050565b7f4552433732313a207472616e7366657220746f206e6f6e20455243373231526560008201527f63656976657220696d706c656d656e7465720000000000000000000000000000602082015250565b60006136d36032836128cd565b91506136de82613677565b604082019050919050565b60006020820190508181036000830152613702816136c6565b9050919050565b600081905092915050565b600061371f826128c2565b6137298185613709565b93506137398185602086016128de565b80840191505092915050565b60006137518285613714565b915061375d8284613714565b91508190509392505050565b7f45524337323155524953746f726167653a2055524920736574206f66206e6f6e60008201527f6578697374656e7420746f6b656e000000000000000000000000000000000000602082015250565b60006137c5602e836128cd565b91506137d082613769565b604082019050919050565b600060208201905081810360008301526137f4816137b8565b9050919050565b60008190508160005260206000209050919050565b60006020601f8301049050919050565b600082821b905092915050565b60006008830261385d7fffffffffffffffffffffffffffffffffffffffffffffffffffffffffffffffff82613820565b6138678683613820565b95508019841693508086168417925050509392505050565b6000819050919050565b60006138a461389f61389a84612974565b61387f565b612974565b9050919050565b6000819050919050565b6138be83613889565b6138d26138ca826138ab565b84845461382d565b825550505050565b600090565b6138e76138da565b6138f28184846138b5565b505050565b5b818110156139165761390b6000826138df565b6001810190506138f8565b5050565b601f82111561395b5761392c816137fb565b61393584613810565b81016020851015613944578190505b61395861395085613810565b8301826138f7565b50505b505050565b600082821c905092915050565b600061397e60001984600802613960565b1980831691505092915050565b6000613997838361396d565b9150826002028217905092915050565b6139b0826128c2565b67ffffffffffffffff8111156139c9576139c8612bbf565b5b6139d38254612ed9565b6139de82828561391a565b600060209050601f831160018114613a1157600084156139ff578287015190505b613a09858261398b565b865550613a71565b601f198416613a1f866137fb565b60005b82811015613a4757848901518255600182019150602085019450602081019050613a22565b86831015613a645784890151613a60601f89168261396d565b8355505b6001600288020188555050505b505050505050565b7f5061757361626c653a206e6f7420706175736564000000000000000000000000600082015250565b6000613aaf6014836128cd565b9150613aba82613a79565b602082019050919050565b60006020820190508181036000830152613ade81613aa2565b9050919050565b7f5061757361626c653a2070617573656400000000000000000000000000000000600082015250565b6000613b1b6010836128cd565b9150613b2682613ae5565b602082019050919050565b60006020820190508181036000830152613b4a81613b0e565b9050919050565b600081519050919050565b600082825260208201905092915050565b6000613b7882613b51565b613b828185613b5c565b9350613b928185602086016128de565b613b9b81612908565b840191505092915050565b6000608082019050613bbb6000830187612a09565b613bc86020830186612a09565b613bd56040830185612a9f565b8181036060830152613be78184613b6d565b905095945050505050565b600081519050613c0181612833565b92915050565b600060208284031215613c1d57613c1c6127fd565b5b6000613c2b84828501613bf2565b91505092915050565b7f455243373231456e756d657261626c653a20636f6e736563757469766520747260008201527f616e7366657273206e6f7420737570706f727465640000000000000000000000602082015250565b6000613c906035836128cd565b9150613c9b82613c34565b604082019050919050565b60006020820190508181036000830152613cbf81613c83565b9050919050565b7f4e487b7100000000000000000000000000000000000000000000000000000000600052601260045260246000fd5b7f4e487b7100000000000000000000000000000000000000000000000000000000600052601160045260246000fd5b6000613d2f82612974565b9150613d3a83612974565b9250828203905081811115613d5257613d51613cf5565b5b92915050565b7f4e487b7100000000000000000000000000000000000000000000000000000000600052603160045260246000fdfe697066733a2f2f516d65536a53696e4870506e6d586d73704d6a776958794e367a533445397a63636172694752336a7863615774712fa26469706673582212204e1f23e383e5be11c23b071a199dc62da9fe0071a3857742ea17b525f5f23d8864736f6c63430008130033",
  "immutableReferences": {},
  "source": "// SPDX-License-Identifier: MIT\npragma solidity ^0.8.9;\n\nimport \"./openzeppelin-contracts-master/contracts/token/ERC721/ERC721.sol\";\nimport \"./openzeppelin-contracts-master/contracts/token/ERC721/extensions/ERC721Enumerable.sol\";\nimport \"./openzeppelin-contracts-master/contracts/token/ERC721/extensions/ERC721URIStorage.sol\";\nimport \"./openzeppelin-contracts-master/contracts/security/Pausable.sol\";\nimport \"./openzeppelin-contracts-master/contracts/access/Ownable.sol\";\nimport \"./openzeppelin-contracts-master/contracts/token/ERC721/extensions/ERC721Burnable.sol\";\nimport \"./openzeppelin-contracts-master/contracts/utils/Counters.sol\";\n\ncontract PfpContract is ERC721, ERC721Enumerable, ERC721URIStorage, Pausable, Ownable, ERC721Burnable {\n    using Counters for Counters.Counter;\n    Counters.Counter private _tokenIdCounter;\n\n    constructor() ERC721(\"MyToken\", \"MTK\") {}\n\n    function _baseURI() internal pure override returns (string memory) {\n        return \"ipfs://QmeSjSinHpPnmXmspMjwiXyN6zS4E9zccariGR3jxcaWtq/\";\n    }\n\n    function pause() public onlyOwner {\n        _pause();\n    }\n\n    function unpause() public onlyOwner {\n        _unpause();\n    }\n\n    function safeMint(address to, string memory uri) public onlyOwner {\n        uint256 tokenId = _tokenIdCounter.current();\n        _tokenIdCounter.increment();\n        _safeMint(to, tokenId);\n        _setTokenURI(tokenId, uri);\n    }\n\n    function mint(address to) public onlyOwner {\n        uint256 tokenId = _tokenIdCounter.current();\n        _tokenIdCounter.increment();\n        _mint(to, tokenId);\n    }\n\n    function _beforeTokenTransfer(address from, address to, uint256 tokenId, uint256 batchSize)\n        internal\n        whenNotPaused\n        override(ERC721, ERC721Enumerable)\n    {\n        super._beforeTokenTransfer(from, to, tokenId, batchSize);\n    }\n\n    // The following functions are overrides required by Solidity.\n    function _burn(uint256 tokenId) internal override(ERC721, ERC721URIStorage) {\n        super._burn(tokenId);\n    }\n\n    function tokenURI(uint256 tokenId)\n        public\n        view\n        override(ERC721, ERC721URIStorage)\n        returns (string memory)\n    {\n        return super.tokenURI(tokenId);\n    }\n\n    function supportsInterface(bytes4 interfaceId)\n        public\n        view\n        override(ERC721, ERC721Enumerable, ERC721URIStorage)\n        returns (bool)\n    {\n        return super.supportsInterface(interfaceId);\n    }\n}\n",
  "sourcePath": "/Users/urieltan/gitclones/ft5004/nft-project/contracts/PfpContract.sol",
  "compiler": {
    "name": "solc",
    "version": "0.8.19+commit.7dd6d404.Emscripten.clang"
  },
  "schemaVersion": "3.4.13",
  "updatedAt": "2023-04-21T19:23:46.716Z",
  "devdoc": {
    "events": {
      "Approval(address,address,uint256)": {
        "details": "Emitted when `owner` enables `approved` to manage the `tokenId` token."
      },
      "ApprovalForAll(address,address,bool)": {
        "details": "Emitted when `owner` enables or disables (`approved`) `operator` to manage all of its assets."
      },
      "BatchMetadataUpdate(uint256,uint256)": {
        "details": "This event emits when the metadata of a range of tokens is changed. So that the third-party platforms such as NFT market could timely update the images and related attributes of the NFTs."
      },
      "MetadataUpdate(uint256)": {
        "details": "This event emits when the metadata of a token is changed. So that the third-party platforms such as NFT market could timely update the images and related attributes of the NFT."
      },
      "Paused(address)": {
        "details": "Emitted when the pause is triggered by `account`."
      },
      "Transfer(address,address,uint256)": {
        "details": "Emitted when `tokenId` token is transferred from `from` to `to`."
      },
      "Unpaused(address)": {
        "details": "Emitted when the pause is lifted by `account`."
      }
    },
    "kind": "dev",
    "methods": {
      "approve(address,uint256)": {
        "details": "See {IERC721-approve}."
      },
      "balanceOf(address)": {
        "details": "See {IERC721-balanceOf}."
      },
      "burn(uint256)": {
        "details": "Burns `tokenId`. See {ERC721-_burn}. Requirements: - The caller must own `tokenId` or be an approved operator."
      },
      "getApproved(uint256)": {
        "details": "See {IERC721-getApproved}."
      },
      "isApprovedForAll(address,address)": {
        "details": "See {IERC721-isApprovedForAll}."
      },
      "name()": {
        "details": "See {IERC721Metadata-name}."
      },
      "owner()": {
        "details": "Returns the address of the current owner."
      },
      "ownerOf(uint256)": {
        "details": "See {IERC721-ownerOf}."
      },
      "paused()": {
        "details": "Returns true if the contract is paused, and false otherwise."
      },
      "renounceOwnership()": {
        "details": "Leaves the contract without owner. It will not be possible to call `onlyOwner` functions. Can only be called by the current owner. NOTE: Renouncing ownership will leave the contract without an owner, thereby disabling any functionality that is only available to the owner."
      },
      "safeTransferFrom(address,address,uint256)": {
        "details": "See {IERC721-safeTransferFrom}."
      },
      "safeTransferFrom(address,address,uint256,bytes)": {
        "details": "See {IERC721-safeTransferFrom}."
      },
      "setApprovalForAll(address,bool)": {
        "details": "See {IERC721-setApprovalForAll}."
      },
      "symbol()": {
        "details": "See {IERC721Metadata-symbol}."
      },
      "tokenByIndex(uint256)": {
        "details": "See {IERC721Enumerable-tokenByIndex}."
      },
      "tokenOfOwnerByIndex(address,uint256)": {
        "details": "See {IERC721Enumerable-tokenOfOwnerByIndex}."
      },
      "totalSupply()": {
        "details": "See {IERC721Enumerable-totalSupply}."
      },
      "transferFrom(address,address,uint256)": {
        "details": "See {IERC721-transferFrom}."
      },
      "transferOwnership(address)": {
        "details": "Transfers ownership of the contract to a new account (`newOwner`). Can only be called by the current owner."
      }
    },
    "version": 1
  },
  "userdoc": {
    "kind": "user",
    "methods": {},
    "version": 1
  }
}