{
  "contractName": "ReentrancyAttack",
  "abi": [
    {
      "inputs": [
        {
          "internalType": "bytes4",
          "name": "data",
          "type": "bytes4"
        }
      ],
      "name": "callSender",
      "outputs": [],
      "stateMutability": "nonpayable",
      "type": "function"
    }
  ],
  "bytecode": "0x608060405234801561001057600080fd5b50610334806100206000396000f3fe608060405234801561001057600080fd5b506004361061002b5760003560e01c80630a2df1ed14610030575b600080fd5b61004a600480360381019061004591906101cc565b61004c565b005b6000610056610167565b73ffffffffffffffffffffffffffffffffffffffff1682604051602401604051602081830303815290604052907bffffffffffffffffffffffffffffffffffffffffffffffffffffffff19166020820180517bffffffffffffffffffffffffffffffffffffffffffffffffffffffff83818316178352505050506040516100dd919061026a565b6000604051808303816000865af19150503d806000811461011a576040519150601f19603f3d011682016040523d82523d6000602084013e61011f565b606091505b5050905080610163576040517f08c379a000000000000000000000000000000000000000000000000000000000815260040161015a906102de565b60405180910390fd5b5050565b600033905090565b600080fd5b60007fffffffff0000000000000000000000000000000000000000000000000000000082169050919050565b6101a981610174565b81146101b457600080fd5b50565b6000813590506101c6816101a0565b92915050565b6000602082840312156101e2576101e161016f565b5b60006101f0848285016101b7565b91505092915050565b600081519050919050565b600081905092915050565b60005b8381101561022d578082015181840152602081019050610212565b60008484015250505050565b6000610244826101f9565b61024e8185610204565b935061025e81856020860161020f565b80840191505092915050565b60006102768284610239565b915081905092915050565b600082825260208201905092915050565b7f5265656e7472616e637941747461636b3a206661696c65642063616c6c000000600082015250565b60006102c8601d83610281565b91506102d382610292565b602082019050919050565b600060208201905081810360008301526102f7816102bb565b905091905056fea2646970667358221220a7551b6c01ff6107fbb44f1896a8c7477aea167b4d7300002d6c02f37355512f64736f6c63430008130033",
  "immutableReferences": {},
  "source": "// SPDX-License-Identifier: MIT\n\npragma solidity ^0.8.0;\n\nimport \"../utils/Context.sol\";\n\ncontract ReentrancyAttack is Context {\n    function callSender(bytes4 data) public {\n        (bool success, ) = _msgSender().call(abi.encodeWithSelector(data));\n        require(success, \"ReentrancyAttack: failed call\");\n    }\n}\n",
  "sourcePath": "/Users/urieltan/gitclones/ft5004/nft-project/contracts/openzeppelin-contracts-master/contracts/mocks/ReentrancyAttack.sol",
  "compiler": {
    "name": "solc",
    "version": "0.8.19+commit.7dd6d404.Emscripten.clang"
  },
  "schemaVersion": "3.4.13",
  "updatedAt": "2023-04-18T20:14:33.669Z",
  "devdoc": {
    "kind": "dev",
    "methods": {},
    "version": 1
  },
  "userdoc": {
    "kind": "user",
    "methods": {},
    "version": 1
  }
}