{
  "contractName": "ReentrancyMock",
  "abi": [
    {
      "inputs": [],
      "stateMutability": "nonpayable",
      "type": "constructor"
    },
    {
      "inputs": [],
      "name": "counter",
      "outputs": [
        {
          "internalType": "uint256",
          "name": "",
          "type": "uint256"
        }
      ],
      "stateMutability": "view",
      "type": "function"
    },
    {
      "inputs": [],
      "name": "callback",
      "outputs": [],
      "stateMutability": "nonpayable",
      "type": "function"
    },
    {
      "inputs": [
        {
          "internalType": "uint256",
          "name": "n",
          "type": "uint256"
        }
      ],
      "name": "countLocalRecursive",
      "outputs": [],
      "stateMutability": "nonpayable",
      "type": "function"
    },
    {
      "inputs": [
        {
          "internalType": "uint256",
          "name": "n",
          "type": "uint256"
        }
      ],
      "name": "countThisRecursive",
      "outputs": [],
      "stateMutability": "nonpayable",
      "type": "function"
    },
    {
      "inputs": [
        {
          "internalType": "contract ReentrancyAttack",
          "name": "attacker",
          "type": "address"
        }
      ],
      "name": "countAndCall",
      "outputs": [],
      "stateMutability": "nonpayable",
      "type": "function"
    },
    {
      "inputs": [],
      "name": "guardedCheckEntered",
      "outputs": [],
      "stateMutability": "nonpayable",
      "type": "function"
    },
    {
      "inputs": [],
      "name": "unguardedCheckNotEntered",
      "outputs": [],
      "stateMutability": "view",
      "type": "function"
    }
  ],
  "bytecode": "0x608060405234801561001057600080fd5b50600160008190555060006001819055506107ff806100306000396000f3fe608060405234801561001057600080fd5b506004361061007d5760003560e01c806396ffa6901161005b57806396ffa690146100c6578063a408f312146100e2578063b672ad8b146100ec578063cecc95a7146101085761007d565b8063083b27321461008257806361bc221a1461008c5780638c5344fa146100aa575b600080fd5b61008a610112565b005b61009461012c565b6040516100a19190610455565b60405180910390f35b6100c460048036038101906100bf91906104a1565b610132565b005b6100e060048036038101906100db91906104a1565b61029e565b005b6100ea6102d8565b005b6101066004803603810190610101919061053e565b6102fb565b005b6101106103a7565b005b61011a6103bb565b61012261040a565b61012a610425565b565b60015481565b61013a6103bb565b60008111156102935761014b61040a565b60003073ffffffffffffffffffffffffffffffffffffffff16600183610171919061059a565b6040516024016101819190610455565b6040516020818303038152906040527f8c5344fa000000000000000000000000000000000000000000000000000000007bffffffffffffffffffffffffffffffffffffffffffffffffffffffff19166020820180517bffffffffffffffffffffffffffffffffffffffffffffffffffffffff838183161783525050505060405161020b919061063f565b6000604051808303816000865af19150503d8060008114610248576040519150601f19603f3d011682016040523d82523d6000602084013e61024d565b606091505b5050905080610291576040517f08c379a0000000000000000000000000000000000000000000000000000000008152600401610288906106b3565b60405180910390fd5b505b61029b610425565b50565b6102a66103bb565b60008111156102cd576102b761040a565b6102cc6001826102c7919061059a565b61029e565b5b6102d5610425565b50565b6102e06103bb565b6102e861042f565b6102f157600080fd5b6102f9610425565b565b6103036103bb565b61030b61040a565b60007f083b2732f78169bfaad6b407fa338cc97d697ed69d3915a18239cc111d51a40290508173ffffffffffffffffffffffffffffffffffffffff16630a2df1ed826040518263ffffffff1660e01b8152600401610369919061070e565b600060405180830381600087803b15801561038357600080fd5b505af1158015610397573d6000803e3d6000fd5b50505050506103a4610425565b50565b6103af61042f565b156103b957600080fd5b565b600260005403610400576040517f08c379a00000000000000000000000000000000000000000000000000000000081526004016103f790610775565b60405180910390fd5b6002600081905550565b600180600082825461041c9190610795565b92505081905550565b6001600081905550565b6000600260005414905090565b6000819050919050565b61044f8161043c565b82525050565b600060208201905061046a6000830184610446565b92915050565b600080fd5b61047e8161043c565b811461048957600080fd5b50565b60008135905061049b81610475565b92915050565b6000602082840312156104b7576104b6610470565b5b60006104c58482850161048c565b91505092915050565b600073ffffffffffffffffffffffffffffffffffffffff82169050919050565b60006104f9826104ce565b9050919050565b600061050b826104ee565b9050919050565b61051b81610500565b811461052657600080fd5b50565b60008135905061053881610512565b92915050565b60006020828403121561055457610553610470565b5b600061056284828501610529565b91505092915050565b7f4e487b7100000000000000000000000000000000000000000000000000000000600052601160045260246000fd5b60006105a58261043c565b91506105b08361043c565b92508282039050818111156105c8576105c761056b565b5b92915050565b600081519050919050565b600081905092915050565b60005b838110156106025780820151818401526020810190506105e7565b60008484015250505050565b6000610619826105ce565b61062381856105d9565b93506106338185602086016105e4565b80840191505092915050565b600061064b828461060e565b915081905092915050565b600082825260208201905092915050565b7f5265656e7472616e63794d6f636b3a206661696c65642063616c6c0000000000600082015250565b600061069d601b83610656565b91506106a882610667565b602082019050919050565b600060208201905081810360008301526106cc81610690565b9050919050565b60007fffffffff0000000000000000000000000000000000000000000000000000000082169050919050565b610708816106d3565b82525050565b600060208201905061072360008301846106ff565b92915050565b7f5265656e7472616e637947756172643a207265656e7472616e742063616c6c00600082015250565b600061075f601f83610656565b915061076a82610729565b602082019050919050565b6000602082019050818103600083015261078e81610752565b9050919050565b60006107a08261043c565b91506107ab8361043c565b92508282019050808211156107c3576107c261056b565b5b9291505056fea2646970667358221220843a030b5a6bab7bcee764ea53c97b49dccb7c04fdbe061355d8b70d45343b5364736f6c63430008130033",
  "immutableReferences": {},
  "source": "// SPDX-License-Identifier: MIT\n\npragma solidity ^0.8.0;\n\nimport \"../security/ReentrancyGuard.sol\";\nimport \"./ReentrancyAttack.sol\";\n\ncontract ReentrancyMock is ReentrancyGuard {\n    uint256 public counter;\n\n    constructor() {\n        counter = 0;\n    }\n\n    function callback() external nonReentrant {\n        _count();\n    }\n\n    function countLocalRecursive(uint256 n) public nonReentrant {\n        if (n > 0) {\n            _count();\n            countLocalRecursive(n - 1);\n        }\n    }\n\n    function countThisRecursive(uint256 n) public nonReentrant {\n        if (n > 0) {\n            _count();\n            (bool success, ) = address(this).call(abi.encodeWithSignature(\"countThisRecursive(uint256)\", n - 1));\n            require(success, \"ReentrancyMock: failed call\");\n        }\n    }\n\n    function countAndCall(ReentrancyAttack attacker) public nonReentrant {\n        _count();\n        bytes4 func = bytes4(keccak256(\"callback()\"));\n        attacker.callSender(func);\n    }\n\n    function _count() private {\n        counter += 1;\n    }\n\n    function guardedCheckEntered() public nonReentrant {\n        require(_reentrancyGuardEntered());\n    }\n\n    function unguardedCheckNotEntered() public view {\n        require(!_reentrancyGuardEntered());\n    }\n}\n",
  "sourcePath": "/Users/urieltan/gitclones/ft5004/nft-project/contracts/openzeppelin-contracts-master/contracts/mocks/ReentrancyMock.sol",
  "compiler": {
    "name": "solc",
    "version": "0.8.19+commit.7dd6d404.Emscripten.clang"
  },
  "schemaVersion": "3.4.13",
  "updatedAt": "2023-04-18T20:14:33.669Z",
  "devdoc": {
    "kind": "dev",
    "methods": {},
    "version": 1
  },
  "userdoc": {
    "kind": "user",
    "methods": {},
    "version": 1
  }
}