{
  "contractName": "ReinitializerMock",
  "abi": [
    {
      "anonymous": false,
      "inputs": [
        {
          "indexed": false,
          "internalType": "uint8",
          "name": "version",
          "type": "uint8"
        }
      ],
      "name": "Initialized",
      "type": "event"
    },
    {
      "inputs": [],
      "name": "counter",
      "outputs": [
        {
          "internalType": "uint256",
          "name": "",
          "type": "uint256"
        }
      ],
      "stateMutability": "view",
      "type": "function"
    },
    {
      "inputs": [],
      "name": "getInitializedVersion",
      "outputs": [
        {
          "internalType": "uint8",
          "name": "",
          "type": "uint8"
        }
      ],
      "stateMutability": "view",
      "type": "function"
    },
    {
      "inputs": [],
      "name": "initialize",
      "outputs": [],
      "stateMutability": "nonpayable",
      "type": "function"
    },
    {
      "inputs": [
        {
          "internalType": "uint8",
          "name": "i",
          "type": "uint8"
        }
      ],
      "name": "reinitialize",
      "outputs": [],
      "stateMutability": "nonpayable",
      "type": "function"
    },
    {
      "inputs": [
        {
          "internalType": "uint8",
          "name": "i",
          "type": "uint8"
        },
        {
          "internalType": "uint8",
          "name": "j",
          "type": "uint8"
        }
      ],
      "name": "nestedReinitialize",
      "outputs": [],
      "stateMutability": "nonpayable",
      "type": "function"
    },
    {
      "inputs": [
        {
          "internalType": "uint8",
          "name": "i",
          "type": "uint8"
        },
        {
          "internalType": "uint8",
          "name": "j",
          "type": "uint8"
        }
      ],
      "name": "chainReinitialize",
      "outputs": [],
      "stateMutability": "nonpayable",
      "type": "function"
    },
    {
      "inputs": [],
      "name": "disableInitializers",
      "outputs": [],
      "stateMutability": "nonpayable",
      "type": "function"
    },
    {
      "inputs": [],
      "name": "doStuff",
      "outputs": [],
      "stateMutability": "nonpayable",
      "type": "function"
    }
  ],
  "bytecode": "0x608060405234801561001057600080fd5b506109f1806100206000396000f3fe608060405234801561001057600080fd5b50600436106100885760003560e01c80638129fc1c1161005b5780638129fc1c146100ed578063874f33a1146100f7578063b3c6501514610101578063f8d6cdba1461011f57610088565b8063073de42e1461008d57806331f44900146100a957806361bc221a146100b35780636b2d8f8f146100d1575b600080fd5b6100a760048036038101906100a29190610652565b61013b565b005b6100b161023c565b005b6100bb610246565b6040516100c89190610698565b60405180910390f35b6100eb60048036038101906100e691906106b3565b61024c565b005b6100f5610262565b005b6100ff6103a0565b005b610109610409565b6040516101169190610702565b60405180910390f35b610139600480360381019061013491906106b3565b610418565b005b80600060019054906101000a900460ff1615801561016b57508060ff1660008054906101000a900460ff1660ff16105b6101aa576040517f08c379a00000000000000000000000000000000000000000000000000000000081526004016101a1906107a0565b60405180910390fd5b806000806101000a81548160ff021916908360ff1602179055506001600060016101000a81548160ff0219169083151502179055506101e76103a0565b60008060016101000a81548160ff0219169083151502179055507f7f26b83ff96e1f2b6a682f133852f6798a09c465da95921460cefb3847402498816040516102309190610702565b60405180910390a15050565b61024461051b565b565b60015481565b6102558261013b565b61025e8161013b565b5050565b60008060019054906101000a900460ff161590508080156102935750600160008054906101000a900460ff1660ff16105b806102c057506102a2306105db565b1580156102bf5750600160008054906101000a900460ff1660ff16145b5b6102ff576040517f08c379a00000000000000000000000000000000000000000000000000000000081526004016102f6906107a0565b60405180910390fd5b60016000806101000a81548160ff021916908360ff160217905550801561033c576001600060016101000a81548160ff0219169083151502179055505b6103446103a0565b801561039d5760008060016101000a81548160ff0219169083151502179055507f7f26b83ff96e1f2b6a682f133852f6798a09c465da95921460cefb384740249860016040516103949190610805565b60405180910390a15b50565b600060019054906101000a900460ff166103ef576040517f08c379a00000000000000000000000000000000000000000000000000000000081526004016103e690610892565b60405180910390fd5b60016000815480929190610402906108e1565b9190505550565b60006104136105fe565b905090565b81600060019054906101000a900460ff1615801561044857508060ff1660008054906101000a900460ff1660ff16105b610487576040517f08c379a000000000000000000000000000000000000000000000000000000000815260040161047e906107a0565b60405180910390fd5b806000806101000a81548160ff021916908360ff1602179055506001600060016101000a81548160ff0219169083151502179055506104c58261013b565b60008060016101000a81548160ff0219169083151502179055507f7f26b83ff96e1f2b6a682f133852f6798a09c465da95921460cefb38474024988160405161050e9190610702565b60405180910390a1505050565b600060019054906101000a900460ff161561056b576040517f08c379a00000000000000000000000000000000000000000000000000000000081526004016105629061099b565b60405180910390fd5b60ff801660008054906101000a900460ff1660ff16146105d95760ff6000806101000a81548160ff021916908360ff1602179055507f7f26b83ff96e1f2b6a682f133852f6798a09c465da95921460cefb384740249860ff6040516105d09190610702565b60405180910390a15b565b6000808273ffffffffffffffffffffffffffffffffffffffff163b119050919050565b60008060009054906101000a900460ff16905090565b600080fd5b600060ff82169050919050565b61062f81610619565b811461063a57600080fd5b50565b60008135905061064c81610626565b92915050565b60006020828403121561066857610667610614565b5b60006106768482850161063d565b91505092915050565b6000819050919050565b6106928161067f565b82525050565b60006020820190506106ad6000830184610689565b92915050565b600080604083850312156106ca576106c9610614565b5b60006106d88582860161063d565b92505060206106e98582860161063d565b9150509250929050565b6106fc81610619565b82525050565b600060208201905061071760008301846106f3565b92915050565b600082825260208201905092915050565b7f496e697469616c697a61626c653a20636f6e747261637420697320616c72656160008201527f647920696e697469616c697a6564000000000000000000000000000000000000602082015250565b600061078a602e8361071d565b91506107958261072e565b604082019050919050565b600060208201905081810360008301526107b98161077d565b9050919050565b6000819050919050565b6000819050919050565b60006107ef6107ea6107e5846107c0565b6107ca565b610619565b9050919050565b6107ff816107d4565b82525050565b600060208201905061081a60008301846107f6565b92915050565b7f496e697469616c697a61626c653a20636f6e7472616374206973206e6f74206960008201527f6e697469616c697a696e67000000000000000000000000000000000000000000602082015250565b600061087c602b8361071d565b915061088782610820565b604082019050919050565b600060208201905081810360008301526108ab8161086f565b9050919050565b7f4e487b7100000000000000000000000000000000000000000000000000000000600052601160045260246000fd5b60006108ec8261067f565b91507fffffffffffffffffffffffffffffffffffffffffffffffffffffffffffffffff820361091e5761091d6108b2565b5b600182019050919050565b7f496e697469616c697a61626c653a20636f6e747261637420697320696e69746960008201527f616c697a696e6700000000000000000000000000000000000000000000000000602082015250565b600061098560278361071d565b915061099082610929565b604082019050919050565b600060208201905081810360008301526109b481610978565b905091905056fea264697066735822122085ba2469ac84c6e4a29a09d85a0bbb0262f4b80aa53601b6cf13c188c07395e964736f6c63430008130033",
  "immutableReferences": {},
  "source": "// SPDX-License-Identifier: MIT\n\npragma solidity ^0.8.0;\n\nimport \"../proxy/utils/Initializable.sol\";\n\n/**\n * @title InitializableMock\n * @dev This contract is a mock to test initializable functionality\n */\ncontract InitializableMock is Initializable {\n    bool public initializerRan;\n    bool public onlyInitializingRan;\n    uint256 public x;\n\n    function isInitializing() public view returns (bool) {\n        return _isInitializing();\n    }\n\n    function initialize() public initializer {\n        initializerRan = true;\n    }\n\n    function initializeOnlyInitializing() public onlyInitializing {\n        onlyInitializingRan = true;\n    }\n\n    function initializerNested() public initializer {\n        initialize();\n    }\n\n    function onlyInitializingNested() public initializer {\n        initializeOnlyInitializing();\n    }\n\n    function initializeWithX(uint256 _x) public payable initializer {\n        x = _x;\n    }\n\n    function nonInitializable(uint256 _x) public payable {\n        x = _x;\n    }\n\n    function fail() public pure {\n        require(false, \"InitializableMock forced failure\");\n    }\n}\n\ncontract ConstructorInitializableMock is Initializable {\n    bool public initializerRan;\n    bool public onlyInitializingRan;\n\n    constructor() initializer {\n        initialize();\n        initializeOnlyInitializing();\n    }\n\n    function initialize() public initializer {\n        initializerRan = true;\n    }\n\n    function initializeOnlyInitializing() public onlyInitializing {\n        onlyInitializingRan = true;\n    }\n}\n\ncontract ChildConstructorInitializableMock is ConstructorInitializableMock {\n    bool public childInitializerRan;\n\n    constructor() initializer {\n        childInitialize();\n    }\n\n    function childInitialize() public initializer {\n        childInitializerRan = true;\n    }\n}\n\ncontract ReinitializerMock is Initializable {\n    uint256 public counter;\n\n    function getInitializedVersion() public view returns (uint8) {\n        return _getInitializedVersion();\n    }\n\n    function initialize() public initializer {\n        doStuff();\n    }\n\n    function reinitialize(uint8 i) public reinitializer(i) {\n        doStuff();\n    }\n\n    function nestedReinitialize(uint8 i, uint8 j) public reinitializer(i) {\n        reinitialize(j);\n    }\n\n    function chainReinitialize(uint8 i, uint8 j) public {\n        reinitialize(i);\n        reinitialize(j);\n    }\n\n    function disableInitializers() public {\n        _disableInitializers();\n    }\n\n    function doStuff() public onlyInitializing {\n        counter++;\n    }\n}\n\ncontract DisableNew is Initializable {\n    constructor() {\n        _disableInitializers();\n    }\n}\n\ncontract DisableOld is Initializable {\n    constructor() initializer {}\n}\n\ncontract DisableBad1 is DisableNew, DisableOld {}\n\ncontract DisableBad2 is Initializable {\n    constructor() initializer {\n        _disableInitializers();\n    }\n}\n\ncontract DisableOk is DisableOld, DisableNew {}\n",
  "sourcePath": "/Users/urieltan/gitclones/ft5004/nft-project/contracts/openzeppelin-contracts-master/contracts/mocks/InitializableMock.sol",
  "compiler": {
    "name": "solc",
    "version": "0.8.19+commit.7dd6d404.Emscripten.clang"
  },
  "schemaVersion": "3.4.13",
  "updatedAt": "2023-04-18T20:14:33.655Z",
  "devdoc": {
    "events": {
      "Initialized(uint8)": {
        "details": "Triggered when the contract has been initialized or reinitialized."
      }
    },
    "kind": "dev",
    "methods": {},
    "version": 1
  },
  "userdoc": {
    "kind": "user",
    "methods": {},
    "version": 1
  }
}