{
  "contractName": "SampleGramps",
  "abi": [
    {
      "anonymous": false,
      "inputs": [
        {
          "indexed": false,
          "internalType": "uint8",
          "name": "version",
          "type": "uint8"
        }
      ],
      "name": "Initialized",
      "type": "event"
    },
    {
      "inputs": [],
      "name": "gramps",
      "outputs": [
        {
          "internalType": "string",
          "name": "",
          "type": "string"
        }
      ],
      "stateMutability": "view",
      "type": "function"
    },
    {
      "inputs": [],
      "name": "isHuman",
      "outputs": [
        {
          "internalType": "bool",
          "name": "",
          "type": "bool"
        }
      ],
      "stateMutability": "view",
      "type": "function"
    },
    {
      "inputs": [],
      "name": "initialize",
      "outputs": [],
      "stateMutability": "nonpayable",
      "type": "function"
    },
    {
      "inputs": [
        {
          "internalType": "string",
          "name": "value",
          "type": "string"
        }
      ],
      "name": "initialize",
      "outputs": [],
      "stateMutability": "nonpayable",
      "type": "function"
    }
  ],
  "bytecode": "0x608060405234801561001057600080fd5b50610c9e806100206000396000f3fe608060405234801561001057600080fd5b506004361061004c5760003560e01c80634a6c9db6146100515780638129fc1c1461006f578063f62d188814610079578063fa39851f14610095575b600080fd5b6100596100b3565b604051610066919061059a565b60405180910390f35b6100776100c6565b005b610093600480360381019061008e919061070f565b610204565b005b61009d610344565b6040516100aa91906107d7565b60405180910390f35b600060029054906101000a900460ff1681565b60008060019054906101000a900460ff161590508080156100f75750600160008054906101000a900460ff1660ff16105b806101245750610106306103d2565b1580156101235750600160008054906101000a900460ff1660ff16145b5b610163576040517f08c379a000000000000000000000000000000000000000000000000000000000815260040161015a9061086b565b60405180910390fd5b60016000806101000a81548160ff021916908360ff16021790555080156101a0576001600060016101000a81548160ff0219169083151502179055505b6101a86103f5565b80156102015760008060016101000a81548160ff0219169083151502179055507f7f26b83ff96e1f2b6a682f133852f6798a09c465da95921460cefb384740249860016040516101f891906108dd565b60405180910390a15b50565b60008060019054906101000a900460ff161590508080156102355750600160008054906101000a900460ff1660ff16105b806102625750610244306103d2565b1580156102615750600160008054906101000a900460ff1660ff16145b5b6102a1576040517f08c379a00000000000000000000000000000000000000000000000000000000081526004016102989061086b565b60405180910390fd5b60016000806101000a81548160ff021916908360ff16021790555080156102de576001600060016101000a81548160ff0219169083151502179055505b6102e78261044e565b80156103405760008060016101000a81548160ff0219169083151502179055507f7f26b83ff96e1f2b6a682f133852f6798a09c465da95921460cefb3847402498600160405161033791906108dd565b60405180910390a15b5050565b6001805461035190610927565b80601f016020809104026020016040519081016040528092919081815260200182805461037d90610927565b80156103ca5780601f1061039f576101008083540402835291602001916103ca565b820191906000526020600020905b8154815290600101906020018083116103ad57829003601f168201915b505050505081565b6000808273ffffffffffffffffffffffffffffffffffffffff163b119050919050565b600060019054906101000a900460ff16610444576040517f08c379a000000000000000000000000000000000000000000000000000000000815260040161043b906109ca565b60405180910390fd5b61044c6104b1565b565b600060019054906101000a900460ff1661049d576040517f08c379a0000000000000000000000000000000000000000000000000000000008152600401610494906109ca565b60405180910390fd5b6104a56103f5565b6104ae8161051d565b50565b600060019054906101000a900460ff16610500576040517f08c379a00000000000000000000000000000000000000000000000000000000081526004016104f7906109ca565b60405180910390fd5b6001600060026101000a81548160ff021916908315150217905550565b600060019054906101000a900460ff1661056c576040517f08c379a0000000000000000000000000000000000000000000000000000000008152600401610563906109ca565b60405180910390fd5b806001908161057b9190610b96565b5050565b60008115159050919050565b6105948161057f565b82525050565b60006020820190506105af600083018461058b565b92915050565b6000604051905090565b600080fd5b600080fd5b600080fd5b600080fd5b6000601f19601f8301169050919050565b7f4e487b7100000000000000000000000000000000000000000000000000000000600052604160045260246000fd5b61061c826105d3565b810181811067ffffffffffffffff8211171561063b5761063a6105e4565b5b80604052505050565b600061064e6105b5565b905061065a8282610613565b919050565b600067ffffffffffffffff82111561067a576106796105e4565b5b610683826105d3565b9050602081019050919050565b82818337600083830152505050565b60006106b26106ad8461065f565b610644565b9050828152602081018484840111156106ce576106cd6105ce565b5b6106d9848285610690565b509392505050565b600082601f8301126106f6576106f56105c9565b5b813561070684826020860161069f565b91505092915050565b600060208284031215610725576107246105bf565b5b600082013567ffffffffffffffff811115610743576107426105c4565b5b61074f848285016106e1565b91505092915050565b600081519050919050565b600082825260208201905092915050565b60005b83811015610792578082015181840152602081019050610777565b60008484015250505050565b60006107a982610758565b6107b38185610763565b93506107c3818560208601610774565b6107cc816105d3565b840191505092915050565b600060208201905081810360008301526107f1818461079e565b905092915050565b7f496e697469616c697a61626c653a20636f6e747261637420697320616c72656160008201527f647920696e697469616c697a6564000000000000000000000000000000000000602082015250565b6000610855602e83610763565b9150610860826107f9565b604082019050919050565b6000602082019050818103600083015261088481610848565b9050919050565b6000819050919050565b600060ff82169050919050565b6000819050919050565b60006108c76108c26108bd8461088b565b6108a2565b610895565b9050919050565b6108d7816108ac565b82525050565b60006020820190506108f260008301846108ce565b92915050565b7f4e487b7100000000000000000000000000000000000000000000000000000000600052602260045260246000fd5b6000600282049050600182168061093f57607f821691505b602082108103610952576109516108f8565b5b50919050565b7f496e697469616c697a61626c653a20636f6e7472616374206973206e6f74206960008201527f6e697469616c697a696e67000000000000000000000000000000000000000000602082015250565b60006109b4602b83610763565b91506109bf82610958565b604082019050919050565b600060208201905081810360008301526109e3816109a7565b9050919050565b60008190508160005260206000209050919050565b60006020601f8301049050919050565b600082821b905092915050565b600060088302610a4c7fffffffffffffffffffffffffffffffffffffffffffffffffffffffffffffffff82610a0f565b610a568683610a0f565b95508019841693508086168417925050509392505050565b6000819050919050565b6000610a93610a8e610a8984610a6e565b6108a2565b610a6e565b9050919050565b6000819050919050565b610aad83610a78565b610ac1610ab982610a9a565b848454610a1c565b825550505050565b600090565b610ad6610ac9565b610ae1818484610aa4565b505050565b5b81811015610b0557610afa600082610ace565b600181019050610ae7565b5050565b601f821115610b4a57610b1b816109ea565b610b24846109ff565b81016020851015610b33578190505b610b47610b3f856109ff565b830182610ae6565b50505b505050565b600082821c905092915050565b6000610b6d60001984600802610b4f565b1980831691505092915050565b6000610b868383610b5c565b9150826002028217905092915050565b610b9f82610758565b67ffffffffffffffff811115610bb857610bb76105e4565b5b610bc28254610927565b610bcd828285610b09565b600060209050601f831160018114610c005760008415610bee578287015190505b610bf88582610b7a565b865550610c60565b601f198416610c0e866109ea565b60005b82811015610c3657848901518255600182019150602085019450602081019050610c11565b86831015610c535784890151610c4f601f891682610b5c565b8355505b6001600288020188555050505b50505050505056fea2646970667358221220ad2182cd4d39cffd2832cd4b3cc79c2f10cb2da375046ab5c106bf7bcaafacfa64736f6c63430008130033",
  "immutableReferences": {},
  "source": "// SPDX-License-Identifier: MIT\n\npragma solidity ^0.8.0;\n\nimport \"../proxy/utils/Initializable.sol\";\n\n// Sample contracts showing upgradeability with multiple inheritance.\n// Child contract inherits from Father and Mother contracts, and Father extends from Gramps.\n//\n//         Human\n//       /       \\\n//      |       Gramps\n//      |         |\n//    Mother    Father\n//      |         |\n//      -- Child --\n\n/**\n * Sample base initializable contract that is a human\n */\ncontract SampleHuman is Initializable {\n    bool public isHuman;\n\n    function initialize() public initializer {\n        __SampleHuman_init();\n    }\n\n    // solhint-disable-next-line func-name-mixedcase\n    function __SampleHuman_init() internal onlyInitializing {\n        __SampleHuman_init_unchained();\n    }\n\n    // solhint-disable-next-line func-name-mixedcase\n    function __SampleHuman_init_unchained() internal onlyInitializing {\n        isHuman = true;\n    }\n}\n\n/**\n * Sample base initializable contract that defines a field mother\n */\ncontract SampleMother is Initializable, SampleHuman {\n    uint256 public mother;\n\n    function initialize(uint256 value) public initializer {\n        __SampleMother_init(value);\n    }\n\n    // solhint-disable-next-line func-name-mixedcase\n    function __SampleMother_init(uint256 value) internal onlyInitializing {\n        __SampleHuman_init();\n        __SampleMother_init_unchained(value);\n    }\n\n    // solhint-disable-next-line func-name-mixedcase\n    function __SampleMother_init_unchained(uint256 value) internal onlyInitializing {\n        mother = value;\n    }\n}\n\n/**\n * Sample base initializable contract that defines a field gramps\n */\ncontract SampleGramps is Initializable, SampleHuman {\n    string public gramps;\n\n    function initialize(string memory value) public initializer {\n        __SampleGramps_init(value);\n    }\n\n    // solhint-disable-next-line func-name-mixedcase\n    function __SampleGramps_init(string memory value) internal onlyInitializing {\n        __SampleHuman_init();\n        __SampleGramps_init_unchained(value);\n    }\n\n    // solhint-disable-next-line func-name-mixedcase\n    function __SampleGramps_init_unchained(string memory value) internal onlyInitializing {\n        gramps = value;\n    }\n}\n\n/**\n * Sample base initializable contract that defines a field father and extends from gramps\n */\ncontract SampleFather is Initializable, SampleGramps {\n    uint256 public father;\n\n    function initialize(string memory _gramps, uint256 _father) public initializer {\n        __SampleFather_init(_gramps, _father);\n    }\n\n    // solhint-disable-next-line func-name-mixedcase\n    function __SampleFather_init(string memory _gramps, uint256 _father) internal onlyInitializing {\n        __SampleGramps_init(_gramps);\n        __SampleFather_init_unchained(_father);\n    }\n\n    // solhint-disable-next-line func-name-mixedcase\n    function __SampleFather_init_unchained(uint256 _father) internal onlyInitializing {\n        father = _father;\n    }\n}\n\n/**\n * Child extends from mother, father (gramps)\n */\ncontract SampleChild is Initializable, SampleMother, SampleFather {\n    uint256 public child;\n\n    function initialize(uint256 _mother, string memory _gramps, uint256 _father, uint256 _child) public initializer {\n        __SampleChild_init(_mother, _gramps, _father, _child);\n    }\n\n    // solhint-disable-next-line func-name-mixedcase\n    function __SampleChild_init(\n        uint256 _mother,\n        string memory _gramps,\n        uint256 _father,\n        uint256 _child\n    ) internal onlyInitializing {\n        __SampleMother_init(_mother);\n        __SampleFather_init(_gramps, _father);\n        __SampleChild_init_unchained(_child);\n    }\n\n    // solhint-disable-next-line func-name-mixedcase\n    function __SampleChild_init_unchained(uint256 _child) internal onlyInitializing {\n        child = _child;\n    }\n}\n",
  "sourcePath": "/Users/urieltan/gitclones/ft5004/nft-project/contracts/openzeppelin-contracts-master/contracts/mocks/MultipleInheritanceInitializableMocks.sol",
  "compiler": {
    "name": "solc",
    "version": "0.8.19+commit.7dd6d404.Emscripten.clang"
  },
  "schemaVersion": "3.4.13",
  "updatedAt": "2023-04-18T20:14:33.663Z",
  "devdoc": {
    "events": {
      "Initialized(uint8)": {
        "details": "Triggered when the contract has been initialized or reinitialized."
      }
    },
    "kind": "dev",
    "methods": {},
    "version": 1
  },
  "userdoc": {
    "kind": "user",
    "methods": {},
    "notice": "Sample base initializable contract that defines a field gramps",
    "version": 1
  }
}