{
  "contractName": "UUPSUpgradeableLegacyMock",
  "abi": [
    {
      "anonymous": false,
      "inputs": [
        {
          "indexed": false,
          "internalType": "address",
          "name": "previousAdmin",
          "type": "address"
        },
        {
          "indexed": false,
          "internalType": "address",
          "name": "newAdmin",
          "type": "address"
        }
      ],
      "name": "AdminChanged",
      "type": "event"
    },
    {
      "anonymous": false,
      "inputs": [
        {
          "indexed": true,
          "internalType": "address",
          "name": "beacon",
          "type": "address"
        }
      ],
      "name": "BeaconUpgraded",
      "type": "event"
    },
    {
      "anonymous": false,
      "inputs": [
        {
          "indexed": true,
          "internalType": "address",
          "name": "implementation",
          "type": "address"
        }
      ],
      "name": "Upgraded",
      "type": "event"
    },
    {
      "inputs": [],
      "name": "current",
      "outputs": [
        {
          "internalType": "uint256",
          "name": "",
          "type": "uint256"
        }
      ],
      "stateMutability": "view",
      "type": "function"
    },
    {
      "inputs": [],
      "name": "increment",
      "outputs": [],
      "stateMutability": "nonpayable",
      "type": "function"
    },
    {
      "inputs": [],
      "name": "proxiableUUID",
      "outputs": [
        {
          "internalType": "bytes32",
          "name": "",
          "type": "bytes32"
        }
      ],
      "stateMutability": "view",
      "type": "function"
    },
    {
      "inputs": [
        {
          "internalType": "address",
          "name": "newImplementation",
          "type": "address"
        }
      ],
      "name": "upgradeTo",
      "outputs": [],
      "stateMutability": "nonpayable",
      "type": "function"
    },
    {
      "inputs": [
        {
          "internalType": "address",
          "name": "newImplementation",
          "type": "address"
        },
        {
          "internalType": "bytes",
          "name": "data",
          "type": "bytes"
        }
      ],
      "name": "upgradeToAndCall",
      "outputs": [],
      "stateMutability": "payable",
      "type": "function"
    }
  ],
  "bytecode": "0x60a06040523073ffffffffffffffffffffffffffffffffffffffff1660809073ffffffffffffffffffffffffffffffffffffffff1681525034801561004357600080fd5b50608051610e1261005f60003960006101330152610e126000f3fe60806040526004361061004a5760003560e01c80633659cfe61461004f5780634f1ef2861461007857806352d1902d146100945780639fa6a6e3146100bf578063d09de08a146100ea575b600080fd5b34801561005b57600080fd5b5061007660048036038101906100719190610833565b610101565b005b610092600480360381019061008d91906109a6565b61011f565b005b3480156100a057600080fd5b506100a961012f565b6040516100b69190610a1b565b60405180910390f35b3480156100cb57600080fd5b506100d46101e8565b6040516100e19190610a4f565b60405180910390f35b3480156100f657600080fd5b506100ff6101f9565b005b61011c81604051806020016040528060008152506000610205565b50565b61012b82826000610205565b5050565b60007f000000000000000000000000000000000000000000000000000000000000000073ffffffffffffffffffffffffffffffffffffffff163073ffffffffffffffffffffffffffffffffffffffff16146101bf576040517f08c379a00000000000000000000000000000000000000000000000000000000081526004016101b690610aed565b60405180910390fd5b7f360894a13ba1a3210667c828492db98dca3e2076cc3735a920a3ca505d382bbc60001b905090565b60006101f460006103d6565b905090565b61020360006103e4565b565b600061020f6103fa565b905061021a84610451565b6000835111806102275750815b1561023857610236848461050a565b505b60006102667f4910fdfa16fed3260ed0e7147f7cc6da11a60208b5b9406d12a635614ffd914360001b610537565b90508060000160009054906101000a900460ff166103cf5760018160000160006101000a81548160ff02191690831515021790555061033285836040516024016102b09190610b1c565b6040516020818303038152906040527f3659cfe6000000000000000000000000000000000000000000000000000000007bffffffffffffffffffffffffffffffffffffffffffffffffffffffff19166020820180517bffffffffffffffffffffffffffffffffffffffffffffffffffffffff838183161783525050505061050a565b5060008160000160006101000a81548160ff0219169083151502179055506103586103fa565b73ffffffffffffffffffffffffffffffffffffffff168273ffffffffffffffffffffffffffffffffffffffff16146103c5576040517f08c379a00000000000000000000000000000000000000000000000000000000081526004016103bc90610ba9565b60405180910390fd5b6103ce85610541565b5b5050505050565b600081600001549050919050565b6001816000016000828254019250508190555050565b60006104287f360894a13ba1a3210667c828492db98dca3e2076cc3735a920a3ca505d382bbc60001b610590565b60000160009054906101000a900473ffffffffffffffffffffffffffffffffffffffff16905090565b61045a8161059a565b610499576040517f08c379a000000000000000000000000000000000000000000000000000000000815260040161049090610c3b565b60405180910390fd5b806104c67f360894a13ba1a3210667c828492db98dca3e2076cc3735a920a3ca505d382bbc60001b610590565b60000160006101000a81548173ffffffffffffffffffffffffffffffffffffffff021916908373ffffffffffffffffffffffffffffffffffffffff16021790555050565b606061052f8383604051806060016040528060278152602001610db6602791396105bd565b905092915050565b6000819050919050565b61054a81610643565b8073ffffffffffffffffffffffffffffffffffffffff167fbc7cd75a20ee27fd9adebab32041f755214dbc6bffa90cc0225b39da2e5c2d3b60405160405180910390a250565b6000819050919050565b6000808273ffffffffffffffffffffffffffffffffffffffff163b119050919050565b60606000808573ffffffffffffffffffffffffffffffffffffffff16856040516105e79190610ccc565b600060405180830381855af49150503d8060008114610622576040519150601f19603f3d011682016040523d82523d6000602084013e610627565b606091505b5091509150610638868383876106fc565b925050509392505050565b61064c8161059a565b61068b576040517f08c379a000000000000000000000000000000000000000000000000000000000815260040161068290610c3b565b60405180910390fd5b806106b87f360894a13ba1a3210667c828492db98dca3e2076cc3735a920a3ca505d382bbc60001b610590565b60000160006101000a81548173ffffffffffffffffffffffffffffffffffffffff021916908373ffffffffffffffffffffffffffffffffffffffff16021790555050565b6060831561075e576000835103610756576107168561059a565b610755576040517f08c379a000000000000000000000000000000000000000000000000000000000815260040161074c90610d2f565b60405180910390fd5b5b829050610769565b6107688383610771565b5b949350505050565b6000825111156107845781518083602001fd5b806040517f08c379a00000000000000000000000000000000000000000000000000000000081526004016107b89190610d93565b60405180910390fd5b6000604051905090565b600080fd5b600080fd5b600073ffffffffffffffffffffffffffffffffffffffff82169050919050565b6000610800826107d5565b9050919050565b610810816107f5565b811461081b57600080fd5b50565b60008135905061082d81610807565b92915050565b600060208284031215610849576108486107cb565b5b60006108578482850161081e565b91505092915050565b600080fd5b600080fd5b6000601f19601f8301169050919050565b7f4e487b7100000000000000000000000000000000000000000000000000000000600052604160045260246000fd5b6108b38261086a565b810181811067ffffffffffffffff821117156108d2576108d161087b565b5b80604052505050565b60006108e56107c1565b90506108f182826108aa565b919050565b600067ffffffffffffffff8211156109115761091061087b565b5b61091a8261086a565b9050602081019050919050565b82818337600083830152505050565b6000610949610944846108f6565b6108db565b90508281526020810184848401111561096557610964610865565b5b610970848285610927565b509392505050565b600082601f83011261098d5761098c610860565b5b813561099d848260208601610936565b91505092915050565b600080604083850312156109bd576109bc6107cb565b5b60006109cb8582860161081e565b925050602083013567ffffffffffffffff8111156109ec576109eb6107d0565b5b6109f885828601610978565b9150509250929050565b6000819050919050565b610a1581610a02565b82525050565b6000602082019050610a306000830184610a0c565b92915050565b6000819050919050565b610a4981610a36565b82525050565b6000602082019050610a646000830184610a40565b92915050565b600082825260208201905092915050565b7f555550535570677261646561626c653a206d757374206e6f742062652063616c60008201527f6c6564207468726f7567682064656c656761746563616c6c0000000000000000602082015250565b6000610ad7603883610a6a565b9150610ae282610a7b565b604082019050919050565b60006020820190508181036000830152610b0681610aca565b9050919050565b610b16816107f5565b82525050565b6000602082019050610b316000830184610b0d565b92915050565b7f45524331393637557067726164653a207570677261646520627265616b73206660008201527f7572746865722075706772616465730000000000000000000000000000000000602082015250565b6000610b93602f83610a6a565b9150610b9e82610b37565b604082019050919050565b60006020820190508181036000830152610bc281610b86565b9050919050565b7f455243313936373a206e657720696d706c656d656e746174696f6e206973206e60008201527f6f74206120636f6e747261637400000000000000000000000000000000000000602082015250565b6000610c25602d83610a6a565b9150610c3082610bc9565b604082019050919050565b60006020820190508181036000830152610c5481610c18565b9050919050565b600081519050919050565b600081905092915050565b60005b83811015610c8f578082015181840152602081019050610c74565b60008484015250505050565b6000610ca682610c5b565b610cb08185610c66565b9350610cc0818560208601610c71565b80840191505092915050565b6000610cd88284610c9b565b915081905092915050565b7f416464726573733a2063616c6c20746f206e6f6e2d636f6e7472616374000000600082015250565b6000610d19601d83610a6a565b9150610d2482610ce3565b602082019050919050565b60006020820190508181036000830152610d4881610d0c565b9050919050565b600081519050919050565b6000610d6582610d4f565b610d6f8185610a6a565b9350610d7f818560208601610c71565b610d888161086a565b840191505092915050565b60006020820190508181036000830152610dad8184610d5a565b90509291505056fe416464726573733a206c6f772d6c6576656c2064656c65676174652063616c6c206661696c6564a2646970667358221220eeef401ea985f5e49f5da9feaf3a3d81745e84f93c12fe3cf36246e25e815e1464736f6c63430008130033",
  "immutableReferences": {
    "19174": [
      {
        "length": 32,
        "start": 307
      }
    ]
  },
  "source": "// SPDX-License-Identifier: MIT\n\npragma solidity ^0.8.0;\n\nimport \"./UUPSUpgradeableMock.sol\";\n\n// This contract implements the pre-4.5 UUPS upgrade function with a rollback test.\n// It's used to test that newer UUPS contracts are considered valid upgrades by older UUPS contracts.\ncontract UUPSUpgradeableLegacyMock is UUPSUpgradeableMock {\n    // Inlined from ERC1967Upgrade\n    bytes32 private constant _ROLLBACK_SLOT = 0x4910fdfa16fed3260ed0e7147f7cc6da11a60208b5b9406d12a635614ffd9143;\n\n    // ERC1967Upgrade._setImplementation is private so we reproduce it here.\n    // An extra underscore prevents a name clash error.\n    function __setImplementation(address newImplementation) private {\n        require(Address.isContract(newImplementation), \"ERC1967: new implementation is not a contract\");\n        StorageSlot.getAddressSlot(_IMPLEMENTATION_SLOT).value = newImplementation;\n    }\n\n    function _upgradeToAndCallSecureLegacyV1(address newImplementation, bytes memory data, bool forceCall) internal {\n        address oldImplementation = _getImplementation();\n\n        // Initial upgrade and setup call\n        __setImplementation(newImplementation);\n        if (data.length > 0 || forceCall) {\n            Address.functionDelegateCall(newImplementation, data);\n        }\n\n        // Perform rollback test if not already in progress\n        StorageSlot.BooleanSlot storage rollbackTesting = StorageSlot.getBooleanSlot(_ROLLBACK_SLOT);\n        if (!rollbackTesting.value) {\n            // Trigger rollback using upgradeTo from the new implementation\n            rollbackTesting.value = true;\n            Address.functionDelegateCall(\n                newImplementation,\n                abi.encodeWithSignature(\"upgradeTo(address)\", oldImplementation)\n            );\n            rollbackTesting.value = false;\n            // Check rollback was effective\n            require(oldImplementation == _getImplementation(), \"ERC1967Upgrade: upgrade breaks further upgrades\");\n            // Finally reset to the new implementation and log the upgrade\n            _upgradeTo(newImplementation);\n        }\n    }\n\n    // hooking into the old mechanism\n    function upgradeTo(address newImplementation) public override {\n        _upgradeToAndCallSecureLegacyV1(newImplementation, bytes(\"\"), false);\n    }\n\n    function upgradeToAndCall(address newImplementation, bytes memory data) public payable override {\n        _upgradeToAndCallSecureLegacyV1(newImplementation, data, false);\n    }\n}\n",
  "sourcePath": "/Users/urieltan/gitclones/ft5004/nft-project/contracts/openzeppelin-contracts-master/contracts/mocks/proxy/UUPSLegacy.sol",
  "compiler": {
    "name": "solc",
    "version": "0.8.19+commit.7dd6d404.Emscripten.clang"
  },
  "schemaVersion": "3.4.13",
  "updatedAt": "2023-04-18T20:14:33.710Z",
  "devdoc": {
    "events": {
      "AdminChanged(address,address)": {
        "details": "Emitted when the admin account has changed."
      },
      "BeaconUpgraded(address)": {
        "details": "Emitted when the beacon is changed."
      },
      "Upgraded(address)": {
        "details": "Emitted when the implementation is upgraded."
      }
    },
    "kind": "dev",
    "methods": {
      "proxiableUUID()": {
        "details": "Implementation of the ERC1822 {proxiableUUID} function. This returns the storage slot used by the implementation. It is used to validate the implementation's compatibility when performing an upgrade. IMPORTANT: A proxy pointing at a proxiable contract should not be considered proxiable itself, because this risks bricking a proxy that upgrades to it, by delegating to itself until out of gas. Thus it is critical that this function revert if invoked through a proxy. This is guaranteed by the `notDelegated` modifier."
      },
      "upgradeTo(address)": {
        "details": "Upgrade the implementation of the proxy to `newImplementation`. Calls {_authorizeUpgrade}. Emits an {Upgraded} event."
      },
      "upgradeToAndCall(address,bytes)": {
        "details": "Upgrade the implementation of the proxy to `newImplementation`, and subsequently execute the function call encoded in `data`. Calls {_authorizeUpgrade}. Emits an {Upgraded} event."
      }
    },
    "version": 1
  },
  "userdoc": {
    "kind": "user",
    "methods": {},
    "version": 1
  }
}